{
	"contracts/Content.sol": {
		"Content": {
			"abi": [
				{
					"constant": true,
					"inputs": [
						{
							"name": "",
							"type": "uint256"
						}
					],
					"name": "certList",
					"outputs": [
						{
							"name": "",
							"type": "bytes32"
						}
					],
					"payable": false,
					"stateMutability": "view",
					"type": "function"
				},
				{
					"constant": true,
					"inputs": [
						{
							"name": "",
							"type": "bytes32"
						}
					],
					"name": "certs",
					"outputs": [
						{
							"name": "recipient",
							"type": "address"
						},
						{
							"name": "confirmed",
							"type": "bool"
						}
					],
					"payable": false,
					"stateMutability": "view",
					"type": "function"
				},
				{
					"constant": true,
					"inputs": [
						{
							"name": "cert",
							"type": "bytes32"
						}
					],
					"name": "isCert",
					"outputs": [
						{
							"name": "isIndeed",
							"type": "bool"
						}
					],
					"payable": false,
					"stateMutability": "view",
					"type": "function"
				},
				{
					"constant": true,
					"inputs": [
						{
							"name": "cert",
							"type": "bytes32"
						},
						{
							"name": "user",
							"type": "address"
						}
					],
					"name": "isUserCert",
					"outputs": [
						{
							"name": "",
							"type": "bool"
						}
					],
					"payable": false,
					"stateMutability": "view",
					"type": "function"
				},
				{
					"constant": false,
					"inputs": [
						{
							"name": "cert",
							"type": "bytes32"
						},
						{
							"name": "recipient",
							"type": "address"
						}
					],
					"name": "createCert",
					"outputs": [],
					"payable": false,
					"stateMutability": "nonpayable",
					"type": "function"
				},
				{
					"constant": false,
					"inputs": [
						{
							"name": "cert",
							"type": "bytes32"
						}
					],
					"name": "confirmCert",
					"outputs": [],
					"payable": false,
					"stateMutability": "nonpayable",
					"type": "function"
				},
				{
					"anonymous": false,
					"inputs": [
						{
							"indexed": false,
							"name": "sender",
							"type": "address"
						},
						{
							"indexed": false,
							"name": "cert",
							"type": "bytes32"
						},
						{
							"indexed": false,
							"name": "recipient",
							"type": "address"
						}
					],
					"name": "LogNewCert",
					"type": "event"
				},
				{
					"anonymous": false,
					"inputs": [
						{
							"indexed": false,
							"name": "sender",
							"type": "address"
						},
						{
							"indexed": false,
							"name": "cert",
							"type": "bytes32"
						}
					],
					"name": "LogConfirmed",
					"type": "event"
				}
			],
			"devdoc": {
				"methods": {}
			},
			"evm": {
				"assembly": "    /* \"contracts/Content.sol\":26:1291  contract Content {\r... */\n  mstore(0x40, 0x80)\n  callvalue\n    /* \"--CODEGEN--\":8:17   */\n  dup1\n    /* \"--CODEGEN--\":5:7   */\n  iszero\n  tag_1\n  jumpi\n    /* \"--CODEGEN--\":30:31   */\n  0x0\n    /* \"--CODEGEN--\":27:28   */\n  dup1\n    /* \"--CODEGEN--\":20:32   */\n  revert\n    /* \"--CODEGEN--\":5:7   */\ntag_1:\n    /* \"contracts/Content.sol\":26:1291  contract Content {\r... */\n  pop\n  dataSize(sub_0)\n  dup1\n  dataOffset(sub_0)\n  0x0\n  codecopy\n  0x0\n  return\nstop\n\nsub_0: assembly {\n        /* \"contracts/Content.sol\":26:1291  contract Content {\r... */\n      mstore(0x40, 0x80)\n      jumpi(tag_1, lt(calldatasize, 0x4))\n      calldataload(0x0)\n      0x100000000000000000000000000000000000000000000000000000000\n      swap1\n      div\n      dup1\n      0x10c1266c\n      eq\n      tag_2\n      jumpi\n      dup1\n      0x4063d812\n      eq\n      tag_3\n      jumpi\n      dup1\n      0x532442d9\n      eq\n      tag_4\n      jumpi\n      dup1\n      0xa7eaa1ac\n      eq\n      tag_5\n      jumpi\n      dup1\n      0xb8230960\n      eq\n      tag_6\n      jumpi\n      dup1\n      0xf260f5cf\n      eq\n      tag_7\n      jumpi\n    tag_1:\n      0x0\n      dup1\n      revert\n        /* \"contracts/Content.sol\":177:202  bytes32[] public certList */\n    tag_2:\n      callvalue\n        /* \"--CODEGEN--\":8:17   */\n      dup1\n        /* \"--CODEGEN--\":5:7   */\n      iszero\n      tag_8\n      jumpi\n        /* \"--CODEGEN--\":30:31   */\n      0x0\n        /* \"--CODEGEN--\":27:28   */\n      dup1\n        /* \"--CODEGEN--\":20:32   */\n      revert\n        /* \"--CODEGEN--\":5:7   */\n    tag_8:\n        /* \"contracts/Content.sol\":177:202  bytes32[] public certList */\n      pop\n      tag_9\n      0x4\n      dup1\n      calldatasize\n      sub\n        /* \"--CODEGEN--\":13:15   */\n      0x20\n        /* \"--CODEGEN--\":8:11   */\n      dup2\n        /* \"--CODEGEN--\":5:16   */\n      lt\n        /* \"--CODEGEN--\":2:4   */\n      iszero\n      tag_10\n      jumpi\n        /* \"--CODEGEN--\":29:30   */\n      0x0\n        /* \"--CODEGEN--\":26:27   */\n      dup1\n        /* \"--CODEGEN--\":19:31   */\n      revert\n        /* \"--CODEGEN--\":2:4   */\n    tag_10:\n        /* \"contracts/Content.sol\":177:202  bytes32[] public certList */\n      dup2\n      add\n      swap1\n      dup1\n      dup1\n      calldataload\n      swap1\n      0x20\n      add\n      swap1\n      swap3\n      swap2\n      swap1\n      pop\n      pop\n      pop\n      tag_11\n      jump\t// in\n    tag_9:\n      mload(0x40)\n      dup1\n      dup3\n      dup2\n      mstore\n      0x20\n      add\n      swap2\n      pop\n      pop\n      mload(0x40)\n      dup1\n      swap2\n      sub\n      swap1\n      return\n        /* \"contracts/Content.sol\":133:170  mapping(bytes32 => Cert) public certs */\n    tag_3:\n      callvalue\n        /* \"--CODEGEN--\":8:17   */\n      dup1\n        /* \"--CODEGEN--\":5:7   */\n      iszero\n      tag_12\n      jumpi\n        /* \"--CODEGEN--\":30:31   */\n      0x0\n        /* \"--CODEGEN--\":27:28   */\n      dup1\n        /* \"--CODEGEN--\":20:32   */\n      revert\n        /* \"--CODEGEN--\":5:7   */\n    tag_12:\n        /* \"contracts/Content.sol\":133:170  mapping(bytes32 => Cert) public certs */\n      pop\n      tag_13\n      0x4\n      dup1\n      calldatasize\n      sub\n        /* \"--CODEGEN--\":13:15   */\n      0x20\n        /* \"--CODEGEN--\":8:11   */\n      dup2\n        /* \"--CODEGEN--\":5:16   */\n      lt\n        /* \"--CODEGEN--\":2:4   */\n      iszero\n      tag_14\n      jumpi\n        /* \"--CODEGEN--\":29:30   */\n      0x0\n        /* \"--CODEGEN--\":26:27   */\n      dup1\n        /* \"--CODEGEN--\":19:31   */\n      revert\n        /* \"--CODEGEN--\":2:4   */\n    tag_14:\n        /* \"contracts/Content.sol\":133:170  mapping(bytes32 => Cert) public certs */\n      dup2\n      add\n      swap1\n      dup1\n      dup1\n      calldataload\n      swap1\n      0x20\n      add\n      swap1\n      swap3\n      swap2\n      swap1\n      pop\n      pop\n      pop\n      tag_15\n      jump\t// in\n    tag_13:\n      mload(0x40)\n      dup1\n      dup4\n      0xffffffffffffffffffffffffffffffffffffffff\n      and\n      0xffffffffffffffffffffffffffffffffffffffff\n      and\n      dup2\n      mstore\n      0x20\n      add\n      dup3\n      iszero\n      iszero\n      iszero\n      iszero\n      dup2\n      mstore\n      0x20\n      add\n      swap3\n      pop\n      pop\n      pop\n      mload(0x40)\n      dup1\n      swap2\n      sub\n      swap1\n      return\n        /* \"contracts/Content.sol\":340:503  function isCert(bytes32 cert) public view returns(bool isIndeed) {\r... */\n    tag_4:\n      callvalue\n        /* \"--CODEGEN--\":8:17   */\n      dup1\n        /* \"--CODEGEN--\":5:7   */\n      iszero\n      tag_16\n      jumpi\n        /* \"--CODEGEN--\":30:31   */\n      0x0\n        /* \"--CODEGEN--\":27:28   */\n      dup1\n        /* \"--CODEGEN--\":20:32   */\n      revert\n        /* \"--CODEGEN--\":5:7   */\n    tag_16:\n        /* \"contracts/Content.sol\":340:503  function isCert(bytes32 cert) public view returns(bool isIndeed) {\r... */\n      pop\n      tag_17\n      0x4\n      dup1\n      calldatasize\n      sub\n        /* \"--CODEGEN--\":13:15   */\n      0x20\n        /* \"--CODEGEN--\":8:11   */\n      dup2\n        /* \"--CODEGEN--\":5:16   */\n      lt\n        /* \"--CODEGEN--\":2:4   */\n      iszero\n      tag_18\n      jumpi\n        /* \"--CODEGEN--\":29:30   */\n      0x0\n        /* \"--CODEGEN--\":26:27   */\n      dup1\n        /* \"--CODEGEN--\":19:31   */\n      revert\n        /* \"--CODEGEN--\":2:4   */\n    tag_18:\n        /* \"contracts/Content.sol\":340:503  function isCert(bytes32 cert) public view returns(bool isIndeed) {\r... */\n      dup2\n      add\n      swap1\n      dup1\n      dup1\n      calldataload\n      swap1\n      0x20\n      add\n      swap1\n      swap3\n      swap2\n      swap1\n      pop\n      pop\n      pop\n      tag_19\n      jump\t// in\n    tag_17:\n      mload(0x40)\n      dup1\n      dup3\n      iszero\n      iszero\n      iszero\n      iszero\n      dup2\n      mstore\n      0x20\n      add\n      swap2\n      pop\n      pop\n      mload(0x40)\n      dup1\n      swap2\n      sub\n      swap1\n      return\n        /* \"contracts/Content.sol\":1069:1288  function isUserCert(bytes32 cert, address user) public view returns(bool) {\r... */\n    tag_5:\n      callvalue\n        /* \"--CODEGEN--\":8:17   */\n      dup1\n        /* \"--CODEGEN--\":5:7   */\n      iszero\n      tag_20\n      jumpi\n        /* \"--CODEGEN--\":30:31   */\n      0x0\n        /* \"--CODEGEN--\":27:28   */\n      dup1\n        /* \"--CODEGEN--\":20:32   */\n      revert\n        /* \"--CODEGEN--\":5:7   */\n    tag_20:\n        /* \"contracts/Content.sol\":1069:1288  function isUserCert(bytes32 cert, address user) public view returns(bool) {\r... */\n      pop\n      tag_21\n      0x4\n      dup1\n      calldatasize\n      sub\n        /* \"--CODEGEN--\":13:15   */\n      0x40\n        /* \"--CODEGEN--\":8:11   */\n      dup2\n        /* \"--CODEGEN--\":5:16   */\n      lt\n        /* \"--CODEGEN--\":2:4   */\n      iszero\n      tag_22\n      jumpi\n        /* \"--CODEGEN--\":29:30   */\n      0x0\n        /* \"--CODEGEN--\":26:27   */\n      dup1\n        /* \"--CODEGEN--\":19:31   */\n      revert\n        /* \"--CODEGEN--\":2:4   */\n    tag_22:\n        /* \"contracts/Content.sol\":1069:1288  function isUserCert(bytes32 cert, address user) public view returns(bool) {\r... */\n      dup2\n      add\n      swap1\n      dup1\n      dup1\n      calldataload\n      swap1\n      0x20\n      add\n      swap1\n      swap3\n      swap2\n      swap1\n      dup1\n      calldataload\n      0xffffffffffffffffffffffffffffffffffffffff\n      and\n      swap1\n      0x20\n      add\n      swap1\n      swap3\n      swap2\n      swap1\n      pop\n      pop\n      pop\n      tag_23\n      jump\t// in\n    tag_21:\n      mload(0x40)\n      dup1\n      dup3\n      iszero\n      iszero\n      iszero\n      iszero\n      dup2\n      mstore\n      0x20\n      add\n      swap2\n      pop\n      pop\n      mload(0x40)\n      dup1\n      swap2\n      sub\n      swap1\n      return\n        /* \"contracts/Content.sol\":511:813  function createCert(bytes32 cert, address recipient) public {\r... */\n    tag_6:\n      callvalue\n        /* \"--CODEGEN--\":8:17   */\n      dup1\n        /* \"--CODEGEN--\":5:7   */\n      iszero\n      tag_24\n      jumpi\n        /* \"--CODEGEN--\":30:31   */\n      0x0\n        /* \"--CODEGEN--\":27:28   */\n      dup1\n        /* \"--CODEGEN--\":20:32   */\n      revert\n        /* \"--CODEGEN--\":5:7   */\n    tag_24:\n        /* \"contracts/Content.sol\":511:813  function createCert(bytes32 cert, address recipient) public {\r... */\n      pop\n      tag_25\n      0x4\n      dup1\n      calldatasize\n      sub\n        /* \"--CODEGEN--\":13:15   */\n      0x40\n        /* \"--CODEGEN--\":8:11   */\n      dup2\n        /* \"--CODEGEN--\":5:16   */\n      lt\n        /* \"--CODEGEN--\":2:4   */\n      iszero\n      tag_26\n      jumpi\n        /* \"--CODEGEN--\":29:30   */\n      0x0\n        /* \"--CODEGEN--\":26:27   */\n      dup1\n        /* \"--CODEGEN--\":19:31   */\n      revert\n        /* \"--CODEGEN--\":2:4   */\n    tag_26:\n        /* \"contracts/Content.sol\":511:813  function createCert(bytes32 cert, address recipient) public {\r... */\n      dup2\n      add\n      swap1\n      dup1\n      dup1\n      calldataload\n      swap1\n      0x20\n      add\n      swap1\n      swap3\n      swap2\n      swap1\n      dup1\n      calldataload\n      0xffffffffffffffffffffffffffffffffffffffff\n      and\n      swap1\n      0x20\n      add\n      swap1\n      swap3\n      swap2\n      swap1\n      pop\n      pop\n      pop\n      tag_27\n      jump\t// in\n    tag_25:\n      stop\n        /* \"contracts/Content.sol\":821:1061  function confirmCert(bytes32 cert) public {\r... */\n    tag_7:\n      callvalue\n        /* \"--CODEGEN--\":8:17   */\n      dup1\n        /* \"--CODEGEN--\":5:7   */\n      iszero\n      tag_28\n      jumpi\n        /* \"--CODEGEN--\":30:31   */\n      0x0\n        /* \"--CODEGEN--\":27:28   */\n      dup1\n        /* \"--CODEGEN--\":20:32   */\n      revert\n        /* \"--CODEGEN--\":5:7   */\n    tag_28:\n        /* \"contracts/Content.sol\":821:1061  function confirmCert(bytes32 cert) public {\r... */\n      pop\n      tag_29\n      0x4\n      dup1\n      calldatasize\n      sub\n        /* \"--CODEGEN--\":13:15   */\n      0x20\n        /* \"--CODEGEN--\":8:11   */\n      dup2\n        /* \"--CODEGEN--\":5:16   */\n      lt\n        /* \"--CODEGEN--\":2:4   */\n      iszero\n      tag_30\n      jumpi\n        /* \"--CODEGEN--\":29:30   */\n      0x0\n        /* \"--CODEGEN--\":26:27   */\n      dup1\n        /* \"--CODEGEN--\":19:31   */\n      revert\n        /* \"--CODEGEN--\":2:4   */\n    tag_30:\n        /* \"contracts/Content.sol\":821:1061  function confirmCert(bytes32 cert) public {\r... */\n      dup2\n      add\n      swap1\n      dup1\n      dup1\n      calldataload\n      swap1\n      0x20\n      add\n      swap1\n      swap3\n      swap2\n      swap1\n      pop\n      pop\n      pop\n      tag_31\n      jump\t// in\n    tag_29:\n      stop\n        /* \"contracts/Content.sol\":177:202  bytes32[] public certList */\n    tag_11:\n      0x1\n      dup2\n      dup2\n      sload\n      dup2\n      lt\n      iszero\n      iszero\n      tag_32\n      jumpi\n      invalid\n    tag_32:\n      swap1\n      0x0\n      mstore\n      keccak256(0x0, 0x20)\n      add\n      0x0\n      swap2\n      pop\n      swap1\n      pop\n      sload\n      dup2\n      jump\t// out\n        /* \"contracts/Content.sol\":133:170  mapping(bytes32 => Cert) public certs */\n    tag_15:\n      mstore(0x20, 0x0)\n      dup1\n      0x0\n      mstore\n      keccak256(0x0, 0x40)\n      0x0\n      swap2\n      pop\n      swap1\n      pop\n      dup1\n      0x0\n      add\n      0x0\n      swap1\n      sload\n      swap1\n      0x100\n      exp\n      swap1\n      div\n      0xffffffffffffffffffffffffffffffffffffffff\n      and\n      swap1\n      dup1\n      0x0\n      add\n      0x14\n      swap1\n      sload\n      swap1\n      0x100\n      exp\n      swap1\n      div\n      0xff\n      and\n      swap1\n      pop\n      dup3\n      jump\t// out\n        /* \"contracts/Content.sol\":340:503  function isCert(bytes32 cert) public view returns(bool isIndeed) {\r... */\n    tag_19:\n        /* \"contracts/Content.sol\":390:403  bool isIndeed */\n      0x0\n        /* \"contracts/Content.sol\":427:428  0 */\n      dup1\n        /* \"contracts/Content.sol\":419:428  cert == 0 */\n      0x1\n      mul\n        /* \"contracts/Content.sol\":419:423  cert */\n      dup3\n        /* \"contracts/Content.sol\":419:428  cert == 0 */\n      eq\n        /* \"contracts/Content.sol\":416:442  if(cert == 0) return false */\n      iszero\n      tag_35\n      jumpi\n        /* \"contracts/Content.sol\":437:442  false */\n      0x0\n        /* \"contracts/Content.sol\":430:442  return false */\n      swap1\n      pop\n      jump(tag_34)\n        /* \"contracts/Content.sol\":416:442  if(cert == 0) return false */\n    tag_35:\n        /* \"contracts/Content.sol\":493:494  0 */\n      0x0\n        /* \"contracts/Content.sol\":460:495  certs[cert].recipient != address(0) */\n      0xffffffffffffffffffffffffffffffffffffffff\n      and\n        /* \"contracts/Content.sol\":460:465  certs */\n      0x0\n        /* \"contracts/Content.sol\":460:471  certs[cert] */\n      dup1\n        /* \"contracts/Content.sol\":466:470  cert */\n      dup5\n        /* \"contracts/Content.sol\":460:471  certs[cert] */\n      dup2\n      mstore\n      0x20\n      add\n      swap1\n      dup2\n      mstore\n      0x20\n      add\n      0x0\n      keccak256\n        /* \"contracts/Content.sol\":460:481  certs[cert].recipient */\n      0x0\n      add\n      0x0\n      swap1\n      sload\n      swap1\n      0x100\n      exp\n      swap1\n      div\n      0xffffffffffffffffffffffffffffffffffffffff\n      and\n        /* \"contracts/Content.sol\":460:495  certs[cert].recipient != address(0) */\n      0xffffffffffffffffffffffffffffffffffffffff\n      and\n      eq\n      iszero\n        /* \"contracts/Content.sol\":453:495  return certs[cert].recipient != address(0) */\n      swap1\n      pop\n        /* \"contracts/Content.sol\":340:503  function isCert(bytes32 cert) public view returns(bool isIndeed) {\r... */\n    tag_34:\n      swap2\n      swap1\n      pop\n      jump\t// out\n        /* \"contracts/Content.sol\":1069:1288  function isUserCert(bytes32 cert, address user) public view returns(bool) {\r... */\n    tag_23:\n        /* \"contracts/Content.sol\":1137:1141  bool */\n      0x0\n        /* \"contracts/Content.sol\":1158:1170  isCert(cert) */\n      tag_37\n        /* \"contracts/Content.sol\":1165:1169  cert */\n      dup4\n        /* \"contracts/Content.sol\":1158:1164  isCert */\n      tag_19\n        /* \"contracts/Content.sol\":1158:1170  isCert(cert) */\n      jump\t// in\n    tag_37:\n        /* \"contracts/Content.sol\":1157:1170  !isCert(cert) */\n      iszero\n        /* \"contracts/Content.sol\":1154:1184  if(!isCert(cert)) return false */\n      iszero\n      tag_38\n      jumpi\n        /* \"contracts/Content.sol\":1179:1184  false */\n      0x0\n        /* \"contracts/Content.sol\":1172:1184  return false */\n      swap1\n      pop\n      jump(tag_36)\n        /* \"contracts/Content.sol\":1154:1184  if(!isCert(cert)) return false */\n    tag_38:\n        /* \"contracts/Content.sol\":1223:1227  user */\n      dup2\n        /* \"contracts/Content.sol\":1198:1227  certs[cert].recipient != user */\n      0xffffffffffffffffffffffffffffffffffffffff\n      and\n        /* \"contracts/Content.sol\":1198:1203  certs */\n      0x0\n        /* \"contracts/Content.sol\":1198:1209  certs[cert] */\n      dup1\n        /* \"contracts/Content.sol\":1204:1208  cert */\n      dup6\n        /* \"contracts/Content.sol\":1198:1209  certs[cert] */\n      dup2\n      mstore\n      0x20\n      add\n      swap1\n      dup2\n      mstore\n      0x20\n      add\n      0x0\n      keccak256\n        /* \"contracts/Content.sol\":1198:1219  certs[cert].recipient */\n      0x0\n      add\n      0x0\n      swap1\n      sload\n      swap1\n      0x100\n      exp\n      swap1\n      div\n      0xffffffffffffffffffffffffffffffffffffffff\n      and\n        /* \"contracts/Content.sol\":1198:1227  certs[cert].recipient != user */\n      0xffffffffffffffffffffffffffffffffffffffff\n      and\n      eq\n      iszero\n        /* \"contracts/Content.sol\":1195:1241  if(certs[cert].recipient != user) return false */\n      iszero\n      tag_39\n      jumpi\n        /* \"contracts/Content.sol\":1236:1241  false */\n      0x0\n        /* \"contracts/Content.sol\":1229:1241  return false */\n      swap1\n      pop\n      jump(tag_36)\n        /* \"contracts/Content.sol\":1195:1241  if(certs[cert].recipient != user) return false */\n    tag_39:\n        /* \"contracts/Content.sol\":1259:1264  certs */\n      0x0\n        /* \"contracts/Content.sol\":1259:1270  certs[cert] */\n      dup1\n        /* \"contracts/Content.sol\":1265:1269  cert */\n      dup5\n        /* \"contracts/Content.sol\":1259:1270  certs[cert] */\n      dup2\n      mstore\n      0x20\n      add\n      swap1\n      dup2\n      mstore\n      0x20\n      add\n      0x0\n      keccak256\n        /* \"contracts/Content.sol\":1259:1280  certs[cert].confirmed */\n      0x0\n      add\n      0x14\n      swap1\n      sload\n      swap1\n      0x100\n      exp\n      swap1\n      div\n      0xff\n      and\n        /* \"contracts/Content.sol\":1252:1280  return certs[cert].confirmed */\n      swap1\n      pop\n        /* \"contracts/Content.sol\":1069:1288  function isUserCert(bytes32 cert, address user) public view returns(bool) {\r... */\n    tag_36:\n      swap3\n      swap2\n      pop\n      pop\n      jump\t// out\n        /* \"contracts/Content.sol\":511:813  function createCert(bytes32 cert, address recipient) public {\r... */\n    tag_27:\n        /* \"contracts/Content.sol\":611:612  0 */\n      0x0\n        /* \"contracts/Content.sol\":590:613  recipient != address(0) */\n      0xffffffffffffffffffffffffffffffffffffffff\n      and\n        /* \"contracts/Content.sol\":590:599  recipient */\n      dup2\n        /* \"contracts/Content.sol\":590:613  recipient != address(0) */\n      0xffffffffffffffffffffffffffffffffffffffff\n      and\n      eq\n      iszero\n        /* \"contracts/Content.sol\":582:614  require(recipient != address(0)) */\n      iszero\n      iszero\n      tag_41\n      jumpi\n      0x0\n      dup1\n      revert\n    tag_41:\n        /* \"contracts/Content.sol\":634:646  isCert(cert) */\n      tag_42\n        /* \"contracts/Content.sol\":641:645  cert */\n      dup3\n        /* \"contracts/Content.sol\":634:640  isCert */\n      tag_19\n        /* \"contracts/Content.sol\":634:646  isCert(cert) */\n      jump\t// in\n    tag_42:\n        /* \"contracts/Content.sol\":633:646  !isCert(cert) */\n      iszero\n        /* \"contracts/Content.sol\":625:647  require(!isCert(cert)) */\n      iszero\n      iszero\n      tag_43\n      jumpi\n      0x0\n      dup1\n      revert\n    tag_43:\n        /* \"contracts/Content.sol\":658:672  Cert storage c */\n      0x0\n        /* \"contracts/Content.sol\":675:680  certs */\n      dup1\n        /* \"contracts/Content.sol\":675:686  certs[cert] */\n      0x0\n        /* \"contracts/Content.sol\":681:685  cert */\n      dup5\n        /* \"contracts/Content.sol\":675:686  certs[cert] */\n      dup2\n      mstore\n      0x20\n      add\n      swap1\n      dup2\n      mstore\n      0x20\n      add\n      0x0\n      keccak256\n        /* \"contracts/Content.sol\":658:686  Cert storage c = certs[cert] */\n      swap1\n      pop\n        /* \"contracts/Content.sol\":711:720  recipient */\n      dup2\n        /* \"contracts/Content.sol\":697:698  c */\n      dup2\n        /* \"contracts/Content.sol\":697:708  c.recipient */\n      0x0\n      add\n      0x0\n        /* \"contracts/Content.sol\":697:720  c.recipient = recipient */\n      0x100\n      exp\n      dup2\n      sload\n      dup2\n      0xffffffffffffffffffffffffffffffffffffffff\n      mul\n      not\n      and\n      swap1\n      dup4\n      0xffffffffffffffffffffffffffffffffffffffff\n      and\n      mul\n      or\n      swap1\n      sstore\n      pop\n        /* \"contracts/Content.sol\":731:739  certList */\n      0x1\n        /* \"contracts/Content.sol\":745:749  cert */\n      dup4\n        /* \"contracts/Content.sol\":731:750  certList.push(cert) */\n      swap1\n      dup1\n        /* \"--CODEGEN--\":39:40   */\n      0x1\n        /* \"--CODEGEN--\":33:36   */\n      dup2\n        /* \"--CODEGEN--\":27:37   */\n      sload\n        /* \"--CODEGEN--\":23:41   */\n      add\n        /* \"--CODEGEN--\":57:67   */\n      dup1\n        /* \"--CODEGEN--\":52:55   */\n      dup3\n        /* \"--CODEGEN--\":45:68   */\n      sstore\n        /* \"--CODEGEN--\":79:89   */\n      dup1\n        /* \"--CODEGEN--\":72:89   */\n      swap2\n      pop\n        /* \"--CODEGEN--\":0:93   */\n      pop\n        /* \"contracts/Content.sol\":731:750  certList.push(cert) */\n      swap1\n      0x1\n      dup3\n      sub\n      swap1\n      0x0\n      mstore\n      keccak256(0x0, 0x20)\n      add\n      0x0\n      swap1\n      swap2\n      swap3\n      swap1\n      swap2\n      swap1\n      swap2\n      pop\n      sstore\n      pop\n        /* \"contracts/Content.sol\":766:805  LogNewCert(msg.sender, cert, recipient) */\n      0x6c31dccb879bb85919f9263c08ec4d92c6900d2f2c0193ac9efe02a777ba76d7\n        /* \"contracts/Content.sol\":777:787  msg.sender */\n      caller\n        /* \"contracts/Content.sol\":789:793  cert */\n      dup5\n        /* \"contracts/Content.sol\":795:804  recipient */\n      dup5\n        /* \"contracts/Content.sol\":766:805  LogNewCert(msg.sender, cert, recipient) */\n      mload(0x40)\n      dup1\n      dup5\n      0xffffffffffffffffffffffffffffffffffffffff\n      and\n      0xffffffffffffffffffffffffffffffffffffffff\n      and\n      dup2\n      mstore\n      0x20\n      add\n      dup4\n      dup2\n      mstore\n      0x20\n      add\n      dup3\n      0xffffffffffffffffffffffffffffffffffffffff\n      and\n      0xffffffffffffffffffffffffffffffffffffffff\n      and\n      dup2\n      mstore\n      0x20\n      add\n      swap4\n      pop\n      pop\n      pop\n      pop\n      mload(0x40)\n      dup1\n      swap2\n      sub\n      swap1\n      log1\n        /* \"contracts/Content.sol\":511:813  function createCert(bytes32 cert, address recipient) public {\r... */\n      pop\n      pop\n      pop\n      jump\t// out\n        /* \"contracts/Content.sol\":821:1061  function confirmCert(bytes32 cert) public {\r... */\n    tag_31:\n        /* \"contracts/Content.sol\":907:917  msg.sender */\n      caller\n        /* \"contracts/Content.sol\":882:917  certs[cert].recipient == msg.sender */\n      0xffffffffffffffffffffffffffffffffffffffff\n      and\n        /* \"contracts/Content.sol\":882:887  certs */\n      0x0\n        /* \"contracts/Content.sol\":882:893  certs[cert] */\n      dup1\n        /* \"contracts/Content.sol\":888:892  cert */\n      dup4\n        /* \"contracts/Content.sol\":882:893  certs[cert] */\n      dup2\n      mstore\n      0x20\n      add\n      swap1\n      dup2\n      mstore\n      0x20\n      add\n      0x0\n      keccak256\n        /* \"contracts/Content.sol\":882:903  certs[cert].recipient */\n      0x0\n      add\n      0x0\n      swap1\n      sload\n      swap1\n      0x100\n      exp\n      swap1\n      div\n      0xffffffffffffffffffffffffffffffffffffffff\n      and\n        /* \"contracts/Content.sol\":882:917  certs[cert].recipient == msg.sender */\n      0xffffffffffffffffffffffffffffffffffffffff\n      and\n      eq\n        /* \"contracts/Content.sol\":874:918  require(certs[cert].recipient == msg.sender) */\n      iszero\n      iszero\n      tag_46\n      jumpi\n      0x0\n      dup1\n      revert\n    tag_46:\n        /* \"contracts/Content.sol\":962:967  false */\n      0x0\n        /* \"contracts/Content.sol\":937:967  certs[cert].confirmed == false */\n      iszero\n      iszero\n        /* \"contracts/Content.sol\":937:942  certs */\n      0x0\n        /* \"contracts/Content.sol\":937:948  certs[cert] */\n      dup1\n        /* \"contracts/Content.sol\":943:947  cert */\n      dup4\n        /* \"contracts/Content.sol\":937:948  certs[cert] */\n      dup2\n      mstore\n      0x20\n      add\n      swap1\n      dup2\n      mstore\n      0x20\n      add\n      0x0\n      keccak256\n        /* \"contracts/Content.sol\":937:958  certs[cert].confirmed */\n      0x0\n      add\n      0x14\n      swap1\n      sload\n      swap1\n      0x100\n      exp\n      swap1\n      div\n      0xff\n      and\n        /* \"contracts/Content.sol\":937:967  certs[cert].confirmed == false */\n      iszero\n      iszero\n      eq\n        /* \"contracts/Content.sol\":929:968  require(certs[cert].confirmed == false) */\n      iszero\n      iszero\n      tag_47\n      jumpi\n      0x0\n      dup1\n      revert\n    tag_47:\n        /* \"contracts/Content.sol\":1003:1007  true */\n      0x1\n        /* \"contracts/Content.sol\":979:984  certs */\n      0x0\n        /* \"contracts/Content.sol\":979:990  certs[cert] */\n      dup1\n        /* \"contracts/Content.sol\":985:989  cert */\n      dup4\n        /* \"contracts/Content.sol\":979:990  certs[cert] */\n      dup2\n      mstore\n      0x20\n      add\n      swap1\n      dup2\n      mstore\n      0x20\n      add\n      0x0\n      keccak256\n        /* \"contracts/Content.sol\":979:1000  certs[cert].confirmed */\n      0x0\n      add\n      0x14\n        /* \"contracts/Content.sol\":979:1007  certs[cert].confirmed = true */\n      0x100\n      exp\n      dup2\n      sload\n      dup2\n      0xff\n      mul\n      not\n      and\n      swap1\n      dup4\n      iszero\n      iszero\n      mul\n      or\n      swap1\n      sstore\n      pop\n        /* \"contracts/Content.sol\":1023:1053  LogConfirmed(msg.sender, cert) */\n      0xf356e1d4d68993b720834d1fbf88de67fedbfb9ced9d4a42987356b426ec3250\n        /* \"contracts/Content.sol\":1036:1046  msg.sender */\n      caller\n        /* \"contracts/Content.sol\":1048:1052  cert */\n      dup3\n        /* \"contracts/Content.sol\":1023:1053  LogConfirmed(msg.sender, cert) */\n      mload(0x40)\n      dup1\n      dup4\n      0xffffffffffffffffffffffffffffffffffffffff\n      and\n      0xffffffffffffffffffffffffffffffffffffffff\n      and\n      dup2\n      mstore\n      0x20\n      add\n      dup3\n      dup2\n      mstore\n      0x20\n      add\n      swap3\n      pop\n      pop\n      pop\n      mload(0x40)\n      dup1\n      swap2\n      sub\n      swap1\n      log1\n        /* \"contracts/Content.sol\":821:1061  function confirmCert(bytes32 cert) public {\r... */\n      pop\n      jump\t// out\n\n    auxdata: 0xa165627a7a7230582021117904bcde8f1520a67ae9dcf9fb3f891d62a888941d8f84d11797f965d11d0029\n}\n",
				"bytecode": {
					"linkReferences": {},
					"object": "608060405234801561001057600080fd5b5061073f806100206000396000f3fe608060405260043610610072576000357c01000000000000000000000000000000000000000000000000000000009004806310c1266c146100775780634063d812146100c6578063532442d91461014c578063a7eaa1ac1461019f578063b823096014610212578063f260f5cf1461026d575b600080fd5b34801561008357600080fd5b506100b06004803603602081101561009a57600080fd5b81019080803590602001909291905050506102a8565b6040518082815260200191505060405180910390f35b3480156100d257600080fd5b506100ff600480360360208110156100e957600080fd5b81019080803590602001909291905050506102cb565b604051808373ffffffffffffffffffffffffffffffffffffffff1673ffffffffffffffffffffffffffffffffffffffff168152602001821515151581526020019250505060405180910390f35b34801561015857600080fd5b506101856004803603602081101561016f57600080fd5b810190808035906020019092919050505061031c565b604051808215151515815260200191505060405180910390f35b3480156101ab57600080fd5b506101f8600480360360408110156101c257600080fd5b8101908080359060200190929190803573ffffffffffffffffffffffffffffffffffffffff1690602001909291905050506103a0565b604051808215151515815260200191505060405180910390f35b34801561021e57600080fd5b5061026b6004803603604081101561023557600080fd5b8101908080359060200190929190803573ffffffffffffffffffffffffffffffffffffffff169060200190929190505050610459565b005b34801561027957600080fd5b506102a66004803603602081101561029057600080fd5b81019080803590602001909291905050506105d3565b005b6001818154811015156102b757fe5b906000526020600020016000915090505481565b60006020528060005260406000206000915090508060000160009054906101000a900473ffffffffffffffffffffffffffffffffffffffff16908060000160149054906101000a900460ff16905082565b600080600102821415610332576000905061039b565b600073ffffffffffffffffffffffffffffffffffffffff1660008084815260200190815260200160002060000160009054906101000a900473ffffffffffffffffffffffffffffffffffffffff1673ffffffffffffffffffffffffffffffffffffffff16141590505b919050565b60006103ab8361031c565b15156103ba5760009050610453565b8173ffffffffffffffffffffffffffffffffffffffff1660008085815260200190815260200160002060000160009054906101000a900473ffffffffffffffffffffffffffffffffffffffff1673ffffffffffffffffffffffffffffffffffffffff1614151561042d5760009050610453565b60008084815260200190815260200160002060000160149054906101000a900460ff1690505b92915050565b600073ffffffffffffffffffffffffffffffffffffffff168173ffffffffffffffffffffffffffffffffffffffff161415151561049557600080fd5b61049e8261031c565b1515156104aa57600080fd5b60008060008481526020019081526020016000209050818160000160006101000a81548173ffffffffffffffffffffffffffffffffffffffff021916908373ffffffffffffffffffffffffffffffffffffffff16021790555060018390806001815401808255809150509060018203906000526020600020016000909192909190915055507f6c31dccb879bb85919f9263c08ec4d92c6900d2f2c0193ac9efe02a777ba76d7338484604051808473ffffffffffffffffffffffffffffffffffffffff1673ffffffffffffffffffffffffffffffffffffffff1681526020018381526020018273ffffffffffffffffffffffffffffffffffffffff1673ffffffffffffffffffffffffffffffffffffffff168152602001935050505060405180910390a1505050565b3373ffffffffffffffffffffffffffffffffffffffff1660008083815260200190815260200160002060000160009054906101000a900473ffffffffffffffffffffffffffffffffffffffff1673ffffffffffffffffffffffffffffffffffffffff1614151561064257600080fd5b6000151560008083815260200190815260200160002060000160149054906101000a900460ff16151514151561067757600080fd5b600160008083815260200190815260200160002060000160146101000a81548160ff0219169083151502179055507ff356e1d4d68993b720834d1fbf88de67fedbfb9ced9d4a42987356b426ec32503382604051808373ffffffffffffffffffffffffffffffffffffffff1673ffffffffffffffffffffffffffffffffffffffff1681526020018281526020019250505060405180910390a15056fea165627a7a7230582021117904bcde8f1520a67ae9dcf9fb3f891d62a888941d8f84d11797f965d11d0029",
					"opcodes": "PUSH1 0x80 PUSH1 0x40 MSTORE CALLVALUE DUP1 ISZERO PUSH2 0x10 JUMPI PUSH1 0x0 DUP1 REVERT JUMPDEST POP PUSH2 0x73F DUP1 PUSH2 0x20 PUSH1 0x0 CODECOPY PUSH1 0x0 RETURN INVALID PUSH1 0x80 PUSH1 0x40 MSTORE PUSH1 0x4 CALLDATASIZE LT PUSH2 0x72 JUMPI PUSH1 0x0 CALLDATALOAD PUSH29 0x100000000000000000000000000000000000000000000000000000000 SWAP1 DIV DUP1 PUSH4 0x10C1266C EQ PUSH2 0x77 JUMPI DUP1 PUSH4 0x4063D812 EQ PUSH2 0xC6 JUMPI DUP1 PUSH4 0x532442D9 EQ PUSH2 0x14C JUMPI DUP1 PUSH4 0xA7EAA1AC EQ PUSH2 0x19F JUMPI DUP1 PUSH4 0xB8230960 EQ PUSH2 0x212 JUMPI DUP1 PUSH4 0xF260F5CF EQ PUSH2 0x26D JUMPI JUMPDEST PUSH1 0x0 DUP1 REVERT JUMPDEST CALLVALUE DUP1 ISZERO PUSH2 0x83 JUMPI PUSH1 0x0 DUP1 REVERT JUMPDEST POP PUSH2 0xB0 PUSH1 0x4 DUP1 CALLDATASIZE SUB PUSH1 0x20 DUP2 LT ISZERO PUSH2 0x9A JUMPI PUSH1 0x0 DUP1 REVERT JUMPDEST DUP2 ADD SWAP1 DUP1 DUP1 CALLDATALOAD SWAP1 PUSH1 0x20 ADD SWAP1 SWAP3 SWAP2 SWAP1 POP POP POP PUSH2 0x2A8 JUMP JUMPDEST PUSH1 0x40 MLOAD DUP1 DUP3 DUP2 MSTORE PUSH1 0x20 ADD SWAP2 POP POP PUSH1 0x40 MLOAD DUP1 SWAP2 SUB SWAP1 RETURN JUMPDEST CALLVALUE DUP1 ISZERO PUSH2 0xD2 JUMPI PUSH1 0x0 DUP1 REVERT JUMPDEST POP PUSH2 0xFF PUSH1 0x4 DUP1 CALLDATASIZE SUB PUSH1 0x20 DUP2 LT ISZERO PUSH2 0xE9 JUMPI PUSH1 0x0 DUP1 REVERT JUMPDEST DUP2 ADD SWAP1 DUP1 DUP1 CALLDATALOAD SWAP1 PUSH1 0x20 ADD SWAP1 SWAP3 SWAP2 SWAP1 POP POP POP PUSH2 0x2CB JUMP JUMPDEST PUSH1 0x40 MLOAD DUP1 DUP4 PUSH20 0xFFFFFFFFFFFFFFFFFFFFFFFFFFFFFFFFFFFFFFFF AND PUSH20 0xFFFFFFFFFFFFFFFFFFFFFFFFFFFFFFFFFFFFFFFF AND DUP2 MSTORE PUSH1 0x20 ADD DUP3 ISZERO ISZERO ISZERO ISZERO DUP2 MSTORE PUSH1 0x20 ADD SWAP3 POP POP POP PUSH1 0x40 MLOAD DUP1 SWAP2 SUB SWAP1 RETURN JUMPDEST CALLVALUE DUP1 ISZERO PUSH2 0x158 JUMPI PUSH1 0x0 DUP1 REVERT JUMPDEST POP PUSH2 0x185 PUSH1 0x4 DUP1 CALLDATASIZE SUB PUSH1 0x20 DUP2 LT ISZERO PUSH2 0x16F JUMPI PUSH1 0x0 DUP1 REVERT JUMPDEST DUP2 ADD SWAP1 DUP1 DUP1 CALLDATALOAD SWAP1 PUSH1 0x20 ADD SWAP1 SWAP3 SWAP2 SWAP1 POP POP POP PUSH2 0x31C JUMP JUMPDEST PUSH1 0x40 MLOAD DUP1 DUP3 ISZERO ISZERO ISZERO ISZERO DUP2 MSTORE PUSH1 0x20 ADD SWAP2 POP POP PUSH1 0x40 MLOAD DUP1 SWAP2 SUB SWAP1 RETURN JUMPDEST CALLVALUE DUP1 ISZERO PUSH2 0x1AB JUMPI PUSH1 0x0 DUP1 REVERT JUMPDEST POP PUSH2 0x1F8 PUSH1 0x4 DUP1 CALLDATASIZE SUB PUSH1 0x40 DUP2 LT ISZERO PUSH2 0x1C2 JUMPI PUSH1 0x0 DUP1 REVERT JUMPDEST DUP2 ADD SWAP1 DUP1 DUP1 CALLDATALOAD SWAP1 PUSH1 0x20 ADD SWAP1 SWAP3 SWAP2 SWAP1 DUP1 CALLDATALOAD PUSH20 0xFFFFFFFFFFFFFFFFFFFFFFFFFFFFFFFFFFFFFFFF AND SWAP1 PUSH1 0x20 ADD SWAP1 SWAP3 SWAP2 SWAP1 POP POP POP PUSH2 0x3A0 JUMP JUMPDEST PUSH1 0x40 MLOAD DUP1 DUP3 ISZERO ISZERO ISZERO ISZERO DUP2 MSTORE PUSH1 0x20 ADD SWAP2 POP POP PUSH1 0x40 MLOAD DUP1 SWAP2 SUB SWAP1 RETURN JUMPDEST CALLVALUE DUP1 ISZERO PUSH2 0x21E JUMPI PUSH1 0x0 DUP1 REVERT JUMPDEST POP PUSH2 0x26B PUSH1 0x4 DUP1 CALLDATASIZE SUB PUSH1 0x40 DUP2 LT ISZERO PUSH2 0x235 JUMPI PUSH1 0x0 DUP1 REVERT JUMPDEST DUP2 ADD SWAP1 DUP1 DUP1 CALLDATALOAD SWAP1 PUSH1 0x20 ADD SWAP1 SWAP3 SWAP2 SWAP1 DUP1 CALLDATALOAD PUSH20 0xFFFFFFFFFFFFFFFFFFFFFFFFFFFFFFFFFFFFFFFF AND SWAP1 PUSH1 0x20 ADD SWAP1 SWAP3 SWAP2 SWAP1 POP POP POP PUSH2 0x459 JUMP JUMPDEST STOP JUMPDEST CALLVALUE DUP1 ISZERO PUSH2 0x279 JUMPI PUSH1 0x0 DUP1 REVERT JUMPDEST POP PUSH2 0x2A6 PUSH1 0x4 DUP1 CALLDATASIZE SUB PUSH1 0x20 DUP2 LT ISZERO PUSH2 0x290 JUMPI PUSH1 0x0 DUP1 REVERT JUMPDEST DUP2 ADD SWAP1 DUP1 DUP1 CALLDATALOAD SWAP1 PUSH1 0x20 ADD SWAP1 SWAP3 SWAP2 SWAP1 POP POP POP PUSH2 0x5D3 JUMP JUMPDEST STOP JUMPDEST PUSH1 0x1 DUP2 DUP2 SLOAD DUP2 LT ISZERO ISZERO PUSH2 0x2B7 JUMPI INVALID JUMPDEST SWAP1 PUSH1 0x0 MSTORE PUSH1 0x20 PUSH1 0x0 KECCAK256 ADD PUSH1 0x0 SWAP2 POP SWAP1 POP SLOAD DUP2 JUMP JUMPDEST PUSH1 0x0 PUSH1 0x20 MSTORE DUP1 PUSH1 0x0 MSTORE PUSH1 0x40 PUSH1 0x0 KECCAK256 PUSH1 0x0 SWAP2 POP SWAP1 POP DUP1 PUSH1 0x0 ADD PUSH1 0x0 SWAP1 SLOAD SWAP1 PUSH2 0x100 EXP SWAP1 DIV PUSH20 0xFFFFFFFFFFFFFFFFFFFFFFFFFFFFFFFFFFFFFFFF AND SWAP1 DUP1 PUSH1 0x0 ADD PUSH1 0x14 SWAP1 SLOAD SWAP1 PUSH2 0x100 EXP SWAP1 DIV PUSH1 0xFF AND SWAP1 POP DUP3 JUMP JUMPDEST PUSH1 0x0 DUP1 PUSH1 0x1 MUL DUP3 EQ ISZERO PUSH2 0x332 JUMPI PUSH1 0x0 SWAP1 POP PUSH2 0x39B JUMP JUMPDEST PUSH1 0x0 PUSH20 0xFFFFFFFFFFFFFFFFFFFFFFFFFFFFFFFFFFFFFFFF AND PUSH1 0x0 DUP1 DUP5 DUP2 MSTORE PUSH1 0x20 ADD SWAP1 DUP2 MSTORE PUSH1 0x20 ADD PUSH1 0x0 KECCAK256 PUSH1 0x0 ADD PUSH1 0x0 SWAP1 SLOAD SWAP1 PUSH2 0x100 EXP SWAP1 DIV PUSH20 0xFFFFFFFFFFFFFFFFFFFFFFFFFFFFFFFFFFFFFFFF AND PUSH20 0xFFFFFFFFFFFFFFFFFFFFFFFFFFFFFFFFFFFFFFFF AND EQ ISZERO SWAP1 POP JUMPDEST SWAP2 SWAP1 POP JUMP JUMPDEST PUSH1 0x0 PUSH2 0x3AB DUP4 PUSH2 0x31C JUMP JUMPDEST ISZERO ISZERO PUSH2 0x3BA JUMPI PUSH1 0x0 SWAP1 POP PUSH2 0x453 JUMP JUMPDEST DUP2 PUSH20 0xFFFFFFFFFFFFFFFFFFFFFFFFFFFFFFFFFFFFFFFF AND PUSH1 0x0 DUP1 DUP6 DUP2 MSTORE PUSH1 0x20 ADD SWAP1 DUP2 MSTORE PUSH1 0x20 ADD PUSH1 0x0 KECCAK256 PUSH1 0x0 ADD PUSH1 0x0 SWAP1 SLOAD SWAP1 PUSH2 0x100 EXP SWAP1 DIV PUSH20 0xFFFFFFFFFFFFFFFFFFFFFFFFFFFFFFFFFFFFFFFF AND PUSH20 0xFFFFFFFFFFFFFFFFFFFFFFFFFFFFFFFFFFFFFFFF AND EQ ISZERO ISZERO PUSH2 0x42D JUMPI PUSH1 0x0 SWAP1 POP PUSH2 0x453 JUMP JUMPDEST PUSH1 0x0 DUP1 DUP5 DUP2 MSTORE PUSH1 0x20 ADD SWAP1 DUP2 MSTORE PUSH1 0x20 ADD PUSH1 0x0 KECCAK256 PUSH1 0x0 ADD PUSH1 0x14 SWAP1 SLOAD SWAP1 PUSH2 0x100 EXP SWAP1 DIV PUSH1 0xFF AND SWAP1 POP JUMPDEST SWAP3 SWAP2 POP POP JUMP JUMPDEST PUSH1 0x0 PUSH20 0xFFFFFFFFFFFFFFFFFFFFFFFFFFFFFFFFFFFFFFFF AND DUP2 PUSH20 0xFFFFFFFFFFFFFFFFFFFFFFFFFFFFFFFFFFFFFFFF AND EQ ISZERO ISZERO ISZERO PUSH2 0x495 JUMPI PUSH1 0x0 DUP1 REVERT JUMPDEST PUSH2 0x49E DUP3 PUSH2 0x31C JUMP JUMPDEST ISZERO ISZERO ISZERO PUSH2 0x4AA JUMPI PUSH1 0x0 DUP1 REVERT JUMPDEST PUSH1 0x0 DUP1 PUSH1 0x0 DUP5 DUP2 MSTORE PUSH1 0x20 ADD SWAP1 DUP2 MSTORE PUSH1 0x20 ADD PUSH1 0x0 KECCAK256 SWAP1 POP DUP2 DUP2 PUSH1 0x0 ADD PUSH1 0x0 PUSH2 0x100 EXP DUP2 SLOAD DUP2 PUSH20 0xFFFFFFFFFFFFFFFFFFFFFFFFFFFFFFFFFFFFFFFF MUL NOT AND SWAP1 DUP4 PUSH20 0xFFFFFFFFFFFFFFFFFFFFFFFFFFFFFFFFFFFFFFFF AND MUL OR SWAP1 SSTORE POP PUSH1 0x1 DUP4 SWAP1 DUP1 PUSH1 0x1 DUP2 SLOAD ADD DUP1 DUP3 SSTORE DUP1 SWAP2 POP POP SWAP1 PUSH1 0x1 DUP3 SUB SWAP1 PUSH1 0x0 MSTORE PUSH1 0x20 PUSH1 0x0 KECCAK256 ADD PUSH1 0x0 SWAP1 SWAP2 SWAP3 SWAP1 SWAP2 SWAP1 SWAP2 POP SSTORE POP PUSH32 0x6C31DCCB879BB85919F9263C08EC4D92C6900D2F2C0193AC9EFE02A777BA76D7 CALLER DUP5 DUP5 PUSH1 0x40 MLOAD DUP1 DUP5 PUSH20 0xFFFFFFFFFFFFFFFFFFFFFFFFFFFFFFFFFFFFFFFF AND PUSH20 0xFFFFFFFFFFFFFFFFFFFFFFFFFFFFFFFFFFFFFFFF AND DUP2 MSTORE PUSH1 0x20 ADD DUP4 DUP2 MSTORE PUSH1 0x20 ADD DUP3 PUSH20 0xFFFFFFFFFFFFFFFFFFFFFFFFFFFFFFFFFFFFFFFF AND PUSH20 0xFFFFFFFFFFFFFFFFFFFFFFFFFFFFFFFFFFFFFFFF AND DUP2 MSTORE PUSH1 0x20 ADD SWAP4 POP POP POP POP PUSH1 0x40 MLOAD DUP1 SWAP2 SUB SWAP1 LOG1 POP POP POP JUMP JUMPDEST CALLER PUSH20 0xFFFFFFFFFFFFFFFFFFFFFFFFFFFFFFFFFFFFFFFF AND PUSH1 0x0 DUP1 DUP4 DUP2 MSTORE PUSH1 0x20 ADD SWAP1 DUP2 MSTORE PUSH1 0x20 ADD PUSH1 0x0 KECCAK256 PUSH1 0x0 ADD PUSH1 0x0 SWAP1 SLOAD SWAP1 PUSH2 0x100 EXP SWAP1 DIV PUSH20 0xFFFFFFFFFFFFFFFFFFFFFFFFFFFFFFFFFFFFFFFF AND PUSH20 0xFFFFFFFFFFFFFFFFFFFFFFFFFFFFFFFFFFFFFFFF AND EQ ISZERO ISZERO PUSH2 0x642 JUMPI PUSH1 0x0 DUP1 REVERT JUMPDEST PUSH1 0x0 ISZERO ISZERO PUSH1 0x0 DUP1 DUP4 DUP2 MSTORE PUSH1 0x20 ADD SWAP1 DUP2 MSTORE PUSH1 0x20 ADD PUSH1 0x0 KECCAK256 PUSH1 0x0 ADD PUSH1 0x14 SWAP1 SLOAD SWAP1 PUSH2 0x100 EXP SWAP1 DIV PUSH1 0xFF AND ISZERO ISZERO EQ ISZERO ISZERO PUSH2 0x677 JUMPI PUSH1 0x0 DUP1 REVERT JUMPDEST PUSH1 0x1 PUSH1 0x0 DUP1 DUP4 DUP2 MSTORE PUSH1 0x20 ADD SWAP1 DUP2 MSTORE PUSH1 0x20 ADD PUSH1 0x0 KECCAK256 PUSH1 0x0 ADD PUSH1 0x14 PUSH2 0x100 EXP DUP2 SLOAD DUP2 PUSH1 0xFF MUL NOT AND SWAP1 DUP4 ISZERO ISZERO MUL OR SWAP1 SSTORE POP PUSH32 0xF356E1D4D68993B720834D1FBF88DE67FEDBFB9CED9D4A42987356B426EC3250 CALLER DUP3 PUSH1 0x40 MLOAD DUP1 DUP4 PUSH20 0xFFFFFFFFFFFFFFFFFFFFFFFFFFFFFFFFFFFFFFFF AND PUSH20 0xFFFFFFFFFFFFFFFFFFFFFFFFFFFFFFFFFFFFFFFF AND DUP2 MSTORE PUSH1 0x20 ADD DUP3 DUP2 MSTORE PUSH1 0x20 ADD SWAP3 POP POP POP PUSH1 0x40 MLOAD DUP1 SWAP2 SUB SWAP1 LOG1 POP JUMP INVALID LOG1 PUSH6 0x627A7A723058 KECCAK256 0x21 GT PUSH26 0x4BCDE8F1520A67AE9DCF9FB3F891D62A888941D8F84D11797F9 PUSH6 0xD11D00290000 "
				},
				"gasEstimates": {
					"creation": {
						"codeDepositCost": "371000",
						"executionCost": "405",
						"totalCost": "371405"
					},
					"external": {
						"certList(uint256)": "769",
						"certs(bytes32)": "960",
						"confirmCert(bytes32)": "22850",
						"createCert(bytes32,address)": "63166",
						"isCert(bytes32)": "715",
						"isUserCert(bytes32,address)": "1570"
					}
				},
				"methodIdentifiers": {
					"certList(uint256)": "10c1266c",
					"certs(bytes32)": "4063d812",
					"confirmCert(bytes32)": "f260f5cf",
					"createCert(bytes32,address)": "b8230960",
					"isCert(bytes32)": "532442d9",
					"isUserCert(bytes32,address)": "a7eaa1ac"
				}
			},
			"userdoc": {
				"methods": {}
			}
		}
	}
}