{
	"contracts/3_Data.sol": {
		"Data": {
			"abi": [
				{
					"inputs": [],
					"stateMutability": "nonpayable",
					"type": "constructor"
				},
				{
					"anonymous": false,
					"inputs": [
						{
							"indexed": false,
							"internalType": "address",
							"name": "from",
							"type": "address"
						},
						{
							"indexed": false,
							"internalType": "address",
							"name": "to",
							"type": "address"
						}
					],
					"name": "Auth",
					"type": "event"
				},
				{
					"inputs": [
						{
							"internalType": "address",
							"name": "to",
							"type": "address"
						}
					],
					"name": "authCheck",
					"outputs": [
						{
							"internalType": "bool",
							"name": "success",
							"type": "bool"
						}
					],
					"stateMutability": "nonpayable",
					"type": "function"
				},
				{
					"inputs": [
						{
							"internalType": "uint256",
							"name": "",
							"type": "uint256"
						}
					],
					"name": "author",
					"outputs": [
						{
							"internalType": "address",
							"name": "",
							"type": "address"
						}
					],
					"stateMutability": "view",
					"type": "function"
				},
				{
					"inputs": [
						{
							"internalType": "uint256",
							"name": "",
							"type": "uint256"
						}
					],
					"name": "cards",
					"outputs": [
						{
							"internalType": "bytes32",
							"name": "name",
							"type": "bytes32"
						},
						{
							"internalType": "uint256",
							"name": "ID",
							"type": "uint256"
						}
					],
					"stateMutability": "view",
					"type": "function"
				},
				{
					"inputs": [
						{
							"internalType": "address",
							"name": "test",
							"type": "address"
						}
					],
					"name": "fetchData",
					"outputs": [
						{
							"internalType": "bool",
							"name": "",
							"type": "bool"
						}
					],
					"stateMutability": "nonpayable",
					"type": "function"
				},
				{
					"inputs": [
						{
							"internalType": "address",
							"name": "",
							"type": "address"
						}
					],
					"name": "patients",
					"outputs": [
						{
							"internalType": "uint256",
							"name": "ID",
							"type": "uint256"
						},
						{
							"internalType": "uint256",
							"name": "healthy",
							"type": "uint256"
						},
						{
							"internalType": "string",
							"name": "name",
							"type": "string"
						},
						{
							"internalType": "string",
							"name": "disease",
							"type": "string"
						},
						{
							"internalType": "string",
							"name": "medicines",
							"type": "string"
						},
						{
							"internalType": "bool",
							"name": "reg",
							"type": "bool"
						},
						{
							"internalType": "uint256",
							"name": "key",
							"type": "uint256"
						},
						{
							"internalType": "address payable",
							"name": "client",
							"type": "address"
						},
						{
							"internalType": "address payable",
							"name": "dest",
							"type": "address"
						}
					],
					"stateMutability": "view",
					"type": "function"
				},
				{
					"inputs": [
						{
							"internalType": "uint256",
							"name": "_healthy",
							"type": "uint256"
						},
						{
							"internalType": "string",
							"name": "_name",
							"type": "string"
						},
						{
							"internalType": "string",
							"name": "_disease",
							"type": "string"
						},
						{
							"internalType": "string",
							"name": "_medicine",
							"type": "string"
						}
					],
					"name": "registerPatient",
					"outputs": [],
					"stateMutability": "nonpayable",
					"type": "function"
				}
			],
			"devdoc": {
				"details": "Implements Patient data along with verification",
				"kind": "dev",
				"methods": {},
				"title": "Data",
				"version": 1
			},
			"evm": {
				"assembly": "    /* \"contracts/3_Data.sol\":153:2008  contract Data {... */\n  mstore(0x40, 0x80)\n    /* \"contracts/3_Data.sol\":846:905  constructor() {... */\n  callvalue\n  dup1\n  iszero\n  tag_1\n  jumpi\n  0x00\n  dup1\n  revert\ntag_1:\n  pop\n    /* \"contracts/3_Data.sol\":888:898  msg.sender */\n  caller\n    /* \"contracts/3_Data.sol\":870:876  author */\n  0x01\n    /* \"contracts/3_Data.sol\":877:884  counter */\n  sload(0x00)\n    /* \"contracts/3_Data.sol\":870:885  author[counter] */\n  dup2\n  sload\n  dup2\n  lt\n  tag_4\n  jumpi\n  tag_5\n  tag_6\n  jump\t// in\ntag_5:\ntag_4:\n  swap1\n  0x00\n  mstore\n  keccak256(0x00, 0x20)\n  add\n  0x00\n    /* \"contracts/3_Data.sol\":870:898  author[counter] = msg.sender */\n  0x0100\n  exp\n  dup2\n  sload\n  dup2\n  0xffffffffffffffffffffffffffffffffffffffff\n  mul\n  not\n  and\n  swap1\n  dup4\n  0xffffffffffffffffffffffffffffffffffffffff\n  and\n  mul\n  or\n  swap1\n  sstore\n  pop\n    /* \"contracts/3_Data.sol\":153:2008  contract Data {... */\n  jump(tag_8)\n    /* \"#utility.yul\":7:187   */\ntag_6:\n    /* \"#utility.yul\":55:132   */\n  0x4e487b7100000000000000000000000000000000000000000000000000000000\n    /* \"#utility.yul\":52:53   */\n  0x00\n    /* \"#utility.yul\":45:133   */\n  mstore\n    /* \"#utility.yul\":152:156   */\n  0x32\n    /* \"#utility.yul\":149:150   */\n  0x04\n    /* \"#utility.yul\":142:157   */\n  mstore\n    /* \"#utility.yul\":176:180   */\n  0x24\n    /* \"#utility.yul\":173:174   */\n  0x00\n    /* \"#utility.yul\":166:181   */\n  revert\n    /* \"contracts/3_Data.sol\":153:2008  contract Data {... */\ntag_8:\n  dataSize(sub_0)\n  dup1\n  dataOffset(sub_0)\n  0x00\n  codecopy\n  0x00\n  return\nstop\n\nsub_0: assembly {\n        /* \"contracts/3_Data.sol\":153:2008  contract Data {... */\n      mstore(0x40, 0x80)\n      callvalue\n      dup1\n      iszero\n      tag_1\n      jumpi\n      0x00\n      dup1\n      revert\n    tag_1:\n      pop\n      jumpi(tag_2, lt(calldatasize, 0x04))\n      shr(0xe0, calldataload(0x00))\n      dup1\n      0x0869cfbc\n      eq\n      tag_3\n      jumpi\n      dup1\n      0x89c47f08\n      eq\n      tag_4\n      jumpi\n      dup1\n      0x8dc10768\n      eq\n      tag_5\n      jumpi\n      dup1\n      0xc4bfd57d\n      eq\n      tag_6\n      jumpi\n      dup1\n      0xda300116\n      eq\n      tag_7\n      jumpi\n      dup1\n      0xec4eb442\n      eq\n      tag_8\n      jumpi\n    tag_2:\n      0x00\n      dup1\n      revert\n        /* \"contracts/3_Data.sol\":770:813  mapping(address => Patient) public patients */\n    tag_3:\n      tag_9\n      0x04\n      dup1\n      calldatasize\n      sub\n      dup2\n      add\n      swap1\n      tag_10\n      swap2\n      swap1\n      tag_11\n      jump\t// in\n    tag_10:\n      tag_12\n      jump\t// in\n    tag_9:\n      mload(0x40)\n      tag_13\n      swap10\n      swap9\n      swap8\n      swap7\n      swap6\n      swap5\n      swap4\n      swap3\n      swap2\n      swap1\n      tag_14\n      jump\t// in\n    tag_13:\n      mload(0x40)\n      dup1\n      swap2\n      sub\n      swap1\n      return\n        /* \"contracts/3_Data.sol\":1277:1797  function registerPatient(uint _healthy, string memory _name, string memory _disease, string memory _medicine) external {... */\n    tag_4:\n      tag_15\n      0x04\n      dup1\n      calldatasize\n      sub\n      dup2\n      add\n      swap1\n      tag_16\n      swap2\n      swap1\n      tag_17\n      jump\t// in\n    tag_16:\n      tag_18\n      jump\t// in\n    tag_15:\n      stop\n        /* \"contracts/3_Data.sol\":820:839  Card[] public cards */\n    tag_5:\n      tag_19\n      0x04\n      dup1\n      calldatasize\n      sub\n      dup2\n      add\n      swap1\n      tag_20\n      swap2\n      swap1\n      tag_21\n      jump\t// in\n    tag_20:\n      tag_22\n      jump\t// in\n    tag_19:\n      mload(0x40)\n      tag_23\n      swap3\n      swap2\n      swap1\n      tag_24\n      jump\t// in\n    tag_23:\n      mload(0x40)\n      dup1\n      swap2\n      sub\n      swap1\n      return\n        /* \"contracts/3_Data.sol\":984:1236  function fetchData (address test) public returns(bool) {... */\n    tag_6:\n      tag_25\n      0x04\n      dup1\n      calldatasize\n      sub\n      dup2\n      add\n      swap1\n      tag_26\n      swap2\n      swap1\n      tag_11\n      jump\t// in\n    tag_26:\n      tag_27\n      jump\t// in\n    tag_25:\n      mload(0x40)\n      tag_28\n      swap2\n      swap1\n      tag_29\n      jump\t// in\n    tag_28:\n      mload(0x40)\n      dup1\n      swap2\n      sub\n      swap1\n      return\n        /* \"contracts/3_Data.sol\":1835:2006  function authCheck(address to) external returns (bool success) {... */\n    tag_7:\n      tag_30\n      0x04\n      dup1\n      calldatasize\n      sub\n      dup2\n      add\n      swap1\n      tag_31\n      swap2\n      swap1\n      tag_11\n      jump\t// in\n    tag_31:\n      tag_32\n      jump\t// in\n    tag_30:\n      mload(0x40)\n      tag_33\n      swap2\n      swap1\n      tag_29\n      jump\t// in\n    tag_33:\n      mload(0x40)\n      dup1\n      swap2\n      sub\n      swap1\n      return\n        /* \"contracts/3_Data.sol\":739:763  address [] public author */\n    tag_8:\n      tag_34\n      0x04\n      dup1\n      calldatasize\n      sub\n      dup2\n      add\n      swap1\n      tag_35\n      swap2\n      swap1\n      tag_21\n      jump\t// in\n    tag_35:\n      tag_36\n      jump\t// in\n    tag_34:\n      mload(0x40)\n      tag_37\n      swap2\n      swap1\n      tag_38\n      jump\t// in\n    tag_37:\n      mload(0x40)\n      dup1\n      swap2\n      sub\n      swap1\n      return\n        /* \"contracts/3_Data.sol\":770:813  mapping(address => Patient) public patients */\n    tag_12:\n      mstore(0x20, 0x02)\n      dup1\n      0x00\n      mstore\n      keccak256(0x00, 0x40)\n      0x00\n      swap2\n      pop\n      swap1\n      pop\n      dup1\n      0x00\n      add\n      sload\n      swap1\n      dup1\n      0x01\n      add\n      sload\n      swap1\n      dup1\n      0x02\n      add\n      dup1\n      sload\n      tag_39\n      swap1\n      tag_40\n      jump\t// in\n    tag_39:\n      dup1\n      0x1f\n      add\n      0x20\n      dup1\n      swap2\n      div\n      mul\n      0x20\n      add\n      mload(0x40)\n      swap1\n      dup2\n      add\n      0x40\n      mstore\n      dup1\n      swap3\n      swap2\n      swap1\n      dup2\n      dup2\n      mstore\n      0x20\n      add\n      dup3\n      dup1\n      sload\n      tag_41\n      swap1\n      tag_40\n      jump\t// in\n    tag_41:\n      dup1\n      iszero\n      tag_42\n      jumpi\n      dup1\n      0x1f\n      lt\n      tag_43\n      jumpi\n      0x0100\n      dup1\n      dup4\n      sload\n      div\n      mul\n      dup4\n      mstore\n      swap2\n      0x20\n      add\n      swap2\n      jump(tag_42)\n    tag_43:\n      dup3\n      add\n      swap2\n      swap1\n      0x00\n      mstore\n      keccak256(0x00, 0x20)\n      swap1\n    tag_44:\n      dup2\n      sload\n      dup2\n      mstore\n      swap1\n      0x01\n      add\n      swap1\n      0x20\n      add\n      dup1\n      dup4\n      gt\n      tag_44\n      jumpi\n      dup3\n      swap1\n      sub\n      0x1f\n      and\n      dup3\n      add\n      swap2\n    tag_42:\n      pop\n      pop\n      pop\n      pop\n      pop\n      swap1\n      dup1\n      0x03\n      add\n      dup1\n      sload\n      tag_45\n      swap1\n      tag_40\n      jump\t// in\n    tag_45:\n      dup1\n      0x1f\n      add\n      0x20\n      dup1\n      swap2\n      div\n      mul\n      0x20\n      add\n      mload(0x40)\n      swap1\n      dup2\n      add\n      0x40\n      mstore\n      dup1\n      swap3\n      swap2\n      swap1\n      dup2\n      dup2\n      mstore\n      0x20\n      add\n      dup3\n      dup1\n      sload\n      tag_46\n      swap1\n      tag_40\n      jump\t// in\n    tag_46:\n      dup1\n      iszero\n      tag_47\n      jumpi\n      dup1\n      0x1f\n      lt\n      tag_48\n      jumpi\n      0x0100\n      dup1\n      dup4\n      sload\n      div\n      mul\n      dup4\n      mstore\n      swap2\n      0x20\n      add\n      swap2\n      jump(tag_47)\n    tag_48:\n      dup3\n      add\n      swap2\n      swap1\n      0x00\n      mstore\n      keccak256(0x00, 0x20)\n      swap1\n    tag_49:\n      dup2\n      sload\n      dup2\n      mstore\n      swap1\n      0x01\n      add\n      swap1\n      0x20\n      add\n      dup1\n      dup4\n      gt\n      tag_49\n      jumpi\n      dup3\n      swap1\n      sub\n      0x1f\n      and\n      dup3\n      add\n      swap2\n    tag_47:\n      pop\n      pop\n      pop\n      pop\n      pop\n      swap1\n      dup1\n      0x04\n      add\n      dup1\n      sload\n      tag_50\n      swap1\n      tag_40\n      jump\t// in\n    tag_50:\n      dup1\n      0x1f\n      add\n      0x20\n      dup1\n      swap2\n      div\n      mul\n      0x20\n      add\n      mload(0x40)\n      swap1\n      dup2\n      add\n      0x40\n      mstore\n      dup1\n      swap3\n      swap2\n      swap1\n      dup2\n      dup2\n      mstore\n      0x20\n      add\n      dup3\n      dup1\n      sload\n      tag_51\n      swap1\n      tag_40\n      jump\t// in\n    tag_51:\n      dup1\n      iszero\n      tag_52\n      jumpi\n      dup1\n      0x1f\n      lt\n      tag_53\n      jumpi\n      0x0100\n      dup1\n      dup4\n      sload\n      div\n      mul\n      dup4\n      mstore\n      swap2\n      0x20\n      add\n      swap2\n      jump(tag_52)\n    tag_53:\n      dup3\n      add\n      swap2\n      swap1\n      0x00\n      mstore\n      keccak256(0x00, 0x20)\n      swap1\n    tag_54:\n      dup2\n      sload\n      dup2\n      mstore\n      swap1\n      0x01\n      add\n      swap1\n      0x20\n      add\n      dup1\n      dup4\n      gt\n      tag_54\n      jumpi\n      dup3\n      swap1\n      sub\n      0x1f\n      and\n      dup3\n      add\n      swap2\n    tag_52:\n      pop\n      pop\n      pop\n      pop\n      pop\n      swap1\n      dup1\n      0x05\n      add\n      0x00\n      swap1\n      sload\n      swap1\n      0x0100\n      exp\n      swap1\n      div\n      0xff\n      and\n      swap1\n      dup1\n      0x06\n      add\n      sload\n      swap1\n      dup1\n      0x07\n      add\n      0x00\n      swap1\n      sload\n      swap1\n      0x0100\n      exp\n      swap1\n      div\n      0xffffffffffffffffffffffffffffffffffffffff\n      and\n      swap1\n      dup1\n      0x08\n      add\n      0x00\n      swap1\n      sload\n      swap1\n      0x0100\n      exp\n      swap1\n      div\n      0xffffffffffffffffffffffffffffffffffffffff\n      and\n      swap1\n      pop\n      dup10\n      jump\t// out\n        /* \"contracts/3_Data.sol\":1277:1797  function registerPatient(uint _healthy, string memory _name, string memory _disease, string memory _medicine) external {... */\n    tag_18:\n        /* \"contracts/3_Data.sol\":1428:1436  patients */\n      0x02\n        /* \"contracts/3_Data.sol\":1428:1453  patients[author[counter]] */\n      0x00\n        /* \"contracts/3_Data.sol\":1437:1443  author */\n      0x01\n        /* \"contracts/3_Data.sol\":1444:1451  counter */\n      sload(0x00)\n        /* \"contracts/3_Data.sol\":1437:1452  author[counter] */\n      dup2\n      sload\n      dup2\n      lt\n      tag_56\n      jumpi\n      tag_57\n      tag_58\n      jump\t// in\n    tag_57:\n    tag_56:\n      swap1\n      0x00\n      mstore\n      keccak256(0x00, 0x20)\n      add\n      0x00\n      swap1\n      sload\n      swap1\n      0x0100\n      exp\n      swap1\n      div\n      0xffffffffffffffffffffffffffffffffffffffff\n      and\n        /* \"contracts/3_Data.sol\":1428:1453  patients[author[counter]] */\n      0xffffffffffffffffffffffffffffffffffffffff\n      and\n      0xffffffffffffffffffffffffffffffffffffffff\n      and\n      dup2\n      mstore\n      0x20\n      add\n      swap1\n      dup2\n      mstore\n      0x20\n      add\n      0x00\n      keccak256\n        /* \"contracts/3_Data.sol\":1428:1457  patients[author[counter]].reg */\n      0x05\n      add\n      0x00\n      swap1\n      sload\n      swap1\n      0x0100\n      exp\n      swap1\n      div\n      0xff\n      and\n        /* \"contracts/3_Data.sol\":1427:1457  !patients[author[counter]].reg */\n      iszero\n        /* \"contracts/3_Data.sol\":1406:1512  require(... */\n      tag_60\n      jumpi\n      mload(0x40)\n      0x08c379a000000000000000000000000000000000000000000000000000000000\n      dup2\n      mstore\n      0x04\n      add\n      tag_61\n      swap1\n      tag_62\n      jump\t// in\n    tag_61:\n      mload(0x40)\n      dup1\n      swap2\n      sub\n      swap1\n      revert\n    tag_60:\n        /* \"contracts/3_Data.sol\":1558:1566  _healthy */\n      dup4\n        /* \"contracts/3_Data.sol\":1522:1530  patients */\n      0x02\n        /* \"contracts/3_Data.sol\":1522:1547  patients[author[counter]] */\n      0x00\n        /* \"contracts/3_Data.sol\":1531:1537  author */\n      0x01\n        /* \"contracts/3_Data.sol\":1538:1545  counter */\n      sload(0x00)\n        /* \"contracts/3_Data.sol\":1531:1546  author[counter] */\n      dup2\n      sload\n      dup2\n      lt\n      tag_63\n      jumpi\n      tag_64\n      tag_58\n      jump\t// in\n    tag_64:\n    tag_63:\n      swap1\n      0x00\n      mstore\n      keccak256(0x00, 0x20)\n      add\n      0x00\n      swap1\n      sload\n      swap1\n      0x0100\n      exp\n      swap1\n      div\n      0xffffffffffffffffffffffffffffffffffffffff\n      and\n        /* \"contracts/3_Data.sol\":1522:1547  patients[author[counter]] */\n      0xffffffffffffffffffffffffffffffffffffffff\n      and\n      0xffffffffffffffffffffffffffffffffffffffff\n      and\n      dup2\n      mstore\n      0x20\n      add\n      swap1\n      dup2\n      mstore\n      0x20\n      add\n      0x00\n      keccak256\n        /* \"contracts/3_Data.sol\":1522:1555  patients[author[counter]].healthy */\n      0x01\n      add\n        /* \"contracts/3_Data.sol\":1522:1566  patients[author[counter]].healthy = _healthy */\n      dup2\n      swap1\n      sstore\n      pop\n        /* \"contracts/3_Data.sol\":1609:1614  _name */\n      dup3\n        /* \"contracts/3_Data.sol\":1576:1584  patients */\n      0x02\n        /* \"contracts/3_Data.sol\":1576:1601  patients[author[counter]] */\n      0x00\n        /* \"contracts/3_Data.sol\":1585:1591  author */\n      0x01\n        /* \"contracts/3_Data.sol\":1592:1599  counter */\n      sload(0x00)\n        /* \"contracts/3_Data.sol\":1585:1600  author[counter] */\n      dup2\n      sload\n      dup2\n      lt\n      tag_66\n      jumpi\n      tag_67\n      tag_58\n      jump\t// in\n    tag_67:\n    tag_66:\n      swap1\n      0x00\n      mstore\n      keccak256(0x00, 0x20)\n      add\n      0x00\n      swap1\n      sload\n      swap1\n      0x0100\n      exp\n      swap1\n      div\n      0xffffffffffffffffffffffffffffffffffffffff\n      and\n        /* \"contracts/3_Data.sol\":1576:1601  patients[author[counter]] */\n      0xffffffffffffffffffffffffffffffffffffffff\n      and\n      0xffffffffffffffffffffffffffffffffffffffff\n      and\n      dup2\n      mstore\n      0x20\n      add\n      swap1\n      dup2\n      mstore\n      0x20\n      add\n      0x00\n      keccak256\n        /* \"contracts/3_Data.sol\":1576:1606  patients[author[counter]].name */\n      0x02\n      add\n        /* \"contracts/3_Data.sol\":1576:1614  patients[author[counter]].name = _name */\n      swap1\n      dup1\n      mload\n      swap1\n      0x20\n      add\n      swap1\n      tag_69\n      swap3\n      swap2\n      swap1\n      tag_70\n      jump\t// in\n    tag_69:\n      pop\n        /* \"contracts/3_Data.sol\":1660:1668  _disease */\n      dup2\n        /* \"contracts/3_Data.sol\":1624:1632  patients */\n      0x02\n        /* \"contracts/3_Data.sol\":1624:1649  patients[author[counter]] */\n      0x00\n        /* \"contracts/3_Data.sol\":1633:1639  author */\n      0x01\n        /* \"contracts/3_Data.sol\":1640:1647  counter */\n      sload(0x00)\n        /* \"contracts/3_Data.sol\":1633:1648  author[counter] */\n      dup2\n      sload\n      dup2\n      lt\n      tag_71\n      jumpi\n      tag_72\n      tag_58\n      jump\t// in\n    tag_72:\n    tag_71:\n      swap1\n      0x00\n      mstore\n      keccak256(0x00, 0x20)\n      add\n      0x00\n      swap1\n      sload\n      swap1\n      0x0100\n      exp\n      swap1\n      div\n      0xffffffffffffffffffffffffffffffffffffffff\n      and\n        /* \"contracts/3_Data.sol\":1624:1649  patients[author[counter]] */\n      0xffffffffffffffffffffffffffffffffffffffff\n      and\n      0xffffffffffffffffffffffffffffffffffffffff\n      and\n      dup2\n      mstore\n      0x20\n      add\n      swap1\n      dup2\n      mstore\n      0x20\n      add\n      0x00\n      keccak256\n        /* \"contracts/3_Data.sol\":1624:1657  patients[author[counter]].disease */\n      0x03\n      add\n        /* \"contracts/3_Data.sol\":1624:1668  patients[author[counter]].disease = _disease */\n      swap1\n      dup1\n      mload\n      swap1\n      0x20\n      add\n      swap1\n      tag_74\n      swap3\n      swap2\n      swap1\n      tag_70\n      jump\t// in\n    tag_74:\n      pop\n        /* \"contracts/3_Data.sol\":1716:1725  _medicine */\n      dup1\n        /* \"contracts/3_Data.sol\":1678:1686  patients */\n      0x02\n        /* \"contracts/3_Data.sol\":1678:1703  patients[author[counter]] */\n      0x00\n        /* \"contracts/3_Data.sol\":1687:1693  author */\n      0x01\n        /* \"contracts/3_Data.sol\":1694:1701  counter */\n      sload(0x00)\n        /* \"contracts/3_Data.sol\":1687:1702  author[counter] */\n      dup2\n      sload\n      dup2\n      lt\n      tag_75\n      jumpi\n      tag_76\n      tag_58\n      jump\t// in\n    tag_76:\n    tag_75:\n      swap1\n      0x00\n      mstore\n      keccak256(0x00, 0x20)\n      add\n      0x00\n      swap1\n      sload\n      swap1\n      0x0100\n      exp\n      swap1\n      div\n      0xffffffffffffffffffffffffffffffffffffffff\n      and\n        /* \"contracts/3_Data.sol\":1678:1703  patients[author[counter]] */\n      0xffffffffffffffffffffffffffffffffffffffff\n      and\n      0xffffffffffffffffffffffffffffffffffffffff\n      and\n      dup2\n      mstore\n      0x20\n      add\n      swap1\n      dup2\n      mstore\n      0x20\n      add\n      0x00\n      keccak256\n        /* \"contracts/3_Data.sol\":1678:1713  patients[author[counter]].medicines */\n      0x04\n      add\n        /* \"contracts/3_Data.sol\":1678:1725  patients[author[counter]].medicines = _medicine */\n      swap1\n      dup1\n      mload\n      swap1\n      0x20\n      add\n      swap1\n      tag_78\n      swap3\n      swap2\n      swap1\n      tag_70\n      jump\t// in\n    tag_78:\n      pop\n        /* \"contracts/3_Data.sol\":1767:1771  true */\n      0x01\n        /* \"contracts/3_Data.sol\":1735:1743  patients */\n      0x02\n        /* \"contracts/3_Data.sol\":1735:1760  patients[author[counter]] */\n      0x00\n        /* \"contracts/3_Data.sol\":1744:1750  author */\n      0x01\n        /* \"contracts/3_Data.sol\":1751:1758  counter */\n      sload(0x00)\n        /* \"contracts/3_Data.sol\":1744:1759  author[counter] */\n      dup2\n      sload\n      dup2\n      lt\n      tag_79\n      jumpi\n      tag_80\n      tag_58\n      jump\t// in\n    tag_80:\n    tag_79:\n      swap1\n      0x00\n      mstore\n      keccak256(0x00, 0x20)\n      add\n      0x00\n      swap1\n      sload\n      swap1\n      0x0100\n      exp\n      swap1\n      div\n      0xffffffffffffffffffffffffffffffffffffffff\n      and\n        /* \"contracts/3_Data.sol\":1735:1760  patients[author[counter]] */\n      0xffffffffffffffffffffffffffffffffffffffff\n      and\n      0xffffffffffffffffffffffffffffffffffffffff\n      and\n      dup2\n      mstore\n      0x20\n      add\n      swap1\n      dup2\n      mstore\n      0x20\n      add\n      0x00\n      keccak256\n        /* \"contracts/3_Data.sol\":1735:1764  patients[author[counter]].reg */\n      0x05\n      add\n      0x00\n        /* \"contracts/3_Data.sol\":1735:1771  patients[author[counter]].reg = true */\n      0x0100\n      exp\n      dup2\n      sload\n      dup2\n      0xff\n      mul\n      not\n      and\n      swap1\n      dup4\n      iszero\n      iszero\n      mul\n      or\n      swap1\n      sstore\n      pop\n        /* \"contracts/3_Data.sol\":1781:1788  counter */\n      0x00\n      dup1\n        /* \"contracts/3_Data.sol\":1781:1790  counter++ */\n      dup2\n      sload\n      dup1\n      swap3\n      swap2\n      swap1\n      tag_82\n      swap1\n      tag_83\n      jump\t// in\n    tag_82:\n      swap2\n      swap1\n      pop\n      sstore\n      pop\n        /* \"contracts/3_Data.sol\":1277:1797  function registerPatient(uint _healthy, string memory _name, string memory _disease, string memory _medicine) external {... */\n      pop\n      pop\n      pop\n      pop\n      jump\t// out\n        /* \"contracts/3_Data.sol\":820:839  Card[] public cards */\n    tag_22:\n      0x03\n      dup2\n      dup2\n      sload\n      dup2\n      lt\n      tag_84\n      jumpi\n      0x00\n      dup1\n      revert\n    tag_84:\n      swap1\n      0x00\n      mstore\n      keccak256(0x00, 0x20)\n      swap1\n      0x02\n      mul\n      add\n      0x00\n      swap2\n      pop\n      swap1\n      pop\n      dup1\n      0x00\n      add\n      sload\n      swap1\n      dup1\n      0x01\n      add\n      sload\n      swap1\n      pop\n      dup3\n      jump\t// out\n        /* \"contracts/3_Data.sol\":984:1236  function fetchData (address test) public returns(bool) {... */\n    tag_27:\n        /* \"contracts/3_Data.sol\":1033:1037  bool */\n      0x00\n        /* \"contracts/3_Data.sol\":1053:1059  uint i */\n      dup1\n        /* \"contracts/3_Data.sol\":1060:1061  0 */\n      0x00\n        /* \"contracts/3_Data.sol\":1053:1061  uint i=0 */\n      swap1\n      pop\n        /* \"contracts/3_Data.sol\":1049:1208  for(uint i=0; i < counter; i++)... */\n    tag_87:\n        /* \"contracts/3_Data.sol\":1067:1074  counter */\n      sload(0x00)\n        /* \"contracts/3_Data.sol\":1063:1064  i */\n      dup2\n        /* \"contracts/3_Data.sol\":1063:1074  i < counter */\n      lt\n        /* \"contracts/3_Data.sol\":1049:1208  for(uint i=0; i < counter; i++)... */\n      iszero\n      tag_88\n      jumpi\n        /* \"contracts/3_Data.sol\":1136:1140  test */\n      dup3\n        /* \"contracts/3_Data.sol\":1106:1140  patients[author[i]].client == test */\n      0xffffffffffffffffffffffffffffffffffffffff\n      and\n        /* \"contracts/3_Data.sol\":1106:1114  patients */\n      0x02\n        /* \"contracts/3_Data.sol\":1106:1125  patients[author[i]] */\n      0x00\n        /* \"contracts/3_Data.sol\":1115:1121  author */\n      0x01\n        /* \"contracts/3_Data.sol\":1122:1123  i */\n      dup5\n        /* \"contracts/3_Data.sol\":1115:1124  author[i] */\n      dup2\n      sload\n      dup2\n      lt\n      tag_90\n      jumpi\n      tag_91\n      tag_58\n      jump\t// in\n    tag_91:\n    tag_90:\n      swap1\n      0x00\n      mstore\n      keccak256(0x00, 0x20)\n      add\n      0x00\n      swap1\n      sload\n      swap1\n      0x0100\n      exp\n      swap1\n      div\n      0xffffffffffffffffffffffffffffffffffffffff\n      and\n        /* \"contracts/3_Data.sol\":1106:1125  patients[author[i]] */\n      0xffffffffffffffffffffffffffffffffffffffff\n      and\n      0xffffffffffffffffffffffffffffffffffffffff\n      and\n      dup2\n      mstore\n      0x20\n      add\n      swap1\n      dup2\n      mstore\n      0x20\n      add\n      0x00\n      keccak256\n        /* \"contracts/3_Data.sol\":1106:1132  patients[author[i]].client */\n      0x07\n      add\n      0x00\n      swap1\n      sload\n      swap1\n      0x0100\n      exp\n      swap1\n      div\n      0xffffffffffffffffffffffffffffffffffffffff\n      and\n        /* \"contracts/3_Data.sol\":1106:1140  patients[author[i]].client == test */\n      0xffffffffffffffffffffffffffffffffffffffff\n      and\n      eq\n        /* \"contracts/3_Data.sol\":1103:1198  if(patients[author[i]].client == test)... */\n      iszero\n      tag_93\n      jumpi\n        /* \"contracts/3_Data.sol\":1179:1183  true */\n      0x01\n        /* \"contracts/3_Data.sol\":1172:1183  return true */\n      swap2\n      pop\n      pop\n      jump(tag_86)\n        /* \"contracts/3_Data.sol\":1103:1198  if(patients[author[i]].client == test)... */\n    tag_93:\n        /* \"contracts/3_Data.sol\":1076:1079  i++ */\n      dup1\n      dup1\n      tag_94\n      swap1\n      tag_83\n      jump\t// in\n    tag_94:\n      swap2\n      pop\n      pop\n        /* \"contracts/3_Data.sol\":1049:1208  for(uint i=0; i < counter; i++)... */\n      jump(tag_87)\n    tag_88:\n      pop\n        /* \"contracts/3_Data.sol\":1224:1229  false */\n      0x00\n        /* \"contracts/3_Data.sol\":1217:1229  return false */\n      swap1\n      pop\n        /* \"contracts/3_Data.sol\":984:1236  function fetchData (address test) public returns(bool) {... */\n    tag_86:\n      swap2\n      swap1\n      pop\n      jump\t// out\n        /* \"contracts/3_Data.sol\":1835:2006  function authCheck(address to) external returns (bool success) {... */\n    tag_32:\n        /* \"contracts/3_Data.sol\":1884:1896  bool success */\n      0x00\n        /* \"contracts/3_Data.sol\":1958:1978  Auth(msg.sender, to) */\n      0xdd682d1363d443182f130904c49ddb3c06bcf4104bd0132873396ab097f339d9\n        /* \"contracts/3_Data.sol\":1963:1973  msg.sender */\n      caller\n        /* \"contracts/3_Data.sol\":1975:1977  to */\n      dup4\n        /* \"contracts/3_Data.sol\":1958:1978  Auth(msg.sender, to) */\n      mload(0x40)\n      tag_96\n      swap3\n      swap2\n      swap1\n      tag_97\n      jump\t// in\n    tag_96:\n      mload(0x40)\n      dup1\n      swap2\n      sub\n      swap1\n      log1\n        /* \"contracts/3_Data.sol\":1995:1999  true */\n      0x01\n        /* \"contracts/3_Data.sol\":1988:1999  return true */\n      swap1\n      pop\n        /* \"contracts/3_Data.sol\":1835:2006  function authCheck(address to) external returns (bool success) {... */\n      swap2\n      swap1\n      pop\n      jump\t// out\n        /* \"contracts/3_Data.sol\":739:763  address [] public author */\n    tag_36:\n      0x01\n      dup2\n      dup2\n      sload\n      dup2\n      lt\n      tag_98\n      jumpi\n      0x00\n      dup1\n      revert\n    tag_98:\n      swap1\n      0x00\n      mstore\n      keccak256(0x00, 0x20)\n      add\n      0x00\n      swap2\n      pop\n      sload\n      swap1\n      0x0100\n      exp\n      swap1\n      div\n      0xffffffffffffffffffffffffffffffffffffffff\n      and\n      dup2\n      jump\t// out\n    tag_70:\n      dup3\n      dup1\n      sload\n      tag_100\n      swap1\n      tag_40\n      jump\t// in\n    tag_100:\n      swap1\n      0x00\n      mstore\n      keccak256(0x00, 0x20)\n      swap1\n      0x1f\n      add\n      0x20\n      swap1\n      div\n      dup2\n      add\n      swap3\n      dup3\n      tag_102\n      jumpi\n      0x00\n      dup6\n      sstore\n      jump(tag_101)\n    tag_102:\n      dup3\n      0x1f\n      lt\n      tag_103\n      jumpi\n      dup1\n      mload\n      not(0xff)\n      and\n      dup4\n      dup1\n      add\n      or\n      dup6\n      sstore\n      jump(tag_101)\n    tag_103:\n      dup3\n      dup1\n      add\n      0x01\n      add\n      dup6\n      sstore\n      dup3\n      iszero\n      tag_101\n      jumpi\n      swap2\n      dup3\n      add\n    tag_104:\n      dup3\n      dup2\n      gt\n      iszero\n      tag_105\n      jumpi\n      dup3\n      mload\n      dup3\n      sstore\n      swap2\n      0x20\n      add\n      swap2\n      swap1\n      0x01\n      add\n      swap1\n      jump(tag_104)\n    tag_105:\n    tag_101:\n      pop\n      swap1\n      pop\n      tag_106\n      swap2\n      swap1\n      tag_107\n      jump\t// in\n    tag_106:\n      pop\n      swap1\n      jump\t// out\n    tag_107:\n    tag_108:\n      dup1\n      dup3\n      gt\n      iszero\n      tag_109\n      jumpi\n      0x00\n      dup2\n      0x00\n      swap1\n      sstore\n      pop\n      0x01\n      add\n      jump(tag_108)\n    tag_109:\n      pop\n      swap1\n      jump\t// out\n        /* \"#utility.yul\":7:419   */\n    tag_111:\n        /* \"#utility.yul\":85:90   */\n      0x00\n        /* \"#utility.yul\":110:176   */\n      tag_113\n        /* \"#utility.yul\":126:175   */\n      tag_114\n        /* \"#utility.yul\":168:174   */\n      dup5\n        /* \"#utility.yul\":126:175   */\n      tag_115\n      jump\t// in\n    tag_114:\n        /* \"#utility.yul\":110:176   */\n      tag_116\n      jump\t// in\n    tag_113:\n        /* \"#utility.yul\":101:176   */\n      swap1\n      pop\n        /* \"#utility.yul\":199:205   */\n      dup3\n        /* \"#utility.yul\":192:197   */\n      dup2\n        /* \"#utility.yul\":185:206   */\n      mstore\n        /* \"#utility.yul\":237:241   */\n      0x20\n        /* \"#utility.yul\":230:235   */\n      dup2\n        /* \"#utility.yul\":226:242   */\n      add\n        /* \"#utility.yul\":275:278   */\n      dup5\n        /* \"#utility.yul\":266:272   */\n      dup5\n        /* \"#utility.yul\":261:264   */\n      dup5\n        /* \"#utility.yul\":257:273   */\n      add\n        /* \"#utility.yul\":254:279   */\n      gt\n        /* \"#utility.yul\":251:363   */\n      iszero\n      tag_117\n      jumpi\n        /* \"#utility.yul\":282:361   */\n      tag_118\n      tag_119\n      jump\t// in\n    tag_118:\n        /* \"#utility.yul\":251:363   */\n    tag_117:\n        /* \"#utility.yul\":372:413   */\n      tag_120\n        /* \"#utility.yul\":406:412   */\n      dup5\n        /* \"#utility.yul\":401:404   */\n      dup3\n        /* \"#utility.yul\":396:399   */\n      dup6\n        /* \"#utility.yul\":372:413   */\n      tag_121\n      jump\t// in\n    tag_120:\n        /* \"#utility.yul\":91:419   */\n      pop\n        /* \"#utility.yul\":7:419   */\n      swap4\n      swap3\n      pop\n      pop\n      pop\n      jump\t// out\n        /* \"#utility.yul\":425:564   */\n    tag_122:\n        /* \"#utility.yul\":471:476   */\n      0x00\n        /* \"#utility.yul\":509:515   */\n      dup2\n        /* \"#utility.yul\":496:516   */\n      calldataload\n        /* \"#utility.yul\":487:516   */\n      swap1\n      pop\n        /* \"#utility.yul\":525:558   */\n      tag_124\n        /* \"#utility.yul\":552:557   */\n      dup2\n        /* \"#utility.yul\":525:558   */\n      tag_125\n      jump\t// in\n    tag_124:\n        /* \"#utility.yul\":425:564   */\n      swap3\n      swap2\n      pop\n      pop\n      jump\t// out\n        /* \"#utility.yul\":584:924   */\n    tag_126:\n        /* \"#utility.yul\":640:645   */\n      0x00\n        /* \"#utility.yul\":689:692   */\n      dup3\n        /* \"#utility.yul\":682:686   */\n      0x1f\n        /* \"#utility.yul\":674:680   */\n      dup4\n        /* \"#utility.yul\":670:687   */\n      add\n        /* \"#utility.yul\":666:693   */\n      slt\n        /* \"#utility.yul\":656:778   */\n      tag_128\n      jumpi\n        /* \"#utility.yul\":697:776   */\n      tag_129\n      tag_130\n      jump\t// in\n    tag_129:\n        /* \"#utility.yul\":656:778   */\n    tag_128:\n        /* \"#utility.yul\":814:820   */\n      dup2\n        /* \"#utility.yul\":801:821   */\n      calldataload\n        /* \"#utility.yul\":839:918   */\n      tag_131\n        /* \"#utility.yul\":914:917   */\n      dup5\n        /* \"#utility.yul\":906:912   */\n      dup3\n        /* \"#utility.yul\":899:903   */\n      0x20\n        /* \"#utility.yul\":891:897   */\n      dup7\n        /* \"#utility.yul\":887:904   */\n      add\n        /* \"#utility.yul\":839:918   */\n      tag_111\n      jump\t// in\n    tag_131:\n        /* \"#utility.yul\":830:918   */\n      swap2\n      pop\n        /* \"#utility.yul\":646:924   */\n      pop\n        /* \"#utility.yul\":584:924   */\n      swap3\n      swap2\n      pop\n      pop\n      jump\t// out\n        /* \"#utility.yul\":930:1069   */\n    tag_132:\n        /* \"#utility.yul\":976:981   */\n      0x00\n        /* \"#utility.yul\":1014:1020   */\n      dup2\n        /* \"#utility.yul\":1001:1021   */\n      calldataload\n        /* \"#utility.yul\":992:1021   */\n      swap1\n      pop\n        /* \"#utility.yul\":1030:1063   */\n      tag_134\n        /* \"#utility.yul\":1057:1062   */\n      dup2\n        /* \"#utility.yul\":1030:1063   */\n      tag_135\n      jump\t// in\n    tag_134:\n        /* \"#utility.yul\":930:1069   */\n      swap3\n      swap2\n      pop\n      pop\n      jump\t// out\n        /* \"#utility.yul\":1075:1404   */\n    tag_11:\n        /* \"#utility.yul\":1134:1140   */\n      0x00\n        /* \"#utility.yul\":1183:1185   */\n      0x20\n        /* \"#utility.yul\":1171:1180   */\n      dup3\n        /* \"#utility.yul\":1162:1169   */\n      dup5\n        /* \"#utility.yul\":1158:1181   */\n      sub\n        /* \"#utility.yul\":1154:1186   */\n      slt\n        /* \"#utility.yul\":1151:1270   */\n      iszero\n      tag_137\n      jumpi\n        /* \"#utility.yul\":1189:1268   */\n      tag_138\n      tag_139\n      jump\t// in\n    tag_138:\n        /* \"#utility.yul\":1151:1270   */\n    tag_137:\n        /* \"#utility.yul\":1309:1310   */\n      0x00\n        /* \"#utility.yul\":1334:1387   */\n      tag_140\n        /* \"#utility.yul\":1379:1386   */\n      dup5\n        /* \"#utility.yul\":1370:1376   */\n      dup3\n        /* \"#utility.yul\":1359:1368   */\n      dup6\n        /* \"#utility.yul\":1355:1377   */\n      add\n        /* \"#utility.yul\":1334:1387   */\n      tag_122\n      jump\t// in\n    tag_140:\n        /* \"#utility.yul\":1324:1387   */\n      swap2\n      pop\n        /* \"#utility.yul\":1280:1397   */\n      pop\n        /* \"#utility.yul\":1075:1404   */\n      swap3\n      swap2\n      pop\n      pop\n      jump\t// out\n        /* \"#utility.yul\":1410:1739   */\n    tag_21:\n        /* \"#utility.yul\":1469:1475   */\n      0x00\n        /* \"#utility.yul\":1518:1520   */\n      0x20\n        /* \"#utility.yul\":1506:1515   */\n      dup3\n        /* \"#utility.yul\":1497:1504   */\n      dup5\n        /* \"#utility.yul\":1493:1516   */\n      sub\n        /* \"#utility.yul\":1489:1521   */\n      slt\n        /* \"#utility.yul\":1486:1605   */\n      iszero\n      tag_142\n      jumpi\n        /* \"#utility.yul\":1524:1603   */\n      tag_143\n      tag_139\n      jump\t// in\n    tag_143:\n        /* \"#utility.yul\":1486:1605   */\n    tag_142:\n        /* \"#utility.yul\":1644:1645   */\n      0x00\n        /* \"#utility.yul\":1669:1722   */\n      tag_144\n        /* \"#utility.yul\":1714:1721   */\n      dup5\n        /* \"#utility.yul\":1705:1711   */\n      dup3\n        /* \"#utility.yul\":1694:1703   */\n      dup6\n        /* \"#utility.yul\":1690:1712   */\n      add\n        /* \"#utility.yul\":1669:1722   */\n      tag_132\n      jump\t// in\n    tag_144:\n        /* \"#utility.yul\":1659:1722   */\n      swap2\n      pop\n        /* \"#utility.yul\":1615:1732   */\n      pop\n        /* \"#utility.yul\":1410:1739   */\n      swap3\n      swap2\n      pop\n      pop\n      jump\t// out\n        /* \"#utility.yul\":1745:3050   */\n    tag_17:\n        /* \"#utility.yul\":1861:1867   */\n      0x00\n        /* \"#utility.yul\":1869:1875   */\n      dup1\n        /* \"#utility.yul\":1877:1883   */\n      0x00\n        /* \"#utility.yul\":1885:1891   */\n      dup1\n        /* \"#utility.yul\":1934:1937   */\n      0x80\n        /* \"#utility.yul\":1922:1931   */\n      dup6\n        /* \"#utility.yul\":1913:1920   */\n      dup8\n        /* \"#utility.yul\":1909:1932   */\n      sub\n        /* \"#utility.yul\":1905:1938   */\n      slt\n        /* \"#utility.yul\":1902:2022   */\n      iszero\n      tag_146\n      jumpi\n        /* \"#utility.yul\":1941:2020   */\n      tag_147\n      tag_139\n      jump\t// in\n    tag_147:\n        /* \"#utility.yul\":1902:2022   */\n    tag_146:\n        /* \"#utility.yul\":2061:2062   */\n      0x00\n        /* \"#utility.yul\":2086:2139   */\n      tag_148\n        /* \"#utility.yul\":2131:2138   */\n      dup8\n        /* \"#utility.yul\":2122:2128   */\n      dup3\n        /* \"#utility.yul\":2111:2120   */\n      dup9\n        /* \"#utility.yul\":2107:2129   */\n      add\n        /* \"#utility.yul\":2086:2139   */\n      tag_132\n      jump\t// in\n    tag_148:\n        /* \"#utility.yul\":2076:2139   */\n      swap5\n      pop\n        /* \"#utility.yul\":2032:2149   */\n      pop\n        /* \"#utility.yul\":2216:2218   */\n      0x20\n        /* \"#utility.yul\":2205:2214   */\n      dup6\n        /* \"#utility.yul\":2201:2219   */\n      add\n        /* \"#utility.yul\":2188:2220   */\n      calldataload\n        /* \"#utility.yul\":2247:2265   */\n      0xffffffffffffffff\n        /* \"#utility.yul\":2239:2245   */\n      dup2\n        /* \"#utility.yul\":2236:2266   */\n      gt\n        /* \"#utility.yul\":2233:2350   */\n      iszero\n      tag_149\n      jumpi\n        /* \"#utility.yul\":2269:2348   */\n      tag_150\n      tag_151\n      jump\t// in\n    tag_150:\n        /* \"#utility.yul\":2233:2350   */\n    tag_149:\n        /* \"#utility.yul\":2374:2437   */\n      tag_152\n        /* \"#utility.yul\":2429:2436   */\n      dup8\n        /* \"#utility.yul\":2420:2426   */\n      dup3\n        /* \"#utility.yul\":2409:2418   */\n      dup9\n        /* \"#utility.yul\":2405:2427   */\n      add\n        /* \"#utility.yul\":2374:2437   */\n      tag_126\n      jump\t// in\n    tag_152:\n        /* \"#utility.yul\":2364:2437   */\n      swap4\n      pop\n        /* \"#utility.yul\":2159:2447   */\n      pop\n        /* \"#utility.yul\":2514:2516   */\n      0x40\n        /* \"#utility.yul\":2503:2512   */\n      dup6\n        /* \"#utility.yul\":2499:2517   */\n      add\n        /* \"#utility.yul\":2486:2518   */\n      calldataload\n        /* \"#utility.yul\":2545:2563   */\n      0xffffffffffffffff\n        /* \"#utility.yul\":2537:2543   */\n      dup2\n        /* \"#utility.yul\":2534:2564   */\n      gt\n        /* \"#utility.yul\":2531:2648   */\n      iszero\n      tag_153\n      jumpi\n        /* \"#utility.yul\":2567:2646   */\n      tag_154\n      tag_151\n      jump\t// in\n    tag_154:\n        /* \"#utility.yul\":2531:2648   */\n    tag_153:\n        /* \"#utility.yul\":2672:2735   */\n      tag_155\n        /* \"#utility.yul\":2727:2734   */\n      dup8\n        /* \"#utility.yul\":2718:2724   */\n      dup3\n        /* \"#utility.yul\":2707:2716   */\n      dup9\n        /* \"#utility.yul\":2703:2725   */\n      add\n        /* \"#utility.yul\":2672:2735   */\n      tag_126\n      jump\t// in\n    tag_155:\n        /* \"#utility.yul\":2662:2735   */\n      swap3\n      pop\n        /* \"#utility.yul\":2457:2745   */\n      pop\n        /* \"#utility.yul\":2812:2814   */\n      0x60\n        /* \"#utility.yul\":2801:2810   */\n      dup6\n        /* \"#utility.yul\":2797:2815   */\n      add\n        /* \"#utility.yul\":2784:2816   */\n      calldataload\n        /* \"#utility.yul\":2843:2861   */\n      0xffffffffffffffff\n        /* \"#utility.yul\":2835:2841   */\n      dup2\n        /* \"#utility.yul\":2832:2862   */\n      gt\n        /* \"#utility.yul\":2829:2946   */\n      iszero\n      tag_156\n      jumpi\n        /* \"#utility.yul\":2865:2944   */\n      tag_157\n      tag_151\n      jump\t// in\n    tag_157:\n        /* \"#utility.yul\":2829:2946   */\n    tag_156:\n        /* \"#utility.yul\":2970:3033   */\n      tag_158\n        /* \"#utility.yul\":3025:3032   */\n      dup8\n        /* \"#utility.yul\":3016:3022   */\n      dup3\n        /* \"#utility.yul\":3005:3014   */\n      dup9\n        /* \"#utility.yul\":3001:3023   */\n      add\n        /* \"#utility.yul\":2970:3033   */\n      tag_126\n      jump\t// in\n    tag_158:\n        /* \"#utility.yul\":2960:3033   */\n      swap2\n      pop\n        /* \"#utility.yul\":2755:3043   */\n      pop\n        /* \"#utility.yul\":1745:3050   */\n      swap3\n      swap6\n      swap2\n      swap5\n      pop\n      swap3\n      pop\n      jump\t// out\n        /* \"#utility.yul\":3056:3198   */\n    tag_159:\n        /* \"#utility.yul\":3159:3191   */\n      tag_161\n        /* \"#utility.yul\":3185:3190   */\n      dup2\n        /* \"#utility.yul\":3159:3191   */\n      tag_162\n      jump\t// in\n    tag_161:\n        /* \"#utility.yul\":3154:3157   */\n      dup3\n        /* \"#utility.yul\":3147:3192   */\n      mstore\n        /* \"#utility.yul\":3056:3198   */\n      pop\n      pop\n      jump\t// out\n        /* \"#utility.yul\":3204:3322   */\n    tag_163:\n        /* \"#utility.yul\":3291:3315   */\n      tag_165\n        /* \"#utility.yul\":3309:3314   */\n      dup2\n        /* \"#utility.yul\":3291:3315   */\n      tag_166\n      jump\t// in\n    tag_165:\n        /* \"#utility.yul\":3286:3289   */\n      dup3\n        /* \"#utility.yul\":3279:3316   */\n      mstore\n        /* \"#utility.yul\":3204:3322   */\n      pop\n      pop\n      jump\t// out\n        /* \"#utility.yul\":3328:3437   */\n    tag_167:\n        /* \"#utility.yul\":3409:3430   */\n      tag_169\n        /* \"#utility.yul\":3424:3429   */\n      dup2\n        /* \"#utility.yul\":3409:3430   */\n      tag_170\n      jump\t// in\n    tag_169:\n        /* \"#utility.yul\":3404:3407   */\n      dup3\n        /* \"#utility.yul\":3397:3431   */\n      mstore\n        /* \"#utility.yul\":3328:3437   */\n      pop\n      pop\n      jump\t// out\n        /* \"#utility.yul\":3443:3561   */\n    tag_171:\n        /* \"#utility.yul\":3530:3554   */\n      tag_173\n        /* \"#utility.yul\":3548:3553   */\n      dup2\n        /* \"#utility.yul\":3530:3554   */\n      tag_174\n      jump\t// in\n    tag_173:\n        /* \"#utility.yul\":3525:3528   */\n      dup3\n        /* \"#utility.yul\":3518:3555   */\n      mstore\n        /* \"#utility.yul\":3443:3561   */\n      pop\n      pop\n      jump\t// out\n        /* \"#utility.yul\":3567:3931   */\n    tag_175:\n        /* \"#utility.yul\":3655:3658   */\n      0x00\n        /* \"#utility.yul\":3683:3722   */\n      tag_177\n        /* \"#utility.yul\":3716:3721   */\n      dup3\n        /* \"#utility.yul\":3683:3722   */\n      tag_178\n      jump\t// in\n    tag_177:\n        /* \"#utility.yul\":3738:3809   */\n      tag_179\n        /* \"#utility.yul\":3802:3808   */\n      dup2\n        /* \"#utility.yul\":3797:3800   */\n      dup6\n        /* \"#utility.yul\":3738:3809   */\n      tag_180\n      jump\t// in\n    tag_179:\n        /* \"#utility.yul\":3731:3809   */\n      swap4\n      pop\n        /* \"#utility.yul\":3818:3870   */\n      tag_181\n        /* \"#utility.yul\":3863:3869   */\n      dup2\n        /* \"#utility.yul\":3858:3861   */\n      dup6\n        /* \"#utility.yul\":3851:3855   */\n      0x20\n        /* \"#utility.yul\":3844:3849   */\n      dup7\n        /* \"#utility.yul\":3840:3856   */\n      add\n        /* \"#utility.yul\":3818:3870   */\n      tag_182\n      jump\t// in\n    tag_181:\n        /* \"#utility.yul\":3895:3924   */\n      tag_183\n        /* \"#utility.yul\":3917:3923   */\n      dup2\n        /* \"#utility.yul\":3895:3924   */\n      tag_184\n      jump\t// in\n    tag_183:\n        /* \"#utility.yul\":3890:3893   */\n      dup5\n        /* \"#utility.yul\":3886:3925   */\n      add\n        /* \"#utility.yul\":3879:3925   */\n      swap2\n      pop\n        /* \"#utility.yul\":3659:3931   */\n      pop\n        /* \"#utility.yul\":3567:3931   */\n      swap3\n      swap2\n      pop\n      pop\n      jump\t// out\n        /* \"#utility.yul\":3937:4303   */\n    tag_185:\n        /* \"#utility.yul\":4079:4082   */\n      0x00\n        /* \"#utility.yul\":4100:4167   */\n      tag_187\n        /* \"#utility.yul\":4164:4166   */\n      0x1d\n        /* \"#utility.yul\":4159:4162   */\n      dup4\n        /* \"#utility.yul\":4100:4167   */\n      tag_180\n      jump\t// in\n    tag_187:\n        /* \"#utility.yul\":4093:4167   */\n      swap2\n      pop\n        /* \"#utility.yul\":4176:4269   */\n      tag_188\n        /* \"#utility.yul\":4265:4268   */\n      dup3\n        /* \"#utility.yul\":4176:4269   */\n      tag_189\n      jump\t// in\n    tag_188:\n        /* \"#utility.yul\":4294:4296   */\n      0x20\n        /* \"#utility.yul\":4289:4292   */\n      dup3\n        /* \"#utility.yul\":4285:4297   */\n      add\n        /* \"#utility.yul\":4278:4297   */\n      swap1\n      pop\n        /* \"#utility.yul\":3937:4303   */\n      swap2\n      swap1\n      pop\n      jump\t// out\n        /* \"#utility.yul\":4309:4427   */\n    tag_190:\n        /* \"#utility.yul\":4396:4420   */\n      tag_192\n        /* \"#utility.yul\":4414:4419   */\n      dup2\n        /* \"#utility.yul\":4396:4420   */\n      tag_193\n      jump\t// in\n    tag_192:\n        /* \"#utility.yul\":4391:4394   */\n      dup3\n        /* \"#utility.yul\":4384:4421   */\n      mstore\n        /* \"#utility.yul\":4309:4427   */\n      pop\n      pop\n      jump\t// out\n        /* \"#utility.yul\":4433:4655   */\n    tag_38:\n        /* \"#utility.yul\":4526:4530   */\n      0x00\n        /* \"#utility.yul\":4564:4566   */\n      0x20\n        /* \"#utility.yul\":4553:4562   */\n      dup3\n        /* \"#utility.yul\":4549:4567   */\n      add\n        /* \"#utility.yul\":4541:4567   */\n      swap1\n      pop\n        /* \"#utility.yul\":4577:4648   */\n      tag_195\n        /* \"#utility.yul\":4645:4646   */\n      0x00\n        /* \"#utility.yul\":4634:4643   */\n      dup4\n        /* \"#utility.yul\":4630:4647   */\n      add\n        /* \"#utility.yul\":4621:4627   */\n      dup5\n        /* \"#utility.yul\":4577:4648   */\n      tag_163\n      jump\t// in\n    tag_195:\n        /* \"#utility.yul\":4433:4655   */\n      swap3\n      swap2\n      pop\n      pop\n      jump\t// out\n        /* \"#utility.yul\":4661:4993   */\n    tag_97:\n        /* \"#utility.yul\":4782:4786   */\n      0x00\n        /* \"#utility.yul\":4820:4822   */\n      0x40\n        /* \"#utility.yul\":4809:4818   */\n      dup3\n        /* \"#utility.yul\":4805:4823   */\n      add\n        /* \"#utility.yul\":4797:4823   */\n      swap1\n      pop\n        /* \"#utility.yul\":4833:4904   */\n      tag_197\n        /* \"#utility.yul\":4901:4902   */\n      0x00\n        /* \"#utility.yul\":4890:4899   */\n      dup4\n        /* \"#utility.yul\":4886:4903   */\n      add\n        /* \"#utility.yul\":4877:4883   */\n      dup6\n        /* \"#utility.yul\":4833:4904   */\n      tag_163\n      jump\t// in\n    tag_197:\n        /* \"#utility.yul\":4914:4986   */\n      tag_198\n        /* \"#utility.yul\":4982:4984   */\n      0x20\n        /* \"#utility.yul\":4971:4980   */\n      dup4\n        /* \"#utility.yul\":4967:4985   */\n      add\n        /* \"#utility.yul\":4958:4964   */\n      dup5\n        /* \"#utility.yul\":4914:4986   */\n      tag_163\n      jump\t// in\n    tag_198:\n        /* \"#utility.yul\":4661:4993   */\n      swap4\n      swap3\n      pop\n      pop\n      pop\n      jump\t// out\n        /* \"#utility.yul\":4999:5209   */\n    tag_29:\n        /* \"#utility.yul\":5086:5090   */\n      0x00\n        /* \"#utility.yul\":5124:5126   */\n      0x20\n        /* \"#utility.yul\":5113:5122   */\n      dup3\n        /* \"#utility.yul\":5109:5127   */\n      add\n        /* \"#utility.yul\":5101:5127   */\n      swap1\n      pop\n        /* \"#utility.yul\":5137:5202   */\n      tag_200\n        /* \"#utility.yul\":5199:5200   */\n      0x00\n        /* \"#utility.yul\":5188:5197   */\n      dup4\n        /* \"#utility.yul\":5184:5201   */\n      add\n        /* \"#utility.yul\":5175:5181   */\n      dup5\n        /* \"#utility.yul\":5137:5202   */\n      tag_167\n      jump\t// in\n    tag_200:\n        /* \"#utility.yul\":4999:5209   */\n      swap3\n      swap2\n      pop\n      pop\n      jump\t// out\n        /* \"#utility.yul\":5215:5547   */\n    tag_24:\n        /* \"#utility.yul\":5336:5340   */\n      0x00\n        /* \"#utility.yul\":5374:5376   */\n      0x40\n        /* \"#utility.yul\":5363:5372   */\n      dup3\n        /* \"#utility.yul\":5359:5377   */\n      add\n        /* \"#utility.yul\":5351:5377   */\n      swap1\n      pop\n        /* \"#utility.yul\":5387:5458   */\n      tag_202\n        /* \"#utility.yul\":5455:5456   */\n      0x00\n        /* \"#utility.yul\":5444:5453   */\n      dup4\n        /* \"#utility.yul\":5440:5457   */\n      add\n        /* \"#utility.yul\":5431:5437   */\n      dup6\n        /* \"#utility.yul\":5387:5458   */\n      tag_171\n      jump\t// in\n    tag_202:\n        /* \"#utility.yul\":5468:5540   */\n      tag_203\n        /* \"#utility.yul\":5536:5538   */\n      0x20\n        /* \"#utility.yul\":5525:5534   */\n      dup4\n        /* \"#utility.yul\":5521:5539   */\n      add\n        /* \"#utility.yul\":5512:5518   */\n      dup5\n        /* \"#utility.yul\":5468:5540   */\n      tag_190\n      jump\t// in\n    tag_203:\n        /* \"#utility.yul\":5215:5547   */\n      swap4\n      swap3\n      pop\n      pop\n      pop\n      jump\t// out\n        /* \"#utility.yul\":5553:5972   */\n    tag_62:\n        /* \"#utility.yul\":5719:5723   */\n      0x00\n        /* \"#utility.yul\":5757:5759   */\n      0x20\n        /* \"#utility.yul\":5746:5755   */\n      dup3\n        /* \"#utility.yul\":5742:5760   */\n      add\n        /* \"#utility.yul\":5734:5760   */\n      swap1\n      pop\n        /* \"#utility.yul\":5806:5815   */\n      dup2\n        /* \"#utility.yul\":5800:5804   */\n      dup2\n        /* \"#utility.yul\":5796:5816   */\n      sub\n        /* \"#utility.yul\":5792:5793   */\n      0x00\n        /* \"#utility.yul\":5781:5790   */\n      dup4\n        /* \"#utility.yul\":5777:5794   */\n      add\n        /* \"#utility.yul\":5770:5817   */\n      mstore\n        /* \"#utility.yul\":5834:5965   */\n      tag_205\n        /* \"#utility.yul\":5960:5964   */\n      dup2\n        /* \"#utility.yul\":5834:5965   */\n      tag_185\n      jump\t// in\n    tag_205:\n        /* \"#utility.yul\":5826:5965   */\n      swap1\n      pop\n        /* \"#utility.yul\":5553:5972   */\n      swap2\n      swap1\n      pop\n      jump\t// out\n        /* \"#utility.yul\":5978:7411   */\n    tag_14:\n        /* \"#utility.yul\":6381:6385   */\n      0x00\n        /* \"#utility.yul\":6419:6422   */\n      0x0120\n        /* \"#utility.yul\":6408:6417   */\n      dup3\n        /* \"#utility.yul\":6404:6423   */\n      add\n        /* \"#utility.yul\":6396:6423   */\n      swap1\n      pop\n        /* \"#utility.yul\":6433:6504   */\n      tag_207\n        /* \"#utility.yul\":6501:6502   */\n      0x00\n        /* \"#utility.yul\":6490:6499   */\n      dup4\n        /* \"#utility.yul\":6486:6503   */\n      add\n        /* \"#utility.yul\":6477:6483   */\n      dup13\n        /* \"#utility.yul\":6433:6504   */\n      tag_190\n      jump\t// in\n    tag_207:\n        /* \"#utility.yul\":6514:6586   */\n      tag_208\n        /* \"#utility.yul\":6582:6584   */\n      0x20\n        /* \"#utility.yul\":6571:6580   */\n      dup4\n        /* \"#utility.yul\":6567:6585   */\n      add\n        /* \"#utility.yul\":6558:6564   */\n      dup12\n        /* \"#utility.yul\":6514:6586   */\n      tag_190\n      jump\t// in\n    tag_208:\n        /* \"#utility.yul\":6633:6642   */\n      dup2\n        /* \"#utility.yul\":6627:6631   */\n      dup2\n        /* \"#utility.yul\":6623:6643   */\n      sub\n        /* \"#utility.yul\":6618:6620   */\n      0x40\n        /* \"#utility.yul\":6607:6616   */\n      dup4\n        /* \"#utility.yul\":6603:6621   */\n      add\n        /* \"#utility.yul\":6596:6644   */\n      mstore\n        /* \"#utility.yul\":6661:6739   */\n      tag_209\n        /* \"#utility.yul\":6734:6738   */\n      dup2\n        /* \"#utility.yul\":6725:6731   */\n      dup11\n        /* \"#utility.yul\":6661:6739   */\n      tag_175\n      jump\t// in\n    tag_209:\n        /* \"#utility.yul\":6653:6739   */\n      swap1\n      pop\n        /* \"#utility.yul\":6786:6795   */\n      dup2\n        /* \"#utility.yul\":6780:6784   */\n      dup2\n        /* \"#utility.yul\":6776:6796   */\n      sub\n        /* \"#utility.yul\":6771:6773   */\n      0x60\n        /* \"#utility.yul\":6760:6769   */\n      dup4\n        /* \"#utility.yul\":6756:6774   */\n      add\n        /* \"#utility.yul\":6749:6797   */\n      mstore\n        /* \"#utility.yul\":6814:6892   */\n      tag_210\n        /* \"#utility.yul\":6887:6891   */\n      dup2\n        /* \"#utility.yul\":6878:6884   */\n      dup10\n        /* \"#utility.yul\":6814:6892   */\n      tag_175\n      jump\t// in\n    tag_210:\n        /* \"#utility.yul\":6806:6892   */\n      swap1\n      pop\n        /* \"#utility.yul\":6940:6949   */\n      dup2\n        /* \"#utility.yul\":6934:6938   */\n      dup2\n        /* \"#utility.yul\":6930:6950   */\n      sub\n        /* \"#utility.yul\":6924:6927   */\n      0x80\n        /* \"#utility.yul\":6913:6922   */\n      dup4\n        /* \"#utility.yul\":6909:6928   */\n      add\n        /* \"#utility.yul\":6902:6951   */\n      mstore\n        /* \"#utility.yul\":6968:7046   */\n      tag_211\n        /* \"#utility.yul\":7041:7045   */\n      dup2\n        /* \"#utility.yul\":7032:7038   */\n      dup9\n        /* \"#utility.yul\":6968:7046   */\n      tag_175\n      jump\t// in\n    tag_211:\n        /* \"#utility.yul\":6960:7046   */\n      swap1\n      pop\n        /* \"#utility.yul\":7056:7123   */\n      tag_212\n        /* \"#utility.yul\":7118:7121   */\n      0xa0\n        /* \"#utility.yul\":7107:7116   */\n      dup4\n        /* \"#utility.yul\":7103:7122   */\n      add\n        /* \"#utility.yul\":7094:7100   */\n      dup8\n        /* \"#utility.yul\":7056:7123   */\n      tag_167\n      jump\t// in\n    tag_212:\n        /* \"#utility.yul\":7133:7206   */\n      tag_213\n        /* \"#utility.yul\":7201:7204   */\n      0xc0\n        /* \"#utility.yul\":7190:7199   */\n      dup4\n        /* \"#utility.yul\":7186:7205   */\n      add\n        /* \"#utility.yul\":7177:7183   */\n      dup7\n        /* \"#utility.yul\":7133:7206   */\n      tag_190\n      jump\t// in\n    tag_213:\n        /* \"#utility.yul\":7216:7305   */\n      tag_214\n        /* \"#utility.yul\":7300:7303   */\n      0xe0\n        /* \"#utility.yul\":7289:7298   */\n      dup4\n        /* \"#utility.yul\":7285:7304   */\n      add\n        /* \"#utility.yul\":7276:7282   */\n      dup6\n        /* \"#utility.yul\":7216:7305   */\n      tag_159\n      jump\t// in\n    tag_214:\n        /* \"#utility.yul\":7315:7404   */\n      tag_215\n        /* \"#utility.yul\":7399:7402   */\n      0x0100\n        /* \"#utility.yul\":7388:7397   */\n      dup4\n        /* \"#utility.yul\":7384:7403   */\n      add\n        /* \"#utility.yul\":7375:7381   */\n      dup5\n        /* \"#utility.yul\":7315:7404   */\n      tag_159\n      jump\t// in\n    tag_215:\n        /* \"#utility.yul\":5978:7411   */\n      swap11\n      swap10\n      pop\n      pop\n      pop\n      pop\n      pop\n      pop\n      pop\n      pop\n      pop\n      pop\n      jump\t// out\n        /* \"#utility.yul\":7417:7546   */\n    tag_116:\n        /* \"#utility.yul\":7451:7457   */\n      0x00\n        /* \"#utility.yul\":7478:7498   */\n      tag_217\n      tag_218\n      jump\t// in\n    tag_217:\n        /* \"#utility.yul\":7468:7498   */\n      swap1\n      pop\n        /* \"#utility.yul\":7507:7540   */\n      tag_219\n        /* \"#utility.yul\":7535:7539   */\n      dup3\n        /* \"#utility.yul\":7527:7533   */\n      dup3\n        /* \"#utility.yul\":7507:7540   */\n      tag_220\n      jump\t// in\n    tag_219:\n        /* \"#utility.yul\":7417:7546   */\n      swap2\n      swap1\n      pop\n      jump\t// out\n        /* \"#utility.yul\":7552:7627   */\n    tag_218:\n        /* \"#utility.yul\":7585:7591   */\n      0x00\n        /* \"#utility.yul\":7618:7620   */\n      0x40\n        /* \"#utility.yul\":7612:7621   */\n      mload\n        /* \"#utility.yul\":7602:7621   */\n      swap1\n      pop\n        /* \"#utility.yul\":7552:7627   */\n      swap1\n      jump\t// out\n        /* \"#utility.yul\":7633:7941   */\n    tag_115:\n        /* \"#utility.yul\":7695:7699   */\n      0x00\n        /* \"#utility.yul\":7785:7803   */\n      0xffffffffffffffff\n        /* \"#utility.yul\":7777:7783   */\n      dup3\n        /* \"#utility.yul\":7774:7804   */\n      gt\n        /* \"#utility.yul\":7771:7827   */\n      iszero\n      tag_223\n      jumpi\n        /* \"#utility.yul\":7807:7825   */\n      tag_224\n      tag_225\n      jump\t// in\n    tag_224:\n        /* \"#utility.yul\":7771:7827   */\n    tag_223:\n        /* \"#utility.yul\":7845:7874   */\n      tag_226\n        /* \"#utility.yul\":7867:7873   */\n      dup3\n        /* \"#utility.yul\":7845:7874   */\n      tag_184\n      jump\t// in\n    tag_226:\n        /* \"#utility.yul\":7837:7874   */\n      swap1\n      pop\n        /* \"#utility.yul\":7929:7933   */\n      0x20\n        /* \"#utility.yul\":7923:7927   */\n      dup2\n        /* \"#utility.yul\":7919:7934   */\n      add\n        /* \"#utility.yul\":7911:7934   */\n      swap1\n      pop\n        /* \"#utility.yul\":7633:7941   */\n      swap2\n      swap1\n      pop\n      jump\t// out\n        /* \"#utility.yul\":7947:8046   */\n    tag_178:\n        /* \"#utility.yul\":7999:8005   */\n      0x00\n        /* \"#utility.yul\":8033:8038   */\n      dup2\n        /* \"#utility.yul\":8027:8039   */\n      mload\n        /* \"#utility.yul\":8017:8039   */\n      swap1\n      pop\n        /* \"#utility.yul\":7947:8046   */\n      swap2\n      swap1\n      pop\n      jump\t// out\n        /* \"#utility.yul\":8052:8221   */\n    tag_180:\n        /* \"#utility.yul\":8136:8147   */\n      0x00\n        /* \"#utility.yul\":8170:8176   */\n      dup3\n        /* \"#utility.yul\":8165:8168   */\n      dup3\n        /* \"#utility.yul\":8158:8177   */\n      mstore\n        /* \"#utility.yul\":8210:8214   */\n      0x20\n        /* \"#utility.yul\":8205:8208   */\n      dup3\n        /* \"#utility.yul\":8201:8215   */\n      add\n        /* \"#utility.yul\":8186:8215   */\n      swap1\n      pop\n        /* \"#utility.yul\":8052:8221   */\n      swap3\n      swap2\n      pop\n      pop\n      jump\t// out\n        /* \"#utility.yul\":8227:8323   */\n    tag_166:\n        /* \"#utility.yul\":8264:8271   */\n      0x00\n        /* \"#utility.yul\":8293:8317   */\n      tag_230\n        /* \"#utility.yul\":8311:8316   */\n      dup3\n        /* \"#utility.yul\":8293:8317   */\n      tag_231\n      jump\t// in\n    tag_230:\n        /* \"#utility.yul\":8282:8317   */\n      swap1\n      pop\n        /* \"#utility.yul\":8227:8323   */\n      swap2\n      swap1\n      pop\n      jump\t// out\n        /* \"#utility.yul\":8329:8433   */\n    tag_162:\n        /* \"#utility.yul\":8374:8381   */\n      0x00\n        /* \"#utility.yul\":8403:8427   */\n      tag_233\n        /* \"#utility.yul\":8421:8426   */\n      dup3\n        /* \"#utility.yul\":8403:8427   */\n      tag_231\n      jump\t// in\n    tag_233:\n        /* \"#utility.yul\":8392:8427   */\n      swap1\n      pop\n        /* \"#utility.yul\":8329:8433   */\n      swap2\n      swap1\n      pop\n      jump\t// out\n        /* \"#utility.yul\":8439:8529   */\n    tag_170:\n        /* \"#utility.yul\":8473:8480   */\n      0x00\n        /* \"#utility.yul\":8516:8521   */\n      dup2\n        /* \"#utility.yul\":8509:8522   */\n      iszero\n        /* \"#utility.yul\":8502:8523   */\n      iszero\n        /* \"#utility.yul\":8491:8523   */\n      swap1\n      pop\n        /* \"#utility.yul\":8439:8529   */\n      swap2\n      swap1\n      pop\n      jump\t// out\n        /* \"#utility.yul\":8535:8612   */\n    tag_174:\n        /* \"#utility.yul\":8572:8579   */\n      0x00\n        /* \"#utility.yul\":8601:8606   */\n      dup2\n        /* \"#utility.yul\":8590:8606   */\n      swap1\n      pop\n        /* \"#utility.yul\":8535:8612   */\n      swap2\n      swap1\n      pop\n      jump\t// out\n        /* \"#utility.yul\":8618:8744   */\n    tag_231:\n        /* \"#utility.yul\":8655:8662   */\n      0x00\n        /* \"#utility.yul\":8695:8737   */\n      0xffffffffffffffffffffffffffffffffffffffff\n        /* \"#utility.yul\":8688:8693   */\n      dup3\n        /* \"#utility.yul\":8684:8738   */\n      and\n        /* \"#utility.yul\":8673:8738   */\n      swap1\n      pop\n        /* \"#utility.yul\":8618:8744   */\n      swap2\n      swap1\n      pop\n      jump\t// out\n        /* \"#utility.yul\":8750:8827   */\n    tag_193:\n        /* \"#utility.yul\":8787:8794   */\n      0x00\n        /* \"#utility.yul\":8816:8821   */\n      dup2\n        /* \"#utility.yul\":8805:8821   */\n      swap1\n      pop\n        /* \"#utility.yul\":8750:8827   */\n      swap2\n      swap1\n      pop\n      jump\t// out\n        /* \"#utility.yul\":8833:8987   */\n    tag_121:\n        /* \"#utility.yul\":8917:8923   */\n      dup3\n        /* \"#utility.yul\":8912:8915   */\n      dup2\n        /* \"#utility.yul\":8907:8910   */\n      dup4\n        /* \"#utility.yul\":8894:8924   */\n      calldatacopy\n        /* \"#utility.yul\":8979:8980   */\n      0x00\n        /* \"#utility.yul\":8970:8976   */\n      dup4\n        /* \"#utility.yul\":8965:8968   */\n      dup4\n        /* \"#utility.yul\":8961:8977   */\n      add\n        /* \"#utility.yul\":8954:8981   */\n      mstore\n        /* \"#utility.yul\":8833:8987   */\n      pop\n      pop\n      pop\n      jump\t// out\n        /* \"#utility.yul\":8993:9300   */\n    tag_182:\n        /* \"#utility.yul\":9061:9062   */\n      0x00\n        /* \"#utility.yul\":9071:9184   */\n    tag_240:\n        /* \"#utility.yul\":9085:9091   */\n      dup4\n        /* \"#utility.yul\":9082:9083   */\n      dup2\n        /* \"#utility.yul\":9079:9092   */\n      lt\n        /* \"#utility.yul\":9071:9184   */\n      iszero\n      tag_242\n      jumpi\n        /* \"#utility.yul\":9170:9171   */\n      dup1\n        /* \"#utility.yul\":9165:9168   */\n      dup3\n        /* \"#utility.yul\":9161:9172   */\n      add\n        /* \"#utility.yul\":9155:9173   */\n      mload\n        /* \"#utility.yul\":9151:9152   */\n      dup2\n        /* \"#utility.yul\":9146:9149   */\n      dup5\n        /* \"#utility.yul\":9142:9153   */\n      add\n        /* \"#utility.yul\":9135:9174   */\n      mstore\n        /* \"#utility.yul\":9107:9109   */\n      0x20\n        /* \"#utility.yul\":9104:9105   */\n      dup2\n        /* \"#utility.yul\":9100:9110   */\n      add\n        /* \"#utility.yul\":9095:9110   */\n      swap1\n      pop\n        /* \"#utility.yul\":9071:9184   */\n      jump(tag_240)\n    tag_242:\n        /* \"#utility.yul\":9202:9208   */\n      dup4\n        /* \"#utility.yul\":9199:9200   */\n      dup2\n        /* \"#utility.yul\":9196:9209   */\n      gt\n        /* \"#utility.yul\":9193:9294   */\n      iszero\n      tag_243\n      jumpi\n        /* \"#utility.yul\":9282:9283   */\n      0x00\n        /* \"#utility.yul\":9273:9279   */\n      dup5\n        /* \"#utility.yul\":9268:9271   */\n      dup5\n        /* \"#utility.yul\":9264:9280   */\n      add\n        /* \"#utility.yul\":9257:9284   */\n      mstore\n        /* \"#utility.yul\":9193:9294   */\n    tag_243:\n        /* \"#utility.yul\":9042:9300   */\n      pop\n        /* \"#utility.yul\":8993:9300   */\n      pop\n      pop\n      pop\n      jump\t// out\n        /* \"#utility.yul\":9306:9626   */\n    tag_40:\n        /* \"#utility.yul\":9350:9356   */\n      0x00\n        /* \"#utility.yul\":9387:9388   */\n      0x02\n        /* \"#utility.yul\":9381:9385   */\n      dup3\n        /* \"#utility.yul\":9377:9389   */\n      div\n        /* \"#utility.yul\":9367:9389   */\n      swap1\n      pop\n        /* \"#utility.yul\":9434:9435   */\n      0x01\n        /* \"#utility.yul\":9428:9432   */\n      dup3\n        /* \"#utility.yul\":9424:9436   */\n      and\n        /* \"#utility.yul\":9455:9473   */\n      dup1\n        /* \"#utility.yul\":9445:9526   */\n      tag_245\n      jumpi\n        /* \"#utility.yul\":9511:9515   */\n      0x7f\n        /* \"#utility.yul\":9503:9509   */\n      dup3\n        /* \"#utility.yul\":9499:9516   */\n      and\n        /* \"#utility.yul\":9489:9516   */\n      swap2\n      pop\n        /* \"#utility.yul\":9445:9526   */\n    tag_245:\n        /* \"#utility.yul\":9573:9575   */\n      0x20\n        /* \"#utility.yul\":9565:9571   */\n      dup3\n        /* \"#utility.yul\":9562:9576   */\n      lt\n        /* \"#utility.yul\":9542:9560   */\n      dup2\n        /* \"#utility.yul\":9539:9577   */\n      eq\n        /* \"#utility.yul\":9536:9620   */\n      iszero\n      tag_246\n      jumpi\n        /* \"#utility.yul\":9592:9610   */\n      tag_247\n      tag_248\n      jump\t// in\n    tag_247:\n        /* \"#utility.yul\":9536:9620   */\n    tag_246:\n        /* \"#utility.yul\":9357:9626   */\n      pop\n        /* \"#utility.yul\":9306:9626   */\n      swap2\n      swap1\n      pop\n      jump\t// out\n        /* \"#utility.yul\":9632:9913   */\n    tag_220:\n        /* \"#utility.yul\":9715:9742   */\n      tag_250\n        /* \"#utility.yul\":9737:9741   */\n      dup3\n        /* \"#utility.yul\":9715:9742   */\n      tag_184\n      jump\t// in\n    tag_250:\n        /* \"#utility.yul\":9707:9713   */\n      dup2\n        /* \"#utility.yul\":9703:9743   */\n      add\n        /* \"#utility.yul\":9845:9851   */\n      dup2\n        /* \"#utility.yul\":9833:9843   */\n      dup2\n        /* \"#utility.yul\":9830:9852   */\n      lt\n        /* \"#utility.yul\":9809:9827   */\n      0xffffffffffffffff\n        /* \"#utility.yul\":9797:9807   */\n      dup3\n        /* \"#utility.yul\":9794:9828   */\n      gt\n        /* \"#utility.yul\":9791:9853   */\n      or\n        /* \"#utility.yul\":9788:9876   */\n      iszero\n      tag_251\n      jumpi\n        /* \"#utility.yul\":9856:9874   */\n      tag_252\n      tag_225\n      jump\t// in\n    tag_252:\n        /* \"#utility.yul\":9788:9876   */\n    tag_251:\n        /* \"#utility.yul\":9896:9906   */\n      dup1\n        /* \"#utility.yul\":9892:9894   */\n      0x40\n        /* \"#utility.yul\":9885:9907   */\n      mstore\n        /* \"#utility.yul\":9675:9913   */\n      pop\n        /* \"#utility.yul\":9632:9913   */\n      pop\n      pop\n      jump\t// out\n        /* \"#utility.yul\":9919:10152   */\n    tag_83:\n        /* \"#utility.yul\":9958:9961   */\n      0x00\n        /* \"#utility.yul\":9981:10005   */\n      tag_254\n        /* \"#utility.yul\":9999:10004   */\n      dup3\n        /* \"#utility.yul\":9981:10005   */\n      tag_193\n      jump\t// in\n    tag_254:\n        /* \"#utility.yul\":9972:10005   */\n      swap2\n      pop\n        /* \"#utility.yul\":10027:10093   */\n      0xffffffffffffffffffffffffffffffffffffffffffffffffffffffffffffffff\n        /* \"#utility.yul\":10020:10025   */\n      dup3\n        /* \"#utility.yul\":10017:10094   */\n      eq\n        /* \"#utility.yul\":10014:10117   */\n      iszero\n      tag_255\n      jumpi\n        /* \"#utility.yul\":10097:10115   */\n      tag_256\n      tag_257\n      jump\t// in\n    tag_256:\n        /* \"#utility.yul\":10014:10117   */\n    tag_255:\n        /* \"#utility.yul\":10144:10145   */\n      0x01\n        /* \"#utility.yul\":10137:10142   */\n      dup3\n        /* \"#utility.yul\":10133:10146   */\n      add\n        /* \"#utility.yul\":10126:10146   */\n      swap1\n      pop\n        /* \"#utility.yul\":9919:10152   */\n      swap2\n      swap1\n      pop\n      jump\t// out\n        /* \"#utility.yul\":10158:10338   */\n    tag_257:\n        /* \"#utility.yul\":10206:10283   */\n      0x4e487b7100000000000000000000000000000000000000000000000000000000\n        /* \"#utility.yul\":10203:10204   */\n      0x00\n        /* \"#utility.yul\":10196:10284   */\n      mstore\n        /* \"#utility.yul\":10303:10307   */\n      0x11\n        /* \"#utility.yul\":10300:10301   */\n      0x04\n        /* \"#utility.yul\":10293:10308   */\n      mstore\n        /* \"#utility.yul\":10327:10331   */\n      0x24\n        /* \"#utility.yul\":10324:10325   */\n      0x00\n        /* \"#utility.yul\":10317:10332   */\n      revert\n        /* \"#utility.yul\":10344:10524   */\n    tag_248:\n        /* \"#utility.yul\":10392:10469   */\n      0x4e487b7100000000000000000000000000000000000000000000000000000000\n        /* \"#utility.yul\":10389:10390   */\n      0x00\n        /* \"#utility.yul\":10382:10470   */\n      mstore\n        /* \"#utility.yul\":10489:10493   */\n      0x22\n        /* \"#utility.yul\":10486:10487   */\n      0x04\n        /* \"#utility.yul\":10479:10494   */\n      mstore\n        /* \"#utility.yul\":10513:10517   */\n      0x24\n        /* \"#utility.yul\":10510:10511   */\n      0x00\n        /* \"#utility.yul\":10503:10518   */\n      revert\n        /* \"#utility.yul\":10530:10710   */\n    tag_58:\n        /* \"#utility.yul\":10578:10655   */\n      0x4e487b7100000000000000000000000000000000000000000000000000000000\n        /* \"#utility.yul\":10575:10576   */\n      0x00\n        /* \"#utility.yul\":10568:10656   */\n      mstore\n        /* \"#utility.yul\":10675:10679   */\n      0x32\n        /* \"#utility.yul\":10672:10673   */\n      0x04\n        /* \"#utility.yul\":10665:10680   */\n      mstore\n        /* \"#utility.yul\":10699:10703   */\n      0x24\n        /* \"#utility.yul\":10696:10697   */\n      0x00\n        /* \"#utility.yul\":10689:10704   */\n      revert\n        /* \"#utility.yul\":10716:10896   */\n    tag_225:\n        /* \"#utility.yul\":10764:10841   */\n      0x4e487b7100000000000000000000000000000000000000000000000000000000\n        /* \"#utility.yul\":10761:10762   */\n      0x00\n        /* \"#utility.yul\":10754:10842   */\n      mstore\n        /* \"#utility.yul\":10861:10865   */\n      0x41\n        /* \"#utility.yul\":10858:10859   */\n      0x04\n        /* \"#utility.yul\":10851:10866   */\n      mstore\n        /* \"#utility.yul\":10885:10889   */\n      0x24\n        /* \"#utility.yul\":10882:10883   */\n      0x00\n        /* \"#utility.yul\":10875:10890   */\n      revert\n        /* \"#utility.yul\":10902:11019   */\n    tag_130:\n        /* \"#utility.yul\":11011:11012   */\n      0x00\n        /* \"#utility.yul\":11008:11009   */\n      dup1\n        /* \"#utility.yul\":11001:11013   */\n      revert\n        /* \"#utility.yul\":11025:11142   */\n    tag_119:\n        /* \"#utility.yul\":11134:11135   */\n      0x00\n        /* \"#utility.yul\":11131:11132   */\n      dup1\n        /* \"#utility.yul\":11124:11136   */\n      revert\n        /* \"#utility.yul\":11148:11265   */\n    tag_151:\n        /* \"#utility.yul\":11257:11258   */\n      0x00\n        /* \"#utility.yul\":11254:11255   */\n      dup1\n        /* \"#utility.yul\":11247:11259   */\n      revert\n        /* \"#utility.yul\":11271:11388   */\n    tag_139:\n        /* \"#utility.yul\":11380:11381   */\n      0x00\n        /* \"#utility.yul\":11377:11378   */\n      dup1\n        /* \"#utility.yul\":11370:11382   */\n      revert\n        /* \"#utility.yul\":11394:11496   */\n    tag_184:\n        /* \"#utility.yul\":11435:11441   */\n      0x00\n        /* \"#utility.yul\":11486:11488   */\n      0x1f\n        /* \"#utility.yul\":11482:11489   */\n      not\n        /* \"#utility.yul\":11477:11479   */\n      0x1f\n        /* \"#utility.yul\":11470:11475   */\n      dup4\n        /* \"#utility.yul\":11466:11480   */\n      add\n        /* \"#utility.yul\":11462:11490   */\n      and\n        /* \"#utility.yul\":11452:11490   */\n      swap1\n      pop\n        /* \"#utility.yul\":11394:11496   */\n      swap2\n      swap1\n      pop\n      jump\t// out\n        /* \"#utility.yul\":11502:11681   */\n    tag_189:\n        /* \"#utility.yul\":11642:11673   */\n      0x50617469656e7420697320616c72656164792072656769737465726564000000\n        /* \"#utility.yul\":11638:11639   */\n      0x00\n        /* \"#utility.yul\":11630:11636   */\n      dup3\n        /* \"#utility.yul\":11626:11640   */\n      add\n        /* \"#utility.yul\":11619:11674   */\n      mstore\n        /* \"#utility.yul\":11502:11681   */\n      pop\n      jump\t// out\n        /* \"#utility.yul\":11687:11809   */\n    tag_125:\n        /* \"#utility.yul\":11760:11784   */\n      tag_269\n        /* \"#utility.yul\":11778:11783   */\n      dup2\n        /* \"#utility.yul\":11760:11784   */\n      tag_166\n      jump\t// in\n    tag_269:\n        /* \"#utility.yul\":11753:11758   */\n      dup2\n        /* \"#utility.yul\":11750:11785   */\n      eq\n        /* \"#utility.yul\":11740:11803   */\n      tag_270\n      jumpi\n        /* \"#utility.yul\":11799:11800   */\n      0x00\n        /* \"#utility.yul\":11796:11797   */\n      dup1\n        /* \"#utility.yul\":11789:11801   */\n      revert\n        /* \"#utility.yul\":11740:11803   */\n    tag_270:\n        /* \"#utility.yul\":11687:11809   */\n      pop\n      jump\t// out\n        /* \"#utility.yul\":11815:11937   */\n    tag_135:\n        /* \"#utility.yul\":11888:11912   */\n      tag_272\n        /* \"#utility.yul\":11906:11911   */\n      dup2\n        /* \"#utility.yul\":11888:11912   */\n      tag_193\n      jump\t// in\n    tag_272:\n        /* \"#utility.yul\":11881:11886   */\n      dup2\n        /* \"#utility.yul\":11878:11913   */\n      eq\n        /* \"#utility.yul\":11868:11931   */\n      tag_273\n      jumpi\n        /* \"#utility.yul\":11927:11928   */\n      0x00\n        /* \"#utility.yul\":11924:11925   */\n      dup1\n        /* \"#utility.yul\":11917:11929   */\n      revert\n        /* \"#utility.yul\":11868:11931   */\n    tag_273:\n        /* \"#utility.yul\":11815:11937   */\n      pop\n      jump\t// out\n\n    auxdata: 0xa26469706673582212205a55f4d4546ade49edaec94888e20cafb4a0dc1c26b6602cd25cd372eb67cb0164736f6c63430008070033\n}\n",
				"bytecode": {
					"linkReferences": {},
					"object": "608060405234801561001057600080fd5b503360016000548154811061002857610027610075565b5b9060005260206000200160006101000a81548173ffffffffffffffffffffffffffffffffffffffff021916908373ffffffffffffffffffffffffffffffffffffffff1602179055506100a4565b7f4e487b7100000000000000000000000000000000000000000000000000000000600052603260045260246000fd5b6110bd806100b36000396000f3fe608060405234801561001057600080fd5b50600436106100625760003560e01c80630869cfbc1461006757806389c47f081461009f5780638dc10768146100bb578063c4bfd57d146100ec578063da3001161461011c578063ec4eb4421461014c575b600080fd5b610081600480360381019061007c9190610a85565b61017c565b60405161009699989796959493929190610ce9565b60405180910390f35b6100b960048036038101906100b49190610adf565b6103af565b005b6100d560048036038101906100d09190610ab2565b610783565b6040516100e3929190610ca0565b60405180910390f35b61010660048036038101906101019190610a85565b6107b7565b6040516101139190610c85565b60405180910390f35b61013660048036038101906101319190610a85565b6108c5565b6040516101439190610c85565b60405180910390f35b61016660048036038101906101619190610ab2565b610909565b6040516101739190610c41565b60405180910390f35b60026020528060005260406000206000915090508060000154908060010154908060020180546101ab90610ea3565b80601f01602080910402602001604051908101604052809291908181526020018280546101d790610ea3565b80156102245780601f106101f957610100808354040283529160200191610224565b820191906000526020600020905b81548152906001019060200180831161020757829003601f168201915b50505050509080600301805461023990610ea3565b80601f016020809104026020016040519081016040528092919081815260200182805461026590610ea3565b80156102b25780601f10610287576101008083540402835291602001916102b2565b820191906000526020600020905b81548152906001019060200180831161029557829003601f168201915b5050505050908060040180546102c790610ea3565b80601f01602080910402602001604051908101604052809291908181526020018280546102f390610ea3565b80156103405780601f1061031557610100808354040283529160200191610340565b820191906000526020600020905b81548152906001019060200180831161032357829003601f168201915b5050505050908060050160009054906101000a900460ff16908060060154908060070160009054906101000a900473ffffffffffffffffffffffffffffffffffffffff16908060080160009054906101000a900473ffffffffffffffffffffffffffffffffffffffff16905089565b600260006001600054815481106103c9576103c8610fad565b5b9060005260206000200160009054906101000a900473ffffffffffffffffffffffffffffffffffffffff1673ffffffffffffffffffffffffffffffffffffffff1673ffffffffffffffffffffffffffffffffffffffff16815260200190815260200160002060050160009054906101000a900460ff161561047f576040517f08c379a000000000000000000000000000000000000000000000000000000000815260040161047690610cc9565b60405180910390fd5b836002600060016000548154811061049a57610499610fad565b5b9060005260206000200160009054906101000a900473ffffffffffffffffffffffffffffffffffffffff1673ffffffffffffffffffffffffffffffffffffffff1673ffffffffffffffffffffffffffffffffffffffff16815260200190815260200160002060010181905550826002600060016000548154811061052157610520610fad565b5b9060005260206000200160009054906101000a900473ffffffffffffffffffffffffffffffffffffffff1673ffffffffffffffffffffffffffffffffffffffff1673ffffffffffffffffffffffffffffffffffffffff168152602001908152602001600020600201908051906020019061059c929190610948565b5081600260006001600054815481106105b8576105b7610fad565b5b9060005260206000200160009054906101000a900473ffffffffffffffffffffffffffffffffffffffff1673ffffffffffffffffffffffffffffffffffffffff1673ffffffffffffffffffffffffffffffffffffffff1681526020019081526020016000206003019080519060200190610633929190610948565b50806002600060016000548154811061064f5761064e610fad565b5b9060005260206000200160009054906101000a900473ffffffffffffffffffffffffffffffffffffffff1673ffffffffffffffffffffffffffffffffffffffff1673ffffffffffffffffffffffffffffffffffffffff16815260200190815260200160002060040190805190602001906106ca929190610948565b506001600260006001600054815481106106e7576106e6610fad565b5b9060005260206000200160009054906101000a900473ffffffffffffffffffffffffffffffffffffffff1673ffffffffffffffffffffffffffffffffffffffff1673ffffffffffffffffffffffffffffffffffffffff16815260200190815260200160002060050160006101000a81548160ff02191690831515021790555060008081548092919061077890610f06565b919050555050505050565b6003818154811061079357600080fd5b90600052602060002090600202016000915090508060000154908060010154905082565b600080600090505b6000548110156108ba578273ffffffffffffffffffffffffffffffffffffffff1660026000600184815481106107f8576107f7610fad565b5b9060005260206000200160009054906101000a900473ffffffffffffffffffffffffffffffffffffffff1673ffffffffffffffffffffffffffffffffffffffff1673ffffffffffffffffffffffffffffffffffffffff16815260200190815260200160002060070160009054906101000a900473ffffffffffffffffffffffffffffffffffffffff1673ffffffffffffffffffffffffffffffffffffffff1614156108a75760019150506108c0565b80806108b290610f06565b9150506107bf565b50600090505b919050565b60007fdd682d1363d443182f130904c49ddb3c06bcf4104bd0132873396ab097f339d933836040516108f8929190610c5c565b60405180910390a160019050919050565b6001818154811061091957600080fd5b906000526020600020016000915054906101000a900473ffffffffffffffffffffffffffffffffffffffff1681565b82805461095490610ea3565b90600052602060002090601f01602090048101928261097657600085556109bd565b82601f1061098f57805160ff19168380011785556109bd565b828001600101855582156109bd579182015b828111156109bc5782518255916020019190600101906109a1565b5b5090506109ca91906109ce565b5090565b5b808211156109e75760008160009055506001016109cf565b5090565b60006109fe6109f984610db0565b610d8b565b905082815260208101848484011115610a1a57610a19611010565b5b610a25848285610e61565b509392505050565b600081359050610a3c81611059565b92915050565b600082601f830112610a5757610a5661100b565b5b8135610a678482602086016109eb565b91505092915050565b600081359050610a7f81611070565b92915050565b600060208284031215610a9b57610a9a61101a565b5b6000610aa984828501610a2d565b91505092915050565b600060208284031215610ac857610ac761101a565b5b6000610ad684828501610a70565b91505092915050565b60008060008060808587031215610af957610af861101a565b5b6000610b0787828801610a70565b945050602085013567ffffffffffffffff811115610b2857610b27611015565b5b610b3487828801610a42565b935050604085013567ffffffffffffffff811115610b5557610b54611015565b5b610b6187828801610a42565b925050606085013567ffffffffffffffff811115610b8257610b81611015565b5b610b8e87828801610a42565b91505092959194509250565b610ba381610e0f565b82525050565b610bb281610dfd565b82525050565b610bc181610e21565b82525050565b610bd081610e2d565b82525050565b6000610be182610de1565b610beb8185610dec565b9350610bfb818560208601610e70565b610c048161101f565b840191505092915050565b6000610c1c601d83610dec565b9150610c2782611030565b602082019050919050565b610c3b81610e57565b82525050565b6000602082019050610c566000830184610ba9565b92915050565b6000604082019050610c716000830185610ba9565b610c7e6020830184610ba9565b9392505050565b6000602082019050610c9a6000830184610bb8565b92915050565b6000604082019050610cb56000830185610bc7565b610cc26020830184610c32565b9392505050565b60006020820190508181036000830152610ce281610c0f565b9050919050565b600061012082019050610cff600083018c610c32565b610d0c602083018b610c32565b8181036040830152610d1e818a610bd6565b90508181036060830152610d328189610bd6565b90508181036080830152610d468188610bd6565b9050610d5560a0830187610bb8565b610d6260c0830186610c32565b610d6f60e0830185610b9a565b610d7d610100830184610b9a565b9a9950505050505050505050565b6000610d95610da6565b9050610da18282610ed5565b919050565b6000604051905090565b600067ffffffffffffffff821115610dcb57610dca610fdc565b5b610dd48261101f565b9050602081019050919050565b600081519050919050565b600082825260208201905092915050565b6000610e0882610e37565b9050919050565b6000610e1a82610e37565b9050919050565b60008115159050919050565b6000819050919050565b600073ffffffffffffffffffffffffffffffffffffffff82169050919050565b6000819050919050565b82818337600083830152505050565b60005b83811015610e8e578082015181840152602081019050610e73565b83811115610e9d576000848401525b50505050565b60006002820490506001821680610ebb57607f821691505b60208210811415610ecf57610ece610f7e565b5b50919050565b610ede8261101f565b810181811067ffffffffffffffff82111715610efd57610efc610fdc565b5b80604052505050565b6000610f1182610e57565b91507fffffffffffffffffffffffffffffffffffffffffffffffffffffffffffffffff821415610f4457610f43610f4f565b5b600182019050919050565b7f4e487b7100000000000000000000000000000000000000000000000000000000600052601160045260246000fd5b7f4e487b7100000000000000000000000000000000000000000000000000000000600052602260045260246000fd5b7f4e487b7100000000000000000000000000000000000000000000000000000000600052603260045260246000fd5b7f4e487b7100000000000000000000000000000000000000000000000000000000600052604160045260246000fd5b600080fd5b600080fd5b600080fd5b600080fd5b6000601f19601f8301169050919050565b7f50617469656e7420697320616c72656164792072656769737465726564000000600082015250565b61106281610dfd565b811461106d57600080fd5b50565b61107981610e57565b811461108457600080fd5b5056fea26469706673582212205a55f4d4546ade49edaec94888e20cafb4a0dc1c26b6602cd25cd372eb67cb0164736f6c63430008070033",
					"opcodes": "PUSH1 0x80 PUSH1 0x40 MSTORE CALLVALUE DUP1 ISZERO PUSH2 0x10 JUMPI PUSH1 0x0 DUP1 REVERT JUMPDEST POP CALLER PUSH1 0x1 PUSH1 0x0 SLOAD DUP2 SLOAD DUP2 LT PUSH2 0x28 JUMPI PUSH2 0x27 PUSH2 0x75 JUMP JUMPDEST JUMPDEST SWAP1 PUSH1 0x0 MSTORE PUSH1 0x20 PUSH1 0x0 KECCAK256 ADD PUSH1 0x0 PUSH2 0x100 EXP DUP2 SLOAD DUP2 PUSH20 0xFFFFFFFFFFFFFFFFFFFFFFFFFFFFFFFFFFFFFFFF MUL NOT AND SWAP1 DUP4 PUSH20 0xFFFFFFFFFFFFFFFFFFFFFFFFFFFFFFFFFFFFFFFF AND MUL OR SWAP1 SSTORE POP PUSH2 0xA4 JUMP JUMPDEST PUSH32 0x4E487B7100000000000000000000000000000000000000000000000000000000 PUSH1 0x0 MSTORE PUSH1 0x32 PUSH1 0x4 MSTORE PUSH1 0x24 PUSH1 0x0 REVERT JUMPDEST PUSH2 0x10BD DUP1 PUSH2 0xB3 PUSH1 0x0 CODECOPY PUSH1 0x0 RETURN INVALID PUSH1 0x80 PUSH1 0x40 MSTORE CALLVALUE DUP1 ISZERO PUSH2 0x10 JUMPI PUSH1 0x0 DUP1 REVERT JUMPDEST POP PUSH1 0x4 CALLDATASIZE LT PUSH2 0x62 JUMPI PUSH1 0x0 CALLDATALOAD PUSH1 0xE0 SHR DUP1 PUSH4 0x869CFBC EQ PUSH2 0x67 JUMPI DUP1 PUSH4 0x89C47F08 EQ PUSH2 0x9F JUMPI DUP1 PUSH4 0x8DC10768 EQ PUSH2 0xBB JUMPI DUP1 PUSH4 0xC4BFD57D EQ PUSH2 0xEC JUMPI DUP1 PUSH4 0xDA300116 EQ PUSH2 0x11C JUMPI DUP1 PUSH4 0xEC4EB442 EQ PUSH2 0x14C JUMPI JUMPDEST PUSH1 0x0 DUP1 REVERT JUMPDEST PUSH2 0x81 PUSH1 0x4 DUP1 CALLDATASIZE SUB DUP2 ADD SWAP1 PUSH2 0x7C SWAP2 SWAP1 PUSH2 0xA85 JUMP JUMPDEST PUSH2 0x17C JUMP JUMPDEST PUSH1 0x40 MLOAD PUSH2 0x96 SWAP10 SWAP9 SWAP8 SWAP7 SWAP6 SWAP5 SWAP4 SWAP3 SWAP2 SWAP1 PUSH2 0xCE9 JUMP JUMPDEST PUSH1 0x40 MLOAD DUP1 SWAP2 SUB SWAP1 RETURN JUMPDEST PUSH2 0xB9 PUSH1 0x4 DUP1 CALLDATASIZE SUB DUP2 ADD SWAP1 PUSH2 0xB4 SWAP2 SWAP1 PUSH2 0xADF JUMP JUMPDEST PUSH2 0x3AF JUMP JUMPDEST STOP JUMPDEST PUSH2 0xD5 PUSH1 0x4 DUP1 CALLDATASIZE SUB DUP2 ADD SWAP1 PUSH2 0xD0 SWAP2 SWAP1 PUSH2 0xAB2 JUMP JUMPDEST PUSH2 0x783 JUMP JUMPDEST PUSH1 0x40 MLOAD PUSH2 0xE3 SWAP3 SWAP2 SWAP1 PUSH2 0xCA0 JUMP JUMPDEST PUSH1 0x40 MLOAD DUP1 SWAP2 SUB SWAP1 RETURN JUMPDEST PUSH2 0x106 PUSH1 0x4 DUP1 CALLDATASIZE SUB DUP2 ADD SWAP1 PUSH2 0x101 SWAP2 SWAP1 PUSH2 0xA85 JUMP JUMPDEST PUSH2 0x7B7 JUMP JUMPDEST PUSH1 0x40 MLOAD PUSH2 0x113 SWAP2 SWAP1 PUSH2 0xC85 JUMP JUMPDEST PUSH1 0x40 MLOAD DUP1 SWAP2 SUB SWAP1 RETURN JUMPDEST PUSH2 0x136 PUSH1 0x4 DUP1 CALLDATASIZE SUB DUP2 ADD SWAP1 PUSH2 0x131 SWAP2 SWAP1 PUSH2 0xA85 JUMP JUMPDEST PUSH2 0x8C5 JUMP JUMPDEST PUSH1 0x40 MLOAD PUSH2 0x143 SWAP2 SWAP1 PUSH2 0xC85 JUMP JUMPDEST PUSH1 0x40 MLOAD DUP1 SWAP2 SUB SWAP1 RETURN JUMPDEST PUSH2 0x166 PUSH1 0x4 DUP1 CALLDATASIZE SUB DUP2 ADD SWAP1 PUSH2 0x161 SWAP2 SWAP1 PUSH2 0xAB2 JUMP JUMPDEST PUSH2 0x909 JUMP JUMPDEST PUSH1 0x40 MLOAD PUSH2 0x173 SWAP2 SWAP1 PUSH2 0xC41 JUMP JUMPDEST PUSH1 0x40 MLOAD DUP1 SWAP2 SUB SWAP1 RETURN JUMPDEST PUSH1 0x2 PUSH1 0x20 MSTORE DUP1 PUSH1 0x0 MSTORE PUSH1 0x40 PUSH1 0x0 KECCAK256 PUSH1 0x0 SWAP2 POP SWAP1 POP DUP1 PUSH1 0x0 ADD SLOAD SWAP1 DUP1 PUSH1 0x1 ADD SLOAD SWAP1 DUP1 PUSH1 0x2 ADD DUP1 SLOAD PUSH2 0x1AB SWAP1 PUSH2 0xEA3 JUMP JUMPDEST DUP1 PUSH1 0x1F ADD PUSH1 0x20 DUP1 SWAP2 DIV MUL PUSH1 0x20 ADD PUSH1 0x40 MLOAD SWAP1 DUP2 ADD PUSH1 0x40 MSTORE DUP1 SWAP3 SWAP2 SWAP1 DUP2 DUP2 MSTORE PUSH1 0x20 ADD DUP3 DUP1 SLOAD PUSH2 0x1D7 SWAP1 PUSH2 0xEA3 JUMP JUMPDEST DUP1 ISZERO PUSH2 0x224 JUMPI DUP1 PUSH1 0x1F LT PUSH2 0x1F9 JUMPI PUSH2 0x100 DUP1 DUP4 SLOAD DIV MUL DUP4 MSTORE SWAP2 PUSH1 0x20 ADD SWAP2 PUSH2 0x224 JUMP JUMPDEST DUP3 ADD SWAP2 SWAP1 PUSH1 0x0 MSTORE PUSH1 0x20 PUSH1 0x0 KECCAK256 SWAP1 JUMPDEST DUP2 SLOAD DUP2 MSTORE SWAP1 PUSH1 0x1 ADD SWAP1 PUSH1 0x20 ADD DUP1 DUP4 GT PUSH2 0x207 JUMPI DUP3 SWAP1 SUB PUSH1 0x1F AND DUP3 ADD SWAP2 JUMPDEST POP POP POP POP POP SWAP1 DUP1 PUSH1 0x3 ADD DUP1 SLOAD PUSH2 0x239 SWAP1 PUSH2 0xEA3 JUMP JUMPDEST DUP1 PUSH1 0x1F ADD PUSH1 0x20 DUP1 SWAP2 DIV MUL PUSH1 0x20 ADD PUSH1 0x40 MLOAD SWAP1 DUP2 ADD PUSH1 0x40 MSTORE DUP1 SWAP3 SWAP2 SWAP1 DUP2 DUP2 MSTORE PUSH1 0x20 ADD DUP3 DUP1 SLOAD PUSH2 0x265 SWAP1 PUSH2 0xEA3 JUMP JUMPDEST DUP1 ISZERO PUSH2 0x2B2 JUMPI DUP1 PUSH1 0x1F LT PUSH2 0x287 JUMPI PUSH2 0x100 DUP1 DUP4 SLOAD DIV MUL DUP4 MSTORE SWAP2 PUSH1 0x20 ADD SWAP2 PUSH2 0x2B2 JUMP JUMPDEST DUP3 ADD SWAP2 SWAP1 PUSH1 0x0 MSTORE PUSH1 0x20 PUSH1 0x0 KECCAK256 SWAP1 JUMPDEST DUP2 SLOAD DUP2 MSTORE SWAP1 PUSH1 0x1 ADD SWAP1 PUSH1 0x20 ADD DUP1 DUP4 GT PUSH2 0x295 JUMPI DUP3 SWAP1 SUB PUSH1 0x1F AND DUP3 ADD SWAP2 JUMPDEST POP POP POP POP POP SWAP1 DUP1 PUSH1 0x4 ADD DUP1 SLOAD PUSH2 0x2C7 SWAP1 PUSH2 0xEA3 JUMP JUMPDEST DUP1 PUSH1 0x1F ADD PUSH1 0x20 DUP1 SWAP2 DIV MUL PUSH1 0x20 ADD PUSH1 0x40 MLOAD SWAP1 DUP2 ADD PUSH1 0x40 MSTORE DUP1 SWAP3 SWAP2 SWAP1 DUP2 DUP2 MSTORE PUSH1 0x20 ADD DUP3 DUP1 SLOAD PUSH2 0x2F3 SWAP1 PUSH2 0xEA3 JUMP JUMPDEST DUP1 ISZERO PUSH2 0x340 JUMPI DUP1 PUSH1 0x1F LT PUSH2 0x315 JUMPI PUSH2 0x100 DUP1 DUP4 SLOAD DIV MUL DUP4 MSTORE SWAP2 PUSH1 0x20 ADD SWAP2 PUSH2 0x340 JUMP JUMPDEST DUP3 ADD SWAP2 SWAP1 PUSH1 0x0 MSTORE PUSH1 0x20 PUSH1 0x0 KECCAK256 SWAP1 JUMPDEST DUP2 SLOAD DUP2 MSTORE SWAP1 PUSH1 0x1 ADD SWAP1 PUSH1 0x20 ADD DUP1 DUP4 GT PUSH2 0x323 JUMPI DUP3 SWAP1 SUB PUSH1 0x1F AND DUP3 ADD SWAP2 JUMPDEST POP POP POP POP POP SWAP1 DUP1 PUSH1 0x5 ADD PUSH1 0x0 SWAP1 SLOAD SWAP1 PUSH2 0x100 EXP SWAP1 DIV PUSH1 0xFF AND SWAP1 DUP1 PUSH1 0x6 ADD SLOAD SWAP1 DUP1 PUSH1 0x7 ADD PUSH1 0x0 SWAP1 SLOAD SWAP1 PUSH2 0x100 EXP SWAP1 DIV PUSH20 0xFFFFFFFFFFFFFFFFFFFFFFFFFFFFFFFFFFFFFFFF AND SWAP1 DUP1 PUSH1 0x8 ADD PUSH1 0x0 SWAP1 SLOAD SWAP1 PUSH2 0x100 EXP SWAP1 DIV PUSH20 0xFFFFFFFFFFFFFFFFFFFFFFFFFFFFFFFFFFFFFFFF AND SWAP1 POP DUP10 JUMP JUMPDEST PUSH1 0x2 PUSH1 0x0 PUSH1 0x1 PUSH1 0x0 SLOAD DUP2 SLOAD DUP2 LT PUSH2 0x3C9 JUMPI PUSH2 0x3C8 PUSH2 0xFAD JUMP JUMPDEST JUMPDEST SWAP1 PUSH1 0x0 MSTORE PUSH1 0x20 PUSH1 0x0 KECCAK256 ADD PUSH1 0x0 SWAP1 SLOAD SWAP1 PUSH2 0x100 EXP SWAP1 DIV PUSH20 0xFFFFFFFFFFFFFFFFFFFFFFFFFFFFFFFFFFFFFFFF AND PUSH20 0xFFFFFFFFFFFFFFFFFFFFFFFFFFFFFFFFFFFFFFFF AND PUSH20 0xFFFFFFFFFFFFFFFFFFFFFFFFFFFFFFFFFFFFFFFF AND DUP2 MSTORE PUSH1 0x20 ADD SWAP1 DUP2 MSTORE PUSH1 0x20 ADD PUSH1 0x0 KECCAK256 PUSH1 0x5 ADD PUSH1 0x0 SWAP1 SLOAD SWAP1 PUSH2 0x100 EXP SWAP1 DIV PUSH1 0xFF AND ISZERO PUSH2 0x47F JUMPI PUSH1 0x40 MLOAD PUSH32 0x8C379A000000000000000000000000000000000000000000000000000000000 DUP2 MSTORE PUSH1 0x4 ADD PUSH2 0x476 SWAP1 PUSH2 0xCC9 JUMP JUMPDEST PUSH1 0x40 MLOAD DUP1 SWAP2 SUB SWAP1 REVERT JUMPDEST DUP4 PUSH1 0x2 PUSH1 0x0 PUSH1 0x1 PUSH1 0x0 SLOAD DUP2 SLOAD DUP2 LT PUSH2 0x49A JUMPI PUSH2 0x499 PUSH2 0xFAD JUMP JUMPDEST JUMPDEST SWAP1 PUSH1 0x0 MSTORE PUSH1 0x20 PUSH1 0x0 KECCAK256 ADD PUSH1 0x0 SWAP1 SLOAD SWAP1 PUSH2 0x100 EXP SWAP1 DIV PUSH20 0xFFFFFFFFFFFFFFFFFFFFFFFFFFFFFFFFFFFFFFFF AND PUSH20 0xFFFFFFFFFFFFFFFFFFFFFFFFFFFFFFFFFFFFFFFF AND PUSH20 0xFFFFFFFFFFFFFFFFFFFFFFFFFFFFFFFFFFFFFFFF AND DUP2 MSTORE PUSH1 0x20 ADD SWAP1 DUP2 MSTORE PUSH1 0x20 ADD PUSH1 0x0 KECCAK256 PUSH1 0x1 ADD DUP2 SWAP1 SSTORE POP DUP3 PUSH1 0x2 PUSH1 0x0 PUSH1 0x1 PUSH1 0x0 SLOAD DUP2 SLOAD DUP2 LT PUSH2 0x521 JUMPI PUSH2 0x520 PUSH2 0xFAD JUMP JUMPDEST JUMPDEST SWAP1 PUSH1 0x0 MSTORE PUSH1 0x20 PUSH1 0x0 KECCAK256 ADD PUSH1 0x0 SWAP1 SLOAD SWAP1 PUSH2 0x100 EXP SWAP1 DIV PUSH20 0xFFFFFFFFFFFFFFFFFFFFFFFFFFFFFFFFFFFFFFFF AND PUSH20 0xFFFFFFFFFFFFFFFFFFFFFFFFFFFFFFFFFFFFFFFF AND PUSH20 0xFFFFFFFFFFFFFFFFFFFFFFFFFFFFFFFFFFFFFFFF AND DUP2 MSTORE PUSH1 0x20 ADD SWAP1 DUP2 MSTORE PUSH1 0x20 ADD PUSH1 0x0 KECCAK256 PUSH1 0x2 ADD SWAP1 DUP1 MLOAD SWAP1 PUSH1 0x20 ADD SWAP1 PUSH2 0x59C SWAP3 SWAP2 SWAP1 PUSH2 0x948 JUMP JUMPDEST POP DUP2 PUSH1 0x2 PUSH1 0x0 PUSH1 0x1 PUSH1 0x0 SLOAD DUP2 SLOAD DUP2 LT PUSH2 0x5B8 JUMPI PUSH2 0x5B7 PUSH2 0xFAD JUMP JUMPDEST JUMPDEST SWAP1 PUSH1 0x0 MSTORE PUSH1 0x20 PUSH1 0x0 KECCAK256 ADD PUSH1 0x0 SWAP1 SLOAD SWAP1 PUSH2 0x100 EXP SWAP1 DIV PUSH20 0xFFFFFFFFFFFFFFFFFFFFFFFFFFFFFFFFFFFFFFFF AND PUSH20 0xFFFFFFFFFFFFFFFFFFFFFFFFFFFFFFFFFFFFFFFF AND PUSH20 0xFFFFFFFFFFFFFFFFFFFFFFFFFFFFFFFFFFFFFFFF AND DUP2 MSTORE PUSH1 0x20 ADD SWAP1 DUP2 MSTORE PUSH1 0x20 ADD PUSH1 0x0 KECCAK256 PUSH1 0x3 ADD SWAP1 DUP1 MLOAD SWAP1 PUSH1 0x20 ADD SWAP1 PUSH2 0x633 SWAP3 SWAP2 SWAP1 PUSH2 0x948 JUMP JUMPDEST POP DUP1 PUSH1 0x2 PUSH1 0x0 PUSH1 0x1 PUSH1 0x0 SLOAD DUP2 SLOAD DUP2 LT PUSH2 0x64F JUMPI PUSH2 0x64E PUSH2 0xFAD JUMP JUMPDEST JUMPDEST SWAP1 PUSH1 0x0 MSTORE PUSH1 0x20 PUSH1 0x0 KECCAK256 ADD PUSH1 0x0 SWAP1 SLOAD SWAP1 PUSH2 0x100 EXP SWAP1 DIV PUSH20 0xFFFFFFFFFFFFFFFFFFFFFFFFFFFFFFFFFFFFFFFF AND PUSH20 0xFFFFFFFFFFFFFFFFFFFFFFFFFFFFFFFFFFFFFFFF AND PUSH20 0xFFFFFFFFFFFFFFFFFFFFFFFFFFFFFFFFFFFFFFFF AND DUP2 MSTORE PUSH1 0x20 ADD SWAP1 DUP2 MSTORE PUSH1 0x20 ADD PUSH1 0x0 KECCAK256 PUSH1 0x4 ADD SWAP1 DUP1 MLOAD SWAP1 PUSH1 0x20 ADD SWAP1 PUSH2 0x6CA SWAP3 SWAP2 SWAP1 PUSH2 0x948 JUMP JUMPDEST POP PUSH1 0x1 PUSH1 0x2 PUSH1 0x0 PUSH1 0x1 PUSH1 0x0 SLOAD DUP2 SLOAD DUP2 LT PUSH2 0x6E7 JUMPI PUSH2 0x6E6 PUSH2 0xFAD JUMP JUMPDEST JUMPDEST SWAP1 PUSH1 0x0 MSTORE PUSH1 0x20 PUSH1 0x0 KECCAK256 ADD PUSH1 0x0 SWAP1 SLOAD SWAP1 PUSH2 0x100 EXP SWAP1 DIV PUSH20 0xFFFFFFFFFFFFFFFFFFFFFFFFFFFFFFFFFFFFFFFF AND PUSH20 0xFFFFFFFFFFFFFFFFFFFFFFFFFFFFFFFFFFFFFFFF AND PUSH20 0xFFFFFFFFFFFFFFFFFFFFFFFFFFFFFFFFFFFFFFFF AND DUP2 MSTORE PUSH1 0x20 ADD SWAP1 DUP2 MSTORE PUSH1 0x20 ADD PUSH1 0x0 KECCAK256 PUSH1 0x5 ADD PUSH1 0x0 PUSH2 0x100 EXP DUP2 SLOAD DUP2 PUSH1 0xFF MUL NOT AND SWAP1 DUP4 ISZERO ISZERO MUL OR SWAP1 SSTORE POP PUSH1 0x0 DUP1 DUP2 SLOAD DUP1 SWAP3 SWAP2 SWAP1 PUSH2 0x778 SWAP1 PUSH2 0xF06 JUMP JUMPDEST SWAP2 SWAP1 POP SSTORE POP POP POP POP POP JUMP JUMPDEST PUSH1 0x3 DUP2 DUP2 SLOAD DUP2 LT PUSH2 0x793 JUMPI PUSH1 0x0 DUP1 REVERT JUMPDEST SWAP1 PUSH1 0x0 MSTORE PUSH1 0x20 PUSH1 0x0 KECCAK256 SWAP1 PUSH1 0x2 MUL ADD PUSH1 0x0 SWAP2 POP SWAP1 POP DUP1 PUSH1 0x0 ADD SLOAD SWAP1 DUP1 PUSH1 0x1 ADD SLOAD SWAP1 POP DUP3 JUMP JUMPDEST PUSH1 0x0 DUP1 PUSH1 0x0 SWAP1 POP JUMPDEST PUSH1 0x0 SLOAD DUP2 LT ISZERO PUSH2 0x8BA JUMPI DUP3 PUSH20 0xFFFFFFFFFFFFFFFFFFFFFFFFFFFFFFFFFFFFFFFF AND PUSH1 0x2 PUSH1 0x0 PUSH1 0x1 DUP5 DUP2 SLOAD DUP2 LT PUSH2 0x7F8 JUMPI PUSH2 0x7F7 PUSH2 0xFAD JUMP JUMPDEST JUMPDEST SWAP1 PUSH1 0x0 MSTORE PUSH1 0x20 PUSH1 0x0 KECCAK256 ADD PUSH1 0x0 SWAP1 SLOAD SWAP1 PUSH2 0x100 EXP SWAP1 DIV PUSH20 0xFFFFFFFFFFFFFFFFFFFFFFFFFFFFFFFFFFFFFFFF AND PUSH20 0xFFFFFFFFFFFFFFFFFFFFFFFFFFFFFFFFFFFFFFFF AND PUSH20 0xFFFFFFFFFFFFFFFFFFFFFFFFFFFFFFFFFFFFFFFF AND DUP2 MSTORE PUSH1 0x20 ADD SWAP1 DUP2 MSTORE PUSH1 0x20 ADD PUSH1 0x0 KECCAK256 PUSH1 0x7 ADD PUSH1 0x0 SWAP1 SLOAD SWAP1 PUSH2 0x100 EXP SWAP1 DIV PUSH20 0xFFFFFFFFFFFFFFFFFFFFFFFFFFFFFFFFFFFFFFFF AND PUSH20 0xFFFFFFFFFFFFFFFFFFFFFFFFFFFFFFFFFFFFFFFF AND EQ ISZERO PUSH2 0x8A7 JUMPI PUSH1 0x1 SWAP2 POP POP PUSH2 0x8C0 JUMP JUMPDEST DUP1 DUP1 PUSH2 0x8B2 SWAP1 PUSH2 0xF06 JUMP JUMPDEST SWAP2 POP POP PUSH2 0x7BF JUMP JUMPDEST POP PUSH1 0x0 SWAP1 POP JUMPDEST SWAP2 SWAP1 POP JUMP JUMPDEST PUSH1 0x0 PUSH32 0xDD682D1363D443182F130904C49DDB3C06BCF4104BD0132873396AB097F339D9 CALLER DUP4 PUSH1 0x40 MLOAD PUSH2 0x8F8 SWAP3 SWAP2 SWAP1 PUSH2 0xC5C JUMP JUMPDEST PUSH1 0x40 MLOAD DUP1 SWAP2 SUB SWAP1 LOG1 PUSH1 0x1 SWAP1 POP SWAP2 SWAP1 POP JUMP JUMPDEST PUSH1 0x1 DUP2 DUP2 SLOAD DUP2 LT PUSH2 0x919 JUMPI PUSH1 0x0 DUP1 REVERT JUMPDEST SWAP1 PUSH1 0x0 MSTORE PUSH1 0x20 PUSH1 0x0 KECCAK256 ADD PUSH1 0x0 SWAP2 POP SLOAD SWAP1 PUSH2 0x100 EXP SWAP1 DIV PUSH20 0xFFFFFFFFFFFFFFFFFFFFFFFFFFFFFFFFFFFFFFFF AND DUP2 JUMP JUMPDEST DUP3 DUP1 SLOAD PUSH2 0x954 SWAP1 PUSH2 0xEA3 JUMP JUMPDEST SWAP1 PUSH1 0x0 MSTORE PUSH1 0x20 PUSH1 0x0 KECCAK256 SWAP1 PUSH1 0x1F ADD PUSH1 0x20 SWAP1 DIV DUP2 ADD SWAP3 DUP3 PUSH2 0x976 JUMPI PUSH1 0x0 DUP6 SSTORE PUSH2 0x9BD JUMP JUMPDEST DUP3 PUSH1 0x1F LT PUSH2 0x98F JUMPI DUP1 MLOAD PUSH1 0xFF NOT AND DUP4 DUP1 ADD OR DUP6 SSTORE PUSH2 0x9BD JUMP JUMPDEST DUP3 DUP1 ADD PUSH1 0x1 ADD DUP6 SSTORE DUP3 ISZERO PUSH2 0x9BD JUMPI SWAP2 DUP3 ADD JUMPDEST DUP3 DUP2 GT ISZERO PUSH2 0x9BC JUMPI DUP3 MLOAD DUP3 SSTORE SWAP2 PUSH1 0x20 ADD SWAP2 SWAP1 PUSH1 0x1 ADD SWAP1 PUSH2 0x9A1 JUMP JUMPDEST JUMPDEST POP SWAP1 POP PUSH2 0x9CA SWAP2 SWAP1 PUSH2 0x9CE JUMP JUMPDEST POP SWAP1 JUMP JUMPDEST JUMPDEST DUP1 DUP3 GT ISZERO PUSH2 0x9E7 JUMPI PUSH1 0x0 DUP2 PUSH1 0x0 SWAP1 SSTORE POP PUSH1 0x1 ADD PUSH2 0x9CF JUMP JUMPDEST POP SWAP1 JUMP JUMPDEST PUSH1 0x0 PUSH2 0x9FE PUSH2 0x9F9 DUP5 PUSH2 0xDB0 JUMP JUMPDEST PUSH2 0xD8B JUMP JUMPDEST SWAP1 POP DUP3 DUP2 MSTORE PUSH1 0x20 DUP2 ADD DUP5 DUP5 DUP5 ADD GT ISZERO PUSH2 0xA1A JUMPI PUSH2 0xA19 PUSH2 0x1010 JUMP JUMPDEST JUMPDEST PUSH2 0xA25 DUP5 DUP3 DUP6 PUSH2 0xE61 JUMP JUMPDEST POP SWAP4 SWAP3 POP POP POP JUMP JUMPDEST PUSH1 0x0 DUP2 CALLDATALOAD SWAP1 POP PUSH2 0xA3C DUP2 PUSH2 0x1059 JUMP JUMPDEST SWAP3 SWAP2 POP POP JUMP JUMPDEST PUSH1 0x0 DUP3 PUSH1 0x1F DUP4 ADD SLT PUSH2 0xA57 JUMPI PUSH2 0xA56 PUSH2 0x100B JUMP JUMPDEST JUMPDEST DUP2 CALLDATALOAD PUSH2 0xA67 DUP5 DUP3 PUSH1 0x20 DUP7 ADD PUSH2 0x9EB JUMP JUMPDEST SWAP2 POP POP SWAP3 SWAP2 POP POP JUMP JUMPDEST PUSH1 0x0 DUP2 CALLDATALOAD SWAP1 POP PUSH2 0xA7F DUP2 PUSH2 0x1070 JUMP JUMPDEST SWAP3 SWAP2 POP POP JUMP JUMPDEST PUSH1 0x0 PUSH1 0x20 DUP3 DUP5 SUB SLT ISZERO PUSH2 0xA9B JUMPI PUSH2 0xA9A PUSH2 0x101A JUMP JUMPDEST JUMPDEST PUSH1 0x0 PUSH2 0xAA9 DUP5 DUP3 DUP6 ADD PUSH2 0xA2D JUMP JUMPDEST SWAP2 POP POP SWAP3 SWAP2 POP POP JUMP JUMPDEST PUSH1 0x0 PUSH1 0x20 DUP3 DUP5 SUB SLT ISZERO PUSH2 0xAC8 JUMPI PUSH2 0xAC7 PUSH2 0x101A JUMP JUMPDEST JUMPDEST PUSH1 0x0 PUSH2 0xAD6 DUP5 DUP3 DUP6 ADD PUSH2 0xA70 JUMP JUMPDEST SWAP2 POP POP SWAP3 SWAP2 POP POP JUMP JUMPDEST PUSH1 0x0 DUP1 PUSH1 0x0 DUP1 PUSH1 0x80 DUP6 DUP8 SUB SLT ISZERO PUSH2 0xAF9 JUMPI PUSH2 0xAF8 PUSH2 0x101A JUMP JUMPDEST JUMPDEST PUSH1 0x0 PUSH2 0xB07 DUP8 DUP3 DUP9 ADD PUSH2 0xA70 JUMP JUMPDEST SWAP5 POP POP PUSH1 0x20 DUP6 ADD CALLDATALOAD PUSH8 0xFFFFFFFFFFFFFFFF DUP2 GT ISZERO PUSH2 0xB28 JUMPI PUSH2 0xB27 PUSH2 0x1015 JUMP JUMPDEST JUMPDEST PUSH2 0xB34 DUP8 DUP3 DUP9 ADD PUSH2 0xA42 JUMP JUMPDEST SWAP4 POP POP PUSH1 0x40 DUP6 ADD CALLDATALOAD PUSH8 0xFFFFFFFFFFFFFFFF DUP2 GT ISZERO PUSH2 0xB55 JUMPI PUSH2 0xB54 PUSH2 0x1015 JUMP JUMPDEST JUMPDEST PUSH2 0xB61 DUP8 DUP3 DUP9 ADD PUSH2 0xA42 JUMP JUMPDEST SWAP3 POP POP PUSH1 0x60 DUP6 ADD CALLDATALOAD PUSH8 0xFFFFFFFFFFFFFFFF DUP2 GT ISZERO PUSH2 0xB82 JUMPI PUSH2 0xB81 PUSH2 0x1015 JUMP JUMPDEST JUMPDEST PUSH2 0xB8E DUP8 DUP3 DUP9 ADD PUSH2 0xA42 JUMP JUMPDEST SWAP2 POP POP SWAP3 SWAP6 SWAP2 SWAP5 POP SWAP3 POP JUMP JUMPDEST PUSH2 0xBA3 DUP2 PUSH2 0xE0F JUMP JUMPDEST DUP3 MSTORE POP POP JUMP JUMPDEST PUSH2 0xBB2 DUP2 PUSH2 0xDFD JUMP JUMPDEST DUP3 MSTORE POP POP JUMP JUMPDEST PUSH2 0xBC1 DUP2 PUSH2 0xE21 JUMP JUMPDEST DUP3 MSTORE POP POP JUMP JUMPDEST PUSH2 0xBD0 DUP2 PUSH2 0xE2D JUMP JUMPDEST DUP3 MSTORE POP POP JUMP JUMPDEST PUSH1 0x0 PUSH2 0xBE1 DUP3 PUSH2 0xDE1 JUMP JUMPDEST PUSH2 0xBEB DUP2 DUP6 PUSH2 0xDEC JUMP JUMPDEST SWAP4 POP PUSH2 0xBFB DUP2 DUP6 PUSH1 0x20 DUP7 ADD PUSH2 0xE70 JUMP JUMPDEST PUSH2 0xC04 DUP2 PUSH2 0x101F JUMP JUMPDEST DUP5 ADD SWAP2 POP POP SWAP3 SWAP2 POP POP JUMP JUMPDEST PUSH1 0x0 PUSH2 0xC1C PUSH1 0x1D DUP4 PUSH2 0xDEC JUMP JUMPDEST SWAP2 POP PUSH2 0xC27 DUP3 PUSH2 0x1030 JUMP JUMPDEST PUSH1 0x20 DUP3 ADD SWAP1 POP SWAP2 SWAP1 POP JUMP JUMPDEST PUSH2 0xC3B DUP2 PUSH2 0xE57 JUMP JUMPDEST DUP3 MSTORE POP POP JUMP JUMPDEST PUSH1 0x0 PUSH1 0x20 DUP3 ADD SWAP1 POP PUSH2 0xC56 PUSH1 0x0 DUP4 ADD DUP5 PUSH2 0xBA9 JUMP JUMPDEST SWAP3 SWAP2 POP POP JUMP JUMPDEST PUSH1 0x0 PUSH1 0x40 DUP3 ADD SWAP1 POP PUSH2 0xC71 PUSH1 0x0 DUP4 ADD DUP6 PUSH2 0xBA9 JUMP JUMPDEST PUSH2 0xC7E PUSH1 0x20 DUP4 ADD DUP5 PUSH2 0xBA9 JUMP JUMPDEST SWAP4 SWAP3 POP POP POP JUMP JUMPDEST PUSH1 0x0 PUSH1 0x20 DUP3 ADD SWAP1 POP PUSH2 0xC9A PUSH1 0x0 DUP4 ADD DUP5 PUSH2 0xBB8 JUMP JUMPDEST SWAP3 SWAP2 POP POP JUMP JUMPDEST PUSH1 0x0 PUSH1 0x40 DUP3 ADD SWAP1 POP PUSH2 0xCB5 PUSH1 0x0 DUP4 ADD DUP6 PUSH2 0xBC7 JUMP JUMPDEST PUSH2 0xCC2 PUSH1 0x20 DUP4 ADD DUP5 PUSH2 0xC32 JUMP JUMPDEST SWAP4 SWAP3 POP POP POP JUMP JUMPDEST PUSH1 0x0 PUSH1 0x20 DUP3 ADD SWAP1 POP DUP2 DUP2 SUB PUSH1 0x0 DUP4 ADD MSTORE PUSH2 0xCE2 DUP2 PUSH2 0xC0F JUMP JUMPDEST SWAP1 POP SWAP2 SWAP1 POP JUMP JUMPDEST PUSH1 0x0 PUSH2 0x120 DUP3 ADD SWAP1 POP PUSH2 0xCFF PUSH1 0x0 DUP4 ADD DUP13 PUSH2 0xC32 JUMP JUMPDEST PUSH2 0xD0C PUSH1 0x20 DUP4 ADD DUP12 PUSH2 0xC32 JUMP JUMPDEST DUP2 DUP2 SUB PUSH1 0x40 DUP4 ADD MSTORE PUSH2 0xD1E DUP2 DUP11 PUSH2 0xBD6 JUMP JUMPDEST SWAP1 POP DUP2 DUP2 SUB PUSH1 0x60 DUP4 ADD MSTORE PUSH2 0xD32 DUP2 DUP10 PUSH2 0xBD6 JUMP JUMPDEST SWAP1 POP DUP2 DUP2 SUB PUSH1 0x80 DUP4 ADD MSTORE PUSH2 0xD46 DUP2 DUP9 PUSH2 0xBD6 JUMP JUMPDEST SWAP1 POP PUSH2 0xD55 PUSH1 0xA0 DUP4 ADD DUP8 PUSH2 0xBB8 JUMP JUMPDEST PUSH2 0xD62 PUSH1 0xC0 DUP4 ADD DUP7 PUSH2 0xC32 JUMP JUMPDEST PUSH2 0xD6F PUSH1 0xE0 DUP4 ADD DUP6 PUSH2 0xB9A JUMP JUMPDEST PUSH2 0xD7D PUSH2 0x100 DUP4 ADD DUP5 PUSH2 0xB9A JUMP JUMPDEST SWAP11 SWAP10 POP POP POP POP POP POP POP POP POP POP JUMP JUMPDEST PUSH1 0x0 PUSH2 0xD95 PUSH2 0xDA6 JUMP JUMPDEST SWAP1 POP PUSH2 0xDA1 DUP3 DUP3 PUSH2 0xED5 JUMP JUMPDEST SWAP2 SWAP1 POP JUMP JUMPDEST PUSH1 0x0 PUSH1 0x40 MLOAD SWAP1 POP SWAP1 JUMP JUMPDEST PUSH1 0x0 PUSH8 0xFFFFFFFFFFFFFFFF DUP3 GT ISZERO PUSH2 0xDCB JUMPI PUSH2 0xDCA PUSH2 0xFDC JUMP JUMPDEST JUMPDEST PUSH2 0xDD4 DUP3 PUSH2 0x101F JUMP JUMPDEST SWAP1 POP PUSH1 0x20 DUP2 ADD SWAP1 POP SWAP2 SWAP1 POP JUMP JUMPDEST PUSH1 0x0 DUP2 MLOAD SWAP1 POP SWAP2 SWAP1 POP JUMP JUMPDEST PUSH1 0x0 DUP3 DUP3 MSTORE PUSH1 0x20 DUP3 ADD SWAP1 POP SWAP3 SWAP2 POP POP JUMP JUMPDEST PUSH1 0x0 PUSH2 0xE08 DUP3 PUSH2 0xE37 JUMP JUMPDEST SWAP1 POP SWAP2 SWAP1 POP JUMP JUMPDEST PUSH1 0x0 PUSH2 0xE1A DUP3 PUSH2 0xE37 JUMP JUMPDEST SWAP1 POP SWAP2 SWAP1 POP JUMP JUMPDEST PUSH1 0x0 DUP2 ISZERO ISZERO SWAP1 POP SWAP2 SWAP1 POP JUMP JUMPDEST PUSH1 0x0 DUP2 SWAP1 POP SWAP2 SWAP1 POP JUMP JUMPDEST PUSH1 0x0 PUSH20 0xFFFFFFFFFFFFFFFFFFFFFFFFFFFFFFFFFFFFFFFF DUP3 AND SWAP1 POP SWAP2 SWAP1 POP JUMP JUMPDEST PUSH1 0x0 DUP2 SWAP1 POP SWAP2 SWAP1 POP JUMP JUMPDEST DUP3 DUP2 DUP4 CALLDATACOPY PUSH1 0x0 DUP4 DUP4 ADD MSTORE POP POP POP JUMP JUMPDEST PUSH1 0x0 JUMPDEST DUP4 DUP2 LT ISZERO PUSH2 0xE8E JUMPI DUP1 DUP3 ADD MLOAD DUP2 DUP5 ADD MSTORE PUSH1 0x20 DUP2 ADD SWAP1 POP PUSH2 0xE73 JUMP JUMPDEST DUP4 DUP2 GT ISZERO PUSH2 0xE9D JUMPI PUSH1 0x0 DUP5 DUP5 ADD MSTORE JUMPDEST POP POP POP POP JUMP JUMPDEST PUSH1 0x0 PUSH1 0x2 DUP3 DIV SWAP1 POP PUSH1 0x1 DUP3 AND DUP1 PUSH2 0xEBB JUMPI PUSH1 0x7F DUP3 AND SWAP2 POP JUMPDEST PUSH1 0x20 DUP3 LT DUP2 EQ ISZERO PUSH2 0xECF JUMPI PUSH2 0xECE PUSH2 0xF7E JUMP JUMPDEST JUMPDEST POP SWAP2 SWAP1 POP JUMP JUMPDEST PUSH2 0xEDE DUP3 PUSH2 0x101F JUMP JUMPDEST DUP2 ADD DUP2 DUP2 LT PUSH8 0xFFFFFFFFFFFFFFFF DUP3 GT OR ISZERO PUSH2 0xEFD JUMPI PUSH2 0xEFC PUSH2 0xFDC JUMP JUMPDEST JUMPDEST DUP1 PUSH1 0x40 MSTORE POP POP POP JUMP JUMPDEST PUSH1 0x0 PUSH2 0xF11 DUP3 PUSH2 0xE57 JUMP JUMPDEST SWAP2 POP PUSH32 0xFFFFFFFFFFFFFFFFFFFFFFFFFFFFFFFFFFFFFFFFFFFFFFFFFFFFFFFFFFFFFFFF DUP3 EQ ISZERO PUSH2 0xF44 JUMPI PUSH2 0xF43 PUSH2 0xF4F JUMP JUMPDEST JUMPDEST PUSH1 0x1 DUP3 ADD SWAP1 POP SWAP2 SWAP1 POP JUMP JUMPDEST PUSH32 0x4E487B7100000000000000000000000000000000000000000000000000000000 PUSH1 0x0 MSTORE PUSH1 0x11 PUSH1 0x4 MSTORE PUSH1 0x24 PUSH1 0x0 REVERT JUMPDEST PUSH32 0x4E487B7100000000000000000000000000000000000000000000000000000000 PUSH1 0x0 MSTORE PUSH1 0x22 PUSH1 0x4 MSTORE PUSH1 0x24 PUSH1 0x0 REVERT JUMPDEST PUSH32 0x4E487B7100000000000000000000000000000000000000000000000000000000 PUSH1 0x0 MSTORE PUSH1 0x32 PUSH1 0x4 MSTORE PUSH1 0x24 PUSH1 0x0 REVERT JUMPDEST PUSH32 0x4E487B7100000000000000000000000000000000000000000000000000000000 PUSH1 0x0 MSTORE PUSH1 0x41 PUSH1 0x4 MSTORE PUSH1 0x24 PUSH1 0x0 REVERT JUMPDEST PUSH1 0x0 DUP1 REVERT JUMPDEST PUSH1 0x0 DUP1 REVERT JUMPDEST PUSH1 0x0 DUP1 REVERT JUMPDEST PUSH1 0x0 DUP1 REVERT JUMPDEST PUSH1 0x0 PUSH1 0x1F NOT PUSH1 0x1F DUP4 ADD AND SWAP1 POP SWAP2 SWAP1 POP JUMP JUMPDEST PUSH32 0x50617469656E7420697320616C72656164792072656769737465726564000000 PUSH1 0x0 DUP3 ADD MSTORE POP JUMP JUMPDEST PUSH2 0x1062 DUP2 PUSH2 0xDFD JUMP JUMPDEST DUP2 EQ PUSH2 0x106D JUMPI PUSH1 0x0 DUP1 REVERT JUMPDEST POP JUMP JUMPDEST PUSH2 0x1079 DUP2 PUSH2 0xE57 JUMP JUMPDEST DUP2 EQ PUSH2 0x1084 JUMPI PUSH1 0x0 DUP1 REVERT JUMPDEST POP JUMP INVALID LOG2 PUSH5 0x6970667358 0x22 SLT KECCAK256 GAS SSTORE DELEGATECALL 0xD4 SLOAD PUSH11 0xDE49EDAEC94888E20CAFB4 LOG0 0xDC SHR 0x26 0xB6 PUSH1 0x2C 0xD2 0x5C 0xD3 PUSH19 0xEB67CB0164736F6C6343000807003300000000 "
				},
				"gasEstimates": {
					"creation": {
						"codeDepositCost": "857000",
						"executionCost": "29448",
						"totalCost": "886448"
					},
					"external": {
						"authCheck(address)": "infinite",
						"author(uint256)": "5044",
						"cards(uint256)": "infinite",
						"fetchData(address)": "infinite",
						"patients(address)": "infinite",
						"registerPatient(uint256,string,string,string)": "infinite"
					}
				},
				"methodIdentifiers": {
					"authCheck(address)": "da300116",
					"author(uint256)": "ec4eb442",
					"cards(uint256)": "8dc10768",
					"fetchData(address)": "c4bfd57d",
					"patients(address)": "0869cfbc",
					"registerPatient(uint256,string,string,string)": "89c47f08"
				}
			},
			"storageLayout": {
				"storage": [
					{
						"astId": 28,
						"contract": "contracts/3_Data.sol:Data",
						"label": "counter",
						"offset": 0,
						"slot": "0",
						"type": "t_uint256"
					},
					{
						"astId": 31,
						"contract": "contracts/3_Data.sol:Data",
						"label": "author",
						"offset": 0,
						"slot": "1",
						"type": "t_array(t_address)dyn_storage"
					},
					{
						"astId": 36,
						"contract": "contracts/3_Data.sol:Data",
						"label": "patients",
						"offset": 0,
						"slot": "2",
						"type": "t_mapping(t_address,t_struct(Patient)21_storage)"
					},
					{
						"astId": 40,
						"contract": "contracts/3_Data.sol:Data",
						"label": "cards",
						"offset": 0,
						"slot": "3",
						"type": "t_array(t_struct(Card)26_storage)dyn_storage"
					}
				],
				"types": {
					"t_address": {
						"encoding": "inplace",
						"label": "address",
						"numberOfBytes": "20"
					},
					"t_address_payable": {
						"encoding": "inplace",
						"label": "address payable",
						"numberOfBytes": "20"
					},
					"t_array(t_address)dyn_storage": {
						"base": "t_address",
						"encoding": "dynamic_array",
						"label": "address[]",
						"numberOfBytes": "32"
					},
					"t_array(t_struct(Card)26_storage)dyn_storage": {
						"base": "t_struct(Card)26_storage",
						"encoding": "dynamic_array",
						"label": "struct Data.Card[]",
						"numberOfBytes": "32"
					},
					"t_bool": {
						"encoding": "inplace",
						"label": "bool",
						"numberOfBytes": "1"
					},
					"t_bytes32": {
						"encoding": "inplace",
						"label": "bytes32",
						"numberOfBytes": "32"
					},
					"t_mapping(t_address,t_struct(Patient)21_storage)": {
						"encoding": "mapping",
						"key": "t_address",
						"label": "mapping(address => struct Data.Patient)",
						"numberOfBytes": "32",
						"value": "t_struct(Patient)21_storage"
					},
					"t_string_storage": {
						"encoding": "bytes",
						"label": "string",
						"numberOfBytes": "32"
					},
					"t_struct(Card)26_storage": {
						"encoding": "inplace",
						"label": "struct Data.Card",
						"members": [
							{
								"astId": 23,
								"contract": "contracts/3_Data.sol:Data",
								"label": "name",
								"offset": 0,
								"slot": "0",
								"type": "t_bytes32"
							},
							{
								"astId": 25,
								"contract": "contracts/3_Data.sol:Data",
								"label": "ID",
								"offset": 0,
								"slot": "1",
								"type": "t_uint256"
							}
						],
						"numberOfBytes": "64"
					},
					"t_struct(Patient)21_storage": {
						"encoding": "inplace",
						"label": "struct Data.Patient",
						"members": [
							{
								"astId": 4,
								"contract": "contracts/3_Data.sol:Data",
								"label": "ID",
								"offset": 0,
								"slot": "0",
								"type": "t_uint256"
							},
							{
								"astId": 6,
								"contract": "contracts/3_Data.sol:Data",
								"label": "healthy",
								"offset": 0,
								"slot": "1",
								"type": "t_uint256"
							},
							{
								"astId": 8,
								"contract": "contracts/3_Data.sol:Data",
								"label": "name",
								"offset": 0,
								"slot": "2",
								"type": "t_string_storage"
							},
							{
								"astId": 10,
								"contract": "contracts/3_Data.sol:Data",
								"label": "disease",
								"offset": 0,
								"slot": "3",
								"type": "t_string_storage"
							},
							{
								"astId": 12,
								"contract": "contracts/3_Data.sol:Data",
								"label": "medicines",
								"offset": 0,
								"slot": "4",
								"type": "t_string_storage"
							},
							{
								"astId": 14,
								"contract": "contracts/3_Data.sol:Data",
								"label": "reg",
								"offset": 0,
								"slot": "5",
								"type": "t_bool"
							},
							{
								"astId": 16,
								"contract": "contracts/3_Data.sol:Data",
								"label": "key",
								"offset": 0,
								"slot": "6",
								"type": "t_uint256"
							},
							{
								"astId": 18,
								"contract": "contracts/3_Data.sol:Data",
								"label": "client",
								"offset": 0,
								"slot": "7",
								"type": "t_address_payable"
							},
							{
								"astId": 20,
								"contract": "contracts/3_Data.sol:Data",
								"label": "dest",
								"offset": 0,
								"slot": "8",
								"type": "t_address_payable"
							}
						],
						"numberOfBytes": "288"
					},
					"t_uint256": {
						"encoding": "inplace",
						"label": "uint256",
						"numberOfBytes": "32"
					}
				}
			},
			"userdoc": {
				"kind": "user",
				"methods": {},
				"version": 1
			}
		}
	}
}