{
	"contracts/3_Data.sol": {
		"Data": {
			"abi": [
				{
					"inputs": [],
					"stateMutability": "nonpayable",
					"type": "constructor"
				},
				{
					"anonymous": false,
					"inputs": [
						{
							"indexed": false,
							"internalType": "address",
							"name": "from",
							"type": "address"
						},
						{
							"indexed": false,
							"internalType": "address",
							"name": "to",
							"type": "address"
						}
					],
					"name": "Auth",
					"type": "event"
				},
				{
					"inputs": [
						{
							"internalType": "address",
							"name": "to",
							"type": "address"
						},
						{
							"internalType": "uint256",
							"name": "ID",
							"type": "uint256"
						}
					],
					"name": "authCheck",
					"outputs": [
						{
							"internalType": "bool",
							"name": "success",
							"type": "bool"
						}
					],
					"stateMutability": "nonpayable",
					"type": "function"
				},
				{
					"inputs": [
						{
							"internalType": "uint256",
							"name": "",
							"type": "uint256"
						}
					],
					"name": "author",
					"outputs": [
						{
							"internalType": "address",
							"name": "",
							"type": "address"
						}
					],
					"stateMutability": "view",
					"type": "function"
				},
				{
					"inputs": [
						{
							"internalType": "uint256",
							"name": "",
							"type": "uint256"
						}
					],
					"name": "cards",
					"outputs": [
						{
							"internalType": "bytes32",
							"name": "name",
							"type": "bytes32"
						},
						{
							"internalType": "uint256",
							"name": "ID",
							"type": "uint256"
						}
					],
					"stateMutability": "view",
					"type": "function"
				},
				{
					"inputs": [
						{
							"internalType": "address",
							"name": "test",
							"type": "address"
						}
					],
					"name": "fetchData",
					"outputs": [
						{
							"internalType": "bool",
							"name": "",
							"type": "bool"
						}
					],
					"stateMutability": "nonpayable",
					"type": "function"
				},
				{
					"inputs": [
						{
							"internalType": "address",
							"name": "",
							"type": "address"
						}
					],
					"name": "patients",
					"outputs": [
						{
							"internalType": "uint256",
							"name": "ID",
							"type": "uint256"
						},
						{
							"internalType": "uint256",
							"name": "healthy",
							"type": "uint256"
						},
						{
							"internalType": "string",
							"name": "name",
							"type": "string"
						},
						{
							"internalType": "string",
							"name": "disease",
							"type": "string"
						},
						{
							"internalType": "string",
							"name": "medicines",
							"type": "string"
						},
						{
							"internalType": "bool",
							"name": "reg",
							"type": "bool"
						},
						{
							"internalType": "uint256",
							"name": "key",
							"type": "uint256"
						},
						{
							"internalType": "address payable",
							"name": "client",
							"type": "address"
						},
						{
							"internalType": "address payable",
							"name": "dest",
							"type": "address"
						}
					],
					"stateMutability": "view",
					"type": "function"
				},
				{
					"inputs": [
						{
							"internalType": "uint256",
							"name": "_healthy",
							"type": "uint256"
						},
						{
							"internalType": "string",
							"name": "_name",
							"type": "string"
						},
						{
							"internalType": "string",
							"name": "_disease",
							"type": "string"
						},
						{
							"internalType": "string",
							"name": "_medicine",
							"type": "string"
						}
					],
					"name": "registerPatient",
					"outputs": [],
					"stateMutability": "nonpayable",
					"type": "function"
				}
			],
			"devdoc": {
				"details": "Implements Patient data along with verification",
				"kind": "dev",
				"methods": {},
				"title": "Data",
				"version": 1
			},
			"evm": {
				"assembly": "    /* \"contracts/3_Data.sol\":153:2017  contract Data {... */\n  mstore(0x40, 0x80)\n    /* \"contracts/3_Data.sol\":846:905  constructor() {... */\n  callvalue\n  dup1\n  iszero\n  tag_1\n  jumpi\n  0x00\n  dup1\n  revert\ntag_1:\n  pop\n    /* \"contracts/3_Data.sol\":888:898  msg.sender */\n  caller\n    /* \"contracts/3_Data.sol\":870:876  author */\n  0x01\n    /* \"contracts/3_Data.sol\":877:884  counter */\n  sload(0x00)\n    /* \"contracts/3_Data.sol\":870:885  author[counter] */\n  dup2\n  sload\n  dup2\n  lt\n  tag_4\n  jumpi\n  tag_5\n  tag_6\n  jump\t// in\ntag_5:\ntag_4:\n  swap1\n  0x00\n  mstore\n  keccak256(0x00, 0x20)\n  add\n  0x00\n    /* \"contracts/3_Data.sol\":870:898  author[counter] = msg.sender */\n  0x0100\n  exp\n  dup2\n  sload\n  dup2\n  0xffffffffffffffffffffffffffffffffffffffff\n  mul\n  not\n  and\n  swap1\n  dup4\n  0xffffffffffffffffffffffffffffffffffffffff\n  and\n  mul\n  or\n  swap1\n  sstore\n  pop\n    /* \"contracts/3_Data.sol\":153:2017  contract Data {... */\n  jump(tag_8)\n    /* \"#utility.yul\":7:187   */\ntag_6:\n    /* \"#utility.yul\":55:132   */\n  0x4e487b7100000000000000000000000000000000000000000000000000000000\n    /* \"#utility.yul\":52:53   */\n  0x00\n    /* \"#utility.yul\":45:133   */\n  mstore\n    /* \"#utility.yul\":152:156   */\n  0x32\n    /* \"#utility.yul\":149:150   */\n  0x04\n    /* \"#utility.yul\":142:157   */\n  mstore\n    /* \"#utility.yul\":176:180   */\n  0x24\n    /* \"#utility.yul\":173:174   */\n  0x00\n    /* \"#utility.yul\":166:181   */\n  revert\n    /* \"contracts/3_Data.sol\":153:2017  contract Data {... */\ntag_8:\n  dataSize(sub_0)\n  dup1\n  dataOffset(sub_0)\n  0x00\n  codecopy\n  0x00\n  return\nstop\n\nsub_0: assembly {\n        /* \"contracts/3_Data.sol\":153:2017  contract Data {... */\n      mstore(0x40, 0x80)\n      callvalue\n      dup1\n      iszero\n      tag_1\n      jumpi\n      0x00\n      dup1\n      revert\n    tag_1:\n      pop\n      jumpi(tag_2, lt(calldatasize, 0x04))\n      shr(0xe0, calldataload(0x00))\n      dup1\n      0x0869cfbc\n      eq\n      tag_3\n      jumpi\n      dup1\n      0x89c47f08\n      eq\n      tag_4\n      jumpi\n      dup1\n      0x8dc10768\n      eq\n      tag_5\n      jumpi\n      dup1\n      0xc4bfd57d\n      eq\n      tag_6\n      jumpi\n      dup1\n      0xd651893d\n      eq\n      tag_7\n      jumpi\n      dup1\n      0xec4eb442\n      eq\n      tag_8\n      jumpi\n    tag_2:\n      0x00\n      dup1\n      revert\n        /* \"contracts/3_Data.sol\":770:813  mapping(address => Patient) public patients */\n    tag_3:\n      tag_9\n      0x04\n      dup1\n      calldatasize\n      sub\n      dup2\n      add\n      swap1\n      tag_10\n      swap2\n      swap1\n      tag_11\n      jump\t// in\n    tag_10:\n      tag_12\n      jump\t// in\n    tag_9:\n      mload(0x40)\n      tag_13\n      swap10\n      swap9\n      swap8\n      swap7\n      swap6\n      swap5\n      swap4\n      swap3\n      swap2\n      swap1\n      tag_14\n      jump\t// in\n    tag_13:\n      mload(0x40)\n      dup1\n      swap2\n      sub\n      swap1\n      return\n        /* \"contracts/3_Data.sol\":1277:1797  function registerPatient(uint _healthy, string memory _name, string memory _disease, string memory _medicine) external {... */\n    tag_4:\n      tag_15\n      0x04\n      dup1\n      calldatasize\n      sub\n      dup2\n      add\n      swap1\n      tag_16\n      swap2\n      swap1\n      tag_17\n      jump\t// in\n    tag_16:\n      tag_18\n      jump\t// in\n    tag_15:\n      stop\n        /* \"contracts/3_Data.sol\":820:839  Card[] public cards */\n    tag_5:\n      tag_19\n      0x04\n      dup1\n      calldatasize\n      sub\n      dup2\n      add\n      swap1\n      tag_20\n      swap2\n      swap1\n      tag_21\n      jump\t// in\n    tag_20:\n      tag_22\n      jump\t// in\n    tag_19:\n      mload(0x40)\n      tag_23\n      swap3\n      swap2\n      swap1\n      tag_24\n      jump\t// in\n    tag_23:\n      mload(0x40)\n      dup1\n      swap2\n      sub\n      swap1\n      return\n        /* \"contracts/3_Data.sol\":984:1236  function fetchData (address test) public returns(bool) {... */\n    tag_6:\n      tag_25\n      0x04\n      dup1\n      calldatasize\n      sub\n      dup2\n      add\n      swap1\n      tag_26\n      swap2\n      swap1\n      tag_11\n      jump\t// in\n    tag_26:\n      tag_27\n      jump\t// in\n    tag_25:\n      mload(0x40)\n      tag_28\n      swap2\n      swap1\n      tag_29\n      jump\t// in\n    tag_28:\n      mload(0x40)\n      dup1\n      swap2\n      sub\n      swap1\n      return\n        /* \"contracts/3_Data.sol\":1835:2015  function authCheck(address to, uint ID) external returns (bool success) {... */\n    tag_7:\n      tag_30\n      0x04\n      dup1\n      calldatasize\n      sub\n      dup2\n      add\n      swap1\n      tag_31\n      swap2\n      swap1\n      tag_32\n      jump\t// in\n    tag_31:\n      tag_33\n      jump\t// in\n    tag_30:\n      mload(0x40)\n      tag_34\n      swap2\n      swap1\n      tag_29\n      jump\t// in\n    tag_34:\n      mload(0x40)\n      dup1\n      swap2\n      sub\n      swap1\n      return\n        /* \"contracts/3_Data.sol\":739:763  address [] public author */\n    tag_8:\n      tag_35\n      0x04\n      dup1\n      calldatasize\n      sub\n      dup2\n      add\n      swap1\n      tag_36\n      swap2\n      swap1\n      tag_21\n      jump\t// in\n    tag_36:\n      tag_37\n      jump\t// in\n    tag_35:\n      mload(0x40)\n      tag_38\n      swap2\n      swap1\n      tag_39\n      jump\t// in\n    tag_38:\n      mload(0x40)\n      dup1\n      swap2\n      sub\n      swap1\n      return\n        /* \"contracts/3_Data.sol\":770:813  mapping(address => Patient) public patients */\n    tag_12:\n      mstore(0x20, 0x02)\n      dup1\n      0x00\n      mstore\n      keccak256(0x00, 0x40)\n      0x00\n      swap2\n      pop\n      swap1\n      pop\n      dup1\n      0x00\n      add\n      sload\n      swap1\n      dup1\n      0x01\n      add\n      sload\n      swap1\n      dup1\n      0x02\n      add\n      dup1\n      sload\n      tag_40\n      swap1\n      tag_41\n      jump\t// in\n    tag_40:\n      dup1\n      0x1f\n      add\n      0x20\n      dup1\n      swap2\n      div\n      mul\n      0x20\n      add\n      mload(0x40)\n      swap1\n      dup2\n      add\n      0x40\n      mstore\n      dup1\n      swap3\n      swap2\n      swap1\n      dup2\n      dup2\n      mstore\n      0x20\n      add\n      dup3\n      dup1\n      sload\n      tag_42\n      swap1\n      tag_41\n      jump\t// in\n    tag_42:\n      dup1\n      iszero\n      tag_43\n      jumpi\n      dup1\n      0x1f\n      lt\n      tag_44\n      jumpi\n      0x0100\n      dup1\n      dup4\n      sload\n      div\n      mul\n      dup4\n      mstore\n      swap2\n      0x20\n      add\n      swap2\n      jump(tag_43)\n    tag_44:\n      dup3\n      add\n      swap2\n      swap1\n      0x00\n      mstore\n      keccak256(0x00, 0x20)\n      swap1\n    tag_45:\n      dup2\n      sload\n      dup2\n      mstore\n      swap1\n      0x01\n      add\n      swap1\n      0x20\n      add\n      dup1\n      dup4\n      gt\n      tag_45\n      jumpi\n      dup3\n      swap1\n      sub\n      0x1f\n      and\n      dup3\n      add\n      swap2\n    tag_43:\n      pop\n      pop\n      pop\n      pop\n      pop\n      swap1\n      dup1\n      0x03\n      add\n      dup1\n      sload\n      tag_46\n      swap1\n      tag_41\n      jump\t// in\n    tag_46:\n      dup1\n      0x1f\n      add\n      0x20\n      dup1\n      swap2\n      div\n      mul\n      0x20\n      add\n      mload(0x40)\n      swap1\n      dup2\n      add\n      0x40\n      mstore\n      dup1\n      swap3\n      swap2\n      swap1\n      dup2\n      dup2\n      mstore\n      0x20\n      add\n      dup3\n      dup1\n      sload\n      tag_47\n      swap1\n      tag_41\n      jump\t// in\n    tag_47:\n      dup1\n      iszero\n      tag_48\n      jumpi\n      dup1\n      0x1f\n      lt\n      tag_49\n      jumpi\n      0x0100\n      dup1\n      dup4\n      sload\n      div\n      mul\n      dup4\n      mstore\n      swap2\n      0x20\n      add\n      swap2\n      jump(tag_48)\n    tag_49:\n      dup3\n      add\n      swap2\n      swap1\n      0x00\n      mstore\n      keccak256(0x00, 0x20)\n      swap1\n    tag_50:\n      dup2\n      sload\n      dup2\n      mstore\n      swap1\n      0x01\n      add\n      swap1\n      0x20\n      add\n      dup1\n      dup4\n      gt\n      tag_50\n      jumpi\n      dup3\n      swap1\n      sub\n      0x1f\n      and\n      dup3\n      add\n      swap2\n    tag_48:\n      pop\n      pop\n      pop\n      pop\n      pop\n      swap1\n      dup1\n      0x04\n      add\n      dup1\n      sload\n      tag_51\n      swap1\n      tag_41\n      jump\t// in\n    tag_51:\n      dup1\n      0x1f\n      add\n      0x20\n      dup1\n      swap2\n      div\n      mul\n      0x20\n      add\n      mload(0x40)\n      swap1\n      dup2\n      add\n      0x40\n      mstore\n      dup1\n      swap3\n      swap2\n      swap1\n      dup2\n      dup2\n      mstore\n      0x20\n      add\n      dup3\n      dup1\n      sload\n      tag_52\n      swap1\n      tag_41\n      jump\t// in\n    tag_52:\n      dup1\n      iszero\n      tag_53\n      jumpi\n      dup1\n      0x1f\n      lt\n      tag_54\n      jumpi\n      0x0100\n      dup1\n      dup4\n      sload\n      div\n      mul\n      dup4\n      mstore\n      swap2\n      0x20\n      add\n      swap2\n      jump(tag_53)\n    tag_54:\n      dup3\n      add\n      swap2\n      swap1\n      0x00\n      mstore\n      keccak256(0x00, 0x20)\n      swap1\n    tag_55:\n      dup2\n      sload\n      dup2\n      mstore\n      swap1\n      0x01\n      add\n      swap1\n      0x20\n      add\n      dup1\n      dup4\n      gt\n      tag_55\n      jumpi\n      dup3\n      swap1\n      sub\n      0x1f\n      and\n      dup3\n      add\n      swap2\n    tag_53:\n      pop\n      pop\n      pop\n      pop\n      pop\n      swap1\n      dup1\n      0x05\n      add\n      0x00\n      swap1\n      sload\n      swap1\n      0x0100\n      exp\n      swap1\n      div\n      0xff\n      and\n      swap1\n      dup1\n      0x06\n      add\n      sload\n      swap1\n      dup1\n      0x07\n      add\n      0x00\n      swap1\n      sload\n      swap1\n      0x0100\n      exp\n      swap1\n      div\n      0xffffffffffffffffffffffffffffffffffffffff\n      and\n      swap1\n      dup1\n      0x08\n      add\n      0x00\n      swap1\n      sload\n      swap1\n      0x0100\n      exp\n      swap1\n      div\n      0xffffffffffffffffffffffffffffffffffffffff\n      and\n      swap1\n      pop\n      dup10\n      jump\t// out\n        /* \"contracts/3_Data.sol\":1277:1797  function registerPatient(uint _healthy, string memory _name, string memory _disease, string memory _medicine) external {... */\n    tag_18:\n        /* \"contracts/3_Data.sol\":1428:1436  patients */\n      0x02\n        /* \"contracts/3_Data.sol\":1428:1453  patients[author[counter]] */\n      0x00\n        /* \"contracts/3_Data.sol\":1437:1443  author */\n      0x01\n        /* \"contracts/3_Data.sol\":1444:1451  counter */\n      sload(0x00)\n        /* \"contracts/3_Data.sol\":1437:1452  author[counter] */\n      dup2\n      sload\n      dup2\n      lt\n      tag_57\n      jumpi\n      tag_58\n      tag_59\n      jump\t// in\n    tag_58:\n    tag_57:\n      swap1\n      0x00\n      mstore\n      keccak256(0x00, 0x20)\n      add\n      0x00\n      swap1\n      sload\n      swap1\n      0x0100\n      exp\n      swap1\n      div\n      0xffffffffffffffffffffffffffffffffffffffff\n      and\n        /* \"contracts/3_Data.sol\":1428:1453  patients[author[counter]] */\n      0xffffffffffffffffffffffffffffffffffffffff\n      and\n      0xffffffffffffffffffffffffffffffffffffffff\n      and\n      dup2\n      mstore\n      0x20\n      add\n      swap1\n      dup2\n      mstore\n      0x20\n      add\n      0x00\n      keccak256\n        /* \"contracts/3_Data.sol\":1428:1457  patients[author[counter]].reg */\n      0x05\n      add\n      0x00\n      swap1\n      sload\n      swap1\n      0x0100\n      exp\n      swap1\n      div\n      0xff\n      and\n        /* \"contracts/3_Data.sol\":1427:1457  !patients[author[counter]].reg */\n      iszero\n        /* \"contracts/3_Data.sol\":1406:1512  require(... */\n      tag_61\n      jumpi\n      mload(0x40)\n      0x08c379a000000000000000000000000000000000000000000000000000000000\n      dup2\n      mstore\n      0x04\n      add\n      tag_62\n      swap1\n      tag_63\n      jump\t// in\n    tag_62:\n      mload(0x40)\n      dup1\n      swap2\n      sub\n      swap1\n      revert\n    tag_61:\n        /* \"contracts/3_Data.sol\":1558:1566  _healthy */\n      dup4\n        /* \"contracts/3_Data.sol\":1522:1530  patients */\n      0x02\n        /* \"contracts/3_Data.sol\":1522:1547  patients[author[counter]] */\n      0x00\n        /* \"contracts/3_Data.sol\":1531:1537  author */\n      0x01\n        /* \"contracts/3_Data.sol\":1538:1545  counter */\n      sload(0x00)\n        /* \"contracts/3_Data.sol\":1531:1546  author[counter] */\n      dup2\n      sload\n      dup2\n      lt\n      tag_64\n      jumpi\n      tag_65\n      tag_59\n      jump\t// in\n    tag_65:\n    tag_64:\n      swap1\n      0x00\n      mstore\n      keccak256(0x00, 0x20)\n      add\n      0x00\n      swap1\n      sload\n      swap1\n      0x0100\n      exp\n      swap1\n      div\n      0xffffffffffffffffffffffffffffffffffffffff\n      and\n        /* \"contracts/3_Data.sol\":1522:1547  patients[author[counter]] */\n      0xffffffffffffffffffffffffffffffffffffffff\n      and\n      0xffffffffffffffffffffffffffffffffffffffff\n      and\n      dup2\n      mstore\n      0x20\n      add\n      swap1\n      dup2\n      mstore\n      0x20\n      add\n      0x00\n      keccak256\n        /* \"contracts/3_Data.sol\":1522:1555  patients[author[counter]].healthy */\n      0x01\n      add\n        /* \"contracts/3_Data.sol\":1522:1566  patients[author[counter]].healthy = _healthy */\n      dup2\n      swap1\n      sstore\n      pop\n        /* \"contracts/3_Data.sol\":1609:1614  _name */\n      dup3\n        /* \"contracts/3_Data.sol\":1576:1584  patients */\n      0x02\n        /* \"contracts/3_Data.sol\":1576:1601  patients[author[counter]] */\n      0x00\n        /* \"contracts/3_Data.sol\":1585:1591  author */\n      0x01\n        /* \"contracts/3_Data.sol\":1592:1599  counter */\n      sload(0x00)\n        /* \"contracts/3_Data.sol\":1585:1600  author[counter] */\n      dup2\n      sload\n      dup2\n      lt\n      tag_67\n      jumpi\n      tag_68\n      tag_59\n      jump\t// in\n    tag_68:\n    tag_67:\n      swap1\n      0x00\n      mstore\n      keccak256(0x00, 0x20)\n      add\n      0x00\n      swap1\n      sload\n      swap1\n      0x0100\n      exp\n      swap1\n      div\n      0xffffffffffffffffffffffffffffffffffffffff\n      and\n        /* \"contracts/3_Data.sol\":1576:1601  patients[author[counter]] */\n      0xffffffffffffffffffffffffffffffffffffffff\n      and\n      0xffffffffffffffffffffffffffffffffffffffff\n      and\n      dup2\n      mstore\n      0x20\n      add\n      swap1\n      dup2\n      mstore\n      0x20\n      add\n      0x00\n      keccak256\n        /* \"contracts/3_Data.sol\":1576:1606  patients[author[counter]].name */\n      0x02\n      add\n        /* \"contracts/3_Data.sol\":1576:1614  patients[author[counter]].name = _name */\n      swap1\n      dup1\n      mload\n      swap1\n      0x20\n      add\n      swap1\n      tag_70\n      swap3\n      swap2\n      swap1\n      tag_71\n      jump\t// in\n    tag_70:\n      pop\n        /* \"contracts/3_Data.sol\":1660:1668  _disease */\n      dup2\n        /* \"contracts/3_Data.sol\":1624:1632  patients */\n      0x02\n        /* \"contracts/3_Data.sol\":1624:1649  patients[author[counter]] */\n      0x00\n        /* \"contracts/3_Data.sol\":1633:1639  author */\n      0x01\n        /* \"contracts/3_Data.sol\":1640:1647  counter */\n      sload(0x00)\n        /* \"contracts/3_Data.sol\":1633:1648  author[counter] */\n      dup2\n      sload\n      dup2\n      lt\n      tag_72\n      jumpi\n      tag_73\n      tag_59\n      jump\t// in\n    tag_73:\n    tag_72:\n      swap1\n      0x00\n      mstore\n      keccak256(0x00, 0x20)\n      add\n      0x00\n      swap1\n      sload\n      swap1\n      0x0100\n      exp\n      swap1\n      div\n      0xffffffffffffffffffffffffffffffffffffffff\n      and\n        /* \"contracts/3_Data.sol\":1624:1649  patients[author[counter]] */\n      0xffffffffffffffffffffffffffffffffffffffff\n      and\n      0xffffffffffffffffffffffffffffffffffffffff\n      and\n      dup2\n      mstore\n      0x20\n      add\n      swap1\n      dup2\n      mstore\n      0x20\n      add\n      0x00\n      keccak256\n        /* \"contracts/3_Data.sol\":1624:1657  patients[author[counter]].disease */\n      0x03\n      add\n        /* \"contracts/3_Data.sol\":1624:1668  patients[author[counter]].disease = _disease */\n      swap1\n      dup1\n      mload\n      swap1\n      0x20\n      add\n      swap1\n      tag_75\n      swap3\n      swap2\n      swap1\n      tag_71\n      jump\t// in\n    tag_75:\n      pop\n        /* \"contracts/3_Data.sol\":1716:1725  _medicine */\n      dup1\n        /* \"contracts/3_Data.sol\":1678:1686  patients */\n      0x02\n        /* \"contracts/3_Data.sol\":1678:1703  patients[author[counter]] */\n      0x00\n        /* \"contracts/3_Data.sol\":1687:1693  author */\n      0x01\n        /* \"contracts/3_Data.sol\":1694:1701  counter */\n      sload(0x00)\n        /* \"contracts/3_Data.sol\":1687:1702  author[counter] */\n      dup2\n      sload\n      dup2\n      lt\n      tag_76\n      jumpi\n      tag_77\n      tag_59\n      jump\t// in\n    tag_77:\n    tag_76:\n      swap1\n      0x00\n      mstore\n      keccak256(0x00, 0x20)\n      add\n      0x00\n      swap1\n      sload\n      swap1\n      0x0100\n      exp\n      swap1\n      div\n      0xffffffffffffffffffffffffffffffffffffffff\n      and\n        /* \"contracts/3_Data.sol\":1678:1703  patients[author[counter]] */\n      0xffffffffffffffffffffffffffffffffffffffff\n      and\n      0xffffffffffffffffffffffffffffffffffffffff\n      and\n      dup2\n      mstore\n      0x20\n      add\n      swap1\n      dup2\n      mstore\n      0x20\n      add\n      0x00\n      keccak256\n        /* \"contracts/3_Data.sol\":1678:1713  patients[author[counter]].medicines */\n      0x04\n      add\n        /* \"contracts/3_Data.sol\":1678:1725  patients[author[counter]].medicines = _medicine */\n      swap1\n      dup1\n      mload\n      swap1\n      0x20\n      add\n      swap1\n      tag_79\n      swap3\n      swap2\n      swap1\n      tag_71\n      jump\t// in\n    tag_79:\n      pop\n        /* \"contracts/3_Data.sol\":1767:1771  true */\n      0x01\n        /* \"contracts/3_Data.sol\":1735:1743  patients */\n      0x02\n        /* \"contracts/3_Data.sol\":1735:1760  patients[author[counter]] */\n      0x00\n        /* \"contracts/3_Data.sol\":1744:1750  author */\n      0x01\n        /* \"contracts/3_Data.sol\":1751:1758  counter */\n      sload(0x00)\n        /* \"contracts/3_Data.sol\":1744:1759  author[counter] */\n      dup2\n      sload\n      dup2\n      lt\n      tag_80\n      jumpi\n      tag_81\n      tag_59\n      jump\t// in\n    tag_81:\n    tag_80:\n      swap1\n      0x00\n      mstore\n      keccak256(0x00, 0x20)\n      add\n      0x00\n      swap1\n      sload\n      swap1\n      0x0100\n      exp\n      swap1\n      div\n      0xffffffffffffffffffffffffffffffffffffffff\n      and\n        /* \"contracts/3_Data.sol\":1735:1760  patients[author[counter]] */\n      0xffffffffffffffffffffffffffffffffffffffff\n      and\n      0xffffffffffffffffffffffffffffffffffffffff\n      and\n      dup2\n      mstore\n      0x20\n      add\n      swap1\n      dup2\n      mstore\n      0x20\n      add\n      0x00\n      keccak256\n        /* \"contracts/3_Data.sol\":1735:1764  patients[author[counter]].reg */\n      0x05\n      add\n      0x00\n        /* \"contracts/3_Data.sol\":1735:1771  patients[author[counter]].reg = true */\n      0x0100\n      exp\n      dup2\n      sload\n      dup2\n      0xff\n      mul\n      not\n      and\n      swap1\n      dup4\n      iszero\n      iszero\n      mul\n      or\n      swap1\n      sstore\n      pop\n        /* \"contracts/3_Data.sol\":1781:1788  counter */\n      0x00\n      dup1\n        /* \"contracts/3_Data.sol\":1781:1790  counter++ */\n      dup2\n      sload\n      dup1\n      swap3\n      swap2\n      swap1\n      tag_83\n      swap1\n      tag_84\n      jump\t// in\n    tag_83:\n      swap2\n      swap1\n      pop\n      sstore\n      pop\n        /* \"contracts/3_Data.sol\":1277:1797  function registerPatient(uint _healthy, string memory _name, string memory _disease, string memory _medicine) external {... */\n      pop\n      pop\n      pop\n      pop\n      jump\t// out\n        /* \"contracts/3_Data.sol\":820:839  Card[] public cards */\n    tag_22:\n      0x03\n      dup2\n      dup2\n      sload\n      dup2\n      lt\n      tag_85\n      jumpi\n      0x00\n      dup1\n      revert\n    tag_85:\n      swap1\n      0x00\n      mstore\n      keccak256(0x00, 0x20)\n      swap1\n      0x02\n      mul\n      add\n      0x00\n      swap2\n      pop\n      swap1\n      pop\n      dup1\n      0x00\n      add\n      sload\n      swap1\n      dup1\n      0x01\n      add\n      sload\n      swap1\n      pop\n      dup3\n      jump\t// out\n        /* \"contracts/3_Data.sol\":984:1236  function fetchData (address test) public returns(bool) {... */\n    tag_27:\n        /* \"contracts/3_Data.sol\":1033:1037  bool */\n      0x00\n        /* \"contracts/3_Data.sol\":1053:1059  uint i */\n      dup1\n        /* \"contracts/3_Data.sol\":1060:1061  0 */\n      0x00\n        /* \"contracts/3_Data.sol\":1053:1061  uint i=0 */\n      swap1\n      pop\n        /* \"contracts/3_Data.sol\":1049:1208  for(uint i=0; i < counter; i++)... */\n    tag_88:\n        /* \"contracts/3_Data.sol\":1067:1074  counter */\n      sload(0x00)\n        /* \"contracts/3_Data.sol\":1063:1064  i */\n      dup2\n        /* \"contracts/3_Data.sol\":1063:1074  i < counter */\n      lt\n        /* \"contracts/3_Data.sol\":1049:1208  for(uint i=0; i < counter; i++)... */\n      iszero\n      tag_89\n      jumpi\n        /* \"contracts/3_Data.sol\":1136:1140  test */\n      dup3\n        /* \"contracts/3_Data.sol\":1106:1140  patients[author[i]].client == test */\n      0xffffffffffffffffffffffffffffffffffffffff\n      and\n        /* \"contracts/3_Data.sol\":1106:1114  patients */\n      0x02\n        /* \"contracts/3_Data.sol\":1106:1125  patients[author[i]] */\n      0x00\n        /* \"contracts/3_Data.sol\":1115:1121  author */\n      0x01\n        /* \"contracts/3_Data.sol\":1122:1123  i */\n      dup5\n        /* \"contracts/3_Data.sol\":1115:1124  author[i] */\n      dup2\n      sload\n      dup2\n      lt\n      tag_91\n      jumpi\n      tag_92\n      tag_59\n      jump\t// in\n    tag_92:\n    tag_91:\n      swap1\n      0x00\n      mstore\n      keccak256(0x00, 0x20)\n      add\n      0x00\n      swap1\n      sload\n      swap1\n      0x0100\n      exp\n      swap1\n      div\n      0xffffffffffffffffffffffffffffffffffffffff\n      and\n        /* \"contracts/3_Data.sol\":1106:1125  patients[author[i]] */\n      0xffffffffffffffffffffffffffffffffffffffff\n      and\n      0xffffffffffffffffffffffffffffffffffffffff\n      and\n      dup2\n      mstore\n      0x20\n      add\n      swap1\n      dup2\n      mstore\n      0x20\n      add\n      0x00\n      keccak256\n        /* \"contracts/3_Data.sol\":1106:1132  patients[author[i]].client */\n      0x07\n      add\n      0x00\n      swap1\n      sload\n      swap1\n      0x0100\n      exp\n      swap1\n      div\n      0xffffffffffffffffffffffffffffffffffffffff\n      and\n        /* \"contracts/3_Data.sol\":1106:1140  patients[author[i]].client == test */\n      0xffffffffffffffffffffffffffffffffffffffff\n      and\n      eq\n        /* \"contracts/3_Data.sol\":1103:1198  if(patients[author[i]].client == test)... */\n      iszero\n      tag_94\n      jumpi\n        /* \"contracts/3_Data.sol\":1179:1183  true */\n      0x01\n        /* \"contracts/3_Data.sol\":1172:1183  return true */\n      swap2\n      pop\n      pop\n      jump(tag_87)\n        /* \"contracts/3_Data.sol\":1103:1198  if(patients[author[i]].client == test)... */\n    tag_94:\n        /* \"contracts/3_Data.sol\":1076:1079  i++ */\n      dup1\n      dup1\n      tag_95\n      swap1\n      tag_84\n      jump\t// in\n    tag_95:\n      swap2\n      pop\n      pop\n        /* \"contracts/3_Data.sol\":1049:1208  for(uint i=0; i < counter; i++)... */\n      jump(tag_88)\n    tag_89:\n      pop\n        /* \"contracts/3_Data.sol\":1224:1229  false */\n      0x00\n        /* \"contracts/3_Data.sol\":1217:1229  return false */\n      swap1\n      pop\n        /* \"contracts/3_Data.sol\":984:1236  function fetchData (address test) public returns(bool) {... */\n    tag_87:\n      swap2\n      swap1\n      pop\n      jump\t// out\n        /* \"contracts/3_Data.sol\":1835:2015  function authCheck(address to, uint ID) external returns (bool success) {... */\n    tag_33:\n        /* \"contracts/3_Data.sol\":1893:1905  bool success */\n      0x00\n        /* \"contracts/3_Data.sol\":1967:1987  Auth(msg.sender, to) */\n      0xdd682d1363d443182f130904c49ddb3c06bcf4104bd0132873396ab097f339d9\n        /* \"contracts/3_Data.sol\":1972:1982  msg.sender */\n      caller\n        /* \"contracts/3_Data.sol\":1984:1986  to */\n      dup5\n        /* \"contracts/3_Data.sol\":1967:1987  Auth(msg.sender, to) */\n      mload(0x40)\n      tag_97\n      swap3\n      swap2\n      swap1\n      tag_98\n      jump\t// in\n    tag_97:\n      mload(0x40)\n      dup1\n      swap2\n      sub\n      swap1\n      log1\n        /* \"contracts/3_Data.sol\":2004:2008  true */\n      0x01\n        /* \"contracts/3_Data.sol\":1997:2008  return true */\n      swap1\n      pop\n        /* \"contracts/3_Data.sol\":1835:2015  function authCheck(address to, uint ID) external returns (bool success) {... */\n      swap3\n      swap2\n      pop\n      pop\n      jump\t// out\n        /* \"contracts/3_Data.sol\":739:763  address [] public author */\n    tag_37:\n      0x01\n      dup2\n      dup2\n      sload\n      dup2\n      lt\n      tag_99\n      jumpi\n      0x00\n      dup1\n      revert\n    tag_99:\n      swap1\n      0x00\n      mstore\n      keccak256(0x00, 0x20)\n      add\n      0x00\n      swap2\n      pop\n      sload\n      swap1\n      0x0100\n      exp\n      swap1\n      div\n      0xffffffffffffffffffffffffffffffffffffffff\n      and\n      dup2\n      jump\t// out\n    tag_71:\n      dup3\n      dup1\n      sload\n      tag_101\n      swap1\n      tag_41\n      jump\t// in\n    tag_101:\n      swap1\n      0x00\n      mstore\n      keccak256(0x00, 0x20)\n      swap1\n      0x1f\n      add\n      0x20\n      swap1\n      div\n      dup2\n      add\n      swap3\n      dup3\n      tag_103\n      jumpi\n      0x00\n      dup6\n      sstore\n      jump(tag_102)\n    tag_103:\n      dup3\n      0x1f\n      lt\n      tag_104\n      jumpi\n      dup1\n      mload\n      not(0xff)\n      and\n      dup4\n      dup1\n      add\n      or\n      dup6\n      sstore\n      jump(tag_102)\n    tag_104:\n      dup3\n      dup1\n      add\n      0x01\n      add\n      dup6\n      sstore\n      dup3\n      iszero\n      tag_102\n      jumpi\n      swap2\n      dup3\n      add\n    tag_105:\n      dup3\n      dup2\n      gt\n      iszero\n      tag_106\n      jumpi\n      dup3\n      mload\n      dup3\n      sstore\n      swap2\n      0x20\n      add\n      swap2\n      swap1\n      0x01\n      add\n      swap1\n      jump(tag_105)\n    tag_106:\n    tag_102:\n      pop\n      swap1\n      pop\n      tag_107\n      swap2\n      swap1\n      tag_108\n      jump\t// in\n    tag_107:\n      pop\n      swap1\n      jump\t// out\n    tag_108:\n    tag_109:\n      dup1\n      dup3\n      gt\n      iszero\n      tag_110\n      jumpi\n      0x00\n      dup2\n      0x00\n      swap1\n      sstore\n      pop\n      0x01\n      add\n      jump(tag_109)\n    tag_110:\n      pop\n      swap1\n      jump\t// out\n        /* \"#utility.yul\":7:419   */\n    tag_112:\n        /* \"#utility.yul\":85:90   */\n      0x00\n        /* \"#utility.yul\":110:176   */\n      tag_114\n        /* \"#utility.yul\":126:175   */\n      tag_115\n        /* \"#utility.yul\":168:174   */\n      dup5\n        /* \"#utility.yul\":126:175   */\n      tag_116\n      jump\t// in\n    tag_115:\n        /* \"#utility.yul\":110:176   */\n      tag_117\n      jump\t// in\n    tag_114:\n        /* \"#utility.yul\":101:176   */\n      swap1\n      pop\n        /* \"#utility.yul\":199:205   */\n      dup3\n        /* \"#utility.yul\":192:197   */\n      dup2\n        /* \"#utility.yul\":185:206   */\n      mstore\n        /* \"#utility.yul\":237:241   */\n      0x20\n        /* \"#utility.yul\":230:235   */\n      dup2\n        /* \"#utility.yul\":226:242   */\n      add\n        /* \"#utility.yul\":275:278   */\n      dup5\n        /* \"#utility.yul\":266:272   */\n      dup5\n        /* \"#utility.yul\":261:264   */\n      dup5\n        /* \"#utility.yul\":257:273   */\n      add\n        /* \"#utility.yul\":254:279   */\n      gt\n        /* \"#utility.yul\":251:363   */\n      iszero\n      tag_118\n      jumpi\n        /* \"#utility.yul\":282:361   */\n      tag_119\n      tag_120\n      jump\t// in\n    tag_119:\n        /* \"#utility.yul\":251:363   */\n    tag_118:\n        /* \"#utility.yul\":372:413   */\n      tag_121\n        /* \"#utility.yul\":406:412   */\n      dup5\n        /* \"#utility.yul\":401:404   */\n      dup3\n        /* \"#utility.yul\":396:399   */\n      dup6\n        /* \"#utility.yul\":372:413   */\n      tag_122\n      jump\t// in\n    tag_121:\n        /* \"#utility.yul\":91:419   */\n      pop\n        /* \"#utility.yul\":7:419   */\n      swap4\n      swap3\n      pop\n      pop\n      pop\n      jump\t// out\n        /* \"#utility.yul\":425:564   */\n    tag_123:\n        /* \"#utility.yul\":471:476   */\n      0x00\n        /* \"#utility.yul\":509:515   */\n      dup2\n        /* \"#utility.yul\":496:516   */\n      calldataload\n        /* \"#utility.yul\":487:516   */\n      swap1\n      pop\n        /* \"#utility.yul\":525:558   */\n      tag_125\n        /* \"#utility.yul\":552:557   */\n      dup2\n        /* \"#utility.yul\":525:558   */\n      tag_126\n      jump\t// in\n    tag_125:\n        /* \"#utility.yul\":425:564   */\n      swap3\n      swap2\n      pop\n      pop\n      jump\t// out\n        /* \"#utility.yul\":584:924   */\n    tag_127:\n        /* \"#utility.yul\":640:645   */\n      0x00\n        /* \"#utility.yul\":689:692   */\n      dup3\n        /* \"#utility.yul\":682:686   */\n      0x1f\n        /* \"#utility.yul\":674:680   */\n      dup4\n        /* \"#utility.yul\":670:687   */\n      add\n        /* \"#utility.yul\":666:693   */\n      slt\n        /* \"#utility.yul\":656:778   */\n      tag_129\n      jumpi\n        /* \"#utility.yul\":697:776   */\n      tag_130\n      tag_131\n      jump\t// in\n    tag_130:\n        /* \"#utility.yul\":656:778   */\n    tag_129:\n        /* \"#utility.yul\":814:820   */\n      dup2\n        /* \"#utility.yul\":801:821   */\n      calldataload\n        /* \"#utility.yul\":839:918   */\n      tag_132\n        /* \"#utility.yul\":914:917   */\n      dup5\n        /* \"#utility.yul\":906:912   */\n      dup3\n        /* \"#utility.yul\":899:903   */\n      0x20\n        /* \"#utility.yul\":891:897   */\n      dup7\n        /* \"#utility.yul\":887:904   */\n      add\n        /* \"#utility.yul\":839:918   */\n      tag_112\n      jump\t// in\n    tag_132:\n        /* \"#utility.yul\":830:918   */\n      swap2\n      pop\n        /* \"#utility.yul\":646:924   */\n      pop\n        /* \"#utility.yul\":584:924   */\n      swap3\n      swap2\n      pop\n      pop\n      jump\t// out\n        /* \"#utility.yul\":930:1069   */\n    tag_133:\n        /* \"#utility.yul\":976:981   */\n      0x00\n        /* \"#utility.yul\":1014:1020   */\n      dup2\n        /* \"#utility.yul\":1001:1021   */\n      calldataload\n        /* \"#utility.yul\":992:1021   */\n      swap1\n      pop\n        /* \"#utility.yul\":1030:1063   */\n      tag_135\n        /* \"#utility.yul\":1057:1062   */\n      dup2\n        /* \"#utility.yul\":1030:1063   */\n      tag_136\n      jump\t// in\n    tag_135:\n        /* \"#utility.yul\":930:1069   */\n      swap3\n      swap2\n      pop\n      pop\n      jump\t// out\n        /* \"#utility.yul\":1075:1404   */\n    tag_11:\n        /* \"#utility.yul\":1134:1140   */\n      0x00\n        /* \"#utility.yul\":1183:1185   */\n      0x20\n        /* \"#utility.yul\":1171:1180   */\n      dup3\n        /* \"#utility.yul\":1162:1169   */\n      dup5\n        /* \"#utility.yul\":1158:1181   */\n      sub\n        /* \"#utility.yul\":1154:1186   */\n      slt\n        /* \"#utility.yul\":1151:1270   */\n      iszero\n      tag_138\n      jumpi\n        /* \"#utility.yul\":1189:1268   */\n      tag_139\n      tag_140\n      jump\t// in\n    tag_139:\n        /* \"#utility.yul\":1151:1270   */\n    tag_138:\n        /* \"#utility.yul\":1309:1310   */\n      0x00\n        /* \"#utility.yul\":1334:1387   */\n      tag_141\n        /* \"#utility.yul\":1379:1386   */\n      dup5\n        /* \"#utility.yul\":1370:1376   */\n      dup3\n        /* \"#utility.yul\":1359:1368   */\n      dup6\n        /* \"#utility.yul\":1355:1377   */\n      add\n        /* \"#utility.yul\":1334:1387   */\n      tag_123\n      jump\t// in\n    tag_141:\n        /* \"#utility.yul\":1324:1387   */\n      swap2\n      pop\n        /* \"#utility.yul\":1280:1397   */\n      pop\n        /* \"#utility.yul\":1075:1404   */\n      swap3\n      swap2\n      pop\n      pop\n      jump\t// out\n        /* \"#utility.yul\":1410:1884   */\n    tag_32:\n        /* \"#utility.yul\":1478:1484   */\n      0x00\n        /* \"#utility.yul\":1486:1492   */\n      dup1\n        /* \"#utility.yul\":1535:1537   */\n      0x40\n        /* \"#utility.yul\":1523:1532   */\n      dup4\n        /* \"#utility.yul\":1514:1521   */\n      dup6\n        /* \"#utility.yul\":1510:1533   */\n      sub\n        /* \"#utility.yul\":1506:1538   */\n      slt\n        /* \"#utility.yul\":1503:1622   */\n      iszero\n      tag_143\n      jumpi\n        /* \"#utility.yul\":1541:1620   */\n      tag_144\n      tag_140\n      jump\t// in\n    tag_144:\n        /* \"#utility.yul\":1503:1622   */\n    tag_143:\n        /* \"#utility.yul\":1661:1662   */\n      0x00\n        /* \"#utility.yul\":1686:1739   */\n      tag_145\n        /* \"#utility.yul\":1731:1738   */\n      dup6\n        /* \"#utility.yul\":1722:1728   */\n      dup3\n        /* \"#utility.yul\":1711:1720   */\n      dup7\n        /* \"#utility.yul\":1707:1729   */\n      add\n        /* \"#utility.yul\":1686:1739   */\n      tag_123\n      jump\t// in\n    tag_145:\n        /* \"#utility.yul\":1676:1739   */\n      swap3\n      pop\n        /* \"#utility.yul\":1632:1749   */\n      pop\n        /* \"#utility.yul\":1788:1790   */\n      0x20\n        /* \"#utility.yul\":1814:1867   */\n      tag_146\n        /* \"#utility.yul\":1859:1866   */\n      dup6\n        /* \"#utility.yul\":1850:1856   */\n      dup3\n        /* \"#utility.yul\":1839:1848   */\n      dup7\n        /* \"#utility.yul\":1835:1857   */\n      add\n        /* \"#utility.yul\":1814:1867   */\n      tag_133\n      jump\t// in\n    tag_146:\n        /* \"#utility.yul\":1804:1867   */\n      swap2\n      pop\n        /* \"#utility.yul\":1759:1877   */\n      pop\n        /* \"#utility.yul\":1410:1884   */\n      swap3\n      pop\n      swap3\n      swap1\n      pop\n      jump\t// out\n        /* \"#utility.yul\":1890:2219   */\n    tag_21:\n        /* \"#utility.yul\":1949:1955   */\n      0x00\n        /* \"#utility.yul\":1998:2000   */\n      0x20\n        /* \"#utility.yul\":1986:1995   */\n      dup3\n        /* \"#utility.yul\":1977:1984   */\n      dup5\n        /* \"#utility.yul\":1973:1996   */\n      sub\n        /* \"#utility.yul\":1969:2001   */\n      slt\n        /* \"#utility.yul\":1966:2085   */\n      iszero\n      tag_148\n      jumpi\n        /* \"#utility.yul\":2004:2083   */\n      tag_149\n      tag_140\n      jump\t// in\n    tag_149:\n        /* \"#utility.yul\":1966:2085   */\n    tag_148:\n        /* \"#utility.yul\":2124:2125   */\n      0x00\n        /* \"#utility.yul\":2149:2202   */\n      tag_150\n        /* \"#utility.yul\":2194:2201   */\n      dup5\n        /* \"#utility.yul\":2185:2191   */\n      dup3\n        /* \"#utility.yul\":2174:2183   */\n      dup6\n        /* \"#utility.yul\":2170:2192   */\n      add\n        /* \"#utility.yul\":2149:2202   */\n      tag_133\n      jump\t// in\n    tag_150:\n        /* \"#utility.yul\":2139:2202   */\n      swap2\n      pop\n        /* \"#utility.yul\":2095:2212   */\n      pop\n        /* \"#utility.yul\":1890:2219   */\n      swap3\n      swap2\n      pop\n      pop\n      jump\t// out\n        /* \"#utility.yul\":2225:3530   */\n    tag_17:\n        /* \"#utility.yul\":2341:2347   */\n      0x00\n        /* \"#utility.yul\":2349:2355   */\n      dup1\n        /* \"#utility.yul\":2357:2363   */\n      0x00\n        /* \"#utility.yul\":2365:2371   */\n      dup1\n        /* \"#utility.yul\":2414:2417   */\n      0x80\n        /* \"#utility.yul\":2402:2411   */\n      dup6\n        /* \"#utility.yul\":2393:2400   */\n      dup8\n        /* \"#utility.yul\":2389:2412   */\n      sub\n        /* \"#utility.yul\":2385:2418   */\n      slt\n        /* \"#utility.yul\":2382:2502   */\n      iszero\n      tag_152\n      jumpi\n        /* \"#utility.yul\":2421:2500   */\n      tag_153\n      tag_140\n      jump\t// in\n    tag_153:\n        /* \"#utility.yul\":2382:2502   */\n    tag_152:\n        /* \"#utility.yul\":2541:2542   */\n      0x00\n        /* \"#utility.yul\":2566:2619   */\n      tag_154\n        /* \"#utility.yul\":2611:2618   */\n      dup8\n        /* \"#utility.yul\":2602:2608   */\n      dup3\n        /* \"#utility.yul\":2591:2600   */\n      dup9\n        /* \"#utility.yul\":2587:2609   */\n      add\n        /* \"#utility.yul\":2566:2619   */\n      tag_133\n      jump\t// in\n    tag_154:\n        /* \"#utility.yul\":2556:2619   */\n      swap5\n      pop\n        /* \"#utility.yul\":2512:2629   */\n      pop\n        /* \"#utility.yul\":2696:2698   */\n      0x20\n        /* \"#utility.yul\":2685:2694   */\n      dup6\n        /* \"#utility.yul\":2681:2699   */\n      add\n        /* \"#utility.yul\":2668:2700   */\n      calldataload\n        /* \"#utility.yul\":2727:2745   */\n      0xffffffffffffffff\n        /* \"#utility.yul\":2719:2725   */\n      dup2\n        /* \"#utility.yul\":2716:2746   */\n      gt\n        /* \"#utility.yul\":2713:2830   */\n      iszero\n      tag_155\n      jumpi\n        /* \"#utility.yul\":2749:2828   */\n      tag_156\n      tag_157\n      jump\t// in\n    tag_156:\n        /* \"#utility.yul\":2713:2830   */\n    tag_155:\n        /* \"#utility.yul\":2854:2917   */\n      tag_158\n        /* \"#utility.yul\":2909:2916   */\n      dup8\n        /* \"#utility.yul\":2900:2906   */\n      dup3\n        /* \"#utility.yul\":2889:2898   */\n      dup9\n        /* \"#utility.yul\":2885:2907   */\n      add\n        /* \"#utility.yul\":2854:2917   */\n      tag_127\n      jump\t// in\n    tag_158:\n        /* \"#utility.yul\":2844:2917   */\n      swap4\n      pop\n        /* \"#utility.yul\":2639:2927   */\n      pop\n        /* \"#utility.yul\":2994:2996   */\n      0x40\n        /* \"#utility.yul\":2983:2992   */\n      dup6\n        /* \"#utility.yul\":2979:2997   */\n      add\n        /* \"#utility.yul\":2966:2998   */\n      calldataload\n        /* \"#utility.yul\":3025:3043   */\n      0xffffffffffffffff\n        /* \"#utility.yul\":3017:3023   */\n      dup2\n        /* \"#utility.yul\":3014:3044   */\n      gt\n        /* \"#utility.yul\":3011:3128   */\n      iszero\n      tag_159\n      jumpi\n        /* \"#utility.yul\":3047:3126   */\n      tag_160\n      tag_157\n      jump\t// in\n    tag_160:\n        /* \"#utility.yul\":3011:3128   */\n    tag_159:\n        /* \"#utility.yul\":3152:3215   */\n      tag_161\n        /* \"#utility.yul\":3207:3214   */\n      dup8\n        /* \"#utility.yul\":3198:3204   */\n      dup3\n        /* \"#utility.yul\":3187:3196   */\n      dup9\n        /* \"#utility.yul\":3183:3205   */\n      add\n        /* \"#utility.yul\":3152:3215   */\n      tag_127\n      jump\t// in\n    tag_161:\n        /* \"#utility.yul\":3142:3215   */\n      swap3\n      pop\n        /* \"#utility.yul\":2937:3225   */\n      pop\n        /* \"#utility.yul\":3292:3294   */\n      0x60\n        /* \"#utility.yul\":3281:3290   */\n      dup6\n        /* \"#utility.yul\":3277:3295   */\n      add\n        /* \"#utility.yul\":3264:3296   */\n      calldataload\n        /* \"#utility.yul\":3323:3341   */\n      0xffffffffffffffff\n        /* \"#utility.yul\":3315:3321   */\n      dup2\n        /* \"#utility.yul\":3312:3342   */\n      gt\n        /* \"#utility.yul\":3309:3426   */\n      iszero\n      tag_162\n      jumpi\n        /* \"#utility.yul\":3345:3424   */\n      tag_163\n      tag_157\n      jump\t// in\n    tag_163:\n        /* \"#utility.yul\":3309:3426   */\n    tag_162:\n        /* \"#utility.yul\":3450:3513   */\n      tag_164\n        /* \"#utility.yul\":3505:3512   */\n      dup8\n        /* \"#utility.yul\":3496:3502   */\n      dup3\n        /* \"#utility.yul\":3485:3494   */\n      dup9\n        /* \"#utility.yul\":3481:3503   */\n      add\n        /* \"#utility.yul\":3450:3513   */\n      tag_127\n      jump\t// in\n    tag_164:\n        /* \"#utility.yul\":3440:3513   */\n      swap2\n      pop\n        /* \"#utility.yul\":3235:3523   */\n      pop\n        /* \"#utility.yul\":2225:3530   */\n      swap3\n      swap6\n      swap2\n      swap5\n      pop\n      swap3\n      pop\n      jump\t// out\n        /* \"#utility.yul\":3536:3678   */\n    tag_165:\n        /* \"#utility.yul\":3639:3671   */\n      tag_167\n        /* \"#utility.yul\":3665:3670   */\n      dup2\n        /* \"#utility.yul\":3639:3671   */\n      tag_168\n      jump\t// in\n    tag_167:\n        /* \"#utility.yul\":3634:3637   */\n      dup3\n        /* \"#utility.yul\":3627:3672   */\n      mstore\n        /* \"#utility.yul\":3536:3678   */\n      pop\n      pop\n      jump\t// out\n        /* \"#utility.yul\":3684:3802   */\n    tag_169:\n        /* \"#utility.yul\":3771:3795   */\n      tag_171\n        /* \"#utility.yul\":3789:3794   */\n      dup2\n        /* \"#utility.yul\":3771:3795   */\n      tag_172\n      jump\t// in\n    tag_171:\n        /* \"#utility.yul\":3766:3769   */\n      dup3\n        /* \"#utility.yul\":3759:3796   */\n      mstore\n        /* \"#utility.yul\":3684:3802   */\n      pop\n      pop\n      jump\t// out\n        /* \"#utility.yul\":3808:3917   */\n    tag_173:\n        /* \"#utility.yul\":3889:3910   */\n      tag_175\n        /* \"#utility.yul\":3904:3909   */\n      dup2\n        /* \"#utility.yul\":3889:3910   */\n      tag_176\n      jump\t// in\n    tag_175:\n        /* \"#utility.yul\":3884:3887   */\n      dup3\n        /* \"#utility.yul\":3877:3911   */\n      mstore\n        /* \"#utility.yul\":3808:3917   */\n      pop\n      pop\n      jump\t// out\n        /* \"#utility.yul\":3923:4041   */\n    tag_177:\n        /* \"#utility.yul\":4010:4034   */\n      tag_179\n        /* \"#utility.yul\":4028:4033   */\n      dup2\n        /* \"#utility.yul\":4010:4034   */\n      tag_180\n      jump\t// in\n    tag_179:\n        /* \"#utility.yul\":4005:4008   */\n      dup3\n        /* \"#utility.yul\":3998:4035   */\n      mstore\n        /* \"#utility.yul\":3923:4041   */\n      pop\n      pop\n      jump\t// out\n        /* \"#utility.yul\":4047:4411   */\n    tag_181:\n        /* \"#utility.yul\":4135:4138   */\n      0x00\n        /* \"#utility.yul\":4163:4202   */\n      tag_183\n        /* \"#utility.yul\":4196:4201   */\n      dup3\n        /* \"#utility.yul\":4163:4202   */\n      tag_184\n      jump\t// in\n    tag_183:\n        /* \"#utility.yul\":4218:4289   */\n      tag_185\n        /* \"#utility.yul\":4282:4288   */\n      dup2\n        /* \"#utility.yul\":4277:4280   */\n      dup6\n        /* \"#utility.yul\":4218:4289   */\n      tag_186\n      jump\t// in\n    tag_185:\n        /* \"#utility.yul\":4211:4289   */\n      swap4\n      pop\n        /* \"#utility.yul\":4298:4350   */\n      tag_187\n        /* \"#utility.yul\":4343:4349   */\n      dup2\n        /* \"#utility.yul\":4338:4341   */\n      dup6\n        /* \"#utility.yul\":4331:4335   */\n      0x20\n        /* \"#utility.yul\":4324:4329   */\n      dup7\n        /* \"#utility.yul\":4320:4336   */\n      add\n        /* \"#utility.yul\":4298:4350   */\n      tag_188\n      jump\t// in\n    tag_187:\n        /* \"#utility.yul\":4375:4404   */\n      tag_189\n        /* \"#utility.yul\":4397:4403   */\n      dup2\n        /* \"#utility.yul\":4375:4404   */\n      tag_190\n      jump\t// in\n    tag_189:\n        /* \"#utility.yul\":4370:4373   */\n      dup5\n        /* \"#utility.yul\":4366:4405   */\n      add\n        /* \"#utility.yul\":4359:4405   */\n      swap2\n      pop\n        /* \"#utility.yul\":4139:4411   */\n      pop\n        /* \"#utility.yul\":4047:4411   */\n      swap3\n      swap2\n      pop\n      pop\n      jump\t// out\n        /* \"#utility.yul\":4417:4783   */\n    tag_191:\n        /* \"#utility.yul\":4559:4562   */\n      0x00\n        /* \"#utility.yul\":4580:4647   */\n      tag_193\n        /* \"#utility.yul\":4644:4646   */\n      0x1d\n        /* \"#utility.yul\":4639:4642   */\n      dup4\n        /* \"#utility.yul\":4580:4647   */\n      tag_186\n      jump\t// in\n    tag_193:\n        /* \"#utility.yul\":4573:4647   */\n      swap2\n      pop\n        /* \"#utility.yul\":4656:4749   */\n      tag_194\n        /* \"#utility.yul\":4745:4748   */\n      dup3\n        /* \"#utility.yul\":4656:4749   */\n      tag_195\n      jump\t// in\n    tag_194:\n        /* \"#utility.yul\":4774:4776   */\n      0x20\n        /* \"#utility.yul\":4769:4772   */\n      dup3\n        /* \"#utility.yul\":4765:4777   */\n      add\n        /* \"#utility.yul\":4758:4777   */\n      swap1\n      pop\n        /* \"#utility.yul\":4417:4783   */\n      swap2\n      swap1\n      pop\n      jump\t// out\n        /* \"#utility.yul\":4789:4907   */\n    tag_196:\n        /* \"#utility.yul\":4876:4900   */\n      tag_198\n        /* \"#utility.yul\":4894:4899   */\n      dup2\n        /* \"#utility.yul\":4876:4900   */\n      tag_199\n      jump\t// in\n    tag_198:\n        /* \"#utility.yul\":4871:4874   */\n      dup3\n        /* \"#utility.yul\":4864:4901   */\n      mstore\n        /* \"#utility.yul\":4789:4907   */\n      pop\n      pop\n      jump\t// out\n        /* \"#utility.yul\":4913:5135   */\n    tag_39:\n        /* \"#utility.yul\":5006:5010   */\n      0x00\n        /* \"#utility.yul\":5044:5046   */\n      0x20\n        /* \"#utility.yul\":5033:5042   */\n      dup3\n        /* \"#utility.yul\":5029:5047   */\n      add\n        /* \"#utility.yul\":5021:5047   */\n      swap1\n      pop\n        /* \"#utility.yul\":5057:5128   */\n      tag_201\n        /* \"#utility.yul\":5125:5126   */\n      0x00\n        /* \"#utility.yul\":5114:5123   */\n      dup4\n        /* \"#utility.yul\":5110:5127   */\n      add\n        /* \"#utility.yul\":5101:5107   */\n      dup5\n        /* \"#utility.yul\":5057:5128   */\n      tag_169\n      jump\t// in\n    tag_201:\n        /* \"#utility.yul\":4913:5135   */\n      swap3\n      swap2\n      pop\n      pop\n      jump\t// out\n        /* \"#utility.yul\":5141:5473   */\n    tag_98:\n        /* \"#utility.yul\":5262:5266   */\n      0x00\n        /* \"#utility.yul\":5300:5302   */\n      0x40\n        /* \"#utility.yul\":5289:5298   */\n      dup3\n        /* \"#utility.yul\":5285:5303   */\n      add\n        /* \"#utility.yul\":5277:5303   */\n      swap1\n      pop\n        /* \"#utility.yul\":5313:5384   */\n      tag_203\n        /* \"#utility.yul\":5381:5382   */\n      0x00\n        /* \"#utility.yul\":5370:5379   */\n      dup4\n        /* \"#utility.yul\":5366:5383   */\n      add\n        /* \"#utility.yul\":5357:5363   */\n      dup6\n        /* \"#utility.yul\":5313:5384   */\n      tag_169\n      jump\t// in\n    tag_203:\n        /* \"#utility.yul\":5394:5466   */\n      tag_204\n        /* \"#utility.yul\":5462:5464   */\n      0x20\n        /* \"#utility.yul\":5451:5460   */\n      dup4\n        /* \"#utility.yul\":5447:5465   */\n      add\n        /* \"#utility.yul\":5438:5444   */\n      dup5\n        /* \"#utility.yul\":5394:5466   */\n      tag_169\n      jump\t// in\n    tag_204:\n        /* \"#utility.yul\":5141:5473   */\n      swap4\n      swap3\n      pop\n      pop\n      pop\n      jump\t// out\n        /* \"#utility.yul\":5479:5689   */\n    tag_29:\n        /* \"#utility.yul\":5566:5570   */\n      0x00\n        /* \"#utility.yul\":5604:5606   */\n      0x20\n        /* \"#utility.yul\":5593:5602   */\n      dup3\n        /* \"#utility.yul\":5589:5607   */\n      add\n        /* \"#utility.yul\":5581:5607   */\n      swap1\n      pop\n        /* \"#utility.yul\":5617:5682   */\n      tag_206\n        /* \"#utility.yul\":5679:5680   */\n      0x00\n        /* \"#utility.yul\":5668:5677   */\n      dup4\n        /* \"#utility.yul\":5664:5681   */\n      add\n        /* \"#utility.yul\":5655:5661   */\n      dup5\n        /* \"#utility.yul\":5617:5682   */\n      tag_173\n      jump\t// in\n    tag_206:\n        /* \"#utility.yul\":5479:5689   */\n      swap3\n      swap2\n      pop\n      pop\n      jump\t// out\n        /* \"#utility.yul\":5695:6027   */\n    tag_24:\n        /* \"#utility.yul\":5816:5820   */\n      0x00\n        /* \"#utility.yul\":5854:5856   */\n      0x40\n        /* \"#utility.yul\":5843:5852   */\n      dup3\n        /* \"#utility.yul\":5839:5857   */\n      add\n        /* \"#utility.yul\":5831:5857   */\n      swap1\n      pop\n        /* \"#utility.yul\":5867:5938   */\n      tag_208\n        /* \"#utility.yul\":5935:5936   */\n      0x00\n        /* \"#utility.yul\":5924:5933   */\n      dup4\n        /* \"#utility.yul\":5920:5937   */\n      add\n        /* \"#utility.yul\":5911:5917   */\n      dup6\n        /* \"#utility.yul\":5867:5938   */\n      tag_177\n      jump\t// in\n    tag_208:\n        /* \"#utility.yul\":5948:6020   */\n      tag_209\n        /* \"#utility.yul\":6016:6018   */\n      0x20\n        /* \"#utility.yul\":6005:6014   */\n      dup4\n        /* \"#utility.yul\":6001:6019   */\n      add\n        /* \"#utility.yul\":5992:5998   */\n      dup5\n        /* \"#utility.yul\":5948:6020   */\n      tag_196\n      jump\t// in\n    tag_209:\n        /* \"#utility.yul\":5695:6027   */\n      swap4\n      swap3\n      pop\n      pop\n      pop\n      jump\t// out\n        /* \"#utility.yul\":6033:6452   */\n    tag_63:\n        /* \"#utility.yul\":6199:6203   */\n      0x00\n        /* \"#utility.yul\":6237:6239   */\n      0x20\n        /* \"#utility.yul\":6226:6235   */\n      dup3\n        /* \"#utility.yul\":6222:6240   */\n      add\n        /* \"#utility.yul\":6214:6240   */\n      swap1\n      pop\n        /* \"#utility.yul\":6286:6295   */\n      dup2\n        /* \"#utility.yul\":6280:6284   */\n      dup2\n        /* \"#utility.yul\":6276:6296   */\n      sub\n        /* \"#utility.yul\":6272:6273   */\n      0x00\n        /* \"#utility.yul\":6261:6270   */\n      dup4\n        /* \"#utility.yul\":6257:6274   */\n      add\n        /* \"#utility.yul\":6250:6297   */\n      mstore\n        /* \"#utility.yul\":6314:6445   */\n      tag_211\n        /* \"#utility.yul\":6440:6444   */\n      dup2\n        /* \"#utility.yul\":6314:6445   */\n      tag_191\n      jump\t// in\n    tag_211:\n        /* \"#utility.yul\":6306:6445   */\n      swap1\n      pop\n        /* \"#utility.yul\":6033:6452   */\n      swap2\n      swap1\n      pop\n      jump\t// out\n        /* \"#utility.yul\":6458:7891   */\n    tag_14:\n        /* \"#utility.yul\":6861:6865   */\n      0x00\n        /* \"#utility.yul\":6899:6902   */\n      0x0120\n        /* \"#utility.yul\":6888:6897   */\n      dup3\n        /* \"#utility.yul\":6884:6903   */\n      add\n        /* \"#utility.yul\":6876:6903   */\n      swap1\n      pop\n        /* \"#utility.yul\":6913:6984   */\n      tag_213\n        /* \"#utility.yul\":6981:6982   */\n      0x00\n        /* \"#utility.yul\":6970:6979   */\n      dup4\n        /* \"#utility.yul\":6966:6983   */\n      add\n        /* \"#utility.yul\":6957:6963   */\n      dup13\n        /* \"#utility.yul\":6913:6984   */\n      tag_196\n      jump\t// in\n    tag_213:\n        /* \"#utility.yul\":6994:7066   */\n      tag_214\n        /* \"#utility.yul\":7062:7064   */\n      0x20\n        /* \"#utility.yul\":7051:7060   */\n      dup4\n        /* \"#utility.yul\":7047:7065   */\n      add\n        /* \"#utility.yul\":7038:7044   */\n      dup12\n        /* \"#utility.yul\":6994:7066   */\n      tag_196\n      jump\t// in\n    tag_214:\n        /* \"#utility.yul\":7113:7122   */\n      dup2\n        /* \"#utility.yul\":7107:7111   */\n      dup2\n        /* \"#utility.yul\":7103:7123   */\n      sub\n        /* \"#utility.yul\":7098:7100   */\n      0x40\n        /* \"#utility.yul\":7087:7096   */\n      dup4\n        /* \"#utility.yul\":7083:7101   */\n      add\n        /* \"#utility.yul\":7076:7124   */\n      mstore\n        /* \"#utility.yul\":7141:7219   */\n      tag_215\n        /* \"#utility.yul\":7214:7218   */\n      dup2\n        /* \"#utility.yul\":7205:7211   */\n      dup11\n        /* \"#utility.yul\":7141:7219   */\n      tag_181\n      jump\t// in\n    tag_215:\n        /* \"#utility.yul\":7133:7219   */\n      swap1\n      pop\n        /* \"#utility.yul\":7266:7275   */\n      dup2\n        /* \"#utility.yul\":7260:7264   */\n      dup2\n        /* \"#utility.yul\":7256:7276   */\n      sub\n        /* \"#utility.yul\":7251:7253   */\n      0x60\n        /* \"#utility.yul\":7240:7249   */\n      dup4\n        /* \"#utility.yul\":7236:7254   */\n      add\n        /* \"#utility.yul\":7229:7277   */\n      mstore\n        /* \"#utility.yul\":7294:7372   */\n      tag_216\n        /* \"#utility.yul\":7367:7371   */\n      dup2\n        /* \"#utility.yul\":7358:7364   */\n      dup10\n        /* \"#utility.yul\":7294:7372   */\n      tag_181\n      jump\t// in\n    tag_216:\n        /* \"#utility.yul\":7286:7372   */\n      swap1\n      pop\n        /* \"#utility.yul\":7420:7429   */\n      dup2\n        /* \"#utility.yul\":7414:7418   */\n      dup2\n        /* \"#utility.yul\":7410:7430   */\n      sub\n        /* \"#utility.yul\":7404:7407   */\n      0x80\n        /* \"#utility.yul\":7393:7402   */\n      dup4\n        /* \"#utility.yul\":7389:7408   */\n      add\n        /* \"#utility.yul\":7382:7431   */\n      mstore\n        /* \"#utility.yul\":7448:7526   */\n      tag_217\n        /* \"#utility.yul\":7521:7525   */\n      dup2\n        /* \"#utility.yul\":7512:7518   */\n      dup9\n        /* \"#utility.yul\":7448:7526   */\n      tag_181\n      jump\t// in\n    tag_217:\n        /* \"#utility.yul\":7440:7526   */\n      swap1\n      pop\n        /* \"#utility.yul\":7536:7603   */\n      tag_218\n        /* \"#utility.yul\":7598:7601   */\n      0xa0\n        /* \"#utility.yul\":7587:7596   */\n      dup4\n        /* \"#utility.yul\":7583:7602   */\n      add\n        /* \"#utility.yul\":7574:7580   */\n      dup8\n        /* \"#utility.yul\":7536:7603   */\n      tag_173\n      jump\t// in\n    tag_218:\n        /* \"#utility.yul\":7613:7686   */\n      tag_219\n        /* \"#utility.yul\":7681:7684   */\n      0xc0\n        /* \"#utility.yul\":7670:7679   */\n      dup4\n        /* \"#utility.yul\":7666:7685   */\n      add\n        /* \"#utility.yul\":7657:7663   */\n      dup7\n        /* \"#utility.yul\":7613:7686   */\n      tag_196\n      jump\t// in\n    tag_219:\n        /* \"#utility.yul\":7696:7785   */\n      tag_220\n        /* \"#utility.yul\":7780:7783   */\n      0xe0\n        /* \"#utility.yul\":7769:7778   */\n      dup4\n        /* \"#utility.yul\":7765:7784   */\n      add\n        /* \"#utility.yul\":7756:7762   */\n      dup6\n        /* \"#utility.yul\":7696:7785   */\n      tag_165\n      jump\t// in\n    tag_220:\n        /* \"#utility.yul\":7795:7884   */\n      tag_221\n        /* \"#utility.yul\":7879:7882   */\n      0x0100\n        /* \"#utility.yul\":7868:7877   */\n      dup4\n        /* \"#utility.yul\":7864:7883   */\n      add\n        /* \"#utility.yul\":7855:7861   */\n      dup5\n        /* \"#utility.yul\":7795:7884   */\n      tag_165\n      jump\t// in\n    tag_221:\n        /* \"#utility.yul\":6458:7891   */\n      swap11\n      swap10\n      pop\n      pop\n      pop\n      pop\n      pop\n      pop\n      pop\n      pop\n      pop\n      pop\n      jump\t// out\n        /* \"#utility.yul\":7897:8026   */\n    tag_117:\n        /* \"#utility.yul\":7931:7937   */\n      0x00\n        /* \"#utility.yul\":7958:7978   */\n      tag_223\n      tag_224\n      jump\t// in\n    tag_223:\n        /* \"#utility.yul\":7948:7978   */\n      swap1\n      pop\n        /* \"#utility.yul\":7987:8020   */\n      tag_225\n        /* \"#utility.yul\":8015:8019   */\n      dup3\n        /* \"#utility.yul\":8007:8013   */\n      dup3\n        /* \"#utility.yul\":7987:8020   */\n      tag_226\n      jump\t// in\n    tag_225:\n        /* \"#utility.yul\":7897:8026   */\n      swap2\n      swap1\n      pop\n      jump\t// out\n        /* \"#utility.yul\":8032:8107   */\n    tag_224:\n        /* \"#utility.yul\":8065:8071   */\n      0x00\n        /* \"#utility.yul\":8098:8100   */\n      0x40\n        /* \"#utility.yul\":8092:8101   */\n      mload\n        /* \"#utility.yul\":8082:8101   */\n      swap1\n      pop\n        /* \"#utility.yul\":8032:8107   */\n      swap1\n      jump\t// out\n        /* \"#utility.yul\":8113:8421   */\n    tag_116:\n        /* \"#utility.yul\":8175:8179   */\n      0x00\n        /* \"#utility.yul\":8265:8283   */\n      0xffffffffffffffff\n        /* \"#utility.yul\":8257:8263   */\n      dup3\n        /* \"#utility.yul\":8254:8284   */\n      gt\n        /* \"#utility.yul\":8251:8307   */\n      iszero\n      tag_229\n      jumpi\n        /* \"#utility.yul\":8287:8305   */\n      tag_230\n      tag_231\n      jump\t// in\n    tag_230:\n        /* \"#utility.yul\":8251:8307   */\n    tag_229:\n        /* \"#utility.yul\":8325:8354   */\n      tag_232\n        /* \"#utility.yul\":8347:8353   */\n      dup3\n        /* \"#utility.yul\":8325:8354   */\n      tag_190\n      jump\t// in\n    tag_232:\n        /* \"#utility.yul\":8317:8354   */\n      swap1\n      pop\n        /* \"#utility.yul\":8409:8413   */\n      0x20\n        /* \"#utility.yul\":8403:8407   */\n      dup2\n        /* \"#utility.yul\":8399:8414   */\n      add\n        /* \"#utility.yul\":8391:8414   */\n      swap1\n      pop\n        /* \"#utility.yul\":8113:8421   */\n      swap2\n      swap1\n      pop\n      jump\t// out\n        /* \"#utility.yul\":8427:8526   */\n    tag_184:\n        /* \"#utility.yul\":8479:8485   */\n      0x00\n        /* \"#utility.yul\":8513:8518   */\n      dup2\n        /* \"#utility.yul\":8507:8519   */\n      mload\n        /* \"#utility.yul\":8497:8519   */\n      swap1\n      pop\n        /* \"#utility.yul\":8427:8526   */\n      swap2\n      swap1\n      pop\n      jump\t// out\n        /* \"#utility.yul\":8532:8701   */\n    tag_186:\n        /* \"#utility.yul\":8616:8627   */\n      0x00\n        /* \"#utility.yul\":8650:8656   */\n      dup3\n        /* \"#utility.yul\":8645:8648   */\n      dup3\n        /* \"#utility.yul\":8638:8657   */\n      mstore\n        /* \"#utility.yul\":8690:8694   */\n      0x20\n        /* \"#utility.yul\":8685:8688   */\n      dup3\n        /* \"#utility.yul\":8681:8695   */\n      add\n        /* \"#utility.yul\":8666:8695   */\n      swap1\n      pop\n        /* \"#utility.yul\":8532:8701   */\n      swap3\n      swap2\n      pop\n      pop\n      jump\t// out\n        /* \"#utility.yul\":8707:8803   */\n    tag_172:\n        /* \"#utility.yul\":8744:8751   */\n      0x00\n        /* \"#utility.yul\":8773:8797   */\n      tag_236\n        /* \"#utility.yul\":8791:8796   */\n      dup3\n        /* \"#utility.yul\":8773:8797   */\n      tag_237\n      jump\t// in\n    tag_236:\n        /* \"#utility.yul\":8762:8797   */\n      swap1\n      pop\n        /* \"#utility.yul\":8707:8803   */\n      swap2\n      swap1\n      pop\n      jump\t// out\n        /* \"#utility.yul\":8809:8913   */\n    tag_168:\n        /* \"#utility.yul\":8854:8861   */\n      0x00\n        /* \"#utility.yul\":8883:8907   */\n      tag_239\n        /* \"#utility.yul\":8901:8906   */\n      dup3\n        /* \"#utility.yul\":8883:8907   */\n      tag_237\n      jump\t// in\n    tag_239:\n        /* \"#utility.yul\":8872:8907   */\n      swap1\n      pop\n        /* \"#utility.yul\":8809:8913   */\n      swap2\n      swap1\n      pop\n      jump\t// out\n        /* \"#utility.yul\":8919:9009   */\n    tag_176:\n        /* \"#utility.yul\":8953:8960   */\n      0x00\n        /* \"#utility.yul\":8996:9001   */\n      dup2\n        /* \"#utility.yul\":8989:9002   */\n      iszero\n        /* \"#utility.yul\":8982:9003   */\n      iszero\n        /* \"#utility.yul\":8971:9003   */\n      swap1\n      pop\n        /* \"#utility.yul\":8919:9009   */\n      swap2\n      swap1\n      pop\n      jump\t// out\n        /* \"#utility.yul\":9015:9092   */\n    tag_180:\n        /* \"#utility.yul\":9052:9059   */\n      0x00\n        /* \"#utility.yul\":9081:9086   */\n      dup2\n        /* \"#utility.yul\":9070:9086   */\n      swap1\n      pop\n        /* \"#utility.yul\":9015:9092   */\n      swap2\n      swap1\n      pop\n      jump\t// out\n        /* \"#utility.yul\":9098:9224   */\n    tag_237:\n        /* \"#utility.yul\":9135:9142   */\n      0x00\n        /* \"#utility.yul\":9175:9217   */\n      0xffffffffffffffffffffffffffffffffffffffff\n        /* \"#utility.yul\":9168:9173   */\n      dup3\n        /* \"#utility.yul\":9164:9218   */\n      and\n        /* \"#utility.yul\":9153:9218   */\n      swap1\n      pop\n        /* \"#utility.yul\":9098:9224   */\n      swap2\n      swap1\n      pop\n      jump\t// out\n        /* \"#utility.yul\":9230:9307   */\n    tag_199:\n        /* \"#utility.yul\":9267:9274   */\n      0x00\n        /* \"#utility.yul\":9296:9301   */\n      dup2\n        /* \"#utility.yul\":9285:9301   */\n      swap1\n      pop\n        /* \"#utility.yul\":9230:9307   */\n      swap2\n      swap1\n      pop\n      jump\t// out\n        /* \"#utility.yul\":9313:9467   */\n    tag_122:\n        /* \"#utility.yul\":9397:9403   */\n      dup3\n        /* \"#utility.yul\":9392:9395   */\n      dup2\n        /* \"#utility.yul\":9387:9390   */\n      dup4\n        /* \"#utility.yul\":9374:9404   */\n      calldatacopy\n        /* \"#utility.yul\":9459:9460   */\n      0x00\n        /* \"#utility.yul\":9450:9456   */\n      dup4\n        /* \"#utility.yul\":9445:9448   */\n      dup4\n        /* \"#utility.yul\":9441:9457   */\n      add\n        /* \"#utility.yul\":9434:9461   */\n      mstore\n        /* \"#utility.yul\":9313:9467   */\n      pop\n      pop\n      pop\n      jump\t// out\n        /* \"#utility.yul\":9473:9780   */\n    tag_188:\n        /* \"#utility.yul\":9541:9542   */\n      0x00\n        /* \"#utility.yul\":9551:9664   */\n    tag_246:\n        /* \"#utility.yul\":9565:9571   */\n      dup4\n        /* \"#utility.yul\":9562:9563   */\n      dup2\n        /* \"#utility.yul\":9559:9572   */\n      lt\n        /* \"#utility.yul\":9551:9664   */\n      iszero\n      tag_248\n      jumpi\n        /* \"#utility.yul\":9650:9651   */\n      dup1\n        /* \"#utility.yul\":9645:9648   */\n      dup3\n        /* \"#utility.yul\":9641:9652   */\n      add\n        /* \"#utility.yul\":9635:9653   */\n      mload\n        /* \"#utility.yul\":9631:9632   */\n      dup2\n        /* \"#utility.yul\":9626:9629   */\n      dup5\n        /* \"#utility.yul\":9622:9633   */\n      add\n        /* \"#utility.yul\":9615:9654   */\n      mstore\n        /* \"#utility.yul\":9587:9589   */\n      0x20\n        /* \"#utility.yul\":9584:9585   */\n      dup2\n        /* \"#utility.yul\":9580:9590   */\n      add\n        /* \"#utility.yul\":9575:9590   */\n      swap1\n      pop\n        /* \"#utility.yul\":9551:9664   */\n      jump(tag_246)\n    tag_248:\n        /* \"#utility.yul\":9682:9688   */\n      dup4\n        /* \"#utility.yul\":9679:9680   */\n      dup2\n        /* \"#utility.yul\":9676:9689   */\n      gt\n        /* \"#utility.yul\":9673:9774   */\n      iszero\n      tag_249\n      jumpi\n        /* \"#utility.yul\":9762:9763   */\n      0x00\n        /* \"#utility.yul\":9753:9759   */\n      dup5\n        /* \"#utility.yul\":9748:9751   */\n      dup5\n        /* \"#utility.yul\":9744:9760   */\n      add\n        /* \"#utility.yul\":9737:9764   */\n      mstore\n        /* \"#utility.yul\":9673:9774   */\n    tag_249:\n        /* \"#utility.yul\":9522:9780   */\n      pop\n        /* \"#utility.yul\":9473:9780   */\n      pop\n      pop\n      pop\n      jump\t// out\n        /* \"#utility.yul\":9786:10106   */\n    tag_41:\n        /* \"#utility.yul\":9830:9836   */\n      0x00\n        /* \"#utility.yul\":9867:9868   */\n      0x02\n        /* \"#utility.yul\":9861:9865   */\n      dup3\n        /* \"#utility.yul\":9857:9869   */\n      div\n        /* \"#utility.yul\":9847:9869   */\n      swap1\n      pop\n        /* \"#utility.yul\":9914:9915   */\n      0x01\n        /* \"#utility.yul\":9908:9912   */\n      dup3\n        /* \"#utility.yul\":9904:9916   */\n      and\n        /* \"#utility.yul\":9935:9953   */\n      dup1\n        /* \"#utility.yul\":9925:10006   */\n      tag_251\n      jumpi\n        /* \"#utility.yul\":9991:9995   */\n      0x7f\n        /* \"#utility.yul\":9983:9989   */\n      dup3\n        /* \"#utility.yul\":9979:9996   */\n      and\n        /* \"#utility.yul\":9969:9996   */\n      swap2\n      pop\n        /* \"#utility.yul\":9925:10006   */\n    tag_251:\n        /* \"#utility.yul\":10053:10055   */\n      0x20\n        /* \"#utility.yul\":10045:10051   */\n      dup3\n        /* \"#utility.yul\":10042:10056   */\n      lt\n        /* \"#utility.yul\":10022:10040   */\n      dup2\n        /* \"#utility.yul\":10019:10057   */\n      eq\n        /* \"#utility.yul\":10016:10100   */\n      iszero\n      tag_252\n      jumpi\n        /* \"#utility.yul\":10072:10090   */\n      tag_253\n      tag_254\n      jump\t// in\n    tag_253:\n        /* \"#utility.yul\":10016:10100   */\n    tag_252:\n        /* \"#utility.yul\":9837:10106   */\n      pop\n        /* \"#utility.yul\":9786:10106   */\n      swap2\n      swap1\n      pop\n      jump\t// out\n        /* \"#utility.yul\":10112:10393   */\n    tag_226:\n        /* \"#utility.yul\":10195:10222   */\n      tag_256\n        /* \"#utility.yul\":10217:10221   */\n      dup3\n        /* \"#utility.yul\":10195:10222   */\n      tag_190\n      jump\t// in\n    tag_256:\n        /* \"#utility.yul\":10187:10193   */\n      dup2\n        /* \"#utility.yul\":10183:10223   */\n      add\n        /* \"#utility.yul\":10325:10331   */\n      dup2\n        /* \"#utility.yul\":10313:10323   */\n      dup2\n        /* \"#utility.yul\":10310:10332   */\n      lt\n        /* \"#utility.yul\":10289:10307   */\n      0xffffffffffffffff\n        /* \"#utility.yul\":10277:10287   */\n      dup3\n        /* \"#utility.yul\":10274:10308   */\n      gt\n        /* \"#utility.yul\":10271:10333   */\n      or\n        /* \"#utility.yul\":10268:10356   */\n      iszero\n      tag_257\n      jumpi\n        /* \"#utility.yul\":10336:10354   */\n      tag_258\n      tag_231\n      jump\t// in\n    tag_258:\n        /* \"#utility.yul\":10268:10356   */\n    tag_257:\n        /* \"#utility.yul\":10376:10386   */\n      dup1\n        /* \"#utility.yul\":10372:10374   */\n      0x40\n        /* \"#utility.yul\":10365:10387   */\n      mstore\n        /* \"#utility.yul\":10155:10393   */\n      pop\n        /* \"#utility.yul\":10112:10393   */\n      pop\n      pop\n      jump\t// out\n        /* \"#utility.yul\":10399:10632   */\n    tag_84:\n        /* \"#utility.yul\":10438:10441   */\n      0x00\n        /* \"#utility.yul\":10461:10485   */\n      tag_260\n        /* \"#utility.yul\":10479:10484   */\n      dup3\n        /* \"#utility.yul\":10461:10485   */\n      tag_199\n      jump\t// in\n    tag_260:\n        /* \"#utility.yul\":10452:10485   */\n      swap2\n      pop\n        /* \"#utility.yul\":10507:10573   */\n      0xffffffffffffffffffffffffffffffffffffffffffffffffffffffffffffffff\n        /* \"#utility.yul\":10500:10505   */\n      dup3\n        /* \"#utility.yul\":10497:10574   */\n      eq\n        /* \"#utility.yul\":10494:10597   */\n      iszero\n      tag_261\n      jumpi\n        /* \"#utility.yul\":10577:10595   */\n      tag_262\n      tag_263\n      jump\t// in\n    tag_262:\n        /* \"#utility.yul\":10494:10597   */\n    tag_261:\n        /* \"#utility.yul\":10624:10625   */\n      0x01\n        /* \"#utility.yul\":10617:10622   */\n      dup3\n        /* \"#utility.yul\":10613:10626   */\n      add\n        /* \"#utility.yul\":10606:10626   */\n      swap1\n      pop\n        /* \"#utility.yul\":10399:10632   */\n      swap2\n      swap1\n      pop\n      jump\t// out\n        /* \"#utility.yul\":10638:10818   */\n    tag_263:\n        /* \"#utility.yul\":10686:10763   */\n      0x4e487b7100000000000000000000000000000000000000000000000000000000\n        /* \"#utility.yul\":10683:10684   */\n      0x00\n        /* \"#utility.yul\":10676:10764   */\n      mstore\n        /* \"#utility.yul\":10783:10787   */\n      0x11\n        /* \"#utility.yul\":10780:10781   */\n      0x04\n        /* \"#utility.yul\":10773:10788   */\n      mstore\n        /* \"#utility.yul\":10807:10811   */\n      0x24\n        /* \"#utility.yul\":10804:10805   */\n      0x00\n        /* \"#utility.yul\":10797:10812   */\n      revert\n        /* \"#utility.yul\":10824:11004   */\n    tag_254:\n        /* \"#utility.yul\":10872:10949   */\n      0x4e487b7100000000000000000000000000000000000000000000000000000000\n        /* \"#utility.yul\":10869:10870   */\n      0x00\n        /* \"#utility.yul\":10862:10950   */\n      mstore\n        /* \"#utility.yul\":10969:10973   */\n      0x22\n        /* \"#utility.yul\":10966:10967   */\n      0x04\n        /* \"#utility.yul\":10959:10974   */\n      mstore\n        /* \"#utility.yul\":10993:10997   */\n      0x24\n        /* \"#utility.yul\":10990:10991   */\n      0x00\n        /* \"#utility.yul\":10983:10998   */\n      revert\n        /* \"#utility.yul\":11010:11190   */\n    tag_59:\n        /* \"#utility.yul\":11058:11135   */\n      0x4e487b7100000000000000000000000000000000000000000000000000000000\n        /* \"#utility.yul\":11055:11056   */\n      0x00\n        /* \"#utility.yul\":11048:11136   */\n      mstore\n        /* \"#utility.yul\":11155:11159   */\n      0x32\n        /* \"#utility.yul\":11152:11153   */\n      0x04\n        /* \"#utility.yul\":11145:11160   */\n      mstore\n        /* \"#utility.yul\":11179:11183   */\n      0x24\n        /* \"#utility.yul\":11176:11177   */\n      0x00\n        /* \"#utility.yul\":11169:11184   */\n      revert\n        /* \"#utility.yul\":11196:11376   */\n    tag_231:\n        /* \"#utility.yul\":11244:11321   */\n      0x4e487b7100000000000000000000000000000000000000000000000000000000\n        /* \"#utility.yul\":11241:11242   */\n      0x00\n        /* \"#utility.yul\":11234:11322   */\n      mstore\n        /* \"#utility.yul\":11341:11345   */\n      0x41\n        /* \"#utility.yul\":11338:11339   */\n      0x04\n        /* \"#utility.yul\":11331:11346   */\n      mstore\n        /* \"#utility.yul\":11365:11369   */\n      0x24\n        /* \"#utility.yul\":11362:11363   */\n      0x00\n        /* \"#utility.yul\":11355:11370   */\n      revert\n        /* \"#utility.yul\":11382:11499   */\n    tag_131:\n        /* \"#utility.yul\":11491:11492   */\n      0x00\n        /* \"#utility.yul\":11488:11489   */\n      dup1\n        /* \"#utility.yul\":11481:11493   */\n      revert\n        /* \"#utility.yul\":11505:11622   */\n    tag_120:\n        /* \"#utility.yul\":11614:11615   */\n      0x00\n        /* \"#utility.yul\":11611:11612   */\n      dup1\n        /* \"#utility.yul\":11604:11616   */\n      revert\n        /* \"#utility.yul\":11628:11745   */\n    tag_157:\n        /* \"#utility.yul\":11737:11738   */\n      0x00\n        /* \"#utility.yul\":11734:11735   */\n      dup1\n        /* \"#utility.yul\":11727:11739   */\n      revert\n        /* \"#utility.yul\":11751:11868   */\n    tag_140:\n        /* \"#utility.yul\":11860:11861   */\n      0x00\n        /* \"#utility.yul\":11857:11858   */\n      dup1\n        /* \"#utility.yul\":11850:11862   */\n      revert\n        /* \"#utility.yul\":11874:11976   */\n    tag_190:\n        /* \"#utility.yul\":11915:11921   */\n      0x00\n        /* \"#utility.yul\":11966:11968   */\n      0x1f\n        /* \"#utility.yul\":11962:11969   */\n      not\n        /* \"#utility.yul\":11957:11959   */\n      0x1f\n        /* \"#utility.yul\":11950:11955   */\n      dup4\n        /* \"#utility.yul\":11946:11960   */\n      add\n        /* \"#utility.yul\":11942:11970   */\n      and\n        /* \"#utility.yul\":11932:11970   */\n      swap1\n      pop\n        /* \"#utility.yul\":11874:11976   */\n      swap2\n      swap1\n      pop\n      jump\t// out\n        /* \"#utility.yul\":11982:12161   */\n    tag_195:\n        /* \"#utility.yul\":12122:12153   */\n      0x50617469656e7420697320616c72656164792072656769737465726564000000\n        /* \"#utility.yul\":12118:12119   */\n      0x00\n        /* \"#utility.yul\":12110:12116   */\n      dup3\n        /* \"#utility.yul\":12106:12120   */\n      add\n        /* \"#utility.yul\":12099:12154   */\n      mstore\n        /* \"#utility.yul\":11982:12161   */\n      pop\n      jump\t// out\n        /* \"#utility.yul\":12167:12289   */\n    tag_126:\n        /* \"#utility.yul\":12240:12264   */\n      tag_275\n        /* \"#utility.yul\":12258:12263   */\n      dup2\n        /* \"#utility.yul\":12240:12264   */\n      tag_172\n      jump\t// in\n    tag_275:\n        /* \"#utility.yul\":12233:12238   */\n      dup2\n        /* \"#utility.yul\":12230:12265   */\n      eq\n        /* \"#utility.yul\":12220:12283   */\n      tag_276\n      jumpi\n        /* \"#utility.yul\":12279:12280   */\n      0x00\n        /* \"#utility.yul\":12276:12277   */\n      dup1\n        /* \"#utility.yul\":12269:12281   */\n      revert\n        /* \"#utility.yul\":12220:12283   */\n    tag_276:\n        /* \"#utility.yul\":12167:12289   */\n      pop\n      jump\t// out\n        /* \"#utility.yul\":12295:12417   */\n    tag_136:\n        /* \"#utility.yul\":12368:12392   */\n      tag_278\n        /* \"#utility.yul\":12386:12391   */\n      dup2\n        /* \"#utility.yul\":12368:12392   */\n      tag_199\n      jump\t// in\n    tag_278:\n        /* \"#utility.yul\":12361:12366   */\n      dup2\n        /* \"#utility.yul\":12358:12393   */\n      eq\n        /* \"#utility.yul\":12348:12411   */\n      tag_279\n      jumpi\n        /* \"#utility.yul\":12407:12408   */\n      0x00\n        /* \"#utility.yul\":12404:12405   */\n      dup1\n        /* \"#utility.yul\":12397:12409   */\n      revert\n        /* \"#utility.yul\":12348:12411   */\n    tag_279:\n        /* \"#utility.yul\":12295:12417   */\n      pop\n      jump\t// out\n\n    auxdata: 0xa2646970667358221220ddaad5ca358d46412c73b43708ebbde712ce2d9dc88e9697b22ab22d3ace263a64736f6c63430008070033\n}\n",
				"bytecode": {
					"linkReferences": {},
					"object": "608060405234801561001057600080fd5b503360016000548154811061002857610027610075565b5b9060005260206000200160006101000a81548173ffffffffffffffffffffffffffffffffffffffff021916908373ffffffffffffffffffffffffffffffffffffffff1602179055506100a4565b7f4e487b7100000000000000000000000000000000000000000000000000000000600052603260045260246000fd5b6110fe806100b36000396000f3fe608060405234801561001057600080fd5b50600436106100625760003560e01c80630869cfbc1461006757806389c47f081461009f5780638dc10768146100bb578063c4bfd57d146100ec578063d651893d1461011c578063ec4eb4421461014c575b600080fd5b610081600480360381019061007c9190610a86565b61017c565b60405161009699989796959493929190610d2a565b60405180910390f35b6100b960048036038101906100b49190610b20565b6103af565b005b6100d560048036038101906100d09190610af3565b610783565b6040516100e3929190610ce1565b60405180910390f35b61010660048036038101906101019190610a86565b6107b7565b6040516101139190610cc6565b60405180910390f35b61013660048036038101906101319190610ab3565b6108c5565b6040516101439190610cc6565b60405180910390f35b61016660048036038101906101619190610af3565b61090a565b6040516101739190610c82565b60405180910390f35b60026020528060005260406000206000915090508060000154908060010154908060020180546101ab90610ee4565b80601f01602080910402602001604051908101604052809291908181526020018280546101d790610ee4565b80156102245780601f106101f957610100808354040283529160200191610224565b820191906000526020600020905b81548152906001019060200180831161020757829003601f168201915b50505050509080600301805461023990610ee4565b80601f016020809104026020016040519081016040528092919081815260200182805461026590610ee4565b80156102b25780601f10610287576101008083540402835291602001916102b2565b820191906000526020600020905b81548152906001019060200180831161029557829003601f168201915b5050505050908060040180546102c790610ee4565b80601f01602080910402602001604051908101604052809291908181526020018280546102f390610ee4565b80156103405780601f1061031557610100808354040283529160200191610340565b820191906000526020600020905b81548152906001019060200180831161032357829003601f168201915b5050505050908060050160009054906101000a900460ff16908060060154908060070160009054906101000a900473ffffffffffffffffffffffffffffffffffffffff16908060080160009054906101000a900473ffffffffffffffffffffffffffffffffffffffff16905089565b600260006001600054815481106103c9576103c8610fee565b5b9060005260206000200160009054906101000a900473ffffffffffffffffffffffffffffffffffffffff1673ffffffffffffffffffffffffffffffffffffffff1673ffffffffffffffffffffffffffffffffffffffff16815260200190815260200160002060050160009054906101000a900460ff161561047f576040517f08c379a000000000000000000000000000000000000000000000000000000000815260040161047690610d0a565b60405180910390fd5b836002600060016000548154811061049a57610499610fee565b5b9060005260206000200160009054906101000a900473ffffffffffffffffffffffffffffffffffffffff1673ffffffffffffffffffffffffffffffffffffffff1673ffffffffffffffffffffffffffffffffffffffff16815260200190815260200160002060010181905550826002600060016000548154811061052157610520610fee565b5b9060005260206000200160009054906101000a900473ffffffffffffffffffffffffffffffffffffffff1673ffffffffffffffffffffffffffffffffffffffff1673ffffffffffffffffffffffffffffffffffffffff168152602001908152602001600020600201908051906020019061059c929190610949565b5081600260006001600054815481106105b8576105b7610fee565b5b9060005260206000200160009054906101000a900473ffffffffffffffffffffffffffffffffffffffff1673ffffffffffffffffffffffffffffffffffffffff1673ffffffffffffffffffffffffffffffffffffffff1681526020019081526020016000206003019080519060200190610633929190610949565b50806002600060016000548154811061064f5761064e610fee565b5b9060005260206000200160009054906101000a900473ffffffffffffffffffffffffffffffffffffffff1673ffffffffffffffffffffffffffffffffffffffff1673ffffffffffffffffffffffffffffffffffffffff16815260200190815260200160002060040190805190602001906106ca929190610949565b506001600260006001600054815481106106e7576106e6610fee565b5b9060005260206000200160009054906101000a900473ffffffffffffffffffffffffffffffffffffffff1673ffffffffffffffffffffffffffffffffffffffff1673ffffffffffffffffffffffffffffffffffffffff16815260200190815260200160002060050160006101000a81548160ff02191690831515021790555060008081548092919061077890610f47565b919050555050505050565b6003818154811061079357600080fd5b90600052602060002090600202016000915090508060000154908060010154905082565b600080600090505b6000548110156108ba578273ffffffffffffffffffffffffffffffffffffffff1660026000600184815481106107f8576107f7610fee565b5b9060005260206000200160009054906101000a900473ffffffffffffffffffffffffffffffffffffffff1673ffffffffffffffffffffffffffffffffffffffff1673ffffffffffffffffffffffffffffffffffffffff16815260200190815260200160002060070160009054906101000a900473ffffffffffffffffffffffffffffffffffffffff1673ffffffffffffffffffffffffffffffffffffffff1614156108a75760019150506108c0565b80806108b290610f47565b9150506107bf565b50600090505b919050565b60007fdd682d1363d443182f130904c49ddb3c06bcf4104bd0132873396ab097f339d933846040516108f8929190610c9d565b60405180910390a16001905092915050565b6001818154811061091a57600080fd5b906000526020600020016000915054906101000a900473ffffffffffffffffffffffffffffffffffffffff1681565b82805461095590610ee4565b90600052602060002090601f01602090048101928261097757600085556109be565b82601f1061099057805160ff19168380011785556109be565b828001600101855582156109be579182015b828111156109bd5782518255916020019190600101906109a2565b5b5090506109cb91906109cf565b5090565b5b808211156109e85760008160009055506001016109d0565b5090565b60006109ff6109fa84610df1565b610dcc565b905082815260208101848484011115610a1b57610a1a611051565b5b610a26848285610ea2565b509392505050565b600081359050610a3d8161109a565b92915050565b600082601f830112610a5857610a5761104c565b5b8135610a688482602086016109ec565b91505092915050565b600081359050610a80816110b1565b92915050565b600060208284031215610a9c57610a9b61105b565b5b6000610aaa84828501610a2e565b91505092915050565b60008060408385031215610aca57610ac961105b565b5b6000610ad885828601610a2e565b9250506020610ae985828601610a71565b9150509250929050565b600060208284031215610b0957610b0861105b565b5b6000610b1784828501610a71565b91505092915050565b60008060008060808587031215610b3a57610b3961105b565b5b6000610b4887828801610a71565b945050602085013567ffffffffffffffff811115610b6957610b68611056565b5b610b7587828801610a43565b935050604085013567ffffffffffffffff811115610b9657610b95611056565b5b610ba287828801610a43565b925050606085013567ffffffffffffffff811115610bc357610bc2611056565b5b610bcf87828801610a43565b91505092959194509250565b610be481610e50565b82525050565b610bf381610e3e565b82525050565b610c0281610e62565b82525050565b610c1181610e6e565b82525050565b6000610c2282610e22565b610c2c8185610e2d565b9350610c3c818560208601610eb1565b610c4581611060565b840191505092915050565b6000610c5d601d83610e2d565b9150610c6882611071565b602082019050919050565b610c7c81610e98565b82525050565b6000602082019050610c976000830184610bea565b92915050565b6000604082019050610cb26000830185610bea565b610cbf6020830184610bea565b9392505050565b6000602082019050610cdb6000830184610bf9565b92915050565b6000604082019050610cf66000830185610c08565b610d036020830184610c73565b9392505050565b60006020820190508181036000830152610d2381610c50565b9050919050565b600061012082019050610d40600083018c610c73565b610d4d602083018b610c73565b8181036040830152610d5f818a610c17565b90508181036060830152610d738189610c17565b90508181036080830152610d878188610c17565b9050610d9660a0830187610bf9565b610da360c0830186610c73565b610db060e0830185610bdb565b610dbe610100830184610bdb565b9a9950505050505050505050565b6000610dd6610de7565b9050610de28282610f16565b919050565b6000604051905090565b600067ffffffffffffffff821115610e0c57610e0b61101d565b5b610e1582611060565b9050602081019050919050565b600081519050919050565b600082825260208201905092915050565b6000610e4982610e78565b9050919050565b6000610e5b82610e78565b9050919050565b60008115159050919050565b6000819050919050565b600073ffffffffffffffffffffffffffffffffffffffff82169050919050565b6000819050919050565b82818337600083830152505050565b60005b83811015610ecf578082015181840152602081019050610eb4565b83811115610ede576000848401525b50505050565b60006002820490506001821680610efc57607f821691505b60208210811415610f1057610f0f610fbf565b5b50919050565b610f1f82611060565b810181811067ffffffffffffffff82111715610f3e57610f3d61101d565b5b80604052505050565b6000610f5282610e98565b91507fffffffffffffffffffffffffffffffffffffffffffffffffffffffffffffffff821415610f8557610f84610f90565b5b600182019050919050565b7f4e487b7100000000000000000000000000000000000000000000000000000000600052601160045260246000fd5b7f4e487b7100000000000000000000000000000000000000000000000000000000600052602260045260246000fd5b7f4e487b7100000000000000000000000000000000000000000000000000000000600052603260045260246000fd5b7f4e487b7100000000000000000000000000000000000000000000000000000000600052604160045260246000fd5b600080fd5b600080fd5b600080fd5b600080fd5b6000601f19601f8301169050919050565b7f50617469656e7420697320616c72656164792072656769737465726564000000600082015250565b6110a381610e3e565b81146110ae57600080fd5b50565b6110ba81610e98565b81146110c557600080fd5b5056fea2646970667358221220ddaad5ca358d46412c73b43708ebbde712ce2d9dc88e9697b22ab22d3ace263a64736f6c63430008070033",
					"opcodes": "PUSH1 0x80 PUSH1 0x40 MSTORE CALLVALUE DUP1 ISZERO PUSH2 0x10 JUMPI PUSH1 0x0 DUP1 REVERT JUMPDEST POP CALLER PUSH1 0x1 PUSH1 0x0 SLOAD DUP2 SLOAD DUP2 LT PUSH2 0x28 JUMPI PUSH2 0x27 PUSH2 0x75 JUMP JUMPDEST JUMPDEST SWAP1 PUSH1 0x0 MSTORE PUSH1 0x20 PUSH1 0x0 KECCAK256 ADD PUSH1 0x0 PUSH2 0x100 EXP DUP2 SLOAD DUP2 PUSH20 0xFFFFFFFFFFFFFFFFFFFFFFFFFFFFFFFFFFFFFFFF MUL NOT AND SWAP1 DUP4 PUSH20 0xFFFFFFFFFFFFFFFFFFFFFFFFFFFFFFFFFFFFFFFF AND MUL OR SWAP1 SSTORE POP PUSH2 0xA4 JUMP JUMPDEST PUSH32 0x4E487B7100000000000000000000000000000000000000000000000000000000 PUSH1 0x0 MSTORE PUSH1 0x32 PUSH1 0x4 MSTORE PUSH1 0x24 PUSH1 0x0 REVERT JUMPDEST PUSH2 0x10FE DUP1 PUSH2 0xB3 PUSH1 0x0 CODECOPY PUSH1 0x0 RETURN INVALID PUSH1 0x80 PUSH1 0x40 MSTORE CALLVALUE DUP1 ISZERO PUSH2 0x10 JUMPI PUSH1 0x0 DUP1 REVERT JUMPDEST POP PUSH1 0x4 CALLDATASIZE LT PUSH2 0x62 JUMPI PUSH1 0x0 CALLDATALOAD PUSH1 0xE0 SHR DUP1 PUSH4 0x869CFBC EQ PUSH2 0x67 JUMPI DUP1 PUSH4 0x89C47F08 EQ PUSH2 0x9F JUMPI DUP1 PUSH4 0x8DC10768 EQ PUSH2 0xBB JUMPI DUP1 PUSH4 0xC4BFD57D EQ PUSH2 0xEC JUMPI DUP1 PUSH4 0xD651893D EQ PUSH2 0x11C JUMPI DUP1 PUSH4 0xEC4EB442 EQ PUSH2 0x14C JUMPI JUMPDEST PUSH1 0x0 DUP1 REVERT JUMPDEST PUSH2 0x81 PUSH1 0x4 DUP1 CALLDATASIZE SUB DUP2 ADD SWAP1 PUSH2 0x7C SWAP2 SWAP1 PUSH2 0xA86 JUMP JUMPDEST PUSH2 0x17C JUMP JUMPDEST PUSH1 0x40 MLOAD PUSH2 0x96 SWAP10 SWAP9 SWAP8 SWAP7 SWAP6 SWAP5 SWAP4 SWAP3 SWAP2 SWAP1 PUSH2 0xD2A JUMP JUMPDEST PUSH1 0x40 MLOAD DUP1 SWAP2 SUB SWAP1 RETURN JUMPDEST PUSH2 0xB9 PUSH1 0x4 DUP1 CALLDATASIZE SUB DUP2 ADD SWAP1 PUSH2 0xB4 SWAP2 SWAP1 PUSH2 0xB20 JUMP JUMPDEST PUSH2 0x3AF JUMP JUMPDEST STOP JUMPDEST PUSH2 0xD5 PUSH1 0x4 DUP1 CALLDATASIZE SUB DUP2 ADD SWAP1 PUSH2 0xD0 SWAP2 SWAP1 PUSH2 0xAF3 JUMP JUMPDEST PUSH2 0x783 JUMP JUMPDEST PUSH1 0x40 MLOAD PUSH2 0xE3 SWAP3 SWAP2 SWAP1 PUSH2 0xCE1 JUMP JUMPDEST PUSH1 0x40 MLOAD DUP1 SWAP2 SUB SWAP1 RETURN JUMPDEST PUSH2 0x106 PUSH1 0x4 DUP1 CALLDATASIZE SUB DUP2 ADD SWAP1 PUSH2 0x101 SWAP2 SWAP1 PUSH2 0xA86 JUMP JUMPDEST PUSH2 0x7B7 JUMP JUMPDEST PUSH1 0x40 MLOAD PUSH2 0x113 SWAP2 SWAP1 PUSH2 0xCC6 JUMP JUMPDEST PUSH1 0x40 MLOAD DUP1 SWAP2 SUB SWAP1 RETURN JUMPDEST PUSH2 0x136 PUSH1 0x4 DUP1 CALLDATASIZE SUB DUP2 ADD SWAP1 PUSH2 0x131 SWAP2 SWAP1 PUSH2 0xAB3 JUMP JUMPDEST PUSH2 0x8C5 JUMP JUMPDEST PUSH1 0x40 MLOAD PUSH2 0x143 SWAP2 SWAP1 PUSH2 0xCC6 JUMP JUMPDEST PUSH1 0x40 MLOAD DUP1 SWAP2 SUB SWAP1 RETURN JUMPDEST PUSH2 0x166 PUSH1 0x4 DUP1 CALLDATASIZE SUB DUP2 ADD SWAP1 PUSH2 0x161 SWAP2 SWAP1 PUSH2 0xAF3 JUMP JUMPDEST PUSH2 0x90A JUMP JUMPDEST PUSH1 0x40 MLOAD PUSH2 0x173 SWAP2 SWAP1 PUSH2 0xC82 JUMP JUMPDEST PUSH1 0x40 MLOAD DUP1 SWAP2 SUB SWAP1 RETURN JUMPDEST PUSH1 0x2 PUSH1 0x20 MSTORE DUP1 PUSH1 0x0 MSTORE PUSH1 0x40 PUSH1 0x0 KECCAK256 PUSH1 0x0 SWAP2 POP SWAP1 POP DUP1 PUSH1 0x0 ADD SLOAD SWAP1 DUP1 PUSH1 0x1 ADD SLOAD SWAP1 DUP1 PUSH1 0x2 ADD DUP1 SLOAD PUSH2 0x1AB SWAP1 PUSH2 0xEE4 JUMP JUMPDEST DUP1 PUSH1 0x1F ADD PUSH1 0x20 DUP1 SWAP2 DIV MUL PUSH1 0x20 ADD PUSH1 0x40 MLOAD SWAP1 DUP2 ADD PUSH1 0x40 MSTORE DUP1 SWAP3 SWAP2 SWAP1 DUP2 DUP2 MSTORE PUSH1 0x20 ADD DUP3 DUP1 SLOAD PUSH2 0x1D7 SWAP1 PUSH2 0xEE4 JUMP JUMPDEST DUP1 ISZERO PUSH2 0x224 JUMPI DUP1 PUSH1 0x1F LT PUSH2 0x1F9 JUMPI PUSH2 0x100 DUP1 DUP4 SLOAD DIV MUL DUP4 MSTORE SWAP2 PUSH1 0x20 ADD SWAP2 PUSH2 0x224 JUMP JUMPDEST DUP3 ADD SWAP2 SWAP1 PUSH1 0x0 MSTORE PUSH1 0x20 PUSH1 0x0 KECCAK256 SWAP1 JUMPDEST DUP2 SLOAD DUP2 MSTORE SWAP1 PUSH1 0x1 ADD SWAP1 PUSH1 0x20 ADD DUP1 DUP4 GT PUSH2 0x207 JUMPI DUP3 SWAP1 SUB PUSH1 0x1F AND DUP3 ADD SWAP2 JUMPDEST POP POP POP POP POP SWAP1 DUP1 PUSH1 0x3 ADD DUP1 SLOAD PUSH2 0x239 SWAP1 PUSH2 0xEE4 JUMP JUMPDEST DUP1 PUSH1 0x1F ADD PUSH1 0x20 DUP1 SWAP2 DIV MUL PUSH1 0x20 ADD PUSH1 0x40 MLOAD SWAP1 DUP2 ADD PUSH1 0x40 MSTORE DUP1 SWAP3 SWAP2 SWAP1 DUP2 DUP2 MSTORE PUSH1 0x20 ADD DUP3 DUP1 SLOAD PUSH2 0x265 SWAP1 PUSH2 0xEE4 JUMP JUMPDEST DUP1 ISZERO PUSH2 0x2B2 JUMPI DUP1 PUSH1 0x1F LT PUSH2 0x287 JUMPI PUSH2 0x100 DUP1 DUP4 SLOAD DIV MUL DUP4 MSTORE SWAP2 PUSH1 0x20 ADD SWAP2 PUSH2 0x2B2 JUMP JUMPDEST DUP3 ADD SWAP2 SWAP1 PUSH1 0x0 MSTORE PUSH1 0x20 PUSH1 0x0 KECCAK256 SWAP1 JUMPDEST DUP2 SLOAD DUP2 MSTORE SWAP1 PUSH1 0x1 ADD SWAP1 PUSH1 0x20 ADD DUP1 DUP4 GT PUSH2 0x295 JUMPI DUP3 SWAP1 SUB PUSH1 0x1F AND DUP3 ADD SWAP2 JUMPDEST POP POP POP POP POP SWAP1 DUP1 PUSH1 0x4 ADD DUP1 SLOAD PUSH2 0x2C7 SWAP1 PUSH2 0xEE4 JUMP JUMPDEST DUP1 PUSH1 0x1F ADD PUSH1 0x20 DUP1 SWAP2 DIV MUL PUSH1 0x20 ADD PUSH1 0x40 MLOAD SWAP1 DUP2 ADD PUSH1 0x40 MSTORE DUP1 SWAP3 SWAP2 SWAP1 DUP2 DUP2 MSTORE PUSH1 0x20 ADD DUP3 DUP1 SLOAD PUSH2 0x2F3 SWAP1 PUSH2 0xEE4 JUMP JUMPDEST DUP1 ISZERO PUSH2 0x340 JUMPI DUP1 PUSH1 0x1F LT PUSH2 0x315 JUMPI PUSH2 0x100 DUP1 DUP4 SLOAD DIV MUL DUP4 MSTORE SWAP2 PUSH1 0x20 ADD SWAP2 PUSH2 0x340 JUMP JUMPDEST DUP3 ADD SWAP2 SWAP1 PUSH1 0x0 MSTORE PUSH1 0x20 PUSH1 0x0 KECCAK256 SWAP1 JUMPDEST DUP2 SLOAD DUP2 MSTORE SWAP1 PUSH1 0x1 ADD SWAP1 PUSH1 0x20 ADD DUP1 DUP4 GT PUSH2 0x323 JUMPI DUP3 SWAP1 SUB PUSH1 0x1F AND DUP3 ADD SWAP2 JUMPDEST POP POP POP POP POP SWAP1 DUP1 PUSH1 0x5 ADD PUSH1 0x0 SWAP1 SLOAD SWAP1 PUSH2 0x100 EXP SWAP1 DIV PUSH1 0xFF AND SWAP1 DUP1 PUSH1 0x6 ADD SLOAD SWAP1 DUP1 PUSH1 0x7 ADD PUSH1 0x0 SWAP1 SLOAD SWAP1 PUSH2 0x100 EXP SWAP1 DIV PUSH20 0xFFFFFFFFFFFFFFFFFFFFFFFFFFFFFFFFFFFFFFFF AND SWAP1 DUP1 PUSH1 0x8 ADD PUSH1 0x0 SWAP1 SLOAD SWAP1 PUSH2 0x100 EXP SWAP1 DIV PUSH20 0xFFFFFFFFFFFFFFFFFFFFFFFFFFFFFFFFFFFFFFFF AND SWAP1 POP DUP10 JUMP JUMPDEST PUSH1 0x2 PUSH1 0x0 PUSH1 0x1 PUSH1 0x0 SLOAD DUP2 SLOAD DUP2 LT PUSH2 0x3C9 JUMPI PUSH2 0x3C8 PUSH2 0xFEE JUMP JUMPDEST JUMPDEST SWAP1 PUSH1 0x0 MSTORE PUSH1 0x20 PUSH1 0x0 KECCAK256 ADD PUSH1 0x0 SWAP1 SLOAD SWAP1 PUSH2 0x100 EXP SWAP1 DIV PUSH20 0xFFFFFFFFFFFFFFFFFFFFFFFFFFFFFFFFFFFFFFFF AND PUSH20 0xFFFFFFFFFFFFFFFFFFFFFFFFFFFFFFFFFFFFFFFF AND PUSH20 0xFFFFFFFFFFFFFFFFFFFFFFFFFFFFFFFFFFFFFFFF AND DUP2 MSTORE PUSH1 0x20 ADD SWAP1 DUP2 MSTORE PUSH1 0x20 ADD PUSH1 0x0 KECCAK256 PUSH1 0x5 ADD PUSH1 0x0 SWAP1 SLOAD SWAP1 PUSH2 0x100 EXP SWAP1 DIV PUSH1 0xFF AND ISZERO PUSH2 0x47F JUMPI PUSH1 0x40 MLOAD PUSH32 0x8C379A000000000000000000000000000000000000000000000000000000000 DUP2 MSTORE PUSH1 0x4 ADD PUSH2 0x476 SWAP1 PUSH2 0xD0A JUMP JUMPDEST PUSH1 0x40 MLOAD DUP1 SWAP2 SUB SWAP1 REVERT JUMPDEST DUP4 PUSH1 0x2 PUSH1 0x0 PUSH1 0x1 PUSH1 0x0 SLOAD DUP2 SLOAD DUP2 LT PUSH2 0x49A JUMPI PUSH2 0x499 PUSH2 0xFEE JUMP JUMPDEST JUMPDEST SWAP1 PUSH1 0x0 MSTORE PUSH1 0x20 PUSH1 0x0 KECCAK256 ADD PUSH1 0x0 SWAP1 SLOAD SWAP1 PUSH2 0x100 EXP SWAP1 DIV PUSH20 0xFFFFFFFFFFFFFFFFFFFFFFFFFFFFFFFFFFFFFFFF AND PUSH20 0xFFFFFFFFFFFFFFFFFFFFFFFFFFFFFFFFFFFFFFFF AND PUSH20 0xFFFFFFFFFFFFFFFFFFFFFFFFFFFFFFFFFFFFFFFF AND DUP2 MSTORE PUSH1 0x20 ADD SWAP1 DUP2 MSTORE PUSH1 0x20 ADD PUSH1 0x0 KECCAK256 PUSH1 0x1 ADD DUP2 SWAP1 SSTORE POP DUP3 PUSH1 0x2 PUSH1 0x0 PUSH1 0x1 PUSH1 0x0 SLOAD DUP2 SLOAD DUP2 LT PUSH2 0x521 JUMPI PUSH2 0x520 PUSH2 0xFEE JUMP JUMPDEST JUMPDEST SWAP1 PUSH1 0x0 MSTORE PUSH1 0x20 PUSH1 0x0 KECCAK256 ADD PUSH1 0x0 SWAP1 SLOAD SWAP1 PUSH2 0x100 EXP SWAP1 DIV PUSH20 0xFFFFFFFFFFFFFFFFFFFFFFFFFFFFFFFFFFFFFFFF AND PUSH20 0xFFFFFFFFFFFFFFFFFFFFFFFFFFFFFFFFFFFFFFFF AND PUSH20 0xFFFFFFFFFFFFFFFFFFFFFFFFFFFFFFFFFFFFFFFF AND DUP2 MSTORE PUSH1 0x20 ADD SWAP1 DUP2 MSTORE PUSH1 0x20 ADD PUSH1 0x0 KECCAK256 PUSH1 0x2 ADD SWAP1 DUP1 MLOAD SWAP1 PUSH1 0x20 ADD SWAP1 PUSH2 0x59C SWAP3 SWAP2 SWAP1 PUSH2 0x949 JUMP JUMPDEST POP DUP2 PUSH1 0x2 PUSH1 0x0 PUSH1 0x1 PUSH1 0x0 SLOAD DUP2 SLOAD DUP2 LT PUSH2 0x5B8 JUMPI PUSH2 0x5B7 PUSH2 0xFEE JUMP JUMPDEST JUMPDEST SWAP1 PUSH1 0x0 MSTORE PUSH1 0x20 PUSH1 0x0 KECCAK256 ADD PUSH1 0x0 SWAP1 SLOAD SWAP1 PUSH2 0x100 EXP SWAP1 DIV PUSH20 0xFFFFFFFFFFFFFFFFFFFFFFFFFFFFFFFFFFFFFFFF AND PUSH20 0xFFFFFFFFFFFFFFFFFFFFFFFFFFFFFFFFFFFFFFFF AND PUSH20 0xFFFFFFFFFFFFFFFFFFFFFFFFFFFFFFFFFFFFFFFF AND DUP2 MSTORE PUSH1 0x20 ADD SWAP1 DUP2 MSTORE PUSH1 0x20 ADD PUSH1 0x0 KECCAK256 PUSH1 0x3 ADD SWAP1 DUP1 MLOAD SWAP1 PUSH1 0x20 ADD SWAP1 PUSH2 0x633 SWAP3 SWAP2 SWAP1 PUSH2 0x949 JUMP JUMPDEST POP DUP1 PUSH1 0x2 PUSH1 0x0 PUSH1 0x1 PUSH1 0x0 SLOAD DUP2 SLOAD DUP2 LT PUSH2 0x64F JUMPI PUSH2 0x64E PUSH2 0xFEE JUMP JUMPDEST JUMPDEST SWAP1 PUSH1 0x0 MSTORE PUSH1 0x20 PUSH1 0x0 KECCAK256 ADD PUSH1 0x0 SWAP1 SLOAD SWAP1 PUSH2 0x100 EXP SWAP1 DIV PUSH20 0xFFFFFFFFFFFFFFFFFFFFFFFFFFFFFFFFFFFFFFFF AND PUSH20 0xFFFFFFFFFFFFFFFFFFFFFFFFFFFFFFFFFFFFFFFF AND PUSH20 0xFFFFFFFFFFFFFFFFFFFFFFFFFFFFFFFFFFFFFFFF AND DUP2 MSTORE PUSH1 0x20 ADD SWAP1 DUP2 MSTORE PUSH1 0x20 ADD PUSH1 0x0 KECCAK256 PUSH1 0x4 ADD SWAP1 DUP1 MLOAD SWAP1 PUSH1 0x20 ADD SWAP1 PUSH2 0x6CA SWAP3 SWAP2 SWAP1 PUSH2 0x949 JUMP JUMPDEST POP PUSH1 0x1 PUSH1 0x2 PUSH1 0x0 PUSH1 0x1 PUSH1 0x0 SLOAD DUP2 SLOAD DUP2 LT PUSH2 0x6E7 JUMPI PUSH2 0x6E6 PUSH2 0xFEE JUMP JUMPDEST JUMPDEST SWAP1 PUSH1 0x0 MSTORE PUSH1 0x20 PUSH1 0x0 KECCAK256 ADD PUSH1 0x0 SWAP1 SLOAD SWAP1 PUSH2 0x100 EXP SWAP1 DIV PUSH20 0xFFFFFFFFFFFFFFFFFFFFFFFFFFFFFFFFFFFFFFFF AND PUSH20 0xFFFFFFFFFFFFFFFFFFFFFFFFFFFFFFFFFFFFFFFF AND PUSH20 0xFFFFFFFFFFFFFFFFFFFFFFFFFFFFFFFFFFFFFFFF AND DUP2 MSTORE PUSH1 0x20 ADD SWAP1 DUP2 MSTORE PUSH1 0x20 ADD PUSH1 0x0 KECCAK256 PUSH1 0x5 ADD PUSH1 0x0 PUSH2 0x100 EXP DUP2 SLOAD DUP2 PUSH1 0xFF MUL NOT AND SWAP1 DUP4 ISZERO ISZERO MUL OR SWAP1 SSTORE POP PUSH1 0x0 DUP1 DUP2 SLOAD DUP1 SWAP3 SWAP2 SWAP1 PUSH2 0x778 SWAP1 PUSH2 0xF47 JUMP JUMPDEST SWAP2 SWAP1 POP SSTORE POP POP POP POP POP JUMP JUMPDEST PUSH1 0x3 DUP2 DUP2 SLOAD DUP2 LT PUSH2 0x793 JUMPI PUSH1 0x0 DUP1 REVERT JUMPDEST SWAP1 PUSH1 0x0 MSTORE PUSH1 0x20 PUSH1 0x0 KECCAK256 SWAP1 PUSH1 0x2 MUL ADD PUSH1 0x0 SWAP2 POP SWAP1 POP DUP1 PUSH1 0x0 ADD SLOAD SWAP1 DUP1 PUSH1 0x1 ADD SLOAD SWAP1 POP DUP3 JUMP JUMPDEST PUSH1 0x0 DUP1 PUSH1 0x0 SWAP1 POP JUMPDEST PUSH1 0x0 SLOAD DUP2 LT ISZERO PUSH2 0x8BA JUMPI DUP3 PUSH20 0xFFFFFFFFFFFFFFFFFFFFFFFFFFFFFFFFFFFFFFFF AND PUSH1 0x2 PUSH1 0x0 PUSH1 0x1 DUP5 DUP2 SLOAD DUP2 LT PUSH2 0x7F8 JUMPI PUSH2 0x7F7 PUSH2 0xFEE JUMP JUMPDEST JUMPDEST SWAP1 PUSH1 0x0 MSTORE PUSH1 0x20 PUSH1 0x0 KECCAK256 ADD PUSH1 0x0 SWAP1 SLOAD SWAP1 PUSH2 0x100 EXP SWAP1 DIV PUSH20 0xFFFFFFFFFFFFFFFFFFFFFFFFFFFFFFFFFFFFFFFF AND PUSH20 0xFFFFFFFFFFFFFFFFFFFFFFFFFFFFFFFFFFFFFFFF AND PUSH20 0xFFFFFFFFFFFFFFFFFFFFFFFFFFFFFFFFFFFFFFFF AND DUP2 MSTORE PUSH1 0x20 ADD SWAP1 DUP2 MSTORE PUSH1 0x20 ADD PUSH1 0x0 KECCAK256 PUSH1 0x7 ADD PUSH1 0x0 SWAP1 SLOAD SWAP1 PUSH2 0x100 EXP SWAP1 DIV PUSH20 0xFFFFFFFFFFFFFFFFFFFFFFFFFFFFFFFFFFFFFFFF AND PUSH20 0xFFFFFFFFFFFFFFFFFFFFFFFFFFFFFFFFFFFFFFFF AND EQ ISZERO PUSH2 0x8A7 JUMPI PUSH1 0x1 SWAP2 POP POP PUSH2 0x8C0 JUMP JUMPDEST DUP1 DUP1 PUSH2 0x8B2 SWAP1 PUSH2 0xF47 JUMP JUMPDEST SWAP2 POP POP PUSH2 0x7BF JUMP JUMPDEST POP PUSH1 0x0 SWAP1 POP JUMPDEST SWAP2 SWAP1 POP JUMP JUMPDEST PUSH1 0x0 PUSH32 0xDD682D1363D443182F130904C49DDB3C06BCF4104BD0132873396AB097F339D9 CALLER DUP5 PUSH1 0x40 MLOAD PUSH2 0x8F8 SWAP3 SWAP2 SWAP1 PUSH2 0xC9D JUMP JUMPDEST PUSH1 0x40 MLOAD DUP1 SWAP2 SUB SWAP1 LOG1 PUSH1 0x1 SWAP1 POP SWAP3 SWAP2 POP POP JUMP JUMPDEST PUSH1 0x1 DUP2 DUP2 SLOAD DUP2 LT PUSH2 0x91A JUMPI PUSH1 0x0 DUP1 REVERT JUMPDEST SWAP1 PUSH1 0x0 MSTORE PUSH1 0x20 PUSH1 0x0 KECCAK256 ADD PUSH1 0x0 SWAP2 POP SLOAD SWAP1 PUSH2 0x100 EXP SWAP1 DIV PUSH20 0xFFFFFFFFFFFFFFFFFFFFFFFFFFFFFFFFFFFFFFFF AND DUP2 JUMP JUMPDEST DUP3 DUP1 SLOAD PUSH2 0x955 SWAP1 PUSH2 0xEE4 JUMP JUMPDEST SWAP1 PUSH1 0x0 MSTORE PUSH1 0x20 PUSH1 0x0 KECCAK256 SWAP1 PUSH1 0x1F ADD PUSH1 0x20 SWAP1 DIV DUP2 ADD SWAP3 DUP3 PUSH2 0x977 JUMPI PUSH1 0x0 DUP6 SSTORE PUSH2 0x9BE JUMP JUMPDEST DUP3 PUSH1 0x1F LT PUSH2 0x990 JUMPI DUP1 MLOAD PUSH1 0xFF NOT AND DUP4 DUP1 ADD OR DUP6 SSTORE PUSH2 0x9BE JUMP JUMPDEST DUP3 DUP1 ADD PUSH1 0x1 ADD DUP6 SSTORE DUP3 ISZERO PUSH2 0x9BE JUMPI SWAP2 DUP3 ADD JUMPDEST DUP3 DUP2 GT ISZERO PUSH2 0x9BD JUMPI DUP3 MLOAD DUP3 SSTORE SWAP2 PUSH1 0x20 ADD SWAP2 SWAP1 PUSH1 0x1 ADD SWAP1 PUSH2 0x9A2 JUMP JUMPDEST JUMPDEST POP SWAP1 POP PUSH2 0x9CB SWAP2 SWAP1 PUSH2 0x9CF JUMP JUMPDEST POP SWAP1 JUMP JUMPDEST JUMPDEST DUP1 DUP3 GT ISZERO PUSH2 0x9E8 JUMPI PUSH1 0x0 DUP2 PUSH1 0x0 SWAP1 SSTORE POP PUSH1 0x1 ADD PUSH2 0x9D0 JUMP JUMPDEST POP SWAP1 JUMP JUMPDEST PUSH1 0x0 PUSH2 0x9FF PUSH2 0x9FA DUP5 PUSH2 0xDF1 JUMP JUMPDEST PUSH2 0xDCC JUMP JUMPDEST SWAP1 POP DUP3 DUP2 MSTORE PUSH1 0x20 DUP2 ADD DUP5 DUP5 DUP5 ADD GT ISZERO PUSH2 0xA1B JUMPI PUSH2 0xA1A PUSH2 0x1051 JUMP JUMPDEST JUMPDEST PUSH2 0xA26 DUP5 DUP3 DUP6 PUSH2 0xEA2 JUMP JUMPDEST POP SWAP4 SWAP3 POP POP POP JUMP JUMPDEST PUSH1 0x0 DUP2 CALLDATALOAD SWAP1 POP PUSH2 0xA3D DUP2 PUSH2 0x109A JUMP JUMPDEST SWAP3 SWAP2 POP POP JUMP JUMPDEST PUSH1 0x0 DUP3 PUSH1 0x1F DUP4 ADD SLT PUSH2 0xA58 JUMPI PUSH2 0xA57 PUSH2 0x104C JUMP JUMPDEST JUMPDEST DUP2 CALLDATALOAD PUSH2 0xA68 DUP5 DUP3 PUSH1 0x20 DUP7 ADD PUSH2 0x9EC JUMP JUMPDEST SWAP2 POP POP SWAP3 SWAP2 POP POP JUMP JUMPDEST PUSH1 0x0 DUP2 CALLDATALOAD SWAP1 POP PUSH2 0xA80 DUP2 PUSH2 0x10B1 JUMP JUMPDEST SWAP3 SWAP2 POP POP JUMP JUMPDEST PUSH1 0x0 PUSH1 0x20 DUP3 DUP5 SUB SLT ISZERO PUSH2 0xA9C JUMPI PUSH2 0xA9B PUSH2 0x105B JUMP JUMPDEST JUMPDEST PUSH1 0x0 PUSH2 0xAAA DUP5 DUP3 DUP6 ADD PUSH2 0xA2E JUMP JUMPDEST SWAP2 POP POP SWAP3 SWAP2 POP POP JUMP JUMPDEST PUSH1 0x0 DUP1 PUSH1 0x40 DUP4 DUP6 SUB SLT ISZERO PUSH2 0xACA JUMPI PUSH2 0xAC9 PUSH2 0x105B JUMP JUMPDEST JUMPDEST PUSH1 0x0 PUSH2 0xAD8 DUP6 DUP3 DUP7 ADD PUSH2 0xA2E JUMP JUMPDEST SWAP3 POP POP PUSH1 0x20 PUSH2 0xAE9 DUP6 DUP3 DUP7 ADD PUSH2 0xA71 JUMP JUMPDEST SWAP2 POP POP SWAP3 POP SWAP3 SWAP1 POP JUMP JUMPDEST PUSH1 0x0 PUSH1 0x20 DUP3 DUP5 SUB SLT ISZERO PUSH2 0xB09 JUMPI PUSH2 0xB08 PUSH2 0x105B JUMP JUMPDEST JUMPDEST PUSH1 0x0 PUSH2 0xB17 DUP5 DUP3 DUP6 ADD PUSH2 0xA71 JUMP JUMPDEST SWAP2 POP POP SWAP3 SWAP2 POP POP JUMP JUMPDEST PUSH1 0x0 DUP1 PUSH1 0x0 DUP1 PUSH1 0x80 DUP6 DUP8 SUB SLT ISZERO PUSH2 0xB3A JUMPI PUSH2 0xB39 PUSH2 0x105B JUMP JUMPDEST JUMPDEST PUSH1 0x0 PUSH2 0xB48 DUP8 DUP3 DUP9 ADD PUSH2 0xA71 JUMP JUMPDEST SWAP5 POP POP PUSH1 0x20 DUP6 ADD CALLDATALOAD PUSH8 0xFFFFFFFFFFFFFFFF DUP2 GT ISZERO PUSH2 0xB69 JUMPI PUSH2 0xB68 PUSH2 0x1056 JUMP JUMPDEST JUMPDEST PUSH2 0xB75 DUP8 DUP3 DUP9 ADD PUSH2 0xA43 JUMP JUMPDEST SWAP4 POP POP PUSH1 0x40 DUP6 ADD CALLDATALOAD PUSH8 0xFFFFFFFFFFFFFFFF DUP2 GT ISZERO PUSH2 0xB96 JUMPI PUSH2 0xB95 PUSH2 0x1056 JUMP JUMPDEST JUMPDEST PUSH2 0xBA2 DUP8 DUP3 DUP9 ADD PUSH2 0xA43 JUMP JUMPDEST SWAP3 POP POP PUSH1 0x60 DUP6 ADD CALLDATALOAD PUSH8 0xFFFFFFFFFFFFFFFF DUP2 GT ISZERO PUSH2 0xBC3 JUMPI PUSH2 0xBC2 PUSH2 0x1056 JUMP JUMPDEST JUMPDEST PUSH2 0xBCF DUP8 DUP3 DUP9 ADD PUSH2 0xA43 JUMP JUMPDEST SWAP2 POP POP SWAP3 SWAP6 SWAP2 SWAP5 POP SWAP3 POP JUMP JUMPDEST PUSH2 0xBE4 DUP2 PUSH2 0xE50 JUMP JUMPDEST DUP3 MSTORE POP POP JUMP JUMPDEST PUSH2 0xBF3 DUP2 PUSH2 0xE3E JUMP JUMPDEST DUP3 MSTORE POP POP JUMP JUMPDEST PUSH2 0xC02 DUP2 PUSH2 0xE62 JUMP JUMPDEST DUP3 MSTORE POP POP JUMP JUMPDEST PUSH2 0xC11 DUP2 PUSH2 0xE6E JUMP JUMPDEST DUP3 MSTORE POP POP JUMP JUMPDEST PUSH1 0x0 PUSH2 0xC22 DUP3 PUSH2 0xE22 JUMP JUMPDEST PUSH2 0xC2C DUP2 DUP6 PUSH2 0xE2D JUMP JUMPDEST SWAP4 POP PUSH2 0xC3C DUP2 DUP6 PUSH1 0x20 DUP7 ADD PUSH2 0xEB1 JUMP JUMPDEST PUSH2 0xC45 DUP2 PUSH2 0x1060 JUMP JUMPDEST DUP5 ADD SWAP2 POP POP SWAP3 SWAP2 POP POP JUMP JUMPDEST PUSH1 0x0 PUSH2 0xC5D PUSH1 0x1D DUP4 PUSH2 0xE2D JUMP JUMPDEST SWAP2 POP PUSH2 0xC68 DUP3 PUSH2 0x1071 JUMP JUMPDEST PUSH1 0x20 DUP3 ADD SWAP1 POP SWAP2 SWAP1 POP JUMP JUMPDEST PUSH2 0xC7C DUP2 PUSH2 0xE98 JUMP JUMPDEST DUP3 MSTORE POP POP JUMP JUMPDEST PUSH1 0x0 PUSH1 0x20 DUP3 ADD SWAP1 POP PUSH2 0xC97 PUSH1 0x0 DUP4 ADD DUP5 PUSH2 0xBEA JUMP JUMPDEST SWAP3 SWAP2 POP POP JUMP JUMPDEST PUSH1 0x0 PUSH1 0x40 DUP3 ADD SWAP1 POP PUSH2 0xCB2 PUSH1 0x0 DUP4 ADD DUP6 PUSH2 0xBEA JUMP JUMPDEST PUSH2 0xCBF PUSH1 0x20 DUP4 ADD DUP5 PUSH2 0xBEA JUMP JUMPDEST SWAP4 SWAP3 POP POP POP JUMP JUMPDEST PUSH1 0x0 PUSH1 0x20 DUP3 ADD SWAP1 POP PUSH2 0xCDB PUSH1 0x0 DUP4 ADD DUP5 PUSH2 0xBF9 JUMP JUMPDEST SWAP3 SWAP2 POP POP JUMP JUMPDEST PUSH1 0x0 PUSH1 0x40 DUP3 ADD SWAP1 POP PUSH2 0xCF6 PUSH1 0x0 DUP4 ADD DUP6 PUSH2 0xC08 JUMP JUMPDEST PUSH2 0xD03 PUSH1 0x20 DUP4 ADD DUP5 PUSH2 0xC73 JUMP JUMPDEST SWAP4 SWAP3 POP POP POP JUMP JUMPDEST PUSH1 0x0 PUSH1 0x20 DUP3 ADD SWAP1 POP DUP2 DUP2 SUB PUSH1 0x0 DUP4 ADD MSTORE PUSH2 0xD23 DUP2 PUSH2 0xC50 JUMP JUMPDEST SWAP1 POP SWAP2 SWAP1 POP JUMP JUMPDEST PUSH1 0x0 PUSH2 0x120 DUP3 ADD SWAP1 POP PUSH2 0xD40 PUSH1 0x0 DUP4 ADD DUP13 PUSH2 0xC73 JUMP JUMPDEST PUSH2 0xD4D PUSH1 0x20 DUP4 ADD DUP12 PUSH2 0xC73 JUMP JUMPDEST DUP2 DUP2 SUB PUSH1 0x40 DUP4 ADD MSTORE PUSH2 0xD5F DUP2 DUP11 PUSH2 0xC17 JUMP JUMPDEST SWAP1 POP DUP2 DUP2 SUB PUSH1 0x60 DUP4 ADD MSTORE PUSH2 0xD73 DUP2 DUP10 PUSH2 0xC17 JUMP JUMPDEST SWAP1 POP DUP2 DUP2 SUB PUSH1 0x80 DUP4 ADD MSTORE PUSH2 0xD87 DUP2 DUP9 PUSH2 0xC17 JUMP JUMPDEST SWAP1 POP PUSH2 0xD96 PUSH1 0xA0 DUP4 ADD DUP8 PUSH2 0xBF9 JUMP JUMPDEST PUSH2 0xDA3 PUSH1 0xC0 DUP4 ADD DUP7 PUSH2 0xC73 JUMP JUMPDEST PUSH2 0xDB0 PUSH1 0xE0 DUP4 ADD DUP6 PUSH2 0xBDB JUMP JUMPDEST PUSH2 0xDBE PUSH2 0x100 DUP4 ADD DUP5 PUSH2 0xBDB JUMP JUMPDEST SWAP11 SWAP10 POP POP POP POP POP POP POP POP POP POP JUMP JUMPDEST PUSH1 0x0 PUSH2 0xDD6 PUSH2 0xDE7 JUMP JUMPDEST SWAP1 POP PUSH2 0xDE2 DUP3 DUP3 PUSH2 0xF16 JUMP JUMPDEST SWAP2 SWAP1 POP JUMP JUMPDEST PUSH1 0x0 PUSH1 0x40 MLOAD SWAP1 POP SWAP1 JUMP JUMPDEST PUSH1 0x0 PUSH8 0xFFFFFFFFFFFFFFFF DUP3 GT ISZERO PUSH2 0xE0C JUMPI PUSH2 0xE0B PUSH2 0x101D JUMP JUMPDEST JUMPDEST PUSH2 0xE15 DUP3 PUSH2 0x1060 JUMP JUMPDEST SWAP1 POP PUSH1 0x20 DUP2 ADD SWAP1 POP SWAP2 SWAP1 POP JUMP JUMPDEST PUSH1 0x0 DUP2 MLOAD SWAP1 POP SWAP2 SWAP1 POP JUMP JUMPDEST PUSH1 0x0 DUP3 DUP3 MSTORE PUSH1 0x20 DUP3 ADD SWAP1 POP SWAP3 SWAP2 POP POP JUMP JUMPDEST PUSH1 0x0 PUSH2 0xE49 DUP3 PUSH2 0xE78 JUMP JUMPDEST SWAP1 POP SWAP2 SWAP1 POP JUMP JUMPDEST PUSH1 0x0 PUSH2 0xE5B DUP3 PUSH2 0xE78 JUMP JUMPDEST SWAP1 POP SWAP2 SWAP1 POP JUMP JUMPDEST PUSH1 0x0 DUP2 ISZERO ISZERO SWAP1 POP SWAP2 SWAP1 POP JUMP JUMPDEST PUSH1 0x0 DUP2 SWAP1 POP SWAP2 SWAP1 POP JUMP JUMPDEST PUSH1 0x0 PUSH20 0xFFFFFFFFFFFFFFFFFFFFFFFFFFFFFFFFFFFFFFFF DUP3 AND SWAP1 POP SWAP2 SWAP1 POP JUMP JUMPDEST PUSH1 0x0 DUP2 SWAP1 POP SWAP2 SWAP1 POP JUMP JUMPDEST DUP3 DUP2 DUP4 CALLDATACOPY PUSH1 0x0 DUP4 DUP4 ADD MSTORE POP POP POP JUMP JUMPDEST PUSH1 0x0 JUMPDEST DUP4 DUP2 LT ISZERO PUSH2 0xECF JUMPI DUP1 DUP3 ADD MLOAD DUP2 DUP5 ADD MSTORE PUSH1 0x20 DUP2 ADD SWAP1 POP PUSH2 0xEB4 JUMP JUMPDEST DUP4 DUP2 GT ISZERO PUSH2 0xEDE JUMPI PUSH1 0x0 DUP5 DUP5 ADD MSTORE JUMPDEST POP POP POP POP JUMP JUMPDEST PUSH1 0x0 PUSH1 0x2 DUP3 DIV SWAP1 POP PUSH1 0x1 DUP3 AND DUP1 PUSH2 0xEFC JUMPI PUSH1 0x7F DUP3 AND SWAP2 POP JUMPDEST PUSH1 0x20 DUP3 LT DUP2 EQ ISZERO PUSH2 0xF10 JUMPI PUSH2 0xF0F PUSH2 0xFBF JUMP JUMPDEST JUMPDEST POP SWAP2 SWAP1 POP JUMP JUMPDEST PUSH2 0xF1F DUP3 PUSH2 0x1060 JUMP JUMPDEST DUP2 ADD DUP2 DUP2 LT PUSH8 0xFFFFFFFFFFFFFFFF DUP3 GT OR ISZERO PUSH2 0xF3E JUMPI PUSH2 0xF3D PUSH2 0x101D JUMP JUMPDEST JUMPDEST DUP1 PUSH1 0x40 MSTORE POP POP POP JUMP JUMPDEST PUSH1 0x0 PUSH2 0xF52 DUP3 PUSH2 0xE98 JUMP JUMPDEST SWAP2 POP PUSH32 0xFFFFFFFFFFFFFFFFFFFFFFFFFFFFFFFFFFFFFFFFFFFFFFFFFFFFFFFFFFFFFFFF DUP3 EQ ISZERO PUSH2 0xF85 JUMPI PUSH2 0xF84 PUSH2 0xF90 JUMP JUMPDEST JUMPDEST PUSH1 0x1 DUP3 ADD SWAP1 POP SWAP2 SWAP1 POP JUMP JUMPDEST PUSH32 0x4E487B7100000000000000000000000000000000000000000000000000000000 PUSH1 0x0 MSTORE PUSH1 0x11 PUSH1 0x4 MSTORE PUSH1 0x24 PUSH1 0x0 REVERT JUMPDEST PUSH32 0x4E487B7100000000000000000000000000000000000000000000000000000000 PUSH1 0x0 MSTORE PUSH1 0x22 PUSH1 0x4 MSTORE PUSH1 0x24 PUSH1 0x0 REVERT JUMPDEST PUSH32 0x4E487B7100000000000000000000000000000000000000000000000000000000 PUSH1 0x0 MSTORE PUSH1 0x32 PUSH1 0x4 MSTORE PUSH1 0x24 PUSH1 0x0 REVERT JUMPDEST PUSH32 0x4E487B7100000000000000000000000000000000000000000000000000000000 PUSH1 0x0 MSTORE PUSH1 0x41 PUSH1 0x4 MSTORE PUSH1 0x24 PUSH1 0x0 REVERT JUMPDEST PUSH1 0x0 DUP1 REVERT JUMPDEST PUSH1 0x0 DUP1 REVERT JUMPDEST PUSH1 0x0 DUP1 REVERT JUMPDEST PUSH1 0x0 DUP1 REVERT JUMPDEST PUSH1 0x0 PUSH1 0x1F NOT PUSH1 0x1F DUP4 ADD AND SWAP1 POP SWAP2 SWAP1 POP JUMP JUMPDEST PUSH32 0x50617469656E7420697320616C72656164792072656769737465726564000000 PUSH1 0x0 DUP3 ADD MSTORE POP JUMP JUMPDEST PUSH2 0x10A3 DUP2 PUSH2 0xE3E JUMP JUMPDEST DUP2 EQ PUSH2 0x10AE JUMPI PUSH1 0x0 DUP1 REVERT JUMPDEST POP JUMP JUMPDEST PUSH2 0x10BA DUP2 PUSH2 0xE98 JUMP JUMPDEST DUP2 EQ PUSH2 0x10C5 JUMPI PUSH1 0x0 DUP1 REVERT JUMPDEST POP JUMP INVALID LOG2 PUSH5 0x6970667358 0x22 SLT KECCAK256 0xDD 0xAA 0xD5 0xCA CALLDATALOAD DUP14 CHAINID COINBASE 0x2C PUSH20 0xB43708EBBDE712CE2D9DC88E9697B22AB22D3ACE 0x26 GASPRICE PUSH5 0x736F6C6343 STOP ADDMOD SMOD STOP CALLER "
				},
				"gasEstimates": {
					"creation": {
						"codeDepositCost": "870000",
						"executionCost": "29461",
						"totalCost": "899461"
					},
					"external": {
						"authCheck(address,uint256)": "infinite",
						"author(uint256)": "5044",
						"cards(uint256)": "infinite",
						"fetchData(address)": "infinite",
						"patients(address)": "infinite",
						"registerPatient(uint256,string,string,string)": "infinite"
					}
				},
				"methodIdentifiers": {
					"authCheck(address,uint256)": "d651893d",
					"author(uint256)": "ec4eb442",
					"cards(uint256)": "8dc10768",
					"fetchData(address)": "c4bfd57d",
					"patients(address)": "0869cfbc",
					"registerPatient(uint256,string,string,string)": "89c47f08"
				}
			},
			"storageLayout": {
				"storage": [
					{
						"astId": 28,
						"contract": "contracts/3_Data.sol:Data",
						"label": "counter",
						"offset": 0,
						"slot": "0",
						"type": "t_uint256"
					},
					{
						"astId": 31,
						"contract": "contracts/3_Data.sol:Data",
						"label": "author",
						"offset": 0,
						"slot": "1",
						"type": "t_array(t_address)dyn_storage"
					},
					{
						"astId": 36,
						"contract": "contracts/3_Data.sol:Data",
						"label": "patients",
						"offset": 0,
						"slot": "2",
						"type": "t_mapping(t_address,t_struct(Patient)21_storage)"
					},
					{
						"astId": 40,
						"contract": "contracts/3_Data.sol:Data",
						"label": "cards",
						"offset": 0,
						"slot": "3",
						"type": "t_array(t_struct(Card)26_storage)dyn_storage"
					}
				],
				"types": {
					"t_address": {
						"encoding": "inplace",
						"label": "address",
						"numberOfBytes": "20"
					},
					"t_address_payable": {
						"encoding": "inplace",
						"label": "address payable",
						"numberOfBytes": "20"
					},
					"t_array(t_address)dyn_storage": {
						"base": "t_address",
						"encoding": "dynamic_array",
						"label": "address[]",
						"numberOfBytes": "32"
					},
					"t_array(t_struct(Card)26_storage)dyn_storage": {
						"base": "t_struct(Card)26_storage",
						"encoding": "dynamic_array",
						"label": "struct Data.Card[]",
						"numberOfBytes": "32"
					},
					"t_bool": {
						"encoding": "inplace",
						"label": "bool",
						"numberOfBytes": "1"
					},
					"t_bytes32": {
						"encoding": "inplace",
						"label": "bytes32",
						"numberOfBytes": "32"
					},
					"t_mapping(t_address,t_struct(Patient)21_storage)": {
						"encoding": "mapping",
						"key": "t_address",
						"label": "mapping(address => struct Data.Patient)",
						"numberOfBytes": "32",
						"value": "t_struct(Patient)21_storage"
					},
					"t_string_storage": {
						"encoding": "bytes",
						"label": "string",
						"numberOfBytes": "32"
					},
					"t_struct(Card)26_storage": {
						"encoding": "inplace",
						"label": "struct Data.Card",
						"members": [
							{
								"astId": 23,
								"contract": "contracts/3_Data.sol:Data",
								"label": "name",
								"offset": 0,
								"slot": "0",
								"type": "t_bytes32"
							},
							{
								"astId": 25,
								"contract": "contracts/3_Data.sol:Data",
								"label": "ID",
								"offset": 0,
								"slot": "1",
								"type": "t_uint256"
							}
						],
						"numberOfBytes": "64"
					},
					"t_struct(Patient)21_storage": {
						"encoding": "inplace",
						"label": "struct Data.Patient",
						"members": [
							{
								"astId": 4,
								"contract": "contracts/3_Data.sol:Data",
								"label": "ID",
								"offset": 0,
								"slot": "0",
								"type": "t_uint256"
							},
							{
								"astId": 6,
								"contract": "contracts/3_Data.sol:Data",
								"label": "healthy",
								"offset": 0,
								"slot": "1",
								"type": "t_uint256"
							},
							{
								"astId": 8,
								"contract": "contracts/3_Data.sol:Data",
								"label": "name",
								"offset": 0,
								"slot": "2",
								"type": "t_string_storage"
							},
							{
								"astId": 10,
								"contract": "contracts/3_Data.sol:Data",
								"label": "disease",
								"offset": 0,
								"slot": "3",
								"type": "t_string_storage"
							},
							{
								"astId": 12,
								"contract": "contracts/3_Data.sol:Data",
								"label": "medicines",
								"offset": 0,
								"slot": "4",
								"type": "t_string_storage"
							},
							{
								"astId": 14,
								"contract": "contracts/3_Data.sol:Data",
								"label": "reg",
								"offset": 0,
								"slot": "5",
								"type": "t_bool"
							},
							{
								"astId": 16,
								"contract": "contracts/3_Data.sol:Data",
								"label": "key",
								"offset": 0,
								"slot": "6",
								"type": "t_uint256"
							},
							{
								"astId": 18,
								"contract": "contracts/3_Data.sol:Data",
								"label": "client",
								"offset": 0,
								"slot": "7",
								"type": "t_address_payable"
							},
							{
								"astId": 20,
								"contract": "contracts/3_Data.sol:Data",
								"label": "dest",
								"offset": 0,
								"slot": "8",
								"type": "t_address_payable"
							}
						],
						"numberOfBytes": "288"
					},
					"t_uint256": {
						"encoding": "inplace",
						"label": "uint256",
						"numberOfBytes": "32"
					}
				}
			},
			"userdoc": {
				"kind": "user",
				"methods": {},
				"version": 1
			}
		}
	}
}