{
	"contracts/3_Data.sol": {
		"Data": {
			"abi": [
				{
					"inputs": [],
					"stateMutability": "nonpayable",
					"type": "constructor"
				},
				{
					"anonymous": false,
					"inputs": [
						{
							"indexed": false,
							"internalType": "address",
							"name": "from",
							"type": "address"
						},
						{
							"indexed": false,
							"internalType": "address",
							"name": "to",
							"type": "address"
						},
						{
							"indexed": false,
							"internalType": "uint256",
							"name": "ID",
							"type": "uint256"
						}
					],
					"name": "Auth",
					"type": "event"
				},
				{
					"inputs": [
						{
							"internalType": "address",
							"name": "to",
							"type": "address"
						},
						{
							"internalType": "uint256",
							"name": "ID",
							"type": "uint256"
						}
					],
					"name": "authCheck",
					"outputs": [
						{
							"internalType": "bool",
							"name": "success",
							"type": "bool"
						}
					],
					"stateMutability": "nonpayable",
					"type": "function"
				},
				{
					"inputs": [
						{
							"internalType": "uint256",
							"name": "",
							"type": "uint256"
						}
					],
					"name": "author",
					"outputs": [
						{
							"internalType": "address",
							"name": "",
							"type": "address"
						}
					],
					"stateMutability": "view",
					"type": "function"
				},
				{
					"inputs": [
						{
							"internalType": "uint256",
							"name": "",
							"type": "uint256"
						}
					],
					"name": "cards",
					"outputs": [
						{
							"internalType": "bytes32",
							"name": "name",
							"type": "bytes32"
						},
						{
							"internalType": "uint256",
							"name": "ID",
							"type": "uint256"
						}
					],
					"stateMutability": "view",
					"type": "function"
				},
				{
					"inputs": [
						{
							"internalType": "address",
							"name": "test",
							"type": "address"
						}
					],
					"name": "fetchData",
					"outputs": [
						{
							"internalType": "bool",
							"name": "",
							"type": "bool"
						}
					],
					"stateMutability": "nonpayable",
					"type": "function"
				},
				{
					"inputs": [
						{
							"internalType": "address",
							"name": "",
							"type": "address"
						}
					],
					"name": "patients",
					"outputs": [
						{
							"internalType": "uint256",
							"name": "ID",
							"type": "uint256"
						},
						{
							"internalType": "uint256",
							"name": "healthy",
							"type": "uint256"
						},
						{
							"internalType": "string",
							"name": "name",
							"type": "string"
						},
						{
							"internalType": "string",
							"name": "disease",
							"type": "string"
						},
						{
							"internalType": "string",
							"name": "medicines",
							"type": "string"
						},
						{
							"internalType": "bool",
							"name": "reg",
							"type": "bool"
						},
						{
							"internalType": "uint256",
							"name": "key",
							"type": "uint256"
						},
						{
							"internalType": "address payable",
							"name": "client",
							"type": "address"
						},
						{
							"internalType": "address payable",
							"name": "dest",
							"type": "address"
						}
					],
					"stateMutability": "view",
					"type": "function"
				},
				{
					"inputs": [
						{
							"internalType": "uint256",
							"name": "_healthy",
							"type": "uint256"
						},
						{
							"internalType": "string",
							"name": "_name",
							"type": "string"
						},
						{
							"internalType": "string",
							"name": "_disease",
							"type": "string"
						},
						{
							"internalType": "string",
							"name": "_medicine",
							"type": "string"
						}
					],
					"name": "registerPatient",
					"outputs": [],
					"stateMutability": "nonpayable",
					"type": "function"
				}
			],
			"devdoc": {
				"details": "Implements Patient data along with verification",
				"kind": "dev",
				"methods": {},
				"title": "Data",
				"version": 1
			},
			"evm": {
				"assembly": "    /* \"contracts/3_Data.sol\":153:2030  contract Data {... */\n  mstore(0x40, 0x80)\n    /* \"contracts/3_Data.sol\":846:905  constructor() {... */\n  callvalue\n  dup1\n  iszero\n  tag_1\n  jumpi\n  0x00\n  dup1\n  revert\ntag_1:\n  pop\n    /* \"contracts/3_Data.sol\":888:898  msg.sender */\n  caller\n    /* \"contracts/3_Data.sol\":870:876  author */\n  0x01\n    /* \"contracts/3_Data.sol\":877:884  counter */\n  sload(0x00)\n    /* \"contracts/3_Data.sol\":870:885  author[counter] */\n  dup2\n  sload\n  dup2\n  lt\n  tag_4\n  jumpi\n  tag_5\n  tag_6\n  jump\t// in\ntag_5:\ntag_4:\n  swap1\n  0x00\n  mstore\n  keccak256(0x00, 0x20)\n  add\n  0x00\n    /* \"contracts/3_Data.sol\":870:898  author[counter] = msg.sender */\n  0x0100\n  exp\n  dup2\n  sload\n  dup2\n  0xffffffffffffffffffffffffffffffffffffffff\n  mul\n  not\n  and\n  swap1\n  dup4\n  0xffffffffffffffffffffffffffffffffffffffff\n  and\n  mul\n  or\n  swap1\n  sstore\n  pop\n    /* \"contracts/3_Data.sol\":153:2030  contract Data {... */\n  jump(tag_8)\n    /* \"#utility.yul\":7:187   */\ntag_6:\n    /* \"#utility.yul\":55:132   */\n  0x4e487b7100000000000000000000000000000000000000000000000000000000\n    /* \"#utility.yul\":52:53   */\n  0x00\n    /* \"#utility.yul\":45:133   */\n  mstore\n    /* \"#utility.yul\":152:156   */\n  0x32\n    /* \"#utility.yul\":149:150   */\n  0x04\n    /* \"#utility.yul\":142:157   */\n  mstore\n    /* \"#utility.yul\":176:180   */\n  0x24\n    /* \"#utility.yul\":173:174   */\n  0x00\n    /* \"#utility.yul\":166:181   */\n  revert\n    /* \"contracts/3_Data.sol\":153:2030  contract Data {... */\ntag_8:\n  dataSize(sub_0)\n  dup1\n  dataOffset(sub_0)\n  0x00\n  codecopy\n  0x00\n  return\nstop\n\nsub_0: assembly {\n        /* \"contracts/3_Data.sol\":153:2030  contract Data {... */\n      mstore(0x40, 0x80)\n      callvalue\n      dup1\n      iszero\n      tag_1\n      jumpi\n      0x00\n      dup1\n      revert\n    tag_1:\n      pop\n      jumpi(tag_2, lt(calldatasize, 0x04))\n      shr(0xe0, calldataload(0x00))\n      dup1\n      0x0869cfbc\n      eq\n      tag_3\n      jumpi\n      dup1\n      0x89c47f08\n      eq\n      tag_4\n      jumpi\n      dup1\n      0x8dc10768\n      eq\n      tag_5\n      jumpi\n      dup1\n      0xc4bfd57d\n      eq\n      tag_6\n      jumpi\n      dup1\n      0xd651893d\n      eq\n      tag_7\n      jumpi\n      dup1\n      0xec4eb442\n      eq\n      tag_8\n      jumpi\n    tag_2:\n      0x00\n      dup1\n      revert\n        /* \"contracts/3_Data.sol\":770:813  mapping(address => Patient) public patients */\n    tag_3:\n      tag_9\n      0x04\n      dup1\n      calldatasize\n      sub\n      dup2\n      add\n      swap1\n      tag_10\n      swap2\n      swap1\n      tag_11\n      jump\t// in\n    tag_10:\n      tag_12\n      jump\t// in\n    tag_9:\n      mload(0x40)\n      tag_13\n      swap10\n      swap9\n      swap8\n      swap7\n      swap6\n      swap5\n      swap4\n      swap3\n      swap2\n      swap1\n      tag_14\n      jump\t// in\n    tag_13:\n      mload(0x40)\n      dup1\n      swap2\n      sub\n      swap1\n      return\n        /* \"contracts/3_Data.sol\":1286:1806  function registerPatient(uint _healthy, string memory _name, string memory _disease, string memory _medicine) external {... */\n    tag_4:\n      tag_15\n      0x04\n      dup1\n      calldatasize\n      sub\n      dup2\n      add\n      swap1\n      tag_16\n      swap2\n      swap1\n      tag_17\n      jump\t// in\n    tag_16:\n      tag_18\n      jump\t// in\n    tag_15:\n      stop\n        /* \"contracts/3_Data.sol\":820:839  Card[] public cards */\n    tag_5:\n      tag_19\n      0x04\n      dup1\n      calldatasize\n      sub\n      dup2\n      add\n      swap1\n      tag_20\n      swap2\n      swap1\n      tag_21\n      jump\t// in\n    tag_20:\n      tag_22\n      jump\t// in\n    tag_19:\n      mload(0x40)\n      tag_23\n      swap3\n      swap2\n      swap1\n      tag_24\n      jump\t// in\n    tag_23:\n      mload(0x40)\n      dup1\n      swap2\n      sub\n      swap1\n      return\n        /* \"contracts/3_Data.sol\":993:1245  function fetchData (address test) public returns(bool) {... */\n    tag_6:\n      tag_25\n      0x04\n      dup1\n      calldatasize\n      sub\n      dup2\n      add\n      swap1\n      tag_26\n      swap2\n      swap1\n      tag_11\n      jump\t// in\n    tag_26:\n      tag_27\n      jump\t// in\n    tag_25:\n      mload(0x40)\n      tag_28\n      swap2\n      swap1\n      tag_29\n      jump\t// in\n    tag_28:\n      mload(0x40)\n      dup1\n      swap2\n      sub\n      swap1\n      return\n        /* \"contracts/3_Data.sol\":1844:2028  function authCheck(address to, uint ID) external returns (bool success) {... */\n    tag_7:\n      tag_30\n      0x04\n      dup1\n      calldatasize\n      sub\n      dup2\n      add\n      swap1\n      tag_31\n      swap2\n      swap1\n      tag_32\n      jump\t// in\n    tag_31:\n      tag_33\n      jump\t// in\n    tag_30:\n      mload(0x40)\n      tag_34\n      swap2\n      swap1\n      tag_29\n      jump\t// in\n    tag_34:\n      mload(0x40)\n      dup1\n      swap2\n      sub\n      swap1\n      return\n        /* \"contracts/3_Data.sol\":739:763  address [] public author */\n    tag_8:\n      tag_35\n      0x04\n      dup1\n      calldatasize\n      sub\n      dup2\n      add\n      swap1\n      tag_36\n      swap2\n      swap1\n      tag_21\n      jump\t// in\n    tag_36:\n      tag_37\n      jump\t// in\n    tag_35:\n      mload(0x40)\n      tag_38\n      swap2\n      swap1\n      tag_39\n      jump\t// in\n    tag_38:\n      mload(0x40)\n      dup1\n      swap2\n      sub\n      swap1\n      return\n        /* \"contracts/3_Data.sol\":770:813  mapping(address => Patient) public patients */\n    tag_12:\n      mstore(0x20, 0x02)\n      dup1\n      0x00\n      mstore\n      keccak256(0x00, 0x40)\n      0x00\n      swap2\n      pop\n      swap1\n      pop\n      dup1\n      0x00\n      add\n      sload\n      swap1\n      dup1\n      0x01\n      add\n      sload\n      swap1\n      dup1\n      0x02\n      add\n      dup1\n      sload\n      tag_40\n      swap1\n      tag_41\n      jump\t// in\n    tag_40:\n      dup1\n      0x1f\n      add\n      0x20\n      dup1\n      swap2\n      div\n      mul\n      0x20\n      add\n      mload(0x40)\n      swap1\n      dup2\n      add\n      0x40\n      mstore\n      dup1\n      swap3\n      swap2\n      swap1\n      dup2\n      dup2\n      mstore\n      0x20\n      add\n      dup3\n      dup1\n      sload\n      tag_42\n      swap1\n      tag_41\n      jump\t// in\n    tag_42:\n      dup1\n      iszero\n      tag_43\n      jumpi\n      dup1\n      0x1f\n      lt\n      tag_44\n      jumpi\n      0x0100\n      dup1\n      dup4\n      sload\n      div\n      mul\n      dup4\n      mstore\n      swap2\n      0x20\n      add\n      swap2\n      jump(tag_43)\n    tag_44:\n      dup3\n      add\n      swap2\n      swap1\n      0x00\n      mstore\n      keccak256(0x00, 0x20)\n      swap1\n    tag_45:\n      dup2\n      sload\n      dup2\n      mstore\n      swap1\n      0x01\n      add\n      swap1\n      0x20\n      add\n      dup1\n      dup4\n      gt\n      tag_45\n      jumpi\n      dup3\n      swap1\n      sub\n      0x1f\n      and\n      dup3\n      add\n      swap2\n    tag_43:\n      pop\n      pop\n      pop\n      pop\n      pop\n      swap1\n      dup1\n      0x03\n      add\n      dup1\n      sload\n      tag_46\n      swap1\n      tag_41\n      jump\t// in\n    tag_46:\n      dup1\n      0x1f\n      add\n      0x20\n      dup1\n      swap2\n      div\n      mul\n      0x20\n      add\n      mload(0x40)\n      swap1\n      dup2\n      add\n      0x40\n      mstore\n      dup1\n      swap3\n      swap2\n      swap1\n      dup2\n      dup2\n      mstore\n      0x20\n      add\n      dup3\n      dup1\n      sload\n      tag_47\n      swap1\n      tag_41\n      jump\t// in\n    tag_47:\n      dup1\n      iszero\n      tag_48\n      jumpi\n      dup1\n      0x1f\n      lt\n      tag_49\n      jumpi\n      0x0100\n      dup1\n      dup4\n      sload\n      div\n      mul\n      dup4\n      mstore\n      swap2\n      0x20\n      add\n      swap2\n      jump(tag_48)\n    tag_49:\n      dup3\n      add\n      swap2\n      swap1\n      0x00\n      mstore\n      keccak256(0x00, 0x20)\n      swap1\n    tag_50:\n      dup2\n      sload\n      dup2\n      mstore\n      swap1\n      0x01\n      add\n      swap1\n      0x20\n      add\n      dup1\n      dup4\n      gt\n      tag_50\n      jumpi\n      dup3\n      swap1\n      sub\n      0x1f\n      and\n      dup3\n      add\n      swap2\n    tag_48:\n      pop\n      pop\n      pop\n      pop\n      pop\n      swap1\n      dup1\n      0x04\n      add\n      dup1\n      sload\n      tag_51\n      swap1\n      tag_41\n      jump\t// in\n    tag_51:\n      dup1\n      0x1f\n      add\n      0x20\n      dup1\n      swap2\n      div\n      mul\n      0x20\n      add\n      mload(0x40)\n      swap1\n      dup2\n      add\n      0x40\n      mstore\n      dup1\n      swap3\n      swap2\n      swap1\n      dup2\n      dup2\n      mstore\n      0x20\n      add\n      dup3\n      dup1\n      sload\n      tag_52\n      swap1\n      tag_41\n      jump\t// in\n    tag_52:\n      dup1\n      iszero\n      tag_53\n      jumpi\n      dup1\n      0x1f\n      lt\n      tag_54\n      jumpi\n      0x0100\n      dup1\n      dup4\n      sload\n      div\n      mul\n      dup4\n      mstore\n      swap2\n      0x20\n      add\n      swap2\n      jump(tag_53)\n    tag_54:\n      dup3\n      add\n      swap2\n      swap1\n      0x00\n      mstore\n      keccak256(0x00, 0x20)\n      swap1\n    tag_55:\n      dup2\n      sload\n      dup2\n      mstore\n      swap1\n      0x01\n      add\n      swap1\n      0x20\n      add\n      dup1\n      dup4\n      gt\n      tag_55\n      jumpi\n      dup3\n      swap1\n      sub\n      0x1f\n      and\n      dup3\n      add\n      swap2\n    tag_53:\n      pop\n      pop\n      pop\n      pop\n      pop\n      swap1\n      dup1\n      0x05\n      add\n      0x00\n      swap1\n      sload\n      swap1\n      0x0100\n      exp\n      swap1\n      div\n      0xff\n      and\n      swap1\n      dup1\n      0x06\n      add\n      sload\n      swap1\n      dup1\n      0x07\n      add\n      0x00\n      swap1\n      sload\n      swap1\n      0x0100\n      exp\n      swap1\n      div\n      0xffffffffffffffffffffffffffffffffffffffff\n      and\n      swap1\n      dup1\n      0x08\n      add\n      0x00\n      swap1\n      sload\n      swap1\n      0x0100\n      exp\n      swap1\n      div\n      0xffffffffffffffffffffffffffffffffffffffff\n      and\n      swap1\n      pop\n      dup10\n      jump\t// out\n        /* \"contracts/3_Data.sol\":1286:1806  function registerPatient(uint _healthy, string memory _name, string memory _disease, string memory _medicine) external {... */\n    tag_18:\n        /* \"contracts/3_Data.sol\":1437:1445  patients */\n      0x02\n        /* \"contracts/3_Data.sol\":1437:1462  patients[author[counter]] */\n      0x00\n        /* \"contracts/3_Data.sol\":1446:1452  author */\n      0x01\n        /* \"contracts/3_Data.sol\":1453:1460  counter */\n      sload(0x00)\n        /* \"contracts/3_Data.sol\":1446:1461  author[counter] */\n      dup2\n      sload\n      dup2\n      lt\n      tag_57\n      jumpi\n      tag_58\n      tag_59\n      jump\t// in\n    tag_58:\n    tag_57:\n      swap1\n      0x00\n      mstore\n      keccak256(0x00, 0x20)\n      add\n      0x00\n      swap1\n      sload\n      swap1\n      0x0100\n      exp\n      swap1\n      div\n      0xffffffffffffffffffffffffffffffffffffffff\n      and\n        /* \"contracts/3_Data.sol\":1437:1462  patients[author[counter]] */\n      0xffffffffffffffffffffffffffffffffffffffff\n      and\n      0xffffffffffffffffffffffffffffffffffffffff\n      and\n      dup2\n      mstore\n      0x20\n      add\n      swap1\n      dup2\n      mstore\n      0x20\n      add\n      0x00\n      keccak256\n        /* \"contracts/3_Data.sol\":1437:1466  patients[author[counter]].reg */\n      0x05\n      add\n      0x00\n      swap1\n      sload\n      swap1\n      0x0100\n      exp\n      swap1\n      div\n      0xff\n      and\n        /* \"contracts/3_Data.sol\":1436:1466  !patients[author[counter]].reg */\n      iszero\n        /* \"contracts/3_Data.sol\":1415:1521  require(... */\n      tag_61\n      jumpi\n      mload(0x40)\n      0x08c379a000000000000000000000000000000000000000000000000000000000\n      dup2\n      mstore\n      0x04\n      add\n      tag_62\n      swap1\n      tag_63\n      jump\t// in\n    tag_62:\n      mload(0x40)\n      dup1\n      swap2\n      sub\n      swap1\n      revert\n    tag_61:\n        /* \"contracts/3_Data.sol\":1567:1575  _healthy */\n      dup4\n        /* \"contracts/3_Data.sol\":1531:1539  patients */\n      0x02\n        /* \"contracts/3_Data.sol\":1531:1556  patients[author[counter]] */\n      0x00\n        /* \"contracts/3_Data.sol\":1540:1546  author */\n      0x01\n        /* \"contracts/3_Data.sol\":1547:1554  counter */\n      sload(0x00)\n        /* \"contracts/3_Data.sol\":1540:1555  author[counter] */\n      dup2\n      sload\n      dup2\n      lt\n      tag_64\n      jumpi\n      tag_65\n      tag_59\n      jump\t// in\n    tag_65:\n    tag_64:\n      swap1\n      0x00\n      mstore\n      keccak256(0x00, 0x20)\n      add\n      0x00\n      swap1\n      sload\n      swap1\n      0x0100\n      exp\n      swap1\n      div\n      0xffffffffffffffffffffffffffffffffffffffff\n      and\n        /* \"contracts/3_Data.sol\":1531:1556  patients[author[counter]] */\n      0xffffffffffffffffffffffffffffffffffffffff\n      and\n      0xffffffffffffffffffffffffffffffffffffffff\n      and\n      dup2\n      mstore\n      0x20\n      add\n      swap1\n      dup2\n      mstore\n      0x20\n      add\n      0x00\n      keccak256\n        /* \"contracts/3_Data.sol\":1531:1564  patients[author[counter]].healthy */\n      0x01\n      add\n        /* \"contracts/3_Data.sol\":1531:1575  patients[author[counter]].healthy = _healthy */\n      dup2\n      swap1\n      sstore\n      pop\n        /* \"contracts/3_Data.sol\":1618:1623  _name */\n      dup3\n        /* \"contracts/3_Data.sol\":1585:1593  patients */\n      0x02\n        /* \"contracts/3_Data.sol\":1585:1610  patients[author[counter]] */\n      0x00\n        /* \"contracts/3_Data.sol\":1594:1600  author */\n      0x01\n        /* \"contracts/3_Data.sol\":1601:1608  counter */\n      sload(0x00)\n        /* \"contracts/3_Data.sol\":1594:1609  author[counter] */\n      dup2\n      sload\n      dup2\n      lt\n      tag_67\n      jumpi\n      tag_68\n      tag_59\n      jump\t// in\n    tag_68:\n    tag_67:\n      swap1\n      0x00\n      mstore\n      keccak256(0x00, 0x20)\n      add\n      0x00\n      swap1\n      sload\n      swap1\n      0x0100\n      exp\n      swap1\n      div\n      0xffffffffffffffffffffffffffffffffffffffff\n      and\n        /* \"contracts/3_Data.sol\":1585:1610  patients[author[counter]] */\n      0xffffffffffffffffffffffffffffffffffffffff\n      and\n      0xffffffffffffffffffffffffffffffffffffffff\n      and\n      dup2\n      mstore\n      0x20\n      add\n      swap1\n      dup2\n      mstore\n      0x20\n      add\n      0x00\n      keccak256\n        /* \"contracts/3_Data.sol\":1585:1615  patients[author[counter]].name */\n      0x02\n      add\n        /* \"contracts/3_Data.sol\":1585:1623  patients[author[counter]].name = _name */\n      swap1\n      dup1\n      mload\n      swap1\n      0x20\n      add\n      swap1\n      tag_70\n      swap3\n      swap2\n      swap1\n      tag_71\n      jump\t// in\n    tag_70:\n      pop\n        /* \"contracts/3_Data.sol\":1669:1677  _disease */\n      dup2\n        /* \"contracts/3_Data.sol\":1633:1641  patients */\n      0x02\n        /* \"contracts/3_Data.sol\":1633:1658  patients[author[counter]] */\n      0x00\n        /* \"contracts/3_Data.sol\":1642:1648  author */\n      0x01\n        /* \"contracts/3_Data.sol\":1649:1656  counter */\n      sload(0x00)\n        /* \"contracts/3_Data.sol\":1642:1657  author[counter] */\n      dup2\n      sload\n      dup2\n      lt\n      tag_72\n      jumpi\n      tag_73\n      tag_59\n      jump\t// in\n    tag_73:\n    tag_72:\n      swap1\n      0x00\n      mstore\n      keccak256(0x00, 0x20)\n      add\n      0x00\n      swap1\n      sload\n      swap1\n      0x0100\n      exp\n      swap1\n      div\n      0xffffffffffffffffffffffffffffffffffffffff\n      and\n        /* \"contracts/3_Data.sol\":1633:1658  patients[author[counter]] */\n      0xffffffffffffffffffffffffffffffffffffffff\n      and\n      0xffffffffffffffffffffffffffffffffffffffff\n      and\n      dup2\n      mstore\n      0x20\n      add\n      swap1\n      dup2\n      mstore\n      0x20\n      add\n      0x00\n      keccak256\n        /* \"contracts/3_Data.sol\":1633:1666  patients[author[counter]].disease */\n      0x03\n      add\n        /* \"contracts/3_Data.sol\":1633:1677  patients[author[counter]].disease = _disease */\n      swap1\n      dup1\n      mload\n      swap1\n      0x20\n      add\n      swap1\n      tag_75\n      swap3\n      swap2\n      swap1\n      tag_71\n      jump\t// in\n    tag_75:\n      pop\n        /* \"contracts/3_Data.sol\":1725:1734  _medicine */\n      dup1\n        /* \"contracts/3_Data.sol\":1687:1695  patients */\n      0x02\n        /* \"contracts/3_Data.sol\":1687:1712  patients[author[counter]] */\n      0x00\n        /* \"contracts/3_Data.sol\":1696:1702  author */\n      0x01\n        /* \"contracts/3_Data.sol\":1703:1710  counter */\n      sload(0x00)\n        /* \"contracts/3_Data.sol\":1696:1711  author[counter] */\n      dup2\n      sload\n      dup2\n      lt\n      tag_76\n      jumpi\n      tag_77\n      tag_59\n      jump\t// in\n    tag_77:\n    tag_76:\n      swap1\n      0x00\n      mstore\n      keccak256(0x00, 0x20)\n      add\n      0x00\n      swap1\n      sload\n      swap1\n      0x0100\n      exp\n      swap1\n      div\n      0xffffffffffffffffffffffffffffffffffffffff\n      and\n        /* \"contracts/3_Data.sol\":1687:1712  patients[author[counter]] */\n      0xffffffffffffffffffffffffffffffffffffffff\n      and\n      0xffffffffffffffffffffffffffffffffffffffff\n      and\n      dup2\n      mstore\n      0x20\n      add\n      swap1\n      dup2\n      mstore\n      0x20\n      add\n      0x00\n      keccak256\n        /* \"contracts/3_Data.sol\":1687:1722  patients[author[counter]].medicines */\n      0x04\n      add\n        /* \"contracts/3_Data.sol\":1687:1734  patients[author[counter]].medicines = _medicine */\n      swap1\n      dup1\n      mload\n      swap1\n      0x20\n      add\n      swap1\n      tag_79\n      swap3\n      swap2\n      swap1\n      tag_71\n      jump\t// in\n    tag_79:\n      pop\n        /* \"contracts/3_Data.sol\":1776:1780  true */\n      0x01\n        /* \"contracts/3_Data.sol\":1744:1752  patients */\n      0x02\n        /* \"contracts/3_Data.sol\":1744:1769  patients[author[counter]] */\n      0x00\n        /* \"contracts/3_Data.sol\":1753:1759  author */\n      0x01\n        /* \"contracts/3_Data.sol\":1760:1767  counter */\n      sload(0x00)\n        /* \"contracts/3_Data.sol\":1753:1768  author[counter] */\n      dup2\n      sload\n      dup2\n      lt\n      tag_80\n      jumpi\n      tag_81\n      tag_59\n      jump\t// in\n    tag_81:\n    tag_80:\n      swap1\n      0x00\n      mstore\n      keccak256(0x00, 0x20)\n      add\n      0x00\n      swap1\n      sload\n      swap1\n      0x0100\n      exp\n      swap1\n      div\n      0xffffffffffffffffffffffffffffffffffffffff\n      and\n        /* \"contracts/3_Data.sol\":1744:1769  patients[author[counter]] */\n      0xffffffffffffffffffffffffffffffffffffffff\n      and\n      0xffffffffffffffffffffffffffffffffffffffff\n      and\n      dup2\n      mstore\n      0x20\n      add\n      swap1\n      dup2\n      mstore\n      0x20\n      add\n      0x00\n      keccak256\n        /* \"contracts/3_Data.sol\":1744:1773  patients[author[counter]].reg */\n      0x05\n      add\n      0x00\n        /* \"contracts/3_Data.sol\":1744:1780  patients[author[counter]].reg = true */\n      0x0100\n      exp\n      dup2\n      sload\n      dup2\n      0xff\n      mul\n      not\n      and\n      swap1\n      dup4\n      iszero\n      iszero\n      mul\n      or\n      swap1\n      sstore\n      pop\n        /* \"contracts/3_Data.sol\":1790:1797  counter */\n      0x00\n      dup1\n        /* \"contracts/3_Data.sol\":1790:1799  counter++ */\n      dup2\n      sload\n      dup1\n      swap3\n      swap2\n      swap1\n      tag_83\n      swap1\n      tag_84\n      jump\t// in\n    tag_83:\n      swap2\n      swap1\n      pop\n      sstore\n      pop\n        /* \"contracts/3_Data.sol\":1286:1806  function registerPatient(uint _healthy, string memory _name, string memory _disease, string memory _medicine) external {... */\n      pop\n      pop\n      pop\n      pop\n      jump\t// out\n        /* \"contracts/3_Data.sol\":820:839  Card[] public cards */\n    tag_22:\n      0x03\n      dup2\n      dup2\n      sload\n      dup2\n      lt\n      tag_85\n      jumpi\n      0x00\n      dup1\n      revert\n    tag_85:\n      swap1\n      0x00\n      mstore\n      keccak256(0x00, 0x20)\n      swap1\n      0x02\n      mul\n      add\n      0x00\n      swap2\n      pop\n      swap1\n      pop\n      dup1\n      0x00\n      add\n      sload\n      swap1\n      dup1\n      0x01\n      add\n      sload\n      swap1\n      pop\n      dup3\n      jump\t// out\n        /* \"contracts/3_Data.sol\":993:1245  function fetchData (address test) public returns(bool) {... */\n    tag_27:\n        /* \"contracts/3_Data.sol\":1042:1046  bool */\n      0x00\n        /* \"contracts/3_Data.sol\":1062:1068  uint i */\n      dup1\n        /* \"contracts/3_Data.sol\":1069:1070  0 */\n      0x00\n        /* \"contracts/3_Data.sol\":1062:1070  uint i=0 */\n      swap1\n      pop\n        /* \"contracts/3_Data.sol\":1058:1217  for(uint i=0; i < counter; i++)... */\n    tag_88:\n        /* \"contracts/3_Data.sol\":1076:1083  counter */\n      sload(0x00)\n        /* \"contracts/3_Data.sol\":1072:1073  i */\n      dup2\n        /* \"contracts/3_Data.sol\":1072:1083  i < counter */\n      lt\n        /* \"contracts/3_Data.sol\":1058:1217  for(uint i=0; i < counter; i++)... */\n      iszero\n      tag_89\n      jumpi\n        /* \"contracts/3_Data.sol\":1145:1149  test */\n      dup3\n        /* \"contracts/3_Data.sol\":1115:1149  patients[author[i]].client == test */\n      0xffffffffffffffffffffffffffffffffffffffff\n      and\n        /* \"contracts/3_Data.sol\":1115:1123  patients */\n      0x02\n        /* \"contracts/3_Data.sol\":1115:1134  patients[author[i]] */\n      0x00\n        /* \"contracts/3_Data.sol\":1124:1130  author */\n      0x01\n        /* \"contracts/3_Data.sol\":1131:1132  i */\n      dup5\n        /* \"contracts/3_Data.sol\":1124:1133  author[i] */\n      dup2\n      sload\n      dup2\n      lt\n      tag_91\n      jumpi\n      tag_92\n      tag_59\n      jump\t// in\n    tag_92:\n    tag_91:\n      swap1\n      0x00\n      mstore\n      keccak256(0x00, 0x20)\n      add\n      0x00\n      swap1\n      sload\n      swap1\n      0x0100\n      exp\n      swap1\n      div\n      0xffffffffffffffffffffffffffffffffffffffff\n      and\n        /* \"contracts/3_Data.sol\":1115:1134  patients[author[i]] */\n      0xffffffffffffffffffffffffffffffffffffffff\n      and\n      0xffffffffffffffffffffffffffffffffffffffff\n      and\n      dup2\n      mstore\n      0x20\n      add\n      swap1\n      dup2\n      mstore\n      0x20\n      add\n      0x00\n      keccak256\n        /* \"contracts/3_Data.sol\":1115:1141  patients[author[i]].client */\n      0x07\n      add\n      0x00\n      swap1\n      sload\n      swap1\n      0x0100\n      exp\n      swap1\n      div\n      0xffffffffffffffffffffffffffffffffffffffff\n      and\n        /* \"contracts/3_Data.sol\":1115:1149  patients[author[i]].client == test */\n      0xffffffffffffffffffffffffffffffffffffffff\n      and\n      eq\n        /* \"contracts/3_Data.sol\":1112:1207  if(patients[author[i]].client == test)... */\n      iszero\n      tag_94\n      jumpi\n        /* \"contracts/3_Data.sol\":1188:1192  true */\n      0x01\n        /* \"contracts/3_Data.sol\":1181:1192  return true */\n      swap2\n      pop\n      pop\n      jump(tag_87)\n        /* \"contracts/3_Data.sol\":1112:1207  if(patients[author[i]].client == test)... */\n    tag_94:\n        /* \"contracts/3_Data.sol\":1085:1088  i++ */\n      dup1\n      dup1\n      tag_95\n      swap1\n      tag_84\n      jump\t// in\n    tag_95:\n      swap2\n      pop\n      pop\n        /* \"contracts/3_Data.sol\":1058:1217  for(uint i=0; i < counter; i++)... */\n      jump(tag_88)\n    tag_89:\n      pop\n        /* \"contracts/3_Data.sol\":1233:1238  false */\n      0x00\n        /* \"contracts/3_Data.sol\":1226:1238  return false */\n      swap1\n      pop\n        /* \"contracts/3_Data.sol\":993:1245  function fetchData (address test) public returns(bool) {... */\n    tag_87:\n      swap2\n      swap1\n      pop\n      jump\t// out\n        /* \"contracts/3_Data.sol\":1844:2028  function authCheck(address to, uint ID) external returns (bool success) {... */\n    tag_33:\n        /* \"contracts/3_Data.sol\":1902:1914  bool success */\n      0x00\n        /* \"contracts/3_Data.sol\":1976:2000  Auth(msg.sender, to, ID) */\n      0x58c2fddd8dd62ff60b8d81a7cc2f875fbb9a00d3522b61dfdc9155de54546d6f\n        /* \"contracts/3_Data.sol\":1981:1991  msg.sender */\n      caller\n        /* \"contracts/3_Data.sol\":1993:1995  to */\n      dup5\n        /* \"contracts/3_Data.sol\":1997:1999  ID */\n      dup5\n        /* \"contracts/3_Data.sol\":1976:2000  Auth(msg.sender, to, ID) */\n      mload(0x40)\n      tag_97\n      swap4\n      swap3\n      swap2\n      swap1\n      tag_98\n      jump\t// in\n    tag_97:\n      mload(0x40)\n      dup1\n      swap2\n      sub\n      swap1\n      log1\n        /* \"contracts/3_Data.sol\":2017:2021  true */\n      0x01\n        /* \"contracts/3_Data.sol\":2010:2021  return true */\n      swap1\n      pop\n        /* \"contracts/3_Data.sol\":1844:2028  function authCheck(address to, uint ID) external returns (bool success) {... */\n      swap3\n      swap2\n      pop\n      pop\n      jump\t// out\n        /* \"contracts/3_Data.sol\":739:763  address [] public author */\n    tag_37:\n      0x01\n      dup2\n      dup2\n      sload\n      dup2\n      lt\n      tag_99\n      jumpi\n      0x00\n      dup1\n      revert\n    tag_99:\n      swap1\n      0x00\n      mstore\n      keccak256(0x00, 0x20)\n      add\n      0x00\n      swap2\n      pop\n      sload\n      swap1\n      0x0100\n      exp\n      swap1\n      div\n      0xffffffffffffffffffffffffffffffffffffffff\n      and\n      dup2\n      jump\t// out\n    tag_71:\n      dup3\n      dup1\n      sload\n      tag_101\n      swap1\n      tag_41\n      jump\t// in\n    tag_101:\n      swap1\n      0x00\n      mstore\n      keccak256(0x00, 0x20)\n      swap1\n      0x1f\n      add\n      0x20\n      swap1\n      div\n      dup2\n      add\n      swap3\n      dup3\n      tag_103\n      jumpi\n      0x00\n      dup6\n      sstore\n      jump(tag_102)\n    tag_103:\n      dup3\n      0x1f\n      lt\n      tag_104\n      jumpi\n      dup1\n      mload\n      not(0xff)\n      and\n      dup4\n      dup1\n      add\n      or\n      dup6\n      sstore\n      jump(tag_102)\n    tag_104:\n      dup3\n      dup1\n      add\n      0x01\n      add\n      dup6\n      sstore\n      dup3\n      iszero\n      tag_102\n      jumpi\n      swap2\n      dup3\n      add\n    tag_105:\n      dup3\n      dup2\n      gt\n      iszero\n      tag_106\n      jumpi\n      dup3\n      mload\n      dup3\n      sstore\n      swap2\n      0x20\n      add\n      swap2\n      swap1\n      0x01\n      add\n      swap1\n      jump(tag_105)\n    tag_106:\n    tag_102:\n      pop\n      swap1\n      pop\n      tag_107\n      swap2\n      swap1\n      tag_108\n      jump\t// in\n    tag_107:\n      pop\n      swap1\n      jump\t// out\n    tag_108:\n    tag_109:\n      dup1\n      dup3\n      gt\n      iszero\n      tag_110\n      jumpi\n      0x00\n      dup2\n      0x00\n      swap1\n      sstore\n      pop\n      0x01\n      add\n      jump(tag_109)\n    tag_110:\n      pop\n      swap1\n      jump\t// out\n        /* \"#utility.yul\":7:419   */\n    tag_112:\n        /* \"#utility.yul\":85:90   */\n      0x00\n        /* \"#utility.yul\":110:176   */\n      tag_114\n        /* \"#utility.yul\":126:175   */\n      tag_115\n        /* \"#utility.yul\":168:174   */\n      dup5\n        /* \"#utility.yul\":126:175   */\n      tag_116\n      jump\t// in\n    tag_115:\n        /* \"#utility.yul\":110:176   */\n      tag_117\n      jump\t// in\n    tag_114:\n        /* \"#utility.yul\":101:176   */\n      swap1\n      pop\n        /* \"#utility.yul\":199:205   */\n      dup3\n        /* \"#utility.yul\":192:197   */\n      dup2\n        /* \"#utility.yul\":185:206   */\n      mstore\n        /* \"#utility.yul\":237:241   */\n      0x20\n        /* \"#utility.yul\":230:235   */\n      dup2\n        /* \"#utility.yul\":226:242   */\n      add\n        /* \"#utility.yul\":275:278   */\n      dup5\n        /* \"#utility.yul\":266:272   */\n      dup5\n        /* \"#utility.yul\":261:264   */\n      dup5\n        /* \"#utility.yul\":257:273   */\n      add\n        /* \"#utility.yul\":254:279   */\n      gt\n        /* \"#utility.yul\":251:363   */\n      iszero\n      tag_118\n      jumpi\n        /* \"#utility.yul\":282:361   */\n      tag_119\n      tag_120\n      jump\t// in\n    tag_119:\n        /* \"#utility.yul\":251:363   */\n    tag_118:\n        /* \"#utility.yul\":372:413   */\n      tag_121\n        /* \"#utility.yul\":406:412   */\n      dup5\n        /* \"#utility.yul\":401:404   */\n      dup3\n        /* \"#utility.yul\":396:399   */\n      dup6\n        /* \"#utility.yul\":372:413   */\n      tag_122\n      jump\t// in\n    tag_121:\n        /* \"#utility.yul\":91:419   */\n      pop\n        /* \"#utility.yul\":7:419   */\n      swap4\n      swap3\n      pop\n      pop\n      pop\n      jump\t// out\n        /* \"#utility.yul\":425:564   */\n    tag_123:\n        /* \"#utility.yul\":471:476   */\n      0x00\n        /* \"#utility.yul\":509:515   */\n      dup2\n        /* \"#utility.yul\":496:516   */\n      calldataload\n        /* \"#utility.yul\":487:516   */\n      swap1\n      pop\n        /* \"#utility.yul\":525:558   */\n      tag_125\n        /* \"#utility.yul\":552:557   */\n      dup2\n        /* \"#utility.yul\":525:558   */\n      tag_126\n      jump\t// in\n    tag_125:\n        /* \"#utility.yul\":425:564   */\n      swap3\n      swap2\n      pop\n      pop\n      jump\t// out\n        /* \"#utility.yul\":584:924   */\n    tag_127:\n        /* \"#utility.yul\":640:645   */\n      0x00\n        /* \"#utility.yul\":689:692   */\n      dup3\n        /* \"#utility.yul\":682:686   */\n      0x1f\n        /* \"#utility.yul\":674:680   */\n      dup4\n        /* \"#utility.yul\":670:687   */\n      add\n        /* \"#utility.yul\":666:693   */\n      slt\n        /* \"#utility.yul\":656:778   */\n      tag_129\n      jumpi\n        /* \"#utility.yul\":697:776   */\n      tag_130\n      tag_131\n      jump\t// in\n    tag_130:\n        /* \"#utility.yul\":656:778   */\n    tag_129:\n        /* \"#utility.yul\":814:820   */\n      dup2\n        /* \"#utility.yul\":801:821   */\n      calldataload\n        /* \"#utility.yul\":839:918   */\n      tag_132\n        /* \"#utility.yul\":914:917   */\n      dup5\n        /* \"#utility.yul\":906:912   */\n      dup3\n        /* \"#utility.yul\":899:903   */\n      0x20\n        /* \"#utility.yul\":891:897   */\n      dup7\n        /* \"#utility.yul\":887:904   */\n      add\n        /* \"#utility.yul\":839:918   */\n      tag_112\n      jump\t// in\n    tag_132:\n        /* \"#utility.yul\":830:918   */\n      swap2\n      pop\n        /* \"#utility.yul\":646:924   */\n      pop\n        /* \"#utility.yul\":584:924   */\n      swap3\n      swap2\n      pop\n      pop\n      jump\t// out\n        /* \"#utility.yul\":930:1069   */\n    tag_133:\n        /* \"#utility.yul\":976:981   */\n      0x00\n        /* \"#utility.yul\":1014:1020   */\n      dup2\n        /* \"#utility.yul\":1001:1021   */\n      calldataload\n        /* \"#utility.yul\":992:1021   */\n      swap1\n      pop\n        /* \"#utility.yul\":1030:1063   */\n      tag_135\n        /* \"#utility.yul\":1057:1062   */\n      dup2\n        /* \"#utility.yul\":1030:1063   */\n      tag_136\n      jump\t// in\n    tag_135:\n        /* \"#utility.yul\":930:1069   */\n      swap3\n      swap2\n      pop\n      pop\n      jump\t// out\n        /* \"#utility.yul\":1075:1404   */\n    tag_11:\n        /* \"#utility.yul\":1134:1140   */\n      0x00\n        /* \"#utility.yul\":1183:1185   */\n      0x20\n        /* \"#utility.yul\":1171:1180   */\n      dup3\n        /* \"#utility.yul\":1162:1169   */\n      dup5\n        /* \"#utility.yul\":1158:1181   */\n      sub\n        /* \"#utility.yul\":1154:1186   */\n      slt\n        /* \"#utility.yul\":1151:1270   */\n      iszero\n      tag_138\n      jumpi\n        /* \"#utility.yul\":1189:1268   */\n      tag_139\n      tag_140\n      jump\t// in\n    tag_139:\n        /* \"#utility.yul\":1151:1270   */\n    tag_138:\n        /* \"#utility.yul\":1309:1310   */\n      0x00\n        /* \"#utility.yul\":1334:1387   */\n      tag_141\n        /* \"#utility.yul\":1379:1386   */\n      dup5\n        /* \"#utility.yul\":1370:1376   */\n      dup3\n        /* \"#utility.yul\":1359:1368   */\n      dup6\n        /* \"#utility.yul\":1355:1377   */\n      add\n        /* \"#utility.yul\":1334:1387   */\n      tag_123\n      jump\t// in\n    tag_141:\n        /* \"#utility.yul\":1324:1387   */\n      swap2\n      pop\n        /* \"#utility.yul\":1280:1397   */\n      pop\n        /* \"#utility.yul\":1075:1404   */\n      swap3\n      swap2\n      pop\n      pop\n      jump\t// out\n        /* \"#utility.yul\":1410:1884   */\n    tag_32:\n        /* \"#utility.yul\":1478:1484   */\n      0x00\n        /* \"#utility.yul\":1486:1492   */\n      dup1\n        /* \"#utility.yul\":1535:1537   */\n      0x40\n        /* \"#utility.yul\":1523:1532   */\n      dup4\n        /* \"#utility.yul\":1514:1521   */\n      dup6\n        /* \"#utility.yul\":1510:1533   */\n      sub\n        /* \"#utility.yul\":1506:1538   */\n      slt\n        /* \"#utility.yul\":1503:1622   */\n      iszero\n      tag_143\n      jumpi\n        /* \"#utility.yul\":1541:1620   */\n      tag_144\n      tag_140\n      jump\t// in\n    tag_144:\n        /* \"#utility.yul\":1503:1622   */\n    tag_143:\n        /* \"#utility.yul\":1661:1662   */\n      0x00\n        /* \"#utility.yul\":1686:1739   */\n      tag_145\n        /* \"#utility.yul\":1731:1738   */\n      dup6\n        /* \"#utility.yul\":1722:1728   */\n      dup3\n        /* \"#utility.yul\":1711:1720   */\n      dup7\n        /* \"#utility.yul\":1707:1729   */\n      add\n        /* \"#utility.yul\":1686:1739   */\n      tag_123\n      jump\t// in\n    tag_145:\n        /* \"#utility.yul\":1676:1739   */\n      swap3\n      pop\n        /* \"#utility.yul\":1632:1749   */\n      pop\n        /* \"#utility.yul\":1788:1790   */\n      0x20\n        /* \"#utility.yul\":1814:1867   */\n      tag_146\n        /* \"#utility.yul\":1859:1866   */\n      dup6\n        /* \"#utility.yul\":1850:1856   */\n      dup3\n        /* \"#utility.yul\":1839:1848   */\n      dup7\n        /* \"#utility.yul\":1835:1857   */\n      add\n        /* \"#utility.yul\":1814:1867   */\n      tag_133\n      jump\t// in\n    tag_146:\n        /* \"#utility.yul\":1804:1867   */\n      swap2\n      pop\n        /* \"#utility.yul\":1759:1877   */\n      pop\n        /* \"#utility.yul\":1410:1884   */\n      swap3\n      pop\n      swap3\n      swap1\n      pop\n      jump\t// out\n        /* \"#utility.yul\":1890:2219   */\n    tag_21:\n        /* \"#utility.yul\":1949:1955   */\n      0x00\n        /* \"#utility.yul\":1998:2000   */\n      0x20\n        /* \"#utility.yul\":1986:1995   */\n      dup3\n        /* \"#utility.yul\":1977:1984   */\n      dup5\n        /* \"#utility.yul\":1973:1996   */\n      sub\n        /* \"#utility.yul\":1969:2001   */\n      slt\n        /* \"#utility.yul\":1966:2085   */\n      iszero\n      tag_148\n      jumpi\n        /* \"#utility.yul\":2004:2083   */\n      tag_149\n      tag_140\n      jump\t// in\n    tag_149:\n        /* \"#utility.yul\":1966:2085   */\n    tag_148:\n        /* \"#utility.yul\":2124:2125   */\n      0x00\n        /* \"#utility.yul\":2149:2202   */\n      tag_150\n        /* \"#utility.yul\":2194:2201   */\n      dup5\n        /* \"#utility.yul\":2185:2191   */\n      dup3\n        /* \"#utility.yul\":2174:2183   */\n      dup6\n        /* \"#utility.yul\":2170:2192   */\n      add\n        /* \"#utility.yul\":2149:2202   */\n      tag_133\n      jump\t// in\n    tag_150:\n        /* \"#utility.yul\":2139:2202   */\n      swap2\n      pop\n        /* \"#utility.yul\":2095:2212   */\n      pop\n        /* \"#utility.yul\":1890:2219   */\n      swap3\n      swap2\n      pop\n      pop\n      jump\t// out\n        /* \"#utility.yul\":2225:3530   */\n    tag_17:\n        /* \"#utility.yul\":2341:2347   */\n      0x00\n        /* \"#utility.yul\":2349:2355   */\n      dup1\n        /* \"#utility.yul\":2357:2363   */\n      0x00\n        /* \"#utility.yul\":2365:2371   */\n      dup1\n        /* \"#utility.yul\":2414:2417   */\n      0x80\n        /* \"#utility.yul\":2402:2411   */\n      dup6\n        /* \"#utility.yul\":2393:2400   */\n      dup8\n        /* \"#utility.yul\":2389:2412   */\n      sub\n        /* \"#utility.yul\":2385:2418   */\n      slt\n        /* \"#utility.yul\":2382:2502   */\n      iszero\n      tag_152\n      jumpi\n        /* \"#utility.yul\":2421:2500   */\n      tag_153\n      tag_140\n      jump\t// in\n    tag_153:\n        /* \"#utility.yul\":2382:2502   */\n    tag_152:\n        /* \"#utility.yul\":2541:2542   */\n      0x00\n        /* \"#utility.yul\":2566:2619   */\n      tag_154\n        /* \"#utility.yul\":2611:2618   */\n      dup8\n        /* \"#utility.yul\":2602:2608   */\n      dup3\n        /* \"#utility.yul\":2591:2600   */\n      dup9\n        /* \"#utility.yul\":2587:2609   */\n      add\n        /* \"#utility.yul\":2566:2619   */\n      tag_133\n      jump\t// in\n    tag_154:\n        /* \"#utility.yul\":2556:2619   */\n      swap5\n      pop\n        /* \"#utility.yul\":2512:2629   */\n      pop\n        /* \"#utility.yul\":2696:2698   */\n      0x20\n        /* \"#utility.yul\":2685:2694   */\n      dup6\n        /* \"#utility.yul\":2681:2699   */\n      add\n        /* \"#utility.yul\":2668:2700   */\n      calldataload\n        /* \"#utility.yul\":2727:2745   */\n      0xffffffffffffffff\n        /* \"#utility.yul\":2719:2725   */\n      dup2\n        /* \"#utility.yul\":2716:2746   */\n      gt\n        /* \"#utility.yul\":2713:2830   */\n      iszero\n      tag_155\n      jumpi\n        /* \"#utility.yul\":2749:2828   */\n      tag_156\n      tag_157\n      jump\t// in\n    tag_156:\n        /* \"#utility.yul\":2713:2830   */\n    tag_155:\n        /* \"#utility.yul\":2854:2917   */\n      tag_158\n        /* \"#utility.yul\":2909:2916   */\n      dup8\n        /* \"#utility.yul\":2900:2906   */\n      dup3\n        /* \"#utility.yul\":2889:2898   */\n      dup9\n        /* \"#utility.yul\":2885:2907   */\n      add\n        /* \"#utility.yul\":2854:2917   */\n      tag_127\n      jump\t// in\n    tag_158:\n        /* \"#utility.yul\":2844:2917   */\n      swap4\n      pop\n        /* \"#utility.yul\":2639:2927   */\n      pop\n        /* \"#utility.yul\":2994:2996   */\n      0x40\n        /* \"#utility.yul\":2983:2992   */\n      dup6\n        /* \"#utility.yul\":2979:2997   */\n      add\n        /* \"#utility.yul\":2966:2998   */\n      calldataload\n        /* \"#utility.yul\":3025:3043   */\n      0xffffffffffffffff\n        /* \"#utility.yul\":3017:3023   */\n      dup2\n        /* \"#utility.yul\":3014:3044   */\n      gt\n        /* \"#utility.yul\":3011:3128   */\n      iszero\n      tag_159\n      jumpi\n        /* \"#utility.yul\":3047:3126   */\n      tag_160\n      tag_157\n      jump\t// in\n    tag_160:\n        /* \"#utility.yul\":3011:3128   */\n    tag_159:\n        /* \"#utility.yul\":3152:3215   */\n      tag_161\n        /* \"#utility.yul\":3207:3214   */\n      dup8\n        /* \"#utility.yul\":3198:3204   */\n      dup3\n        /* \"#utility.yul\":3187:3196   */\n      dup9\n        /* \"#utility.yul\":3183:3205   */\n      add\n        /* \"#utility.yul\":3152:3215   */\n      tag_127\n      jump\t// in\n    tag_161:\n        /* \"#utility.yul\":3142:3215   */\n      swap3\n      pop\n        /* \"#utility.yul\":2937:3225   */\n      pop\n        /* \"#utility.yul\":3292:3294   */\n      0x60\n        /* \"#utility.yul\":3281:3290   */\n      dup6\n        /* \"#utility.yul\":3277:3295   */\n      add\n        /* \"#utility.yul\":3264:3296   */\n      calldataload\n        /* \"#utility.yul\":3323:3341   */\n      0xffffffffffffffff\n        /* \"#utility.yul\":3315:3321   */\n      dup2\n        /* \"#utility.yul\":3312:3342   */\n      gt\n        /* \"#utility.yul\":3309:3426   */\n      iszero\n      tag_162\n      jumpi\n        /* \"#utility.yul\":3345:3424   */\n      tag_163\n      tag_157\n      jump\t// in\n    tag_163:\n        /* \"#utility.yul\":3309:3426   */\n    tag_162:\n        /* \"#utility.yul\":3450:3513   */\n      tag_164\n        /* \"#utility.yul\":3505:3512   */\n      dup8\n        /* \"#utility.yul\":3496:3502   */\n      dup3\n        /* \"#utility.yul\":3485:3494   */\n      dup9\n        /* \"#utility.yul\":3481:3503   */\n      add\n        /* \"#utility.yul\":3450:3513   */\n      tag_127\n      jump\t// in\n    tag_164:\n        /* \"#utility.yul\":3440:3513   */\n      swap2\n      pop\n        /* \"#utility.yul\":3235:3523   */\n      pop\n        /* \"#utility.yul\":2225:3530   */\n      swap3\n      swap6\n      swap2\n      swap5\n      pop\n      swap3\n      pop\n      jump\t// out\n        /* \"#utility.yul\":3536:3678   */\n    tag_165:\n        /* \"#utility.yul\":3639:3671   */\n      tag_167\n        /* \"#utility.yul\":3665:3670   */\n      dup2\n        /* \"#utility.yul\":3639:3671   */\n      tag_168\n      jump\t// in\n    tag_167:\n        /* \"#utility.yul\":3634:3637   */\n      dup3\n        /* \"#utility.yul\":3627:3672   */\n      mstore\n        /* \"#utility.yul\":3536:3678   */\n      pop\n      pop\n      jump\t// out\n        /* \"#utility.yul\":3684:3802   */\n    tag_169:\n        /* \"#utility.yul\":3771:3795   */\n      tag_171\n        /* \"#utility.yul\":3789:3794   */\n      dup2\n        /* \"#utility.yul\":3771:3795   */\n      tag_172\n      jump\t// in\n    tag_171:\n        /* \"#utility.yul\":3766:3769   */\n      dup3\n        /* \"#utility.yul\":3759:3796   */\n      mstore\n        /* \"#utility.yul\":3684:3802   */\n      pop\n      pop\n      jump\t// out\n        /* \"#utility.yul\":3808:3917   */\n    tag_173:\n        /* \"#utility.yul\":3889:3910   */\n      tag_175\n        /* \"#utility.yul\":3904:3909   */\n      dup2\n        /* \"#utility.yul\":3889:3910   */\n      tag_176\n      jump\t// in\n    tag_175:\n        /* \"#utility.yul\":3884:3887   */\n      dup3\n        /* \"#utility.yul\":3877:3911   */\n      mstore\n        /* \"#utility.yul\":3808:3917   */\n      pop\n      pop\n      jump\t// out\n        /* \"#utility.yul\":3923:4041   */\n    tag_177:\n        /* \"#utility.yul\":4010:4034   */\n      tag_179\n        /* \"#utility.yul\":4028:4033   */\n      dup2\n        /* \"#utility.yul\":4010:4034   */\n      tag_180\n      jump\t// in\n    tag_179:\n        /* \"#utility.yul\":4005:4008   */\n      dup3\n        /* \"#utility.yul\":3998:4035   */\n      mstore\n        /* \"#utility.yul\":3923:4041   */\n      pop\n      pop\n      jump\t// out\n        /* \"#utility.yul\":4047:4411   */\n    tag_181:\n        /* \"#utility.yul\":4135:4138   */\n      0x00\n        /* \"#utility.yul\":4163:4202   */\n      tag_183\n        /* \"#utility.yul\":4196:4201   */\n      dup3\n        /* \"#utility.yul\":4163:4202   */\n      tag_184\n      jump\t// in\n    tag_183:\n        /* \"#utility.yul\":4218:4289   */\n      tag_185\n        /* \"#utility.yul\":4282:4288   */\n      dup2\n        /* \"#utility.yul\":4277:4280   */\n      dup6\n        /* \"#utility.yul\":4218:4289   */\n      tag_186\n      jump\t// in\n    tag_185:\n        /* \"#utility.yul\":4211:4289   */\n      swap4\n      pop\n        /* \"#utility.yul\":4298:4350   */\n      tag_187\n        /* \"#utility.yul\":4343:4349   */\n      dup2\n        /* \"#utility.yul\":4338:4341   */\n      dup6\n        /* \"#utility.yul\":4331:4335   */\n      0x20\n        /* \"#utility.yul\":4324:4329   */\n      dup7\n        /* \"#utility.yul\":4320:4336   */\n      add\n        /* \"#utility.yul\":4298:4350   */\n      tag_188\n      jump\t// in\n    tag_187:\n        /* \"#utility.yul\":4375:4404   */\n      tag_189\n        /* \"#utility.yul\":4397:4403   */\n      dup2\n        /* \"#utility.yul\":4375:4404   */\n      tag_190\n      jump\t// in\n    tag_189:\n        /* \"#utility.yul\":4370:4373   */\n      dup5\n        /* \"#utility.yul\":4366:4405   */\n      add\n        /* \"#utility.yul\":4359:4405   */\n      swap2\n      pop\n        /* \"#utility.yul\":4139:4411   */\n      pop\n        /* \"#utility.yul\":4047:4411   */\n      swap3\n      swap2\n      pop\n      pop\n      jump\t// out\n        /* \"#utility.yul\":4417:4783   */\n    tag_191:\n        /* \"#utility.yul\":4559:4562   */\n      0x00\n        /* \"#utility.yul\":4580:4647   */\n      tag_193\n        /* \"#utility.yul\":4644:4646   */\n      0x1d\n        /* \"#utility.yul\":4639:4642   */\n      dup4\n        /* \"#utility.yul\":4580:4647   */\n      tag_186\n      jump\t// in\n    tag_193:\n        /* \"#utility.yul\":4573:4647   */\n      swap2\n      pop\n        /* \"#utility.yul\":4656:4749   */\n      tag_194\n        /* \"#utility.yul\":4745:4748   */\n      dup3\n        /* \"#utility.yul\":4656:4749   */\n      tag_195\n      jump\t// in\n    tag_194:\n        /* \"#utility.yul\":4774:4776   */\n      0x20\n        /* \"#utility.yul\":4769:4772   */\n      dup3\n        /* \"#utility.yul\":4765:4777   */\n      add\n        /* \"#utility.yul\":4758:4777   */\n      swap1\n      pop\n        /* \"#utility.yul\":4417:4783   */\n      swap2\n      swap1\n      pop\n      jump\t// out\n        /* \"#utility.yul\":4789:4907   */\n    tag_196:\n        /* \"#utility.yul\":4876:4900   */\n      tag_198\n        /* \"#utility.yul\":4894:4899   */\n      dup2\n        /* \"#utility.yul\":4876:4900   */\n      tag_199\n      jump\t// in\n    tag_198:\n        /* \"#utility.yul\":4871:4874   */\n      dup3\n        /* \"#utility.yul\":4864:4901   */\n      mstore\n        /* \"#utility.yul\":4789:4907   */\n      pop\n      pop\n      jump\t// out\n        /* \"#utility.yul\":4913:5135   */\n    tag_39:\n        /* \"#utility.yul\":5006:5010   */\n      0x00\n        /* \"#utility.yul\":5044:5046   */\n      0x20\n        /* \"#utility.yul\":5033:5042   */\n      dup3\n        /* \"#utility.yul\":5029:5047   */\n      add\n        /* \"#utility.yul\":5021:5047   */\n      swap1\n      pop\n        /* \"#utility.yul\":5057:5128   */\n      tag_201\n        /* \"#utility.yul\":5125:5126   */\n      0x00\n        /* \"#utility.yul\":5114:5123   */\n      dup4\n        /* \"#utility.yul\":5110:5127   */\n      add\n        /* \"#utility.yul\":5101:5107   */\n      dup5\n        /* \"#utility.yul\":5057:5128   */\n      tag_169\n      jump\t// in\n    tag_201:\n        /* \"#utility.yul\":4913:5135   */\n      swap3\n      swap2\n      pop\n      pop\n      jump\t// out\n        /* \"#utility.yul\":5141:5583   */\n    tag_98:\n        /* \"#utility.yul\":5290:5294   */\n      0x00\n        /* \"#utility.yul\":5328:5330   */\n      0x60\n        /* \"#utility.yul\":5317:5326   */\n      dup3\n        /* \"#utility.yul\":5313:5331   */\n      add\n        /* \"#utility.yul\":5305:5331   */\n      swap1\n      pop\n        /* \"#utility.yul\":5341:5412   */\n      tag_203\n        /* \"#utility.yul\":5409:5410   */\n      0x00\n        /* \"#utility.yul\":5398:5407   */\n      dup4\n        /* \"#utility.yul\":5394:5411   */\n      add\n        /* \"#utility.yul\":5385:5391   */\n      dup7\n        /* \"#utility.yul\":5341:5412   */\n      tag_169\n      jump\t// in\n    tag_203:\n        /* \"#utility.yul\":5422:5494   */\n      tag_204\n        /* \"#utility.yul\":5490:5492   */\n      0x20\n        /* \"#utility.yul\":5479:5488   */\n      dup4\n        /* \"#utility.yul\":5475:5493   */\n      add\n        /* \"#utility.yul\":5466:5472   */\n      dup6\n        /* \"#utility.yul\":5422:5494   */\n      tag_169\n      jump\t// in\n    tag_204:\n        /* \"#utility.yul\":5504:5576   */\n      tag_205\n        /* \"#utility.yul\":5572:5574   */\n      0x40\n        /* \"#utility.yul\":5561:5570   */\n      dup4\n        /* \"#utility.yul\":5557:5575   */\n      add\n        /* \"#utility.yul\":5548:5554   */\n      dup5\n        /* \"#utility.yul\":5504:5576   */\n      tag_196\n      jump\t// in\n    tag_205:\n        /* \"#utility.yul\":5141:5583   */\n      swap5\n      swap4\n      pop\n      pop\n      pop\n      pop\n      jump\t// out\n        /* \"#utility.yul\":5589:5799   */\n    tag_29:\n        /* \"#utility.yul\":5676:5680   */\n      0x00\n        /* \"#utility.yul\":5714:5716   */\n      0x20\n        /* \"#utility.yul\":5703:5712   */\n      dup3\n        /* \"#utility.yul\":5699:5717   */\n      add\n        /* \"#utility.yul\":5691:5717   */\n      swap1\n      pop\n        /* \"#utility.yul\":5727:5792   */\n      tag_207\n        /* \"#utility.yul\":5789:5790   */\n      0x00\n        /* \"#utility.yul\":5778:5787   */\n      dup4\n        /* \"#utility.yul\":5774:5791   */\n      add\n        /* \"#utility.yul\":5765:5771   */\n      dup5\n        /* \"#utility.yul\":5727:5792   */\n      tag_173\n      jump\t// in\n    tag_207:\n        /* \"#utility.yul\":5589:5799   */\n      swap3\n      swap2\n      pop\n      pop\n      jump\t// out\n        /* \"#utility.yul\":5805:6137   */\n    tag_24:\n        /* \"#utility.yul\":5926:5930   */\n      0x00\n        /* \"#utility.yul\":5964:5966   */\n      0x40\n        /* \"#utility.yul\":5953:5962   */\n      dup3\n        /* \"#utility.yul\":5949:5967   */\n      add\n        /* \"#utility.yul\":5941:5967   */\n      swap1\n      pop\n        /* \"#utility.yul\":5977:6048   */\n      tag_209\n        /* \"#utility.yul\":6045:6046   */\n      0x00\n        /* \"#utility.yul\":6034:6043   */\n      dup4\n        /* \"#utility.yul\":6030:6047   */\n      add\n        /* \"#utility.yul\":6021:6027   */\n      dup6\n        /* \"#utility.yul\":5977:6048   */\n      tag_177\n      jump\t// in\n    tag_209:\n        /* \"#utility.yul\":6058:6130   */\n      tag_210\n        /* \"#utility.yul\":6126:6128   */\n      0x20\n        /* \"#utility.yul\":6115:6124   */\n      dup4\n        /* \"#utility.yul\":6111:6129   */\n      add\n        /* \"#utility.yul\":6102:6108   */\n      dup5\n        /* \"#utility.yul\":6058:6130   */\n      tag_196\n      jump\t// in\n    tag_210:\n        /* \"#utility.yul\":5805:6137   */\n      swap4\n      swap3\n      pop\n      pop\n      pop\n      jump\t// out\n        /* \"#utility.yul\":6143:6562   */\n    tag_63:\n        /* \"#utility.yul\":6309:6313   */\n      0x00\n        /* \"#utility.yul\":6347:6349   */\n      0x20\n        /* \"#utility.yul\":6336:6345   */\n      dup3\n        /* \"#utility.yul\":6332:6350   */\n      add\n        /* \"#utility.yul\":6324:6350   */\n      swap1\n      pop\n        /* \"#utility.yul\":6396:6405   */\n      dup2\n        /* \"#utility.yul\":6390:6394   */\n      dup2\n        /* \"#utility.yul\":6386:6406   */\n      sub\n        /* \"#utility.yul\":6382:6383   */\n      0x00\n        /* \"#utility.yul\":6371:6380   */\n      dup4\n        /* \"#utility.yul\":6367:6384   */\n      add\n        /* \"#utility.yul\":6360:6407   */\n      mstore\n        /* \"#utility.yul\":6424:6555   */\n      tag_212\n        /* \"#utility.yul\":6550:6554   */\n      dup2\n        /* \"#utility.yul\":6424:6555   */\n      tag_191\n      jump\t// in\n    tag_212:\n        /* \"#utility.yul\":6416:6555   */\n      swap1\n      pop\n        /* \"#utility.yul\":6143:6562   */\n      swap2\n      swap1\n      pop\n      jump\t// out\n        /* \"#utility.yul\":6568:8001   */\n    tag_14:\n        /* \"#utility.yul\":6971:6975   */\n      0x00\n        /* \"#utility.yul\":7009:7012   */\n      0x0120\n        /* \"#utility.yul\":6998:7007   */\n      dup3\n        /* \"#utility.yul\":6994:7013   */\n      add\n        /* \"#utility.yul\":6986:7013   */\n      swap1\n      pop\n        /* \"#utility.yul\":7023:7094   */\n      tag_214\n        /* \"#utility.yul\":7091:7092   */\n      0x00\n        /* \"#utility.yul\":7080:7089   */\n      dup4\n        /* \"#utility.yul\":7076:7093   */\n      add\n        /* \"#utility.yul\":7067:7073   */\n      dup13\n        /* \"#utility.yul\":7023:7094   */\n      tag_196\n      jump\t// in\n    tag_214:\n        /* \"#utility.yul\":7104:7176   */\n      tag_215\n        /* \"#utility.yul\":7172:7174   */\n      0x20\n        /* \"#utility.yul\":7161:7170   */\n      dup4\n        /* \"#utility.yul\":7157:7175   */\n      add\n        /* \"#utility.yul\":7148:7154   */\n      dup12\n        /* \"#utility.yul\":7104:7176   */\n      tag_196\n      jump\t// in\n    tag_215:\n        /* \"#utility.yul\":7223:7232   */\n      dup2\n        /* \"#utility.yul\":7217:7221   */\n      dup2\n        /* \"#utility.yul\":7213:7233   */\n      sub\n        /* \"#utility.yul\":7208:7210   */\n      0x40\n        /* \"#utility.yul\":7197:7206   */\n      dup4\n        /* \"#utility.yul\":7193:7211   */\n      add\n        /* \"#utility.yul\":7186:7234   */\n      mstore\n        /* \"#utility.yul\":7251:7329   */\n      tag_216\n        /* \"#utility.yul\":7324:7328   */\n      dup2\n        /* \"#utility.yul\":7315:7321   */\n      dup11\n        /* \"#utility.yul\":7251:7329   */\n      tag_181\n      jump\t// in\n    tag_216:\n        /* \"#utility.yul\":7243:7329   */\n      swap1\n      pop\n        /* \"#utility.yul\":7376:7385   */\n      dup2\n        /* \"#utility.yul\":7370:7374   */\n      dup2\n        /* \"#utility.yul\":7366:7386   */\n      sub\n        /* \"#utility.yul\":7361:7363   */\n      0x60\n        /* \"#utility.yul\":7350:7359   */\n      dup4\n        /* \"#utility.yul\":7346:7364   */\n      add\n        /* \"#utility.yul\":7339:7387   */\n      mstore\n        /* \"#utility.yul\":7404:7482   */\n      tag_217\n        /* \"#utility.yul\":7477:7481   */\n      dup2\n        /* \"#utility.yul\":7468:7474   */\n      dup10\n        /* \"#utility.yul\":7404:7482   */\n      tag_181\n      jump\t// in\n    tag_217:\n        /* \"#utility.yul\":7396:7482   */\n      swap1\n      pop\n        /* \"#utility.yul\":7530:7539   */\n      dup2\n        /* \"#utility.yul\":7524:7528   */\n      dup2\n        /* \"#utility.yul\":7520:7540   */\n      sub\n        /* \"#utility.yul\":7514:7517   */\n      0x80\n        /* \"#utility.yul\":7503:7512   */\n      dup4\n        /* \"#utility.yul\":7499:7518   */\n      add\n        /* \"#utility.yul\":7492:7541   */\n      mstore\n        /* \"#utility.yul\":7558:7636   */\n      tag_218\n        /* \"#utility.yul\":7631:7635   */\n      dup2\n        /* \"#utility.yul\":7622:7628   */\n      dup9\n        /* \"#utility.yul\":7558:7636   */\n      tag_181\n      jump\t// in\n    tag_218:\n        /* \"#utility.yul\":7550:7636   */\n      swap1\n      pop\n        /* \"#utility.yul\":7646:7713   */\n      tag_219\n        /* \"#utility.yul\":7708:7711   */\n      0xa0\n        /* \"#utility.yul\":7697:7706   */\n      dup4\n        /* \"#utility.yul\":7693:7712   */\n      add\n        /* \"#utility.yul\":7684:7690   */\n      dup8\n        /* \"#utility.yul\":7646:7713   */\n      tag_173\n      jump\t// in\n    tag_219:\n        /* \"#utility.yul\":7723:7796   */\n      tag_220\n        /* \"#utility.yul\":7791:7794   */\n      0xc0\n        /* \"#utility.yul\":7780:7789   */\n      dup4\n        /* \"#utility.yul\":7776:7795   */\n      add\n        /* \"#utility.yul\":7767:7773   */\n      dup7\n        /* \"#utility.yul\":7723:7796   */\n      tag_196\n      jump\t// in\n    tag_220:\n        /* \"#utility.yul\":7806:7895   */\n      tag_221\n        /* \"#utility.yul\":7890:7893   */\n      0xe0\n        /* \"#utility.yul\":7879:7888   */\n      dup4\n        /* \"#utility.yul\":7875:7894   */\n      add\n        /* \"#utility.yul\":7866:7872   */\n      dup6\n        /* \"#utility.yul\":7806:7895   */\n      tag_165\n      jump\t// in\n    tag_221:\n        /* \"#utility.yul\":7905:7994   */\n      tag_222\n        /* \"#utility.yul\":7989:7992   */\n      0x0100\n        /* \"#utility.yul\":7978:7987   */\n      dup4\n        /* \"#utility.yul\":7974:7993   */\n      add\n        /* \"#utility.yul\":7965:7971   */\n      dup5\n        /* \"#utility.yul\":7905:7994   */\n      tag_165\n      jump\t// in\n    tag_222:\n        /* \"#utility.yul\":6568:8001   */\n      swap11\n      swap10\n      pop\n      pop\n      pop\n      pop\n      pop\n      pop\n      pop\n      pop\n      pop\n      pop\n      jump\t// out\n        /* \"#utility.yul\":8007:8136   */\n    tag_117:\n        /* \"#utility.yul\":8041:8047   */\n      0x00\n        /* \"#utility.yul\":8068:8088   */\n      tag_224\n      tag_225\n      jump\t// in\n    tag_224:\n        /* \"#utility.yul\":8058:8088   */\n      swap1\n      pop\n        /* \"#utility.yul\":8097:8130   */\n      tag_226\n        /* \"#utility.yul\":8125:8129   */\n      dup3\n        /* \"#utility.yul\":8117:8123   */\n      dup3\n        /* \"#utility.yul\":8097:8130   */\n      tag_227\n      jump\t// in\n    tag_226:\n        /* \"#utility.yul\":8007:8136   */\n      swap2\n      swap1\n      pop\n      jump\t// out\n        /* \"#utility.yul\":8142:8217   */\n    tag_225:\n        /* \"#utility.yul\":8175:8181   */\n      0x00\n        /* \"#utility.yul\":8208:8210   */\n      0x40\n        /* \"#utility.yul\":8202:8211   */\n      mload\n        /* \"#utility.yul\":8192:8211   */\n      swap1\n      pop\n        /* \"#utility.yul\":8142:8217   */\n      swap1\n      jump\t// out\n        /* \"#utility.yul\":8223:8531   */\n    tag_116:\n        /* \"#utility.yul\":8285:8289   */\n      0x00\n        /* \"#utility.yul\":8375:8393   */\n      0xffffffffffffffff\n        /* \"#utility.yul\":8367:8373   */\n      dup3\n        /* \"#utility.yul\":8364:8394   */\n      gt\n        /* \"#utility.yul\":8361:8417   */\n      iszero\n      tag_230\n      jumpi\n        /* \"#utility.yul\":8397:8415   */\n      tag_231\n      tag_232\n      jump\t// in\n    tag_231:\n        /* \"#utility.yul\":8361:8417   */\n    tag_230:\n        /* \"#utility.yul\":8435:8464   */\n      tag_233\n        /* \"#utility.yul\":8457:8463   */\n      dup3\n        /* \"#utility.yul\":8435:8464   */\n      tag_190\n      jump\t// in\n    tag_233:\n        /* \"#utility.yul\":8427:8464   */\n      swap1\n      pop\n        /* \"#utility.yul\":8519:8523   */\n      0x20\n        /* \"#utility.yul\":8513:8517   */\n      dup2\n        /* \"#utility.yul\":8509:8524   */\n      add\n        /* \"#utility.yul\":8501:8524   */\n      swap1\n      pop\n        /* \"#utility.yul\":8223:8531   */\n      swap2\n      swap1\n      pop\n      jump\t// out\n        /* \"#utility.yul\":8537:8636   */\n    tag_184:\n        /* \"#utility.yul\":8589:8595   */\n      0x00\n        /* \"#utility.yul\":8623:8628   */\n      dup2\n        /* \"#utility.yul\":8617:8629   */\n      mload\n        /* \"#utility.yul\":8607:8629   */\n      swap1\n      pop\n        /* \"#utility.yul\":8537:8636   */\n      swap2\n      swap1\n      pop\n      jump\t// out\n        /* \"#utility.yul\":8642:8811   */\n    tag_186:\n        /* \"#utility.yul\":8726:8737   */\n      0x00\n        /* \"#utility.yul\":8760:8766   */\n      dup3\n        /* \"#utility.yul\":8755:8758   */\n      dup3\n        /* \"#utility.yul\":8748:8767   */\n      mstore\n        /* \"#utility.yul\":8800:8804   */\n      0x20\n        /* \"#utility.yul\":8795:8798   */\n      dup3\n        /* \"#utility.yul\":8791:8805   */\n      add\n        /* \"#utility.yul\":8776:8805   */\n      swap1\n      pop\n        /* \"#utility.yul\":8642:8811   */\n      swap3\n      swap2\n      pop\n      pop\n      jump\t// out\n        /* \"#utility.yul\":8817:8913   */\n    tag_172:\n        /* \"#utility.yul\":8854:8861   */\n      0x00\n        /* \"#utility.yul\":8883:8907   */\n      tag_237\n        /* \"#utility.yul\":8901:8906   */\n      dup3\n        /* \"#utility.yul\":8883:8907   */\n      tag_238\n      jump\t// in\n    tag_237:\n        /* \"#utility.yul\":8872:8907   */\n      swap1\n      pop\n        /* \"#utility.yul\":8817:8913   */\n      swap2\n      swap1\n      pop\n      jump\t// out\n        /* \"#utility.yul\":8919:9023   */\n    tag_168:\n        /* \"#utility.yul\":8964:8971   */\n      0x00\n        /* \"#utility.yul\":8993:9017   */\n      tag_240\n        /* \"#utility.yul\":9011:9016   */\n      dup3\n        /* \"#utility.yul\":8993:9017   */\n      tag_238\n      jump\t// in\n    tag_240:\n        /* \"#utility.yul\":8982:9017   */\n      swap1\n      pop\n        /* \"#utility.yul\":8919:9023   */\n      swap2\n      swap1\n      pop\n      jump\t// out\n        /* \"#utility.yul\":9029:9119   */\n    tag_176:\n        /* \"#utility.yul\":9063:9070   */\n      0x00\n        /* \"#utility.yul\":9106:9111   */\n      dup2\n        /* \"#utility.yul\":9099:9112   */\n      iszero\n        /* \"#utility.yul\":9092:9113   */\n      iszero\n        /* \"#utility.yul\":9081:9113   */\n      swap1\n      pop\n        /* \"#utility.yul\":9029:9119   */\n      swap2\n      swap1\n      pop\n      jump\t// out\n        /* \"#utility.yul\":9125:9202   */\n    tag_180:\n        /* \"#utility.yul\":9162:9169   */\n      0x00\n        /* \"#utility.yul\":9191:9196   */\n      dup2\n        /* \"#utility.yul\":9180:9196   */\n      swap1\n      pop\n        /* \"#utility.yul\":9125:9202   */\n      swap2\n      swap1\n      pop\n      jump\t// out\n        /* \"#utility.yul\":9208:9334   */\n    tag_238:\n        /* \"#utility.yul\":9245:9252   */\n      0x00\n        /* \"#utility.yul\":9285:9327   */\n      0xffffffffffffffffffffffffffffffffffffffff\n        /* \"#utility.yul\":9278:9283   */\n      dup3\n        /* \"#utility.yul\":9274:9328   */\n      and\n        /* \"#utility.yul\":9263:9328   */\n      swap1\n      pop\n        /* \"#utility.yul\":9208:9334   */\n      swap2\n      swap1\n      pop\n      jump\t// out\n        /* \"#utility.yul\":9340:9417   */\n    tag_199:\n        /* \"#utility.yul\":9377:9384   */\n      0x00\n        /* \"#utility.yul\":9406:9411   */\n      dup2\n        /* \"#utility.yul\":9395:9411   */\n      swap1\n      pop\n        /* \"#utility.yul\":9340:9417   */\n      swap2\n      swap1\n      pop\n      jump\t// out\n        /* \"#utility.yul\":9423:9577   */\n    tag_122:\n        /* \"#utility.yul\":9507:9513   */\n      dup3\n        /* \"#utility.yul\":9502:9505   */\n      dup2\n        /* \"#utility.yul\":9497:9500   */\n      dup4\n        /* \"#utility.yul\":9484:9514   */\n      calldatacopy\n        /* \"#utility.yul\":9569:9570   */\n      0x00\n        /* \"#utility.yul\":9560:9566   */\n      dup4\n        /* \"#utility.yul\":9555:9558   */\n      dup4\n        /* \"#utility.yul\":9551:9567   */\n      add\n        /* \"#utility.yul\":9544:9571   */\n      mstore\n        /* \"#utility.yul\":9423:9577   */\n      pop\n      pop\n      pop\n      jump\t// out\n        /* \"#utility.yul\":9583:9890   */\n    tag_188:\n        /* \"#utility.yul\":9651:9652   */\n      0x00\n        /* \"#utility.yul\":9661:9774   */\n    tag_247:\n        /* \"#utility.yul\":9675:9681   */\n      dup4\n        /* \"#utility.yul\":9672:9673   */\n      dup2\n        /* \"#utility.yul\":9669:9682   */\n      lt\n        /* \"#utility.yul\":9661:9774   */\n      iszero\n      tag_249\n      jumpi\n        /* \"#utility.yul\":9760:9761   */\n      dup1\n        /* \"#utility.yul\":9755:9758   */\n      dup3\n        /* \"#utility.yul\":9751:9762   */\n      add\n        /* \"#utility.yul\":9745:9763   */\n      mload\n        /* \"#utility.yul\":9741:9742   */\n      dup2\n        /* \"#utility.yul\":9736:9739   */\n      dup5\n        /* \"#utility.yul\":9732:9743   */\n      add\n        /* \"#utility.yul\":9725:9764   */\n      mstore\n        /* \"#utility.yul\":9697:9699   */\n      0x20\n        /* \"#utility.yul\":9694:9695   */\n      dup2\n        /* \"#utility.yul\":9690:9700   */\n      add\n        /* \"#utility.yul\":9685:9700   */\n      swap1\n      pop\n        /* \"#utility.yul\":9661:9774   */\n      jump(tag_247)\n    tag_249:\n        /* \"#utility.yul\":9792:9798   */\n      dup4\n        /* \"#utility.yul\":9789:9790   */\n      dup2\n        /* \"#utility.yul\":9786:9799   */\n      gt\n        /* \"#utility.yul\":9783:9884   */\n      iszero\n      tag_250\n      jumpi\n        /* \"#utility.yul\":9872:9873   */\n      0x00\n        /* \"#utility.yul\":9863:9869   */\n      dup5\n        /* \"#utility.yul\":9858:9861   */\n      dup5\n        /* \"#utility.yul\":9854:9870   */\n      add\n        /* \"#utility.yul\":9847:9874   */\n      mstore\n        /* \"#utility.yul\":9783:9884   */\n    tag_250:\n        /* \"#utility.yul\":9632:9890   */\n      pop\n        /* \"#utility.yul\":9583:9890   */\n      pop\n      pop\n      pop\n      jump\t// out\n        /* \"#utility.yul\":9896:10216   */\n    tag_41:\n        /* \"#utility.yul\":9940:9946   */\n      0x00\n        /* \"#utility.yul\":9977:9978   */\n      0x02\n        /* \"#utility.yul\":9971:9975   */\n      dup3\n        /* \"#utility.yul\":9967:9979   */\n      div\n        /* \"#utility.yul\":9957:9979   */\n      swap1\n      pop\n        /* \"#utility.yul\":10024:10025   */\n      0x01\n        /* \"#utility.yul\":10018:10022   */\n      dup3\n        /* \"#utility.yul\":10014:10026   */\n      and\n        /* \"#utility.yul\":10045:10063   */\n      dup1\n        /* \"#utility.yul\":10035:10116   */\n      tag_252\n      jumpi\n        /* \"#utility.yul\":10101:10105   */\n      0x7f\n        /* \"#utility.yul\":10093:10099   */\n      dup3\n        /* \"#utility.yul\":10089:10106   */\n      and\n        /* \"#utility.yul\":10079:10106   */\n      swap2\n      pop\n        /* \"#utility.yul\":10035:10116   */\n    tag_252:\n        /* \"#utility.yul\":10163:10165   */\n      0x20\n        /* \"#utility.yul\":10155:10161   */\n      dup3\n        /* \"#utility.yul\":10152:10166   */\n      lt\n        /* \"#utility.yul\":10132:10150   */\n      dup2\n        /* \"#utility.yul\":10129:10167   */\n      eq\n        /* \"#utility.yul\":10126:10210   */\n      iszero\n      tag_253\n      jumpi\n        /* \"#utility.yul\":10182:10200   */\n      tag_254\n      tag_255\n      jump\t// in\n    tag_254:\n        /* \"#utility.yul\":10126:10210   */\n    tag_253:\n        /* \"#utility.yul\":9947:10216   */\n      pop\n        /* \"#utility.yul\":9896:10216   */\n      swap2\n      swap1\n      pop\n      jump\t// out\n        /* \"#utility.yul\":10222:10503   */\n    tag_227:\n        /* \"#utility.yul\":10305:10332   */\n      tag_257\n        /* \"#utility.yul\":10327:10331   */\n      dup3\n        /* \"#utility.yul\":10305:10332   */\n      tag_190\n      jump\t// in\n    tag_257:\n        /* \"#utility.yul\":10297:10303   */\n      dup2\n        /* \"#utility.yul\":10293:10333   */\n      add\n        /* \"#utility.yul\":10435:10441   */\n      dup2\n        /* \"#utility.yul\":10423:10433   */\n      dup2\n        /* \"#utility.yul\":10420:10442   */\n      lt\n        /* \"#utility.yul\":10399:10417   */\n      0xffffffffffffffff\n        /* \"#utility.yul\":10387:10397   */\n      dup3\n        /* \"#utility.yul\":10384:10418   */\n      gt\n        /* \"#utility.yul\":10381:10443   */\n      or\n        /* \"#utility.yul\":10378:10466   */\n      iszero\n      tag_258\n      jumpi\n        /* \"#utility.yul\":10446:10464   */\n      tag_259\n      tag_232\n      jump\t// in\n    tag_259:\n        /* \"#utility.yul\":10378:10466   */\n    tag_258:\n        /* \"#utility.yul\":10486:10496   */\n      dup1\n        /* \"#utility.yul\":10482:10484   */\n      0x40\n        /* \"#utility.yul\":10475:10497   */\n      mstore\n        /* \"#utility.yul\":10265:10503   */\n      pop\n        /* \"#utility.yul\":10222:10503   */\n      pop\n      pop\n      jump\t// out\n        /* \"#utility.yul\":10509:10742   */\n    tag_84:\n        /* \"#utility.yul\":10548:10551   */\n      0x00\n        /* \"#utility.yul\":10571:10595   */\n      tag_261\n        /* \"#utility.yul\":10589:10594   */\n      dup3\n        /* \"#utility.yul\":10571:10595   */\n      tag_199\n      jump\t// in\n    tag_261:\n        /* \"#utility.yul\":10562:10595   */\n      swap2\n      pop\n        /* \"#utility.yul\":10617:10683   */\n      0xffffffffffffffffffffffffffffffffffffffffffffffffffffffffffffffff\n        /* \"#utility.yul\":10610:10615   */\n      dup3\n        /* \"#utility.yul\":10607:10684   */\n      eq\n        /* \"#utility.yul\":10604:10707   */\n      iszero\n      tag_262\n      jumpi\n        /* \"#utility.yul\":10687:10705   */\n      tag_263\n      tag_264\n      jump\t// in\n    tag_263:\n        /* \"#utility.yul\":10604:10707   */\n    tag_262:\n        /* \"#utility.yul\":10734:10735   */\n      0x01\n        /* \"#utility.yul\":10727:10732   */\n      dup3\n        /* \"#utility.yul\":10723:10736   */\n      add\n        /* \"#utility.yul\":10716:10736   */\n      swap1\n      pop\n        /* \"#utility.yul\":10509:10742   */\n      swap2\n      swap1\n      pop\n      jump\t// out\n        /* \"#utility.yul\":10748:10928   */\n    tag_264:\n        /* \"#utility.yul\":10796:10873   */\n      0x4e487b7100000000000000000000000000000000000000000000000000000000\n        /* \"#utility.yul\":10793:10794   */\n      0x00\n        /* \"#utility.yul\":10786:10874   */\n      mstore\n        /* \"#utility.yul\":10893:10897   */\n      0x11\n        /* \"#utility.yul\":10890:10891   */\n      0x04\n        /* \"#utility.yul\":10883:10898   */\n      mstore\n        /* \"#utility.yul\":10917:10921   */\n      0x24\n        /* \"#utility.yul\":10914:10915   */\n      0x00\n        /* \"#utility.yul\":10907:10922   */\n      revert\n        /* \"#utility.yul\":10934:11114   */\n    tag_255:\n        /* \"#utility.yul\":10982:11059   */\n      0x4e487b7100000000000000000000000000000000000000000000000000000000\n        /* \"#utility.yul\":10979:10980   */\n      0x00\n        /* \"#utility.yul\":10972:11060   */\n      mstore\n        /* \"#utility.yul\":11079:11083   */\n      0x22\n        /* \"#utility.yul\":11076:11077   */\n      0x04\n        /* \"#utility.yul\":11069:11084   */\n      mstore\n        /* \"#utility.yul\":11103:11107   */\n      0x24\n        /* \"#utility.yul\":11100:11101   */\n      0x00\n        /* \"#utility.yul\":11093:11108   */\n      revert\n        /* \"#utility.yul\":11120:11300   */\n    tag_59:\n        /* \"#utility.yul\":11168:11245   */\n      0x4e487b7100000000000000000000000000000000000000000000000000000000\n        /* \"#utility.yul\":11165:11166   */\n      0x00\n        /* \"#utility.yul\":11158:11246   */\n      mstore\n        /* \"#utility.yul\":11265:11269   */\n      0x32\n        /* \"#utility.yul\":11262:11263   */\n      0x04\n        /* \"#utility.yul\":11255:11270   */\n      mstore\n        /* \"#utility.yul\":11289:11293   */\n      0x24\n        /* \"#utility.yul\":11286:11287   */\n      0x00\n        /* \"#utility.yul\":11279:11294   */\n      revert\n        /* \"#utility.yul\":11306:11486   */\n    tag_232:\n        /* \"#utility.yul\":11354:11431   */\n      0x4e487b7100000000000000000000000000000000000000000000000000000000\n        /* \"#utility.yul\":11351:11352   */\n      0x00\n        /* \"#utility.yul\":11344:11432   */\n      mstore\n        /* \"#utility.yul\":11451:11455   */\n      0x41\n        /* \"#utility.yul\":11448:11449   */\n      0x04\n        /* \"#utility.yul\":11441:11456   */\n      mstore\n        /* \"#utility.yul\":11475:11479   */\n      0x24\n        /* \"#utility.yul\":11472:11473   */\n      0x00\n        /* \"#utility.yul\":11465:11480   */\n      revert\n        /* \"#utility.yul\":11492:11609   */\n    tag_131:\n        /* \"#utility.yul\":11601:11602   */\n      0x00\n        /* \"#utility.yul\":11598:11599   */\n      dup1\n        /* \"#utility.yul\":11591:11603   */\n      revert\n        /* \"#utility.yul\":11615:11732   */\n    tag_120:\n        /* \"#utility.yul\":11724:11725   */\n      0x00\n        /* \"#utility.yul\":11721:11722   */\n      dup1\n        /* \"#utility.yul\":11714:11726   */\n      revert\n        /* \"#utility.yul\":11738:11855   */\n    tag_157:\n        /* \"#utility.yul\":11847:11848   */\n      0x00\n        /* \"#utility.yul\":11844:11845   */\n      dup1\n        /* \"#utility.yul\":11837:11849   */\n      revert\n        /* \"#utility.yul\":11861:11978   */\n    tag_140:\n        /* \"#utility.yul\":11970:11971   */\n      0x00\n        /* \"#utility.yul\":11967:11968   */\n      dup1\n        /* \"#utility.yul\":11960:11972   */\n      revert\n        /* \"#utility.yul\":11984:12086   */\n    tag_190:\n        /* \"#utility.yul\":12025:12031   */\n      0x00\n        /* \"#utility.yul\":12076:12078   */\n      0x1f\n        /* \"#utility.yul\":12072:12079   */\n      not\n        /* \"#utility.yul\":12067:12069   */\n      0x1f\n        /* \"#utility.yul\":12060:12065   */\n      dup4\n        /* \"#utility.yul\":12056:12070   */\n      add\n        /* \"#utility.yul\":12052:12080   */\n      and\n        /* \"#utility.yul\":12042:12080   */\n      swap1\n      pop\n        /* \"#utility.yul\":11984:12086   */\n      swap2\n      swap1\n      pop\n      jump\t// out\n        /* \"#utility.yul\":12092:12271   */\n    tag_195:\n        /* \"#utility.yul\":12232:12263   */\n      0x50617469656e7420697320616c72656164792072656769737465726564000000\n        /* \"#utility.yul\":12228:12229   */\n      0x00\n        /* \"#utility.yul\":12220:12226   */\n      dup3\n        /* \"#utility.yul\":12216:12230   */\n      add\n        /* \"#utility.yul\":12209:12264   */\n      mstore\n        /* \"#utility.yul\":12092:12271   */\n      pop\n      jump\t// out\n        /* \"#utility.yul\":12277:12399   */\n    tag_126:\n        /* \"#utility.yul\":12350:12374   */\n      tag_276\n        /* \"#utility.yul\":12368:12373   */\n      dup2\n        /* \"#utility.yul\":12350:12374   */\n      tag_172\n      jump\t// in\n    tag_276:\n        /* \"#utility.yul\":12343:12348   */\n      dup2\n        /* \"#utility.yul\":12340:12375   */\n      eq\n        /* \"#utility.yul\":12330:12393   */\n      tag_277\n      jumpi\n        /* \"#utility.yul\":12389:12390   */\n      0x00\n        /* \"#utility.yul\":12386:12387   */\n      dup1\n        /* \"#utility.yul\":12379:12391   */\n      revert\n        /* \"#utility.yul\":12330:12393   */\n    tag_277:\n        /* \"#utility.yul\":12277:12399   */\n      pop\n      jump\t// out\n        /* \"#utility.yul\":12405:12527   */\n    tag_136:\n        /* \"#utility.yul\":12478:12502   */\n      tag_279\n        /* \"#utility.yul\":12496:12501   */\n      dup2\n        /* \"#utility.yul\":12478:12502   */\n      tag_199\n      jump\t// in\n    tag_279:\n        /* \"#utility.yul\":12471:12476   */\n      dup2\n        /* \"#utility.yul\":12468:12503   */\n      eq\n        /* \"#utility.yul\":12458:12521   */\n      tag_280\n      jumpi\n        /* \"#utility.yul\":12517:12518   */\n      0x00\n        /* \"#utility.yul\":12514:12515   */\n      dup1\n        /* \"#utility.yul\":12507:12519   */\n      revert\n        /* \"#utility.yul\":12458:12521   */\n    tag_280:\n        /* \"#utility.yul\":12405:12527   */\n      pop\n      jump\t// out\n\n    auxdata: 0xa26469706673582212207096f7437c5e42352e60ef987942ae2f7af50fe36a667f7852e1e10b61a874b664736f6c63430008070033\n}\n",
				"bytecode": {
					"linkReferences": {},
					"object": "608060405234801561001057600080fd5b503360016000548154811061002857610027610075565b5b9060005260206000200160006101000a81548173ffffffffffffffffffffffffffffffffffffffff021916908373ffffffffffffffffffffffffffffffffffffffff1602179055506100a4565b7f4e487b7100000000000000000000000000000000000000000000000000000000600052603260045260246000fd5b61110e806100b36000396000f3fe608060405234801561001057600080fd5b50600436106100625760003560e01c80630869cfbc1461006757806389c47f081461009f5780638dc10768146100bb578063c4bfd57d146100ec578063d651893d1461011c578063ec4eb4421461014c575b600080fd5b610081600480360381019061007c9190610a88565b61017c565b60405161009699989796959493929190610d3a565b60405180910390f35b6100b960048036038101906100b49190610b22565b6103af565b005b6100d560048036038101906100d09190610af5565b610783565b6040516100e3929190610cf1565b60405180910390f35b61010660048036038101906101019190610a88565b6107b7565b6040516101139190610cd6565b60405180910390f35b61013660048036038101906101319190610ab5565b6108c5565b6040516101439190610cd6565b60405180910390f35b61016660048036038101906101619190610af5565b61090c565b6040516101739190610c84565b60405180910390f35b60026020528060005260406000206000915090508060000154908060010154908060020180546101ab90610ef4565b80601f01602080910402602001604051908101604052809291908181526020018280546101d790610ef4565b80156102245780601f106101f957610100808354040283529160200191610224565b820191906000526020600020905b81548152906001019060200180831161020757829003601f168201915b50505050509080600301805461023990610ef4565b80601f016020809104026020016040519081016040528092919081815260200182805461026590610ef4565b80156102b25780601f10610287576101008083540402835291602001916102b2565b820191906000526020600020905b81548152906001019060200180831161029557829003601f168201915b5050505050908060040180546102c790610ef4565b80601f01602080910402602001604051908101604052809291908181526020018280546102f390610ef4565b80156103405780601f1061031557610100808354040283529160200191610340565b820191906000526020600020905b81548152906001019060200180831161032357829003601f168201915b5050505050908060050160009054906101000a900460ff16908060060154908060070160009054906101000a900473ffffffffffffffffffffffffffffffffffffffff16908060080160009054906101000a900473ffffffffffffffffffffffffffffffffffffffff16905089565b600260006001600054815481106103c9576103c8610ffe565b5b9060005260206000200160009054906101000a900473ffffffffffffffffffffffffffffffffffffffff1673ffffffffffffffffffffffffffffffffffffffff1673ffffffffffffffffffffffffffffffffffffffff16815260200190815260200160002060050160009054906101000a900460ff161561047f576040517f08c379a000000000000000000000000000000000000000000000000000000000815260040161047690610d1a565b60405180910390fd5b836002600060016000548154811061049a57610499610ffe565b5b9060005260206000200160009054906101000a900473ffffffffffffffffffffffffffffffffffffffff1673ffffffffffffffffffffffffffffffffffffffff1673ffffffffffffffffffffffffffffffffffffffff16815260200190815260200160002060010181905550826002600060016000548154811061052157610520610ffe565b5b9060005260206000200160009054906101000a900473ffffffffffffffffffffffffffffffffffffffff1673ffffffffffffffffffffffffffffffffffffffff1673ffffffffffffffffffffffffffffffffffffffff168152602001908152602001600020600201908051906020019061059c92919061094b565b5081600260006001600054815481106105b8576105b7610ffe565b5b9060005260206000200160009054906101000a900473ffffffffffffffffffffffffffffffffffffffff1673ffffffffffffffffffffffffffffffffffffffff1673ffffffffffffffffffffffffffffffffffffffff168152602001908152602001600020600301908051906020019061063392919061094b565b50806002600060016000548154811061064f5761064e610ffe565b5b9060005260206000200160009054906101000a900473ffffffffffffffffffffffffffffffffffffffff1673ffffffffffffffffffffffffffffffffffffffff1673ffffffffffffffffffffffffffffffffffffffff16815260200190815260200160002060040190805190602001906106ca92919061094b565b506001600260006001600054815481106106e7576106e6610ffe565b5b9060005260206000200160009054906101000a900473ffffffffffffffffffffffffffffffffffffffff1673ffffffffffffffffffffffffffffffffffffffff1673ffffffffffffffffffffffffffffffffffffffff16815260200190815260200160002060050160006101000a81548160ff02191690831515021790555060008081548092919061077890610f57565b919050555050505050565b6003818154811061079357600080fd5b90600052602060002090600202016000915090508060000154908060010154905082565b600080600090505b6000548110156108ba578273ffffffffffffffffffffffffffffffffffffffff1660026000600184815481106107f8576107f7610ffe565b5b9060005260206000200160009054906101000a900473ffffffffffffffffffffffffffffffffffffffff1673ffffffffffffffffffffffffffffffffffffffff1673ffffffffffffffffffffffffffffffffffffffff16815260200190815260200160002060070160009054906101000a900473ffffffffffffffffffffffffffffffffffffffff1673ffffffffffffffffffffffffffffffffffffffff1614156108a75760019150506108c0565b80806108b290610f57565b9150506107bf565b50600090505b919050565b60007f58c2fddd8dd62ff60b8d81a7cc2f875fbb9a00d3522b61dfdc9155de54546d6f3384846040516108fa93929190610c9f565b60405180910390a16001905092915050565b6001818154811061091c57600080fd5b906000526020600020016000915054906101000a900473ffffffffffffffffffffffffffffffffffffffff1681565b82805461095790610ef4565b90600052602060002090601f01602090048101928261097957600085556109c0565b82601f1061099257805160ff19168380011785556109c0565b828001600101855582156109c0579182015b828111156109bf5782518255916020019190600101906109a4565b5b5090506109cd91906109d1565b5090565b5b808211156109ea5760008160009055506001016109d2565b5090565b6000610a016109fc84610e01565b610ddc565b905082815260208101848484011115610a1d57610a1c611061565b5b610a28848285610eb2565b509392505050565b600081359050610a3f816110aa565b92915050565b600082601f830112610a5a57610a5961105c565b5b8135610a6a8482602086016109ee565b91505092915050565b600081359050610a82816110c1565b92915050565b600060208284031215610a9e57610a9d61106b565b5b6000610aac84828501610a30565b91505092915050565b60008060408385031215610acc57610acb61106b565b5b6000610ada85828601610a30565b9250506020610aeb85828601610a73565b9150509250929050565b600060208284031215610b0b57610b0a61106b565b5b6000610b1984828501610a73565b91505092915050565b60008060008060808587031215610b3c57610b3b61106b565b5b6000610b4a87828801610a73565b945050602085013567ffffffffffffffff811115610b6b57610b6a611066565b5b610b7787828801610a45565b935050604085013567ffffffffffffffff811115610b9857610b97611066565b5b610ba487828801610a45565b925050606085013567ffffffffffffffff811115610bc557610bc4611066565b5b610bd187828801610a45565b91505092959194509250565b610be681610e60565b82525050565b610bf581610e4e565b82525050565b610c0481610e72565b82525050565b610c1381610e7e565b82525050565b6000610c2482610e32565b610c2e8185610e3d565b9350610c3e818560208601610ec1565b610c4781611070565b840191505092915050565b6000610c5f601d83610e3d565b9150610c6a82611081565b602082019050919050565b610c7e81610ea8565b82525050565b6000602082019050610c996000830184610bec565b92915050565b6000606082019050610cb46000830186610bec565b610cc16020830185610bec565b610cce6040830184610c75565b949350505050565b6000602082019050610ceb6000830184610bfb565b92915050565b6000604082019050610d066000830185610c0a565b610d136020830184610c75565b9392505050565b60006020820190508181036000830152610d3381610c52565b9050919050565b600061012082019050610d50600083018c610c75565b610d5d602083018b610c75565b8181036040830152610d6f818a610c19565b90508181036060830152610d838189610c19565b90508181036080830152610d978188610c19565b9050610da660a0830187610bfb565b610db360c0830186610c75565b610dc060e0830185610bdd565b610dce610100830184610bdd565b9a9950505050505050505050565b6000610de6610df7565b9050610df28282610f26565b919050565b6000604051905090565b600067ffffffffffffffff821115610e1c57610e1b61102d565b5b610e2582611070565b9050602081019050919050565b600081519050919050565b600082825260208201905092915050565b6000610e5982610e88565b9050919050565b6000610e6b82610e88565b9050919050565b60008115159050919050565b6000819050919050565b600073ffffffffffffffffffffffffffffffffffffffff82169050919050565b6000819050919050565b82818337600083830152505050565b60005b83811015610edf578082015181840152602081019050610ec4565b83811115610eee576000848401525b50505050565b60006002820490506001821680610f0c57607f821691505b60208210811415610f2057610f1f610fcf565b5b50919050565b610f2f82611070565b810181811067ffffffffffffffff82111715610f4e57610f4d61102d565b5b80604052505050565b6000610f6282610ea8565b91507fffffffffffffffffffffffffffffffffffffffffffffffffffffffffffffffff821415610f9557610f94610fa0565b5b600182019050919050565b7f4e487b7100000000000000000000000000000000000000000000000000000000600052601160045260246000fd5b7f4e487b7100000000000000000000000000000000000000000000000000000000600052602260045260246000fd5b7f4e487b7100000000000000000000000000000000000000000000000000000000600052603260045260246000fd5b7f4e487b7100000000000000000000000000000000000000000000000000000000600052604160045260246000fd5b600080fd5b600080fd5b600080fd5b600080fd5b6000601f19601f8301169050919050565b7f50617469656e7420697320616c72656164792072656769737465726564000000600082015250565b6110b381610e4e565b81146110be57600080fd5b50565b6110ca81610ea8565b81146110d557600080fd5b5056fea26469706673582212207096f7437c5e42352e60ef987942ae2f7af50fe36a667f7852e1e10b61a874b664736f6c63430008070033",
					"opcodes": "PUSH1 0x80 PUSH1 0x40 MSTORE CALLVALUE DUP1 ISZERO PUSH2 0x10 JUMPI PUSH1 0x0 DUP1 REVERT JUMPDEST POP CALLER PUSH1 0x1 PUSH1 0x0 SLOAD DUP2 SLOAD DUP2 LT PUSH2 0x28 JUMPI PUSH2 0x27 PUSH2 0x75 JUMP JUMPDEST JUMPDEST SWAP1 PUSH1 0x0 MSTORE PUSH1 0x20 PUSH1 0x0 KECCAK256 ADD PUSH1 0x0 PUSH2 0x100 EXP DUP2 SLOAD DUP2 PUSH20 0xFFFFFFFFFFFFFFFFFFFFFFFFFFFFFFFFFFFFFFFF MUL NOT AND SWAP1 DUP4 PUSH20 0xFFFFFFFFFFFFFFFFFFFFFFFFFFFFFFFFFFFFFFFF AND MUL OR SWAP1 SSTORE POP PUSH2 0xA4 JUMP JUMPDEST PUSH32 0x4E487B7100000000000000000000000000000000000000000000000000000000 PUSH1 0x0 MSTORE PUSH1 0x32 PUSH1 0x4 MSTORE PUSH1 0x24 PUSH1 0x0 REVERT JUMPDEST PUSH2 0x110E DUP1 PUSH2 0xB3 PUSH1 0x0 CODECOPY PUSH1 0x0 RETURN INVALID PUSH1 0x80 PUSH1 0x40 MSTORE CALLVALUE DUP1 ISZERO PUSH2 0x10 JUMPI PUSH1 0x0 DUP1 REVERT JUMPDEST POP PUSH1 0x4 CALLDATASIZE LT PUSH2 0x62 JUMPI PUSH1 0x0 CALLDATALOAD PUSH1 0xE0 SHR DUP1 PUSH4 0x869CFBC EQ PUSH2 0x67 JUMPI DUP1 PUSH4 0x89C47F08 EQ PUSH2 0x9F JUMPI DUP1 PUSH4 0x8DC10768 EQ PUSH2 0xBB JUMPI DUP1 PUSH4 0xC4BFD57D EQ PUSH2 0xEC JUMPI DUP1 PUSH4 0xD651893D EQ PUSH2 0x11C JUMPI DUP1 PUSH4 0xEC4EB442 EQ PUSH2 0x14C JUMPI JUMPDEST PUSH1 0x0 DUP1 REVERT JUMPDEST PUSH2 0x81 PUSH1 0x4 DUP1 CALLDATASIZE SUB DUP2 ADD SWAP1 PUSH2 0x7C SWAP2 SWAP1 PUSH2 0xA88 JUMP JUMPDEST PUSH2 0x17C JUMP JUMPDEST PUSH1 0x40 MLOAD PUSH2 0x96 SWAP10 SWAP9 SWAP8 SWAP7 SWAP6 SWAP5 SWAP4 SWAP3 SWAP2 SWAP1 PUSH2 0xD3A JUMP JUMPDEST PUSH1 0x40 MLOAD DUP1 SWAP2 SUB SWAP1 RETURN JUMPDEST PUSH2 0xB9 PUSH1 0x4 DUP1 CALLDATASIZE SUB DUP2 ADD SWAP1 PUSH2 0xB4 SWAP2 SWAP1 PUSH2 0xB22 JUMP JUMPDEST PUSH2 0x3AF JUMP JUMPDEST STOP JUMPDEST PUSH2 0xD5 PUSH1 0x4 DUP1 CALLDATASIZE SUB DUP2 ADD SWAP1 PUSH2 0xD0 SWAP2 SWAP1 PUSH2 0xAF5 JUMP JUMPDEST PUSH2 0x783 JUMP JUMPDEST PUSH1 0x40 MLOAD PUSH2 0xE3 SWAP3 SWAP2 SWAP1 PUSH2 0xCF1 JUMP JUMPDEST PUSH1 0x40 MLOAD DUP1 SWAP2 SUB SWAP1 RETURN JUMPDEST PUSH2 0x106 PUSH1 0x4 DUP1 CALLDATASIZE SUB DUP2 ADD SWAP1 PUSH2 0x101 SWAP2 SWAP1 PUSH2 0xA88 JUMP JUMPDEST PUSH2 0x7B7 JUMP JUMPDEST PUSH1 0x40 MLOAD PUSH2 0x113 SWAP2 SWAP1 PUSH2 0xCD6 JUMP JUMPDEST PUSH1 0x40 MLOAD DUP1 SWAP2 SUB SWAP1 RETURN JUMPDEST PUSH2 0x136 PUSH1 0x4 DUP1 CALLDATASIZE SUB DUP2 ADD SWAP1 PUSH2 0x131 SWAP2 SWAP1 PUSH2 0xAB5 JUMP JUMPDEST PUSH2 0x8C5 JUMP JUMPDEST PUSH1 0x40 MLOAD PUSH2 0x143 SWAP2 SWAP1 PUSH2 0xCD6 JUMP JUMPDEST PUSH1 0x40 MLOAD DUP1 SWAP2 SUB SWAP1 RETURN JUMPDEST PUSH2 0x166 PUSH1 0x4 DUP1 CALLDATASIZE SUB DUP2 ADD SWAP1 PUSH2 0x161 SWAP2 SWAP1 PUSH2 0xAF5 JUMP JUMPDEST PUSH2 0x90C JUMP JUMPDEST PUSH1 0x40 MLOAD PUSH2 0x173 SWAP2 SWAP1 PUSH2 0xC84 JUMP JUMPDEST PUSH1 0x40 MLOAD DUP1 SWAP2 SUB SWAP1 RETURN JUMPDEST PUSH1 0x2 PUSH1 0x20 MSTORE DUP1 PUSH1 0x0 MSTORE PUSH1 0x40 PUSH1 0x0 KECCAK256 PUSH1 0x0 SWAP2 POP SWAP1 POP DUP1 PUSH1 0x0 ADD SLOAD SWAP1 DUP1 PUSH1 0x1 ADD SLOAD SWAP1 DUP1 PUSH1 0x2 ADD DUP1 SLOAD PUSH2 0x1AB SWAP1 PUSH2 0xEF4 JUMP JUMPDEST DUP1 PUSH1 0x1F ADD PUSH1 0x20 DUP1 SWAP2 DIV MUL PUSH1 0x20 ADD PUSH1 0x40 MLOAD SWAP1 DUP2 ADD PUSH1 0x40 MSTORE DUP1 SWAP3 SWAP2 SWAP1 DUP2 DUP2 MSTORE PUSH1 0x20 ADD DUP3 DUP1 SLOAD PUSH2 0x1D7 SWAP1 PUSH2 0xEF4 JUMP JUMPDEST DUP1 ISZERO PUSH2 0x224 JUMPI DUP1 PUSH1 0x1F LT PUSH2 0x1F9 JUMPI PUSH2 0x100 DUP1 DUP4 SLOAD DIV MUL DUP4 MSTORE SWAP2 PUSH1 0x20 ADD SWAP2 PUSH2 0x224 JUMP JUMPDEST DUP3 ADD SWAP2 SWAP1 PUSH1 0x0 MSTORE PUSH1 0x20 PUSH1 0x0 KECCAK256 SWAP1 JUMPDEST DUP2 SLOAD DUP2 MSTORE SWAP1 PUSH1 0x1 ADD SWAP1 PUSH1 0x20 ADD DUP1 DUP4 GT PUSH2 0x207 JUMPI DUP3 SWAP1 SUB PUSH1 0x1F AND DUP3 ADD SWAP2 JUMPDEST POP POP POP POP POP SWAP1 DUP1 PUSH1 0x3 ADD DUP1 SLOAD PUSH2 0x239 SWAP1 PUSH2 0xEF4 JUMP JUMPDEST DUP1 PUSH1 0x1F ADD PUSH1 0x20 DUP1 SWAP2 DIV MUL PUSH1 0x20 ADD PUSH1 0x40 MLOAD SWAP1 DUP2 ADD PUSH1 0x40 MSTORE DUP1 SWAP3 SWAP2 SWAP1 DUP2 DUP2 MSTORE PUSH1 0x20 ADD DUP3 DUP1 SLOAD PUSH2 0x265 SWAP1 PUSH2 0xEF4 JUMP JUMPDEST DUP1 ISZERO PUSH2 0x2B2 JUMPI DUP1 PUSH1 0x1F LT PUSH2 0x287 JUMPI PUSH2 0x100 DUP1 DUP4 SLOAD DIV MUL DUP4 MSTORE SWAP2 PUSH1 0x20 ADD SWAP2 PUSH2 0x2B2 JUMP JUMPDEST DUP3 ADD SWAP2 SWAP1 PUSH1 0x0 MSTORE PUSH1 0x20 PUSH1 0x0 KECCAK256 SWAP1 JUMPDEST DUP2 SLOAD DUP2 MSTORE SWAP1 PUSH1 0x1 ADD SWAP1 PUSH1 0x20 ADD DUP1 DUP4 GT PUSH2 0x295 JUMPI DUP3 SWAP1 SUB PUSH1 0x1F AND DUP3 ADD SWAP2 JUMPDEST POP POP POP POP POP SWAP1 DUP1 PUSH1 0x4 ADD DUP1 SLOAD PUSH2 0x2C7 SWAP1 PUSH2 0xEF4 JUMP JUMPDEST DUP1 PUSH1 0x1F ADD PUSH1 0x20 DUP1 SWAP2 DIV MUL PUSH1 0x20 ADD PUSH1 0x40 MLOAD SWAP1 DUP2 ADD PUSH1 0x40 MSTORE DUP1 SWAP3 SWAP2 SWAP1 DUP2 DUP2 MSTORE PUSH1 0x20 ADD DUP3 DUP1 SLOAD PUSH2 0x2F3 SWAP1 PUSH2 0xEF4 JUMP JUMPDEST DUP1 ISZERO PUSH2 0x340 JUMPI DUP1 PUSH1 0x1F LT PUSH2 0x315 JUMPI PUSH2 0x100 DUP1 DUP4 SLOAD DIV MUL DUP4 MSTORE SWAP2 PUSH1 0x20 ADD SWAP2 PUSH2 0x340 JUMP JUMPDEST DUP3 ADD SWAP2 SWAP1 PUSH1 0x0 MSTORE PUSH1 0x20 PUSH1 0x0 KECCAK256 SWAP1 JUMPDEST DUP2 SLOAD DUP2 MSTORE SWAP1 PUSH1 0x1 ADD SWAP1 PUSH1 0x20 ADD DUP1 DUP4 GT PUSH2 0x323 JUMPI DUP3 SWAP1 SUB PUSH1 0x1F AND DUP3 ADD SWAP2 JUMPDEST POP POP POP POP POP SWAP1 DUP1 PUSH1 0x5 ADD PUSH1 0x0 SWAP1 SLOAD SWAP1 PUSH2 0x100 EXP SWAP1 DIV PUSH1 0xFF AND SWAP1 DUP1 PUSH1 0x6 ADD SLOAD SWAP1 DUP1 PUSH1 0x7 ADD PUSH1 0x0 SWAP1 SLOAD SWAP1 PUSH2 0x100 EXP SWAP1 DIV PUSH20 0xFFFFFFFFFFFFFFFFFFFFFFFFFFFFFFFFFFFFFFFF AND SWAP1 DUP1 PUSH1 0x8 ADD PUSH1 0x0 SWAP1 SLOAD SWAP1 PUSH2 0x100 EXP SWAP1 DIV PUSH20 0xFFFFFFFFFFFFFFFFFFFFFFFFFFFFFFFFFFFFFFFF AND SWAP1 POP DUP10 JUMP JUMPDEST PUSH1 0x2 PUSH1 0x0 PUSH1 0x1 PUSH1 0x0 SLOAD DUP2 SLOAD DUP2 LT PUSH2 0x3C9 JUMPI PUSH2 0x3C8 PUSH2 0xFFE JUMP JUMPDEST JUMPDEST SWAP1 PUSH1 0x0 MSTORE PUSH1 0x20 PUSH1 0x0 KECCAK256 ADD PUSH1 0x0 SWAP1 SLOAD SWAP1 PUSH2 0x100 EXP SWAP1 DIV PUSH20 0xFFFFFFFFFFFFFFFFFFFFFFFFFFFFFFFFFFFFFFFF AND PUSH20 0xFFFFFFFFFFFFFFFFFFFFFFFFFFFFFFFFFFFFFFFF AND PUSH20 0xFFFFFFFFFFFFFFFFFFFFFFFFFFFFFFFFFFFFFFFF AND DUP2 MSTORE PUSH1 0x20 ADD SWAP1 DUP2 MSTORE PUSH1 0x20 ADD PUSH1 0x0 KECCAK256 PUSH1 0x5 ADD PUSH1 0x0 SWAP1 SLOAD SWAP1 PUSH2 0x100 EXP SWAP1 DIV PUSH1 0xFF AND ISZERO PUSH2 0x47F JUMPI PUSH1 0x40 MLOAD PUSH32 0x8C379A000000000000000000000000000000000000000000000000000000000 DUP2 MSTORE PUSH1 0x4 ADD PUSH2 0x476 SWAP1 PUSH2 0xD1A JUMP JUMPDEST PUSH1 0x40 MLOAD DUP1 SWAP2 SUB SWAP1 REVERT JUMPDEST DUP4 PUSH1 0x2 PUSH1 0x0 PUSH1 0x1 PUSH1 0x0 SLOAD DUP2 SLOAD DUP2 LT PUSH2 0x49A JUMPI PUSH2 0x499 PUSH2 0xFFE JUMP JUMPDEST JUMPDEST SWAP1 PUSH1 0x0 MSTORE PUSH1 0x20 PUSH1 0x0 KECCAK256 ADD PUSH1 0x0 SWAP1 SLOAD SWAP1 PUSH2 0x100 EXP SWAP1 DIV PUSH20 0xFFFFFFFFFFFFFFFFFFFFFFFFFFFFFFFFFFFFFFFF AND PUSH20 0xFFFFFFFFFFFFFFFFFFFFFFFFFFFFFFFFFFFFFFFF AND PUSH20 0xFFFFFFFFFFFFFFFFFFFFFFFFFFFFFFFFFFFFFFFF AND DUP2 MSTORE PUSH1 0x20 ADD SWAP1 DUP2 MSTORE PUSH1 0x20 ADD PUSH1 0x0 KECCAK256 PUSH1 0x1 ADD DUP2 SWAP1 SSTORE POP DUP3 PUSH1 0x2 PUSH1 0x0 PUSH1 0x1 PUSH1 0x0 SLOAD DUP2 SLOAD DUP2 LT PUSH2 0x521 JUMPI PUSH2 0x520 PUSH2 0xFFE JUMP JUMPDEST JUMPDEST SWAP1 PUSH1 0x0 MSTORE PUSH1 0x20 PUSH1 0x0 KECCAK256 ADD PUSH1 0x0 SWAP1 SLOAD SWAP1 PUSH2 0x100 EXP SWAP1 DIV PUSH20 0xFFFFFFFFFFFFFFFFFFFFFFFFFFFFFFFFFFFFFFFF AND PUSH20 0xFFFFFFFFFFFFFFFFFFFFFFFFFFFFFFFFFFFFFFFF AND PUSH20 0xFFFFFFFFFFFFFFFFFFFFFFFFFFFFFFFFFFFFFFFF AND DUP2 MSTORE PUSH1 0x20 ADD SWAP1 DUP2 MSTORE PUSH1 0x20 ADD PUSH1 0x0 KECCAK256 PUSH1 0x2 ADD SWAP1 DUP1 MLOAD SWAP1 PUSH1 0x20 ADD SWAP1 PUSH2 0x59C SWAP3 SWAP2 SWAP1 PUSH2 0x94B JUMP JUMPDEST POP DUP2 PUSH1 0x2 PUSH1 0x0 PUSH1 0x1 PUSH1 0x0 SLOAD DUP2 SLOAD DUP2 LT PUSH2 0x5B8 JUMPI PUSH2 0x5B7 PUSH2 0xFFE JUMP JUMPDEST JUMPDEST SWAP1 PUSH1 0x0 MSTORE PUSH1 0x20 PUSH1 0x0 KECCAK256 ADD PUSH1 0x0 SWAP1 SLOAD SWAP1 PUSH2 0x100 EXP SWAP1 DIV PUSH20 0xFFFFFFFFFFFFFFFFFFFFFFFFFFFFFFFFFFFFFFFF AND PUSH20 0xFFFFFFFFFFFFFFFFFFFFFFFFFFFFFFFFFFFFFFFF AND PUSH20 0xFFFFFFFFFFFFFFFFFFFFFFFFFFFFFFFFFFFFFFFF AND DUP2 MSTORE PUSH1 0x20 ADD SWAP1 DUP2 MSTORE PUSH1 0x20 ADD PUSH1 0x0 KECCAK256 PUSH1 0x3 ADD SWAP1 DUP1 MLOAD SWAP1 PUSH1 0x20 ADD SWAP1 PUSH2 0x633 SWAP3 SWAP2 SWAP1 PUSH2 0x94B JUMP JUMPDEST POP DUP1 PUSH1 0x2 PUSH1 0x0 PUSH1 0x1 PUSH1 0x0 SLOAD DUP2 SLOAD DUP2 LT PUSH2 0x64F JUMPI PUSH2 0x64E PUSH2 0xFFE JUMP JUMPDEST JUMPDEST SWAP1 PUSH1 0x0 MSTORE PUSH1 0x20 PUSH1 0x0 KECCAK256 ADD PUSH1 0x0 SWAP1 SLOAD SWAP1 PUSH2 0x100 EXP SWAP1 DIV PUSH20 0xFFFFFFFFFFFFFFFFFFFFFFFFFFFFFFFFFFFFFFFF AND PUSH20 0xFFFFFFFFFFFFFFFFFFFFFFFFFFFFFFFFFFFFFFFF AND PUSH20 0xFFFFFFFFFFFFFFFFFFFFFFFFFFFFFFFFFFFFFFFF AND DUP2 MSTORE PUSH1 0x20 ADD SWAP1 DUP2 MSTORE PUSH1 0x20 ADD PUSH1 0x0 KECCAK256 PUSH1 0x4 ADD SWAP1 DUP1 MLOAD SWAP1 PUSH1 0x20 ADD SWAP1 PUSH2 0x6CA SWAP3 SWAP2 SWAP1 PUSH2 0x94B JUMP JUMPDEST POP PUSH1 0x1 PUSH1 0x2 PUSH1 0x0 PUSH1 0x1 PUSH1 0x0 SLOAD DUP2 SLOAD DUP2 LT PUSH2 0x6E7 JUMPI PUSH2 0x6E6 PUSH2 0xFFE JUMP JUMPDEST JUMPDEST SWAP1 PUSH1 0x0 MSTORE PUSH1 0x20 PUSH1 0x0 KECCAK256 ADD PUSH1 0x0 SWAP1 SLOAD SWAP1 PUSH2 0x100 EXP SWAP1 DIV PUSH20 0xFFFFFFFFFFFFFFFFFFFFFFFFFFFFFFFFFFFFFFFF AND PUSH20 0xFFFFFFFFFFFFFFFFFFFFFFFFFFFFFFFFFFFFFFFF AND PUSH20 0xFFFFFFFFFFFFFFFFFFFFFFFFFFFFFFFFFFFFFFFF AND DUP2 MSTORE PUSH1 0x20 ADD SWAP1 DUP2 MSTORE PUSH1 0x20 ADD PUSH1 0x0 KECCAK256 PUSH1 0x5 ADD PUSH1 0x0 PUSH2 0x100 EXP DUP2 SLOAD DUP2 PUSH1 0xFF MUL NOT AND SWAP1 DUP4 ISZERO ISZERO MUL OR SWAP1 SSTORE POP PUSH1 0x0 DUP1 DUP2 SLOAD DUP1 SWAP3 SWAP2 SWAP1 PUSH2 0x778 SWAP1 PUSH2 0xF57 JUMP JUMPDEST SWAP2 SWAP1 POP SSTORE POP POP POP POP POP JUMP JUMPDEST PUSH1 0x3 DUP2 DUP2 SLOAD DUP2 LT PUSH2 0x793 JUMPI PUSH1 0x0 DUP1 REVERT JUMPDEST SWAP1 PUSH1 0x0 MSTORE PUSH1 0x20 PUSH1 0x0 KECCAK256 SWAP1 PUSH1 0x2 MUL ADD PUSH1 0x0 SWAP2 POP SWAP1 POP DUP1 PUSH1 0x0 ADD SLOAD SWAP1 DUP1 PUSH1 0x1 ADD SLOAD SWAP1 POP DUP3 JUMP JUMPDEST PUSH1 0x0 DUP1 PUSH1 0x0 SWAP1 POP JUMPDEST PUSH1 0x0 SLOAD DUP2 LT ISZERO PUSH2 0x8BA JUMPI DUP3 PUSH20 0xFFFFFFFFFFFFFFFFFFFFFFFFFFFFFFFFFFFFFFFF AND PUSH1 0x2 PUSH1 0x0 PUSH1 0x1 DUP5 DUP2 SLOAD DUP2 LT PUSH2 0x7F8 JUMPI PUSH2 0x7F7 PUSH2 0xFFE JUMP JUMPDEST JUMPDEST SWAP1 PUSH1 0x0 MSTORE PUSH1 0x20 PUSH1 0x0 KECCAK256 ADD PUSH1 0x0 SWAP1 SLOAD SWAP1 PUSH2 0x100 EXP SWAP1 DIV PUSH20 0xFFFFFFFFFFFFFFFFFFFFFFFFFFFFFFFFFFFFFFFF AND PUSH20 0xFFFFFFFFFFFFFFFFFFFFFFFFFFFFFFFFFFFFFFFF AND PUSH20 0xFFFFFFFFFFFFFFFFFFFFFFFFFFFFFFFFFFFFFFFF AND DUP2 MSTORE PUSH1 0x20 ADD SWAP1 DUP2 MSTORE PUSH1 0x20 ADD PUSH1 0x0 KECCAK256 PUSH1 0x7 ADD PUSH1 0x0 SWAP1 SLOAD SWAP1 PUSH2 0x100 EXP SWAP1 DIV PUSH20 0xFFFFFFFFFFFFFFFFFFFFFFFFFFFFFFFFFFFFFFFF AND PUSH20 0xFFFFFFFFFFFFFFFFFFFFFFFFFFFFFFFFFFFFFFFF AND EQ ISZERO PUSH2 0x8A7 JUMPI PUSH1 0x1 SWAP2 POP POP PUSH2 0x8C0 JUMP JUMPDEST DUP1 DUP1 PUSH2 0x8B2 SWAP1 PUSH2 0xF57 JUMP JUMPDEST SWAP2 POP POP PUSH2 0x7BF JUMP JUMPDEST POP PUSH1 0x0 SWAP1 POP JUMPDEST SWAP2 SWAP1 POP JUMP JUMPDEST PUSH1 0x0 PUSH32 0x58C2FDDD8DD62FF60B8D81A7CC2F875FBB9A00D3522B61DFDC9155DE54546D6F CALLER DUP5 DUP5 PUSH1 0x40 MLOAD PUSH2 0x8FA SWAP4 SWAP3 SWAP2 SWAP1 PUSH2 0xC9F JUMP JUMPDEST PUSH1 0x40 MLOAD DUP1 SWAP2 SUB SWAP1 LOG1 PUSH1 0x1 SWAP1 POP SWAP3 SWAP2 POP POP JUMP JUMPDEST PUSH1 0x1 DUP2 DUP2 SLOAD DUP2 LT PUSH2 0x91C JUMPI PUSH1 0x0 DUP1 REVERT JUMPDEST SWAP1 PUSH1 0x0 MSTORE PUSH1 0x20 PUSH1 0x0 KECCAK256 ADD PUSH1 0x0 SWAP2 POP SLOAD SWAP1 PUSH2 0x100 EXP SWAP1 DIV PUSH20 0xFFFFFFFFFFFFFFFFFFFFFFFFFFFFFFFFFFFFFFFF AND DUP2 JUMP JUMPDEST DUP3 DUP1 SLOAD PUSH2 0x957 SWAP1 PUSH2 0xEF4 JUMP JUMPDEST SWAP1 PUSH1 0x0 MSTORE PUSH1 0x20 PUSH1 0x0 KECCAK256 SWAP1 PUSH1 0x1F ADD PUSH1 0x20 SWAP1 DIV DUP2 ADD SWAP3 DUP3 PUSH2 0x979 JUMPI PUSH1 0x0 DUP6 SSTORE PUSH2 0x9C0 JUMP JUMPDEST DUP3 PUSH1 0x1F LT PUSH2 0x992 JUMPI DUP1 MLOAD PUSH1 0xFF NOT AND DUP4 DUP1 ADD OR DUP6 SSTORE PUSH2 0x9C0 JUMP JUMPDEST DUP3 DUP1 ADD PUSH1 0x1 ADD DUP6 SSTORE DUP3 ISZERO PUSH2 0x9C0 JUMPI SWAP2 DUP3 ADD JUMPDEST DUP3 DUP2 GT ISZERO PUSH2 0x9BF JUMPI DUP3 MLOAD DUP3 SSTORE SWAP2 PUSH1 0x20 ADD SWAP2 SWAP1 PUSH1 0x1 ADD SWAP1 PUSH2 0x9A4 JUMP JUMPDEST JUMPDEST POP SWAP1 POP PUSH2 0x9CD SWAP2 SWAP1 PUSH2 0x9D1 JUMP JUMPDEST POP SWAP1 JUMP JUMPDEST JUMPDEST DUP1 DUP3 GT ISZERO PUSH2 0x9EA JUMPI PUSH1 0x0 DUP2 PUSH1 0x0 SWAP1 SSTORE POP PUSH1 0x1 ADD PUSH2 0x9D2 JUMP JUMPDEST POP SWAP1 JUMP JUMPDEST PUSH1 0x0 PUSH2 0xA01 PUSH2 0x9FC DUP5 PUSH2 0xE01 JUMP JUMPDEST PUSH2 0xDDC JUMP JUMPDEST SWAP1 POP DUP3 DUP2 MSTORE PUSH1 0x20 DUP2 ADD DUP5 DUP5 DUP5 ADD GT ISZERO PUSH2 0xA1D JUMPI PUSH2 0xA1C PUSH2 0x1061 JUMP JUMPDEST JUMPDEST PUSH2 0xA28 DUP5 DUP3 DUP6 PUSH2 0xEB2 JUMP JUMPDEST POP SWAP4 SWAP3 POP POP POP JUMP JUMPDEST PUSH1 0x0 DUP2 CALLDATALOAD SWAP1 POP PUSH2 0xA3F DUP2 PUSH2 0x10AA JUMP JUMPDEST SWAP3 SWAP2 POP POP JUMP JUMPDEST PUSH1 0x0 DUP3 PUSH1 0x1F DUP4 ADD SLT PUSH2 0xA5A JUMPI PUSH2 0xA59 PUSH2 0x105C JUMP JUMPDEST JUMPDEST DUP2 CALLDATALOAD PUSH2 0xA6A DUP5 DUP3 PUSH1 0x20 DUP7 ADD PUSH2 0x9EE JUMP JUMPDEST SWAP2 POP POP SWAP3 SWAP2 POP POP JUMP JUMPDEST PUSH1 0x0 DUP2 CALLDATALOAD SWAP1 POP PUSH2 0xA82 DUP2 PUSH2 0x10C1 JUMP JUMPDEST SWAP3 SWAP2 POP POP JUMP JUMPDEST PUSH1 0x0 PUSH1 0x20 DUP3 DUP5 SUB SLT ISZERO PUSH2 0xA9E JUMPI PUSH2 0xA9D PUSH2 0x106B JUMP JUMPDEST JUMPDEST PUSH1 0x0 PUSH2 0xAAC DUP5 DUP3 DUP6 ADD PUSH2 0xA30 JUMP JUMPDEST SWAP2 POP POP SWAP3 SWAP2 POP POP JUMP JUMPDEST PUSH1 0x0 DUP1 PUSH1 0x40 DUP4 DUP6 SUB SLT ISZERO PUSH2 0xACC JUMPI PUSH2 0xACB PUSH2 0x106B JUMP JUMPDEST JUMPDEST PUSH1 0x0 PUSH2 0xADA DUP6 DUP3 DUP7 ADD PUSH2 0xA30 JUMP JUMPDEST SWAP3 POP POP PUSH1 0x20 PUSH2 0xAEB DUP6 DUP3 DUP7 ADD PUSH2 0xA73 JUMP JUMPDEST SWAP2 POP POP SWAP3 POP SWAP3 SWAP1 POP JUMP JUMPDEST PUSH1 0x0 PUSH1 0x20 DUP3 DUP5 SUB SLT ISZERO PUSH2 0xB0B JUMPI PUSH2 0xB0A PUSH2 0x106B JUMP JUMPDEST JUMPDEST PUSH1 0x0 PUSH2 0xB19 DUP5 DUP3 DUP6 ADD PUSH2 0xA73 JUMP JUMPDEST SWAP2 POP POP SWAP3 SWAP2 POP POP JUMP JUMPDEST PUSH1 0x0 DUP1 PUSH1 0x0 DUP1 PUSH1 0x80 DUP6 DUP8 SUB SLT ISZERO PUSH2 0xB3C JUMPI PUSH2 0xB3B PUSH2 0x106B JUMP JUMPDEST JUMPDEST PUSH1 0x0 PUSH2 0xB4A DUP8 DUP3 DUP9 ADD PUSH2 0xA73 JUMP JUMPDEST SWAP5 POP POP PUSH1 0x20 DUP6 ADD CALLDATALOAD PUSH8 0xFFFFFFFFFFFFFFFF DUP2 GT ISZERO PUSH2 0xB6B JUMPI PUSH2 0xB6A PUSH2 0x1066 JUMP JUMPDEST JUMPDEST PUSH2 0xB77 DUP8 DUP3 DUP9 ADD PUSH2 0xA45 JUMP JUMPDEST SWAP4 POP POP PUSH1 0x40 DUP6 ADD CALLDATALOAD PUSH8 0xFFFFFFFFFFFFFFFF DUP2 GT ISZERO PUSH2 0xB98 JUMPI PUSH2 0xB97 PUSH2 0x1066 JUMP JUMPDEST JUMPDEST PUSH2 0xBA4 DUP8 DUP3 DUP9 ADD PUSH2 0xA45 JUMP JUMPDEST SWAP3 POP POP PUSH1 0x60 DUP6 ADD CALLDATALOAD PUSH8 0xFFFFFFFFFFFFFFFF DUP2 GT ISZERO PUSH2 0xBC5 JUMPI PUSH2 0xBC4 PUSH2 0x1066 JUMP JUMPDEST JUMPDEST PUSH2 0xBD1 DUP8 DUP3 DUP9 ADD PUSH2 0xA45 JUMP JUMPDEST SWAP2 POP POP SWAP3 SWAP6 SWAP2 SWAP5 POP SWAP3 POP JUMP JUMPDEST PUSH2 0xBE6 DUP2 PUSH2 0xE60 JUMP JUMPDEST DUP3 MSTORE POP POP JUMP JUMPDEST PUSH2 0xBF5 DUP2 PUSH2 0xE4E JUMP JUMPDEST DUP3 MSTORE POP POP JUMP JUMPDEST PUSH2 0xC04 DUP2 PUSH2 0xE72 JUMP JUMPDEST DUP3 MSTORE POP POP JUMP JUMPDEST PUSH2 0xC13 DUP2 PUSH2 0xE7E JUMP JUMPDEST DUP3 MSTORE POP POP JUMP JUMPDEST PUSH1 0x0 PUSH2 0xC24 DUP3 PUSH2 0xE32 JUMP JUMPDEST PUSH2 0xC2E DUP2 DUP6 PUSH2 0xE3D JUMP JUMPDEST SWAP4 POP PUSH2 0xC3E DUP2 DUP6 PUSH1 0x20 DUP7 ADD PUSH2 0xEC1 JUMP JUMPDEST PUSH2 0xC47 DUP2 PUSH2 0x1070 JUMP JUMPDEST DUP5 ADD SWAP2 POP POP SWAP3 SWAP2 POP POP JUMP JUMPDEST PUSH1 0x0 PUSH2 0xC5F PUSH1 0x1D DUP4 PUSH2 0xE3D JUMP JUMPDEST SWAP2 POP PUSH2 0xC6A DUP3 PUSH2 0x1081 JUMP JUMPDEST PUSH1 0x20 DUP3 ADD SWAP1 POP SWAP2 SWAP1 POP JUMP JUMPDEST PUSH2 0xC7E DUP2 PUSH2 0xEA8 JUMP JUMPDEST DUP3 MSTORE POP POP JUMP JUMPDEST PUSH1 0x0 PUSH1 0x20 DUP3 ADD SWAP1 POP PUSH2 0xC99 PUSH1 0x0 DUP4 ADD DUP5 PUSH2 0xBEC JUMP JUMPDEST SWAP3 SWAP2 POP POP JUMP JUMPDEST PUSH1 0x0 PUSH1 0x60 DUP3 ADD SWAP1 POP PUSH2 0xCB4 PUSH1 0x0 DUP4 ADD DUP7 PUSH2 0xBEC JUMP JUMPDEST PUSH2 0xCC1 PUSH1 0x20 DUP4 ADD DUP6 PUSH2 0xBEC JUMP JUMPDEST PUSH2 0xCCE PUSH1 0x40 DUP4 ADD DUP5 PUSH2 0xC75 JUMP JUMPDEST SWAP5 SWAP4 POP POP POP POP JUMP JUMPDEST PUSH1 0x0 PUSH1 0x20 DUP3 ADD SWAP1 POP PUSH2 0xCEB PUSH1 0x0 DUP4 ADD DUP5 PUSH2 0xBFB JUMP JUMPDEST SWAP3 SWAP2 POP POP JUMP JUMPDEST PUSH1 0x0 PUSH1 0x40 DUP3 ADD SWAP1 POP PUSH2 0xD06 PUSH1 0x0 DUP4 ADD DUP6 PUSH2 0xC0A JUMP JUMPDEST PUSH2 0xD13 PUSH1 0x20 DUP4 ADD DUP5 PUSH2 0xC75 JUMP JUMPDEST SWAP4 SWAP3 POP POP POP JUMP JUMPDEST PUSH1 0x0 PUSH1 0x20 DUP3 ADD SWAP1 POP DUP2 DUP2 SUB PUSH1 0x0 DUP4 ADD MSTORE PUSH2 0xD33 DUP2 PUSH2 0xC52 JUMP JUMPDEST SWAP1 POP SWAP2 SWAP1 POP JUMP JUMPDEST PUSH1 0x0 PUSH2 0x120 DUP3 ADD SWAP1 POP PUSH2 0xD50 PUSH1 0x0 DUP4 ADD DUP13 PUSH2 0xC75 JUMP JUMPDEST PUSH2 0xD5D PUSH1 0x20 DUP4 ADD DUP12 PUSH2 0xC75 JUMP JUMPDEST DUP2 DUP2 SUB PUSH1 0x40 DUP4 ADD MSTORE PUSH2 0xD6F DUP2 DUP11 PUSH2 0xC19 JUMP JUMPDEST SWAP1 POP DUP2 DUP2 SUB PUSH1 0x60 DUP4 ADD MSTORE PUSH2 0xD83 DUP2 DUP10 PUSH2 0xC19 JUMP JUMPDEST SWAP1 POP DUP2 DUP2 SUB PUSH1 0x80 DUP4 ADD MSTORE PUSH2 0xD97 DUP2 DUP9 PUSH2 0xC19 JUMP JUMPDEST SWAP1 POP PUSH2 0xDA6 PUSH1 0xA0 DUP4 ADD DUP8 PUSH2 0xBFB JUMP JUMPDEST PUSH2 0xDB3 PUSH1 0xC0 DUP4 ADD DUP7 PUSH2 0xC75 JUMP JUMPDEST PUSH2 0xDC0 PUSH1 0xE0 DUP4 ADD DUP6 PUSH2 0xBDD JUMP JUMPDEST PUSH2 0xDCE PUSH2 0x100 DUP4 ADD DUP5 PUSH2 0xBDD JUMP JUMPDEST SWAP11 SWAP10 POP POP POP POP POP POP POP POP POP POP JUMP JUMPDEST PUSH1 0x0 PUSH2 0xDE6 PUSH2 0xDF7 JUMP JUMPDEST SWAP1 POP PUSH2 0xDF2 DUP3 DUP3 PUSH2 0xF26 JUMP JUMPDEST SWAP2 SWAP1 POP JUMP JUMPDEST PUSH1 0x0 PUSH1 0x40 MLOAD SWAP1 POP SWAP1 JUMP JUMPDEST PUSH1 0x0 PUSH8 0xFFFFFFFFFFFFFFFF DUP3 GT ISZERO PUSH2 0xE1C JUMPI PUSH2 0xE1B PUSH2 0x102D JUMP JUMPDEST JUMPDEST PUSH2 0xE25 DUP3 PUSH2 0x1070 JUMP JUMPDEST SWAP1 POP PUSH1 0x20 DUP2 ADD SWAP1 POP SWAP2 SWAP1 POP JUMP JUMPDEST PUSH1 0x0 DUP2 MLOAD SWAP1 POP SWAP2 SWAP1 POP JUMP JUMPDEST PUSH1 0x0 DUP3 DUP3 MSTORE PUSH1 0x20 DUP3 ADD SWAP1 POP SWAP3 SWAP2 POP POP JUMP JUMPDEST PUSH1 0x0 PUSH2 0xE59 DUP3 PUSH2 0xE88 JUMP JUMPDEST SWAP1 POP SWAP2 SWAP1 POP JUMP JUMPDEST PUSH1 0x0 PUSH2 0xE6B DUP3 PUSH2 0xE88 JUMP JUMPDEST SWAP1 POP SWAP2 SWAP1 POP JUMP JUMPDEST PUSH1 0x0 DUP2 ISZERO ISZERO SWAP1 POP SWAP2 SWAP1 POP JUMP JUMPDEST PUSH1 0x0 DUP2 SWAP1 POP SWAP2 SWAP1 POP JUMP JUMPDEST PUSH1 0x0 PUSH20 0xFFFFFFFFFFFFFFFFFFFFFFFFFFFFFFFFFFFFFFFF DUP3 AND SWAP1 POP SWAP2 SWAP1 POP JUMP JUMPDEST PUSH1 0x0 DUP2 SWAP1 POP SWAP2 SWAP1 POP JUMP JUMPDEST DUP3 DUP2 DUP4 CALLDATACOPY PUSH1 0x0 DUP4 DUP4 ADD MSTORE POP POP POP JUMP JUMPDEST PUSH1 0x0 JUMPDEST DUP4 DUP2 LT ISZERO PUSH2 0xEDF JUMPI DUP1 DUP3 ADD MLOAD DUP2 DUP5 ADD MSTORE PUSH1 0x20 DUP2 ADD SWAP1 POP PUSH2 0xEC4 JUMP JUMPDEST DUP4 DUP2 GT ISZERO PUSH2 0xEEE JUMPI PUSH1 0x0 DUP5 DUP5 ADD MSTORE JUMPDEST POP POP POP POP JUMP JUMPDEST PUSH1 0x0 PUSH1 0x2 DUP3 DIV SWAP1 POP PUSH1 0x1 DUP3 AND DUP1 PUSH2 0xF0C JUMPI PUSH1 0x7F DUP3 AND SWAP2 POP JUMPDEST PUSH1 0x20 DUP3 LT DUP2 EQ ISZERO PUSH2 0xF20 JUMPI PUSH2 0xF1F PUSH2 0xFCF JUMP JUMPDEST JUMPDEST POP SWAP2 SWAP1 POP JUMP JUMPDEST PUSH2 0xF2F DUP3 PUSH2 0x1070 JUMP JUMPDEST DUP2 ADD DUP2 DUP2 LT PUSH8 0xFFFFFFFFFFFFFFFF DUP3 GT OR ISZERO PUSH2 0xF4E JUMPI PUSH2 0xF4D PUSH2 0x102D JUMP JUMPDEST JUMPDEST DUP1 PUSH1 0x40 MSTORE POP POP POP JUMP JUMPDEST PUSH1 0x0 PUSH2 0xF62 DUP3 PUSH2 0xEA8 JUMP JUMPDEST SWAP2 POP PUSH32 0xFFFFFFFFFFFFFFFFFFFFFFFFFFFFFFFFFFFFFFFFFFFFFFFFFFFFFFFFFFFFFFFF DUP3 EQ ISZERO PUSH2 0xF95 JUMPI PUSH2 0xF94 PUSH2 0xFA0 JUMP JUMPDEST JUMPDEST PUSH1 0x1 DUP3 ADD SWAP1 POP SWAP2 SWAP1 POP JUMP JUMPDEST PUSH32 0x4E487B7100000000000000000000000000000000000000000000000000000000 PUSH1 0x0 MSTORE PUSH1 0x11 PUSH1 0x4 MSTORE PUSH1 0x24 PUSH1 0x0 REVERT JUMPDEST PUSH32 0x4E487B7100000000000000000000000000000000000000000000000000000000 PUSH1 0x0 MSTORE PUSH1 0x22 PUSH1 0x4 MSTORE PUSH1 0x24 PUSH1 0x0 REVERT JUMPDEST PUSH32 0x4E487B7100000000000000000000000000000000000000000000000000000000 PUSH1 0x0 MSTORE PUSH1 0x32 PUSH1 0x4 MSTORE PUSH1 0x24 PUSH1 0x0 REVERT JUMPDEST PUSH32 0x4E487B7100000000000000000000000000000000000000000000000000000000 PUSH1 0x0 MSTORE PUSH1 0x41 PUSH1 0x4 MSTORE PUSH1 0x24 PUSH1 0x0 REVERT JUMPDEST PUSH1 0x0 DUP1 REVERT JUMPDEST PUSH1 0x0 DUP1 REVERT JUMPDEST PUSH1 0x0 DUP1 REVERT JUMPDEST PUSH1 0x0 DUP1 REVERT JUMPDEST PUSH1 0x0 PUSH1 0x1F NOT PUSH1 0x1F DUP4 ADD AND SWAP1 POP SWAP2 SWAP1 POP JUMP JUMPDEST PUSH32 0x50617469656E7420697320616C72656164792072656769737465726564000000 PUSH1 0x0 DUP3 ADD MSTORE POP JUMP JUMPDEST PUSH2 0x10B3 DUP2 PUSH2 0xE4E JUMP JUMPDEST DUP2 EQ PUSH2 0x10BE JUMPI PUSH1 0x0 DUP1 REVERT JUMPDEST POP JUMP JUMPDEST PUSH2 0x10CA DUP2 PUSH2 0xEA8 JUMP JUMPDEST DUP2 EQ PUSH2 0x10D5 JUMPI PUSH1 0x0 DUP1 REVERT JUMPDEST POP JUMP INVALID LOG2 PUSH5 0x6970667358 0x22 SLT KECCAK256 PUSH17 0x96F7437C5E42352E60EF987942AE2F7AF5 0xF 0xE3 PUSH11 0x667F7852E1E10B61A874B6 PUSH5 0x736F6C6343 STOP ADDMOD SMOD STOP CALLER "
				},
				"gasEstimates": {
					"creation": {
						"codeDepositCost": "873200",
						"executionCost": "29467",
						"totalCost": "902667"
					},
					"external": {
						"authCheck(address,uint256)": "infinite",
						"author(uint256)": "5044",
						"cards(uint256)": "infinite",
						"fetchData(address)": "infinite",
						"patients(address)": "infinite",
						"registerPatient(uint256,string,string,string)": "infinite"
					}
				},
				"methodIdentifiers": {
					"authCheck(address,uint256)": "d651893d",
					"author(uint256)": "ec4eb442",
					"cards(uint256)": "8dc10768",
					"fetchData(address)": "c4bfd57d",
					"patients(address)": "0869cfbc",
					"registerPatient(uint256,string,string,string)": "89c47f08"
				}
			},
			"storageLayout": {
				"storage": [
					{
						"astId": 28,
						"contract": "contracts/3_Data.sol:Data",
						"label": "counter",
						"offset": 0,
						"slot": "0",
						"type": "t_uint256"
					},
					{
						"astId": 31,
						"contract": "contracts/3_Data.sol:Data",
						"label": "author",
						"offset": 0,
						"slot": "1",
						"type": "t_array(t_address)dyn_storage"
					},
					{
						"astId": 36,
						"contract": "contracts/3_Data.sol:Data",
						"label": "patients",
						"offset": 0,
						"slot": "2",
						"type": "t_mapping(t_address,t_struct(Patient)21_storage)"
					},
					{
						"astId": 40,
						"contract": "contracts/3_Data.sol:Data",
						"label": "cards",
						"offset": 0,
						"slot": "3",
						"type": "t_array(t_struct(Card)26_storage)dyn_storage"
					}
				],
				"types": {
					"t_address": {
						"encoding": "inplace",
						"label": "address",
						"numberOfBytes": "20"
					},
					"t_address_payable": {
						"encoding": "inplace",
						"label": "address payable",
						"numberOfBytes": "20"
					},
					"t_array(t_address)dyn_storage": {
						"base": "t_address",
						"encoding": "dynamic_array",
						"label": "address[]",
						"numberOfBytes": "32"
					},
					"t_array(t_struct(Card)26_storage)dyn_storage": {
						"base": "t_struct(Card)26_storage",
						"encoding": "dynamic_array",
						"label": "struct Data.Card[]",
						"numberOfBytes": "32"
					},
					"t_bool": {
						"encoding": "inplace",
						"label": "bool",
						"numberOfBytes": "1"
					},
					"t_bytes32": {
						"encoding": "inplace",
						"label": "bytes32",
						"numberOfBytes": "32"
					},
					"t_mapping(t_address,t_struct(Patient)21_storage)": {
						"encoding": "mapping",
						"key": "t_address",
						"label": "mapping(address => struct Data.Patient)",
						"numberOfBytes": "32",
						"value": "t_struct(Patient)21_storage"
					},
					"t_string_storage": {
						"encoding": "bytes",
						"label": "string",
						"numberOfBytes": "32"
					},
					"t_struct(Card)26_storage": {
						"encoding": "inplace",
						"label": "struct Data.Card",
						"members": [
							{
								"astId": 23,
								"contract": "contracts/3_Data.sol:Data",
								"label": "name",
								"offset": 0,
								"slot": "0",
								"type": "t_bytes32"
							},
							{
								"astId": 25,
								"contract": "contracts/3_Data.sol:Data",
								"label": "ID",
								"offset": 0,
								"slot": "1",
								"type": "t_uint256"
							}
						],
						"numberOfBytes": "64"
					},
					"t_struct(Patient)21_storage": {
						"encoding": "inplace",
						"label": "struct Data.Patient",
						"members": [
							{
								"astId": 4,
								"contract": "contracts/3_Data.sol:Data",
								"label": "ID",
								"offset": 0,
								"slot": "0",
								"type": "t_uint256"
							},
							{
								"astId": 6,
								"contract": "contracts/3_Data.sol:Data",
								"label": "healthy",
								"offset": 0,
								"slot": "1",
								"type": "t_uint256"
							},
							{
								"astId": 8,
								"contract": "contracts/3_Data.sol:Data",
								"label": "name",
								"offset": 0,
								"slot": "2",
								"type": "t_string_storage"
							},
							{
								"astId": 10,
								"contract": "contracts/3_Data.sol:Data",
								"label": "disease",
								"offset": 0,
								"slot": "3",
								"type": "t_string_storage"
							},
							{
								"astId": 12,
								"contract": "contracts/3_Data.sol:Data",
								"label": "medicines",
								"offset": 0,
								"slot": "4",
								"type": "t_string_storage"
							},
							{
								"astId": 14,
								"contract": "contracts/3_Data.sol:Data",
								"label": "reg",
								"offset": 0,
								"slot": "5",
								"type": "t_bool"
							},
							{
								"astId": 16,
								"contract": "contracts/3_Data.sol:Data",
								"label": "key",
								"offset": 0,
								"slot": "6",
								"type": "t_uint256"
							},
							{
								"astId": 18,
								"contract": "contracts/3_Data.sol:Data",
								"label": "client",
								"offset": 0,
								"slot": "7",
								"type": "t_address_payable"
							},
							{
								"astId": 20,
								"contract": "contracts/3_Data.sol:Data",
								"label": "dest",
								"offset": 0,
								"slot": "8",
								"type": "t_address_payable"
							}
						],
						"numberOfBytes": "288"
					},
					"t_uint256": {
						"encoding": "inplace",
						"label": "uint256",
						"numberOfBytes": "32"
					}
				}
			},
			"userdoc": {
				"kind": "user",
				"methods": {},
				"version": 1
			}
		}
	}
}