{
	"contracts/3_Data.sol": {
		"Data": {
			"abi": [
				{
					"inputs": [],
					"stateMutability": "nonpayable",
					"type": "constructor"
				},
				{
					"anonymous": false,
					"inputs": [
						{
							"indexed": false,
							"internalType": "address",
							"name": "from",
							"type": "address"
						},
						{
							"indexed": false,
							"internalType": "address",
							"name": "to",
							"type": "address"
						}
					],
					"name": "Auth",
					"type": "event"
				},
				{
					"inputs": [
						{
							"internalType": "address",
							"name": "to",
							"type": "address"
						}
					],
					"name": "authCheck",
					"outputs": [
						{
							"internalType": "bool",
							"name": "success",
							"type": "bool"
						}
					],
					"stateMutability": "nonpayable",
					"type": "function"
				},
				{
					"inputs": [],
					"name": "author",
					"outputs": [
						{
							"internalType": "address",
							"name": "",
							"type": "address"
						}
					],
					"stateMutability": "view",
					"type": "function"
				},
				{
					"inputs": [
						{
							"internalType": "uint256",
							"name": "",
							"type": "uint256"
						}
					],
					"name": "cards",
					"outputs": [
						{
							"internalType": "bytes32",
							"name": "name",
							"type": "bytes32"
						},
						{
							"internalType": "uint256",
							"name": "ID",
							"type": "uint256"
						}
					],
					"stateMutability": "view",
					"type": "function"
				},
				{
					"inputs": [
						{
							"internalType": "address",
							"name": "test",
							"type": "address"
						}
					],
					"name": "fetchData",
					"outputs": [
						{
							"internalType": "bool",
							"name": "",
							"type": "bool"
						}
					],
					"stateMutability": "nonpayable",
					"type": "function"
				},
				{
					"inputs": [
						{
							"internalType": "address",
							"name": "",
							"type": "address"
						}
					],
					"name": "patients",
					"outputs": [
						{
							"internalType": "uint256",
							"name": "ID",
							"type": "uint256"
						},
						{
							"internalType": "uint256",
							"name": "healthy",
							"type": "uint256"
						},
						{
							"internalType": "string",
							"name": "name",
							"type": "string"
						},
						{
							"internalType": "string",
							"name": "disease",
							"type": "string"
						},
						{
							"internalType": "string",
							"name": "medicines",
							"type": "string"
						},
						{
							"internalType": "bool",
							"name": "reg",
							"type": "bool"
						},
						{
							"internalType": "uint256",
							"name": "key",
							"type": "uint256"
						},
						{
							"internalType": "address payable",
							"name": "client",
							"type": "address"
						},
						{
							"internalType": "address payable",
							"name": "dest",
							"type": "address"
						}
					],
					"stateMutability": "view",
					"type": "function"
				},
				{
					"inputs": [
						{
							"internalType": "uint256",
							"name": "_healthy",
							"type": "uint256"
						},
						{
							"internalType": "string",
							"name": "_name",
							"type": "string"
						},
						{
							"internalType": "string",
							"name": "_disease",
							"type": "string"
						},
						{
							"internalType": "string",
							"name": "_medicine",
							"type": "string"
						}
					],
					"name": "registerPatient",
					"outputs": [],
					"stateMutability": "nonpayable",
					"type": "function"
				}
			],
			"devdoc": {
				"details": "Implements Patient data along with verification",
				"kind": "dev",
				"methods": {},
				"title": "Data",
				"version": 1
			},
			"evm": {
				"assembly": "    /* \"contracts/3_Data.sol\":153:1844  contract Data {... */\n  mstore(0x40, 0x80)\n    /* \"contracts/3_Data.sol\":843:893  constructor() {... */\n  callvalue\n  dup1\n  iszero\n  tag_1\n  jumpi\n  0x00\n  dup1\n  revert\ntag_1:\n  pop\n    /* \"contracts/3_Data.sol\":876:886  msg.sender */\n  caller\n    /* \"contracts/3_Data.sol\":867:873  author */\n  0x01\n  0x00\n    /* \"contracts/3_Data.sol\":867:886  author = msg.sender */\n  0x0100\n  exp\n  dup2\n  sload\n  dup2\n  0xffffffffffffffffffffffffffffffffffffffff\n  mul\n  not\n  and\n  swap1\n  dup4\n  0xffffffffffffffffffffffffffffffffffffffff\n  and\n  mul\n  or\n  swap1\n  sstore\n  pop\n    /* \"contracts/3_Data.sol\":153:1844  contract Data {... */\n  dataSize(sub_0)\n  dup1\n  dataOffset(sub_0)\n  0x00\n  codecopy\n  0x00\n  return\nstop\n\nsub_0: assembly {\n        /* \"contracts/3_Data.sol\":153:1844  contract Data {... */\n      mstore(0x40, 0x80)\n      callvalue\n      dup1\n      iszero\n      tag_1\n      jumpi\n      0x00\n      dup1\n      revert\n    tag_1:\n      pop\n      jumpi(tag_2, lt(calldatasize, 0x04))\n      shr(0xe0, calldataload(0x00))\n      dup1\n      0x0869cfbc\n      eq\n      tag_3\n      jumpi\n      dup1\n      0x89c47f08\n      eq\n      tag_4\n      jumpi\n      dup1\n      0x8dc10768\n      eq\n      tag_5\n      jumpi\n      dup1\n      0xa6c3e6b9\n      eq\n      tag_6\n      jumpi\n      dup1\n      0xc4bfd57d\n      eq\n      tag_7\n      jumpi\n      dup1\n      0xda300116\n      eq\n      tag_8\n      jumpi\n    tag_2:\n      0x00\n      dup1\n      revert\n        /* \"contracts/3_Data.sol\":767:810  mapping(address => Patient) public patients */\n    tag_3:\n      tag_9\n      0x04\n      dup1\n      calldatasize\n      sub\n      dup2\n      add\n      swap1\n      tag_10\n      swap2\n      swap1\n      tag_11\n      jump\t// in\n    tag_10:\n      tag_12\n      jump\t// in\n    tag_9:\n      mload(0x40)\n      tag_13\n      swap10\n      swap9\n      swap8\n      swap7\n      swap6\n      swap5\n      swap4\n      swap3\n      swap2\n      swap1\n      tag_14\n      jump\t// in\n    tag_13:\n      mload(0x40)\n      dup1\n      swap2\n      sub\n      swap1\n      return\n        /* \"contracts/3_Data.sol\":1186:1633  function registerPatient(uint _healthy, string memory _name, string memory _disease, string memory _medicine) external {... */\n    tag_4:\n      tag_15\n      0x04\n      dup1\n      calldatasize\n      sub\n      dup2\n      add\n      swap1\n      tag_16\n      swap2\n      swap1\n      tag_17\n      jump\t// in\n    tag_16:\n      tag_18\n      jump\t// in\n    tag_15:\n      stop\n        /* \"contracts/3_Data.sol\":817:836  Card[] public cards */\n    tag_5:\n      tag_19\n      0x04\n      dup1\n      calldatasize\n      sub\n      dup2\n      add\n      swap1\n      tag_20\n      swap2\n      swap1\n      tag_21\n      jump\t// in\n    tag_20:\n      tag_22\n      jump\t// in\n    tag_19:\n      mload(0x40)\n      tag_23\n      swap3\n      swap2\n      swap1\n      tag_24\n      jump\t// in\n    tag_23:\n      mload(0x40)\n      dup1\n      swap2\n      sub\n      swap1\n      return\n        /* \"contracts/3_Data.sol\":739:760  address public author */\n    tag_6:\n      tag_25\n      tag_26\n      jump\t// in\n    tag_25:\n      mload(0x40)\n      tag_27\n      swap2\n      swap1\n      tag_28\n      jump\t// in\n    tag_27:\n      mload(0x40)\n      dup1\n      swap2\n      sub\n      swap1\n      return\n        /* \"contracts/3_Data.sol\":972:1145  function fetchData (address test) public returns(bool) {... */\n    tag_7:\n      tag_29\n      0x04\n      dup1\n      calldatasize\n      sub\n      dup2\n      add\n      swap1\n      tag_30\n      swap2\n      swap1\n      tag_11\n      jump\t// in\n    tag_30:\n      tag_31\n      jump\t// in\n    tag_29:\n      mload(0x40)\n      tag_32\n      swap2\n      swap1\n      tag_33\n      jump\t// in\n    tag_32:\n      mload(0x40)\n      dup1\n      swap2\n      sub\n      swap1\n      return\n        /* \"contracts/3_Data.sol\":1671:1842  function authCheck(address to) external returns (bool success) {... */\n    tag_8:\n      tag_34\n      0x04\n      dup1\n      calldatasize\n      sub\n      dup2\n      add\n      swap1\n      tag_35\n      swap2\n      swap1\n      tag_11\n      jump\t// in\n    tag_35:\n      tag_36\n      jump\t// in\n    tag_34:\n      mload(0x40)\n      tag_37\n      swap2\n      swap1\n      tag_33\n      jump\t// in\n    tag_37:\n      mload(0x40)\n      dup1\n      swap2\n      sub\n      swap1\n      return\n        /* \"contracts/3_Data.sol\":767:810  mapping(address => Patient) public patients */\n    tag_12:\n      mstore(0x20, 0x02)\n      dup1\n      0x00\n      mstore\n      keccak256(0x00, 0x40)\n      0x00\n      swap2\n      pop\n      swap1\n      pop\n      dup1\n      0x00\n      add\n      sload\n      swap1\n      dup1\n      0x01\n      add\n      sload\n      swap1\n      dup1\n      0x02\n      add\n      dup1\n      sload\n      tag_38\n      swap1\n      tag_39\n      jump\t// in\n    tag_38:\n      dup1\n      0x1f\n      add\n      0x20\n      dup1\n      swap2\n      div\n      mul\n      0x20\n      add\n      mload(0x40)\n      swap1\n      dup2\n      add\n      0x40\n      mstore\n      dup1\n      swap3\n      swap2\n      swap1\n      dup2\n      dup2\n      mstore\n      0x20\n      add\n      dup3\n      dup1\n      sload\n      tag_40\n      swap1\n      tag_39\n      jump\t// in\n    tag_40:\n      dup1\n      iszero\n      tag_41\n      jumpi\n      dup1\n      0x1f\n      lt\n      tag_42\n      jumpi\n      0x0100\n      dup1\n      dup4\n      sload\n      div\n      mul\n      dup4\n      mstore\n      swap2\n      0x20\n      add\n      swap2\n      jump(tag_41)\n    tag_42:\n      dup3\n      add\n      swap2\n      swap1\n      0x00\n      mstore\n      keccak256(0x00, 0x20)\n      swap1\n    tag_43:\n      dup2\n      sload\n      dup2\n      mstore\n      swap1\n      0x01\n      add\n      swap1\n      0x20\n      add\n      dup1\n      dup4\n      gt\n      tag_43\n      jumpi\n      dup3\n      swap1\n      sub\n      0x1f\n      and\n      dup3\n      add\n      swap2\n    tag_41:\n      pop\n      pop\n      pop\n      pop\n      pop\n      swap1\n      dup1\n      0x03\n      add\n      dup1\n      sload\n      tag_44\n      swap1\n      tag_39\n      jump\t// in\n    tag_44:\n      dup1\n      0x1f\n      add\n      0x20\n      dup1\n      swap2\n      div\n      mul\n      0x20\n      add\n      mload(0x40)\n      swap1\n      dup2\n      add\n      0x40\n      mstore\n      dup1\n      swap3\n      swap2\n      swap1\n      dup2\n      dup2\n      mstore\n      0x20\n      add\n      dup3\n      dup1\n      sload\n      tag_45\n      swap1\n      tag_39\n      jump\t// in\n    tag_45:\n      dup1\n      iszero\n      tag_46\n      jumpi\n      dup1\n      0x1f\n      lt\n      tag_47\n      jumpi\n      0x0100\n      dup1\n      dup4\n      sload\n      div\n      mul\n      dup4\n      mstore\n      swap2\n      0x20\n      add\n      swap2\n      jump(tag_46)\n    tag_47:\n      dup3\n      add\n      swap2\n      swap1\n      0x00\n      mstore\n      keccak256(0x00, 0x20)\n      swap1\n    tag_48:\n      dup2\n      sload\n      dup2\n      mstore\n      swap1\n      0x01\n      add\n      swap1\n      0x20\n      add\n      dup1\n      dup4\n      gt\n      tag_48\n      jumpi\n      dup3\n      swap1\n      sub\n      0x1f\n      and\n      dup3\n      add\n      swap2\n    tag_46:\n      pop\n      pop\n      pop\n      pop\n      pop\n      swap1\n      dup1\n      0x04\n      add\n      dup1\n      sload\n      tag_49\n      swap1\n      tag_39\n      jump\t// in\n    tag_49:\n      dup1\n      0x1f\n      add\n      0x20\n      dup1\n      swap2\n      div\n      mul\n      0x20\n      add\n      mload(0x40)\n      swap1\n      dup2\n      add\n      0x40\n      mstore\n      dup1\n      swap3\n      swap2\n      swap1\n      dup2\n      dup2\n      mstore\n      0x20\n      add\n      dup3\n      dup1\n      sload\n      tag_50\n      swap1\n      tag_39\n      jump\t// in\n    tag_50:\n      dup1\n      iszero\n      tag_51\n      jumpi\n      dup1\n      0x1f\n      lt\n      tag_52\n      jumpi\n      0x0100\n      dup1\n      dup4\n      sload\n      div\n      mul\n      dup4\n      mstore\n      swap2\n      0x20\n      add\n      swap2\n      jump(tag_51)\n    tag_52:\n      dup3\n      add\n      swap2\n      swap1\n      0x00\n      mstore\n      keccak256(0x00, 0x20)\n      swap1\n    tag_53:\n      dup2\n      sload\n      dup2\n      mstore\n      swap1\n      0x01\n      add\n      swap1\n      0x20\n      add\n      dup1\n      dup4\n      gt\n      tag_53\n      jumpi\n      dup3\n      swap1\n      sub\n      0x1f\n      and\n      dup3\n      add\n      swap2\n    tag_51:\n      pop\n      pop\n      pop\n      pop\n      pop\n      swap1\n      dup1\n      0x05\n      add\n      0x00\n      swap1\n      sload\n      swap1\n      0x0100\n      exp\n      swap1\n      div\n      0xff\n      and\n      swap1\n      dup1\n      0x06\n      add\n      sload\n      swap1\n      dup1\n      0x07\n      add\n      0x00\n      swap1\n      sload\n      swap1\n      0x0100\n      exp\n      swap1\n      div\n      0xffffffffffffffffffffffffffffffffffffffff\n      and\n      swap1\n      dup1\n      0x08\n      add\n      0x00\n      swap1\n      sload\n      swap1\n      0x0100\n      exp\n      swap1\n      div\n      0xffffffffffffffffffffffffffffffffffffffff\n      and\n      swap1\n      pop\n      dup10\n      jump\t// out\n        /* \"contracts/3_Data.sol\":1186:1633  function registerPatient(uint _healthy, string memory _name, string memory _disease, string memory _medicine) external {... */\n    tag_18:\n        /* \"contracts/3_Data.sol\":1337:1345  patients */\n      0x02\n        /* \"contracts/3_Data.sol\":1337:1353  patients[author] */\n      0x00\n        /* \"contracts/3_Data.sol\":1346:1352  author */\n      0x01\n      0x00\n      swap1\n      sload\n      swap1\n      0x0100\n      exp\n      swap1\n      div\n      0xffffffffffffffffffffffffffffffffffffffff\n      and\n        /* \"contracts/3_Data.sol\":1337:1353  patients[author] */\n      0xffffffffffffffffffffffffffffffffffffffff\n      and\n      0xffffffffffffffffffffffffffffffffffffffff\n      and\n      dup2\n      mstore\n      0x20\n      add\n      swap1\n      dup2\n      mstore\n      0x20\n      add\n      0x00\n      keccak256\n        /* \"contracts/3_Data.sol\":1337:1357  patients[author].reg */\n      0x05\n      add\n      0x00\n      swap1\n      sload\n      swap1\n      0x0100\n      exp\n      swap1\n      div\n      0xff\n      and\n        /* \"contracts/3_Data.sol\":1336:1357  !patients[author].reg */\n      iszero\n        /* \"contracts/3_Data.sol\":1315:1412  require(... */\n      tag_55\n      jumpi\n      mload(0x40)\n      0x08c379a000000000000000000000000000000000000000000000000000000000\n      dup2\n      mstore\n      0x04\n      add\n      tag_56\n      swap1\n      tag_57\n      jump\t// in\n    tag_56:\n      mload(0x40)\n      dup1\n      swap2\n      sub\n      swap1\n      revert\n    tag_55:\n        /* \"contracts/3_Data.sol\":1449:1457  _healthy */\n      dup4\n        /* \"contracts/3_Data.sol\":1422:1430  patients */\n      0x02\n        /* \"contracts/3_Data.sol\":1422:1438  patients[author] */\n      0x00\n        /* \"contracts/3_Data.sol\":1431:1437  author */\n      0x01\n      0x00\n      swap1\n      sload\n      swap1\n      0x0100\n      exp\n      swap1\n      div\n      0xffffffffffffffffffffffffffffffffffffffff\n      and\n        /* \"contracts/3_Data.sol\":1422:1438  patients[author] */\n      0xffffffffffffffffffffffffffffffffffffffff\n      and\n      0xffffffffffffffffffffffffffffffffffffffff\n      and\n      dup2\n      mstore\n      0x20\n      add\n      swap1\n      dup2\n      mstore\n      0x20\n      add\n      0x00\n      keccak256\n        /* \"contracts/3_Data.sol\":1422:1446  patients[author].healthy */\n      0x01\n      add\n        /* \"contracts/3_Data.sol\":1422:1457  patients[author].healthy = _healthy */\n      dup2\n      swap1\n      sstore\n      pop\n        /* \"contracts/3_Data.sol\":1491:1496  _name */\n      dup3\n        /* \"contracts/3_Data.sol\":1467:1475  patients */\n      0x02\n        /* \"contracts/3_Data.sol\":1467:1483  patients[author] */\n      0x00\n        /* \"contracts/3_Data.sol\":1476:1482  author */\n      0x01\n      0x00\n      swap1\n      sload\n      swap1\n      0x0100\n      exp\n      swap1\n      div\n      0xffffffffffffffffffffffffffffffffffffffff\n      and\n        /* \"contracts/3_Data.sol\":1467:1483  patients[author] */\n      0xffffffffffffffffffffffffffffffffffffffff\n      and\n      0xffffffffffffffffffffffffffffffffffffffff\n      and\n      dup2\n      mstore\n      0x20\n      add\n      swap1\n      dup2\n      mstore\n      0x20\n      add\n      0x00\n      keccak256\n        /* \"contracts/3_Data.sol\":1467:1488  patients[author].name */\n      0x02\n      add\n        /* \"contracts/3_Data.sol\":1467:1496  patients[author].name = _name */\n      swap1\n      dup1\n      mload\n      swap1\n      0x20\n      add\n      swap1\n      tag_58\n      swap3\n      swap2\n      swap1\n      tag_59\n      jump\t// in\n    tag_58:\n      pop\n        /* \"contracts/3_Data.sol\":1533:1541  _disease */\n      dup2\n        /* \"contracts/3_Data.sol\":1506:1514  patients */\n      0x02\n        /* \"contracts/3_Data.sol\":1506:1522  patients[author] */\n      0x00\n        /* \"contracts/3_Data.sol\":1515:1521  author */\n      0x01\n      0x00\n      swap1\n      sload\n      swap1\n      0x0100\n      exp\n      swap1\n      div\n      0xffffffffffffffffffffffffffffffffffffffff\n      and\n        /* \"contracts/3_Data.sol\":1506:1522  patients[author] */\n      0xffffffffffffffffffffffffffffffffffffffff\n      and\n      0xffffffffffffffffffffffffffffffffffffffff\n      and\n      dup2\n      mstore\n      0x20\n      add\n      swap1\n      dup2\n      mstore\n      0x20\n      add\n      0x00\n      keccak256\n        /* \"contracts/3_Data.sol\":1506:1530  patients[author].disease */\n      0x03\n      add\n        /* \"contracts/3_Data.sol\":1506:1541  patients[author].disease = _disease */\n      swap1\n      dup1\n      mload\n      swap1\n      0x20\n      add\n      swap1\n      tag_60\n      swap3\n      swap2\n      swap1\n      tag_59\n      jump\t// in\n    tag_60:\n      pop\n        /* \"contracts/3_Data.sol\":1580:1589  _medicine */\n      dup1\n        /* \"contracts/3_Data.sol\":1551:1559  patients */\n      0x02\n        /* \"contracts/3_Data.sol\":1551:1567  patients[author] */\n      0x00\n        /* \"contracts/3_Data.sol\":1560:1566  author */\n      0x01\n      0x00\n      swap1\n      sload\n      swap1\n      0x0100\n      exp\n      swap1\n      div\n      0xffffffffffffffffffffffffffffffffffffffff\n      and\n        /* \"contracts/3_Data.sol\":1551:1567  patients[author] */\n      0xffffffffffffffffffffffffffffffffffffffff\n      and\n      0xffffffffffffffffffffffffffffffffffffffff\n      and\n      dup2\n      mstore\n      0x20\n      add\n      swap1\n      dup2\n      mstore\n      0x20\n      add\n      0x00\n      keccak256\n        /* \"contracts/3_Data.sol\":1551:1577  patients[author].medicines */\n      0x04\n      add\n        /* \"contracts/3_Data.sol\":1551:1589  patients[author].medicines = _medicine */\n      swap1\n      dup1\n      mload\n      swap1\n      0x20\n      add\n      swap1\n      tag_61\n      swap3\n      swap2\n      swap1\n      tag_59\n      jump\t// in\n    tag_61:\n      pop\n        /* \"contracts/3_Data.sol\":1622:1626  true */\n      0x01\n        /* \"contracts/3_Data.sol\":1599:1607  patients */\n      0x02\n        /* \"contracts/3_Data.sol\":1599:1615  patients[author] */\n      0x00\n        /* \"contracts/3_Data.sol\":1608:1614  author */\n      0x01\n      0x00\n      swap1\n      sload\n      swap1\n      0x0100\n      exp\n      swap1\n      div\n      0xffffffffffffffffffffffffffffffffffffffff\n      and\n        /* \"contracts/3_Data.sol\":1599:1615  patients[author] */\n      0xffffffffffffffffffffffffffffffffffffffff\n      and\n      0xffffffffffffffffffffffffffffffffffffffff\n      and\n      dup2\n      mstore\n      0x20\n      add\n      swap1\n      dup2\n      mstore\n      0x20\n      add\n      0x00\n      keccak256\n        /* \"contracts/3_Data.sol\":1599:1619  patients[author].reg */\n      0x05\n      add\n      0x00\n        /* \"contracts/3_Data.sol\":1599:1626  patients[author].reg = true */\n      0x0100\n      exp\n      dup2\n      sload\n      dup2\n      0xff\n      mul\n      not\n      and\n      swap1\n      dup4\n      iszero\n      iszero\n      mul\n      or\n      swap1\n      sstore\n      pop\n        /* \"contracts/3_Data.sol\":1186:1633  function registerPatient(uint _healthy, string memory _name, string memory _disease, string memory _medicine) external {... */\n      pop\n      pop\n      pop\n      pop\n      jump\t// out\n        /* \"contracts/3_Data.sol\":817:836  Card[] public cards */\n    tag_22:\n      0x03\n      dup2\n      dup2\n      sload\n      dup2\n      lt\n      tag_62\n      jumpi\n      0x00\n      dup1\n      revert\n    tag_62:\n      swap1\n      0x00\n      mstore\n      keccak256(0x00, 0x20)\n      swap1\n      0x02\n      mul\n      add\n      0x00\n      swap2\n      pop\n      swap1\n      pop\n      dup1\n      0x00\n      add\n      sload\n      swap1\n      dup1\n      0x01\n      add\n      sload\n      swap1\n      pop\n      dup3\n      jump\t// out\n        /* \"contracts/3_Data.sol\":739:760  address public author */\n    tag_26:\n      0x01\n      0x00\n      swap1\n      sload\n      swap1\n      0x0100\n      exp\n      swap1\n      div\n      0xffffffffffffffffffffffffffffffffffffffff\n      and\n      dup2\n      jump\t// out\n        /* \"contracts/3_Data.sol\":972:1145  function fetchData (address test) public returns(bool) {... */\n    tag_31:\n        /* \"contracts/3_Data.sol\":1021:1025  bool */\n      0x00\n        /* \"contracts/3_Data.sol\":1067:1071  test */\n      dup2\n        /* \"contracts/3_Data.sol\":1040:1071  patients[author].client == test */\n      0xffffffffffffffffffffffffffffffffffffffff\n      and\n        /* \"contracts/3_Data.sol\":1040:1048  patients */\n      0x02\n        /* \"contracts/3_Data.sol\":1040:1056  patients[author] */\n      0x00\n        /* \"contracts/3_Data.sol\":1049:1055  author */\n      0x01\n      0x00\n      swap1\n      sload\n      swap1\n      0x0100\n      exp\n      swap1\n      div\n      0xffffffffffffffffffffffffffffffffffffffff\n      and\n        /* \"contracts/3_Data.sol\":1040:1056  patients[author] */\n      0xffffffffffffffffffffffffffffffffffffffff\n      and\n      0xffffffffffffffffffffffffffffffffffffffff\n      and\n      dup2\n      mstore\n      0x20\n      add\n      swap1\n      dup2\n      mstore\n      0x20\n      add\n      0x00\n      keccak256\n        /* \"contracts/3_Data.sol\":1040:1063  patients[author].client */\n      0x07\n      add\n      0x00\n      swap1\n      sload\n      swap1\n      0x0100\n      exp\n      swap1\n      div\n      0xffffffffffffffffffffffffffffffffffffffff\n      and\n        /* \"contracts/3_Data.sol\":1040:1071  patients[author].client == test */\n      0xffffffffffffffffffffffffffffffffffffffff\n      and\n      eq\n        /* \"contracts/3_Data.sol\":1037:1117  if(patients[author].client == test)... */\n      iszero\n      tag_65\n      jumpi\n        /* \"contracts/3_Data.sol\":1102:1106  true */\n      0x01\n        /* \"contracts/3_Data.sol\":1095:1106  return true */\n      swap1\n      pop\n      jump(tag_64)\n        /* \"contracts/3_Data.sol\":1037:1117  if(patients[author].client == test)... */\n    tag_65:\n        /* \"contracts/3_Data.sol\":1133:1138  false */\n      0x00\n        /* \"contracts/3_Data.sol\":1126:1138  return false */\n      swap1\n      pop\n        /* \"contracts/3_Data.sol\":972:1145  function fetchData (address test) public returns(bool) {... */\n    tag_64:\n      swap2\n      swap1\n      pop\n      jump\t// out\n        /* \"contracts/3_Data.sol\":1671:1842  function authCheck(address to) external returns (bool success) {... */\n    tag_36:\n        /* \"contracts/3_Data.sol\":1720:1732  bool success */\n      0x00\n        /* \"contracts/3_Data.sol\":1794:1814  Auth(msg.sender, to) */\n      0xdd682d1363d443182f130904c49ddb3c06bcf4104bd0132873396ab097f339d9\n        /* \"contracts/3_Data.sol\":1799:1809  msg.sender */\n      caller\n        /* \"contracts/3_Data.sol\":1811:1813  to */\n      dup4\n        /* \"contracts/3_Data.sol\":1794:1814  Auth(msg.sender, to) */\n      mload(0x40)\n      tag_67\n      swap3\n      swap2\n      swap1\n      tag_68\n      jump\t// in\n    tag_67:\n      mload(0x40)\n      dup1\n      swap2\n      sub\n      swap1\n      log1\n        /* \"contracts/3_Data.sol\":1831:1835  true */\n      0x01\n        /* \"contracts/3_Data.sol\":1824:1835  return true */\n      swap1\n      pop\n        /* \"contracts/3_Data.sol\":1671:1842  function authCheck(address to) external returns (bool success) {... */\n      swap2\n      swap1\n      pop\n      jump\t// out\n    tag_59:\n      dup3\n      dup1\n      sload\n      tag_69\n      swap1\n      tag_39\n      jump\t// in\n    tag_69:\n      swap1\n      0x00\n      mstore\n      keccak256(0x00, 0x20)\n      swap1\n      0x1f\n      add\n      0x20\n      swap1\n      div\n      dup2\n      add\n      swap3\n      dup3\n      tag_71\n      jumpi\n      0x00\n      dup6\n      sstore\n      jump(tag_70)\n    tag_71:\n      dup3\n      0x1f\n      lt\n      tag_72\n      jumpi\n      dup1\n      mload\n      not(0xff)\n      and\n      dup4\n      dup1\n      add\n      or\n      dup6\n      sstore\n      jump(tag_70)\n    tag_72:\n      dup3\n      dup1\n      add\n      0x01\n      add\n      dup6\n      sstore\n      dup3\n      iszero\n      tag_70\n      jumpi\n      swap2\n      dup3\n      add\n    tag_73:\n      dup3\n      dup2\n      gt\n      iszero\n      tag_74\n      jumpi\n      dup3\n      mload\n      dup3\n      sstore\n      swap2\n      0x20\n      add\n      swap2\n      swap1\n      0x01\n      add\n      swap1\n      jump(tag_73)\n    tag_74:\n    tag_70:\n      pop\n      swap1\n      pop\n      tag_75\n      swap2\n      swap1\n      tag_76\n      jump\t// in\n    tag_75:\n      pop\n      swap1\n      jump\t// out\n    tag_76:\n    tag_77:\n      dup1\n      dup3\n      gt\n      iszero\n      tag_78\n      jumpi\n      0x00\n      dup2\n      0x00\n      swap1\n      sstore\n      pop\n      0x01\n      add\n      jump(tag_77)\n    tag_78:\n      pop\n      swap1\n      jump\t// out\n        /* \"#utility.yul\":7:419   */\n    tag_80:\n        /* \"#utility.yul\":85:90   */\n      0x00\n        /* \"#utility.yul\":110:176   */\n      tag_82\n        /* \"#utility.yul\":126:175   */\n      tag_83\n        /* \"#utility.yul\":168:174   */\n      dup5\n        /* \"#utility.yul\":126:175   */\n      tag_84\n      jump\t// in\n    tag_83:\n        /* \"#utility.yul\":110:176   */\n      tag_85\n      jump\t// in\n    tag_82:\n        /* \"#utility.yul\":101:176   */\n      swap1\n      pop\n        /* \"#utility.yul\":199:205   */\n      dup3\n        /* \"#utility.yul\":192:197   */\n      dup2\n        /* \"#utility.yul\":185:206   */\n      mstore\n        /* \"#utility.yul\":237:241   */\n      0x20\n        /* \"#utility.yul\":230:235   */\n      dup2\n        /* \"#utility.yul\":226:242   */\n      add\n        /* \"#utility.yul\":275:278   */\n      dup5\n        /* \"#utility.yul\":266:272   */\n      dup5\n        /* \"#utility.yul\":261:264   */\n      dup5\n        /* \"#utility.yul\":257:273   */\n      add\n        /* \"#utility.yul\":254:279   */\n      gt\n        /* \"#utility.yul\":251:363   */\n      iszero\n      tag_86\n      jumpi\n        /* \"#utility.yul\":282:361   */\n      tag_87\n      tag_88\n      jump\t// in\n    tag_87:\n        /* \"#utility.yul\":251:363   */\n    tag_86:\n        /* \"#utility.yul\":372:413   */\n      tag_89\n        /* \"#utility.yul\":406:412   */\n      dup5\n        /* \"#utility.yul\":401:404   */\n      dup3\n        /* \"#utility.yul\":396:399   */\n      dup6\n        /* \"#utility.yul\":372:413   */\n      tag_90\n      jump\t// in\n    tag_89:\n        /* \"#utility.yul\":91:419   */\n      pop\n        /* \"#utility.yul\":7:419   */\n      swap4\n      swap3\n      pop\n      pop\n      pop\n      jump\t// out\n        /* \"#utility.yul\":425:564   */\n    tag_91:\n        /* \"#utility.yul\":471:476   */\n      0x00\n        /* \"#utility.yul\":509:515   */\n      dup2\n        /* \"#utility.yul\":496:516   */\n      calldataload\n        /* \"#utility.yul\":487:516   */\n      swap1\n      pop\n        /* \"#utility.yul\":525:558   */\n      tag_93\n        /* \"#utility.yul\":552:557   */\n      dup2\n        /* \"#utility.yul\":525:558   */\n      tag_94\n      jump\t// in\n    tag_93:\n        /* \"#utility.yul\":425:564   */\n      swap3\n      swap2\n      pop\n      pop\n      jump\t// out\n        /* \"#utility.yul\":584:924   */\n    tag_95:\n        /* \"#utility.yul\":640:645   */\n      0x00\n        /* \"#utility.yul\":689:692   */\n      dup3\n        /* \"#utility.yul\":682:686   */\n      0x1f\n        /* \"#utility.yul\":674:680   */\n      dup4\n        /* \"#utility.yul\":670:687   */\n      add\n        /* \"#utility.yul\":666:693   */\n      slt\n        /* \"#utility.yul\":656:778   */\n      tag_97\n      jumpi\n        /* \"#utility.yul\":697:776   */\n      tag_98\n      tag_99\n      jump\t// in\n    tag_98:\n        /* \"#utility.yul\":656:778   */\n    tag_97:\n        /* \"#utility.yul\":814:820   */\n      dup2\n        /* \"#utility.yul\":801:821   */\n      calldataload\n        /* \"#utility.yul\":839:918   */\n      tag_100\n        /* \"#utility.yul\":914:917   */\n      dup5\n        /* \"#utility.yul\":906:912   */\n      dup3\n        /* \"#utility.yul\":899:903   */\n      0x20\n        /* \"#utility.yul\":891:897   */\n      dup7\n        /* \"#utility.yul\":887:904   */\n      add\n        /* \"#utility.yul\":839:918   */\n      tag_80\n      jump\t// in\n    tag_100:\n        /* \"#utility.yul\":830:918   */\n      swap2\n      pop\n        /* \"#utility.yul\":646:924   */\n      pop\n        /* \"#utility.yul\":584:924   */\n      swap3\n      swap2\n      pop\n      pop\n      jump\t// out\n        /* \"#utility.yul\":930:1069   */\n    tag_101:\n        /* \"#utility.yul\":976:981   */\n      0x00\n        /* \"#utility.yul\":1014:1020   */\n      dup2\n        /* \"#utility.yul\":1001:1021   */\n      calldataload\n        /* \"#utility.yul\":992:1021   */\n      swap1\n      pop\n        /* \"#utility.yul\":1030:1063   */\n      tag_103\n        /* \"#utility.yul\":1057:1062   */\n      dup2\n        /* \"#utility.yul\":1030:1063   */\n      tag_104\n      jump\t// in\n    tag_103:\n        /* \"#utility.yul\":930:1069   */\n      swap3\n      swap2\n      pop\n      pop\n      jump\t// out\n        /* \"#utility.yul\":1075:1404   */\n    tag_11:\n        /* \"#utility.yul\":1134:1140   */\n      0x00\n        /* \"#utility.yul\":1183:1185   */\n      0x20\n        /* \"#utility.yul\":1171:1180   */\n      dup3\n        /* \"#utility.yul\":1162:1169   */\n      dup5\n        /* \"#utility.yul\":1158:1181   */\n      sub\n        /* \"#utility.yul\":1154:1186   */\n      slt\n        /* \"#utility.yul\":1151:1270   */\n      iszero\n      tag_106\n      jumpi\n        /* \"#utility.yul\":1189:1268   */\n      tag_107\n      tag_108\n      jump\t// in\n    tag_107:\n        /* \"#utility.yul\":1151:1270   */\n    tag_106:\n        /* \"#utility.yul\":1309:1310   */\n      0x00\n        /* \"#utility.yul\":1334:1387   */\n      tag_109\n        /* \"#utility.yul\":1379:1386   */\n      dup5\n        /* \"#utility.yul\":1370:1376   */\n      dup3\n        /* \"#utility.yul\":1359:1368   */\n      dup6\n        /* \"#utility.yul\":1355:1377   */\n      add\n        /* \"#utility.yul\":1334:1387   */\n      tag_91\n      jump\t// in\n    tag_109:\n        /* \"#utility.yul\":1324:1387   */\n      swap2\n      pop\n        /* \"#utility.yul\":1280:1397   */\n      pop\n        /* \"#utility.yul\":1075:1404   */\n      swap3\n      swap2\n      pop\n      pop\n      jump\t// out\n        /* \"#utility.yul\":1410:1739   */\n    tag_21:\n        /* \"#utility.yul\":1469:1475   */\n      0x00\n        /* \"#utility.yul\":1518:1520   */\n      0x20\n        /* \"#utility.yul\":1506:1515   */\n      dup3\n        /* \"#utility.yul\":1497:1504   */\n      dup5\n        /* \"#utility.yul\":1493:1516   */\n      sub\n        /* \"#utility.yul\":1489:1521   */\n      slt\n        /* \"#utility.yul\":1486:1605   */\n      iszero\n      tag_111\n      jumpi\n        /* \"#utility.yul\":1524:1603   */\n      tag_112\n      tag_108\n      jump\t// in\n    tag_112:\n        /* \"#utility.yul\":1486:1605   */\n    tag_111:\n        /* \"#utility.yul\":1644:1645   */\n      0x00\n        /* \"#utility.yul\":1669:1722   */\n      tag_113\n        /* \"#utility.yul\":1714:1721   */\n      dup5\n        /* \"#utility.yul\":1705:1711   */\n      dup3\n        /* \"#utility.yul\":1694:1703   */\n      dup6\n        /* \"#utility.yul\":1690:1712   */\n      add\n        /* \"#utility.yul\":1669:1722   */\n      tag_101\n      jump\t// in\n    tag_113:\n        /* \"#utility.yul\":1659:1722   */\n      swap2\n      pop\n        /* \"#utility.yul\":1615:1732   */\n      pop\n        /* \"#utility.yul\":1410:1739   */\n      swap3\n      swap2\n      pop\n      pop\n      jump\t// out\n        /* \"#utility.yul\":1745:3050   */\n    tag_17:\n        /* \"#utility.yul\":1861:1867   */\n      0x00\n        /* \"#utility.yul\":1869:1875   */\n      dup1\n        /* \"#utility.yul\":1877:1883   */\n      0x00\n        /* \"#utility.yul\":1885:1891   */\n      dup1\n        /* \"#utility.yul\":1934:1937   */\n      0x80\n        /* \"#utility.yul\":1922:1931   */\n      dup6\n        /* \"#utility.yul\":1913:1920   */\n      dup8\n        /* \"#utility.yul\":1909:1932   */\n      sub\n        /* \"#utility.yul\":1905:1938   */\n      slt\n        /* \"#utility.yul\":1902:2022   */\n      iszero\n      tag_115\n      jumpi\n        /* \"#utility.yul\":1941:2020   */\n      tag_116\n      tag_108\n      jump\t// in\n    tag_116:\n        /* \"#utility.yul\":1902:2022   */\n    tag_115:\n        /* \"#utility.yul\":2061:2062   */\n      0x00\n        /* \"#utility.yul\":2086:2139   */\n      tag_117\n        /* \"#utility.yul\":2131:2138   */\n      dup8\n        /* \"#utility.yul\":2122:2128   */\n      dup3\n        /* \"#utility.yul\":2111:2120   */\n      dup9\n        /* \"#utility.yul\":2107:2129   */\n      add\n        /* \"#utility.yul\":2086:2139   */\n      tag_101\n      jump\t// in\n    tag_117:\n        /* \"#utility.yul\":2076:2139   */\n      swap5\n      pop\n        /* \"#utility.yul\":2032:2149   */\n      pop\n        /* \"#utility.yul\":2216:2218   */\n      0x20\n        /* \"#utility.yul\":2205:2214   */\n      dup6\n        /* \"#utility.yul\":2201:2219   */\n      add\n        /* \"#utility.yul\":2188:2220   */\n      calldataload\n        /* \"#utility.yul\":2247:2265   */\n      0xffffffffffffffff\n        /* \"#utility.yul\":2239:2245   */\n      dup2\n        /* \"#utility.yul\":2236:2266   */\n      gt\n        /* \"#utility.yul\":2233:2350   */\n      iszero\n      tag_118\n      jumpi\n        /* \"#utility.yul\":2269:2348   */\n      tag_119\n      tag_120\n      jump\t// in\n    tag_119:\n        /* \"#utility.yul\":2233:2350   */\n    tag_118:\n        /* \"#utility.yul\":2374:2437   */\n      tag_121\n        /* \"#utility.yul\":2429:2436   */\n      dup8\n        /* \"#utility.yul\":2420:2426   */\n      dup3\n        /* \"#utility.yul\":2409:2418   */\n      dup9\n        /* \"#utility.yul\":2405:2427   */\n      add\n        /* \"#utility.yul\":2374:2437   */\n      tag_95\n      jump\t// in\n    tag_121:\n        /* \"#utility.yul\":2364:2437   */\n      swap4\n      pop\n        /* \"#utility.yul\":2159:2447   */\n      pop\n        /* \"#utility.yul\":2514:2516   */\n      0x40\n        /* \"#utility.yul\":2503:2512   */\n      dup6\n        /* \"#utility.yul\":2499:2517   */\n      add\n        /* \"#utility.yul\":2486:2518   */\n      calldataload\n        /* \"#utility.yul\":2545:2563   */\n      0xffffffffffffffff\n        /* \"#utility.yul\":2537:2543   */\n      dup2\n        /* \"#utility.yul\":2534:2564   */\n      gt\n        /* \"#utility.yul\":2531:2648   */\n      iszero\n      tag_122\n      jumpi\n        /* \"#utility.yul\":2567:2646   */\n      tag_123\n      tag_120\n      jump\t// in\n    tag_123:\n        /* \"#utility.yul\":2531:2648   */\n    tag_122:\n        /* \"#utility.yul\":2672:2735   */\n      tag_124\n        /* \"#utility.yul\":2727:2734   */\n      dup8\n        /* \"#utility.yul\":2718:2724   */\n      dup3\n        /* \"#utility.yul\":2707:2716   */\n      dup9\n        /* \"#utility.yul\":2703:2725   */\n      add\n        /* \"#utility.yul\":2672:2735   */\n      tag_95\n      jump\t// in\n    tag_124:\n        /* \"#utility.yul\":2662:2735   */\n      swap3\n      pop\n        /* \"#utility.yul\":2457:2745   */\n      pop\n        /* \"#utility.yul\":2812:2814   */\n      0x60\n        /* \"#utility.yul\":2801:2810   */\n      dup6\n        /* \"#utility.yul\":2797:2815   */\n      add\n        /* \"#utility.yul\":2784:2816   */\n      calldataload\n        /* \"#utility.yul\":2843:2861   */\n      0xffffffffffffffff\n        /* \"#utility.yul\":2835:2841   */\n      dup2\n        /* \"#utility.yul\":2832:2862   */\n      gt\n        /* \"#utility.yul\":2829:2946   */\n      iszero\n      tag_125\n      jumpi\n        /* \"#utility.yul\":2865:2944   */\n      tag_126\n      tag_120\n      jump\t// in\n    tag_126:\n        /* \"#utility.yul\":2829:2946   */\n    tag_125:\n        /* \"#utility.yul\":2970:3033   */\n      tag_127\n        /* \"#utility.yul\":3025:3032   */\n      dup8\n        /* \"#utility.yul\":3016:3022   */\n      dup3\n        /* \"#utility.yul\":3005:3014   */\n      dup9\n        /* \"#utility.yul\":3001:3023   */\n      add\n        /* \"#utility.yul\":2970:3033   */\n      tag_95\n      jump\t// in\n    tag_127:\n        /* \"#utility.yul\":2960:3033   */\n      swap2\n      pop\n        /* \"#utility.yul\":2755:3043   */\n      pop\n        /* \"#utility.yul\":1745:3050   */\n      swap3\n      swap6\n      swap2\n      swap5\n      pop\n      swap3\n      pop\n      jump\t// out\n        /* \"#utility.yul\":3056:3198   */\n    tag_128:\n        /* \"#utility.yul\":3159:3191   */\n      tag_130\n        /* \"#utility.yul\":3185:3190   */\n      dup2\n        /* \"#utility.yul\":3159:3191   */\n      tag_131\n      jump\t// in\n    tag_130:\n        /* \"#utility.yul\":3154:3157   */\n      dup3\n        /* \"#utility.yul\":3147:3192   */\n      mstore\n        /* \"#utility.yul\":3056:3198   */\n      pop\n      pop\n      jump\t// out\n        /* \"#utility.yul\":3204:3322   */\n    tag_132:\n        /* \"#utility.yul\":3291:3315   */\n      tag_134\n        /* \"#utility.yul\":3309:3314   */\n      dup2\n        /* \"#utility.yul\":3291:3315   */\n      tag_135\n      jump\t// in\n    tag_134:\n        /* \"#utility.yul\":3286:3289   */\n      dup3\n        /* \"#utility.yul\":3279:3316   */\n      mstore\n        /* \"#utility.yul\":3204:3322   */\n      pop\n      pop\n      jump\t// out\n        /* \"#utility.yul\":3328:3437   */\n    tag_136:\n        /* \"#utility.yul\":3409:3430   */\n      tag_138\n        /* \"#utility.yul\":3424:3429   */\n      dup2\n        /* \"#utility.yul\":3409:3430   */\n      tag_139\n      jump\t// in\n    tag_138:\n        /* \"#utility.yul\":3404:3407   */\n      dup3\n        /* \"#utility.yul\":3397:3431   */\n      mstore\n        /* \"#utility.yul\":3328:3437   */\n      pop\n      pop\n      jump\t// out\n        /* \"#utility.yul\":3443:3561   */\n    tag_140:\n        /* \"#utility.yul\":3530:3554   */\n      tag_142\n        /* \"#utility.yul\":3548:3553   */\n      dup2\n        /* \"#utility.yul\":3530:3554   */\n      tag_143\n      jump\t// in\n    tag_142:\n        /* \"#utility.yul\":3525:3528   */\n      dup3\n        /* \"#utility.yul\":3518:3555   */\n      mstore\n        /* \"#utility.yul\":3443:3561   */\n      pop\n      pop\n      jump\t// out\n        /* \"#utility.yul\":3567:3931   */\n    tag_144:\n        /* \"#utility.yul\":3655:3658   */\n      0x00\n        /* \"#utility.yul\":3683:3722   */\n      tag_146\n        /* \"#utility.yul\":3716:3721   */\n      dup3\n        /* \"#utility.yul\":3683:3722   */\n      tag_147\n      jump\t// in\n    tag_146:\n        /* \"#utility.yul\":3738:3809   */\n      tag_148\n        /* \"#utility.yul\":3802:3808   */\n      dup2\n        /* \"#utility.yul\":3797:3800   */\n      dup6\n        /* \"#utility.yul\":3738:3809   */\n      tag_149\n      jump\t// in\n    tag_148:\n        /* \"#utility.yul\":3731:3809   */\n      swap4\n      pop\n        /* \"#utility.yul\":3818:3870   */\n      tag_150\n        /* \"#utility.yul\":3863:3869   */\n      dup2\n        /* \"#utility.yul\":3858:3861   */\n      dup6\n        /* \"#utility.yul\":3851:3855   */\n      0x20\n        /* \"#utility.yul\":3844:3849   */\n      dup7\n        /* \"#utility.yul\":3840:3856   */\n      add\n        /* \"#utility.yul\":3818:3870   */\n      tag_151\n      jump\t// in\n    tag_150:\n        /* \"#utility.yul\":3895:3924   */\n      tag_152\n        /* \"#utility.yul\":3917:3923   */\n      dup2\n        /* \"#utility.yul\":3895:3924   */\n      tag_153\n      jump\t// in\n    tag_152:\n        /* \"#utility.yul\":3890:3893   */\n      dup5\n        /* \"#utility.yul\":3886:3925   */\n      add\n        /* \"#utility.yul\":3879:3925   */\n      swap2\n      pop\n        /* \"#utility.yul\":3659:3931   */\n      pop\n        /* \"#utility.yul\":3567:3931   */\n      swap3\n      swap2\n      pop\n      pop\n      jump\t// out\n        /* \"#utility.yul\":3937:4303   */\n    tag_154:\n        /* \"#utility.yul\":4079:4082   */\n      0x00\n        /* \"#utility.yul\":4100:4167   */\n      tag_156\n        /* \"#utility.yul\":4164:4166   */\n      0x1d\n        /* \"#utility.yul\":4159:4162   */\n      dup4\n        /* \"#utility.yul\":4100:4167   */\n      tag_149\n      jump\t// in\n    tag_156:\n        /* \"#utility.yul\":4093:4167   */\n      swap2\n      pop\n        /* \"#utility.yul\":4176:4269   */\n      tag_157\n        /* \"#utility.yul\":4265:4268   */\n      dup3\n        /* \"#utility.yul\":4176:4269   */\n      tag_158\n      jump\t// in\n    tag_157:\n        /* \"#utility.yul\":4294:4296   */\n      0x20\n        /* \"#utility.yul\":4289:4292   */\n      dup3\n        /* \"#utility.yul\":4285:4297   */\n      add\n        /* \"#utility.yul\":4278:4297   */\n      swap1\n      pop\n        /* \"#utility.yul\":3937:4303   */\n      swap2\n      swap1\n      pop\n      jump\t// out\n        /* \"#utility.yul\":4309:4427   */\n    tag_159:\n        /* \"#utility.yul\":4396:4420   */\n      tag_161\n        /* \"#utility.yul\":4414:4419   */\n      dup2\n        /* \"#utility.yul\":4396:4420   */\n      tag_162\n      jump\t// in\n    tag_161:\n        /* \"#utility.yul\":4391:4394   */\n      dup3\n        /* \"#utility.yul\":4384:4421   */\n      mstore\n        /* \"#utility.yul\":4309:4427   */\n      pop\n      pop\n      jump\t// out\n        /* \"#utility.yul\":4433:4655   */\n    tag_28:\n        /* \"#utility.yul\":4526:4530   */\n      0x00\n        /* \"#utility.yul\":4564:4566   */\n      0x20\n        /* \"#utility.yul\":4553:4562   */\n      dup3\n        /* \"#utility.yul\":4549:4567   */\n      add\n        /* \"#utility.yul\":4541:4567   */\n      swap1\n      pop\n        /* \"#utility.yul\":4577:4648   */\n      tag_164\n        /* \"#utility.yul\":4645:4646   */\n      0x00\n        /* \"#utility.yul\":4634:4643   */\n      dup4\n        /* \"#utility.yul\":4630:4647   */\n      add\n        /* \"#utility.yul\":4621:4627   */\n      dup5\n        /* \"#utility.yul\":4577:4648   */\n      tag_132\n      jump\t// in\n    tag_164:\n        /* \"#utility.yul\":4433:4655   */\n      swap3\n      swap2\n      pop\n      pop\n      jump\t// out\n        /* \"#utility.yul\":4661:4993   */\n    tag_68:\n        /* \"#utility.yul\":4782:4786   */\n      0x00\n        /* \"#utility.yul\":4820:4822   */\n      0x40\n        /* \"#utility.yul\":4809:4818   */\n      dup3\n        /* \"#utility.yul\":4805:4823   */\n      add\n        /* \"#utility.yul\":4797:4823   */\n      swap1\n      pop\n        /* \"#utility.yul\":4833:4904   */\n      tag_166\n        /* \"#utility.yul\":4901:4902   */\n      0x00\n        /* \"#utility.yul\":4890:4899   */\n      dup4\n        /* \"#utility.yul\":4886:4903   */\n      add\n        /* \"#utility.yul\":4877:4883   */\n      dup6\n        /* \"#utility.yul\":4833:4904   */\n      tag_132\n      jump\t// in\n    tag_166:\n        /* \"#utility.yul\":4914:4986   */\n      tag_167\n        /* \"#utility.yul\":4982:4984   */\n      0x20\n        /* \"#utility.yul\":4971:4980   */\n      dup4\n        /* \"#utility.yul\":4967:4985   */\n      add\n        /* \"#utility.yul\":4958:4964   */\n      dup5\n        /* \"#utility.yul\":4914:4986   */\n      tag_132\n      jump\t// in\n    tag_167:\n        /* \"#utility.yul\":4661:4993   */\n      swap4\n      swap3\n      pop\n      pop\n      pop\n      jump\t// out\n        /* \"#utility.yul\":4999:5209   */\n    tag_33:\n        /* \"#utility.yul\":5086:5090   */\n      0x00\n        /* \"#utility.yul\":5124:5126   */\n      0x20\n        /* \"#utility.yul\":5113:5122   */\n      dup3\n        /* \"#utility.yul\":5109:5127   */\n      add\n        /* \"#utility.yul\":5101:5127   */\n      swap1\n      pop\n        /* \"#utility.yul\":5137:5202   */\n      tag_169\n        /* \"#utility.yul\":5199:5200   */\n      0x00\n        /* \"#utility.yul\":5188:5197   */\n      dup4\n        /* \"#utility.yul\":5184:5201   */\n      add\n        /* \"#utility.yul\":5175:5181   */\n      dup5\n        /* \"#utility.yul\":5137:5202   */\n      tag_136\n      jump\t// in\n    tag_169:\n        /* \"#utility.yul\":4999:5209   */\n      swap3\n      swap2\n      pop\n      pop\n      jump\t// out\n        /* \"#utility.yul\":5215:5547   */\n    tag_24:\n        /* \"#utility.yul\":5336:5340   */\n      0x00\n        /* \"#utility.yul\":5374:5376   */\n      0x40\n        /* \"#utility.yul\":5363:5372   */\n      dup3\n        /* \"#utility.yul\":5359:5377   */\n      add\n        /* \"#utility.yul\":5351:5377   */\n      swap1\n      pop\n        /* \"#utility.yul\":5387:5458   */\n      tag_171\n        /* \"#utility.yul\":5455:5456   */\n      0x00\n        /* \"#utility.yul\":5444:5453   */\n      dup4\n        /* \"#utility.yul\":5440:5457   */\n      add\n        /* \"#utility.yul\":5431:5437   */\n      dup6\n        /* \"#utility.yul\":5387:5458   */\n      tag_140\n      jump\t// in\n    tag_171:\n        /* \"#utility.yul\":5468:5540   */\n      tag_172\n        /* \"#utility.yul\":5536:5538   */\n      0x20\n        /* \"#utility.yul\":5525:5534   */\n      dup4\n        /* \"#utility.yul\":5521:5539   */\n      add\n        /* \"#utility.yul\":5512:5518   */\n      dup5\n        /* \"#utility.yul\":5468:5540   */\n      tag_159\n      jump\t// in\n    tag_172:\n        /* \"#utility.yul\":5215:5547   */\n      swap4\n      swap3\n      pop\n      pop\n      pop\n      jump\t// out\n        /* \"#utility.yul\":5553:5972   */\n    tag_57:\n        /* \"#utility.yul\":5719:5723   */\n      0x00\n        /* \"#utility.yul\":5757:5759   */\n      0x20\n        /* \"#utility.yul\":5746:5755   */\n      dup3\n        /* \"#utility.yul\":5742:5760   */\n      add\n        /* \"#utility.yul\":5734:5760   */\n      swap1\n      pop\n        /* \"#utility.yul\":5806:5815   */\n      dup2\n        /* \"#utility.yul\":5800:5804   */\n      dup2\n        /* \"#utility.yul\":5796:5816   */\n      sub\n        /* \"#utility.yul\":5792:5793   */\n      0x00\n        /* \"#utility.yul\":5781:5790   */\n      dup4\n        /* \"#utility.yul\":5777:5794   */\n      add\n        /* \"#utility.yul\":5770:5817   */\n      mstore\n        /* \"#utility.yul\":5834:5965   */\n      tag_174\n        /* \"#utility.yul\":5960:5964   */\n      dup2\n        /* \"#utility.yul\":5834:5965   */\n      tag_154\n      jump\t// in\n    tag_174:\n        /* \"#utility.yul\":5826:5965   */\n      swap1\n      pop\n        /* \"#utility.yul\":5553:5972   */\n      swap2\n      swap1\n      pop\n      jump\t// out\n        /* \"#utility.yul\":5978:7411   */\n    tag_14:\n        /* \"#utility.yul\":6381:6385   */\n      0x00\n        /* \"#utility.yul\":6419:6422   */\n      0x0120\n        /* \"#utility.yul\":6408:6417   */\n      dup3\n        /* \"#utility.yul\":6404:6423   */\n      add\n        /* \"#utility.yul\":6396:6423   */\n      swap1\n      pop\n        /* \"#utility.yul\":6433:6504   */\n      tag_176\n        /* \"#utility.yul\":6501:6502   */\n      0x00\n        /* \"#utility.yul\":6490:6499   */\n      dup4\n        /* \"#utility.yul\":6486:6503   */\n      add\n        /* \"#utility.yul\":6477:6483   */\n      dup13\n        /* \"#utility.yul\":6433:6504   */\n      tag_159\n      jump\t// in\n    tag_176:\n        /* \"#utility.yul\":6514:6586   */\n      tag_177\n        /* \"#utility.yul\":6582:6584   */\n      0x20\n        /* \"#utility.yul\":6571:6580   */\n      dup4\n        /* \"#utility.yul\":6567:6585   */\n      add\n        /* \"#utility.yul\":6558:6564   */\n      dup12\n        /* \"#utility.yul\":6514:6586   */\n      tag_159\n      jump\t// in\n    tag_177:\n        /* \"#utility.yul\":6633:6642   */\n      dup2\n        /* \"#utility.yul\":6627:6631   */\n      dup2\n        /* \"#utility.yul\":6623:6643   */\n      sub\n        /* \"#utility.yul\":6618:6620   */\n      0x40\n        /* \"#utility.yul\":6607:6616   */\n      dup4\n        /* \"#utility.yul\":6603:6621   */\n      add\n        /* \"#utility.yul\":6596:6644   */\n      mstore\n        /* \"#utility.yul\":6661:6739   */\n      tag_178\n        /* \"#utility.yul\":6734:6738   */\n      dup2\n        /* \"#utility.yul\":6725:6731   */\n      dup11\n        /* \"#utility.yul\":6661:6739   */\n      tag_144\n      jump\t// in\n    tag_178:\n        /* \"#utility.yul\":6653:6739   */\n      swap1\n      pop\n        /* \"#utility.yul\":6786:6795   */\n      dup2\n        /* \"#utility.yul\":6780:6784   */\n      dup2\n        /* \"#utility.yul\":6776:6796   */\n      sub\n        /* \"#utility.yul\":6771:6773   */\n      0x60\n        /* \"#utility.yul\":6760:6769   */\n      dup4\n        /* \"#utility.yul\":6756:6774   */\n      add\n        /* \"#utility.yul\":6749:6797   */\n      mstore\n        /* \"#utility.yul\":6814:6892   */\n      tag_179\n        /* \"#utility.yul\":6887:6891   */\n      dup2\n        /* \"#utility.yul\":6878:6884   */\n      dup10\n        /* \"#utility.yul\":6814:6892   */\n      tag_144\n      jump\t// in\n    tag_179:\n        /* \"#utility.yul\":6806:6892   */\n      swap1\n      pop\n        /* \"#utility.yul\":6940:6949   */\n      dup2\n        /* \"#utility.yul\":6934:6938   */\n      dup2\n        /* \"#utility.yul\":6930:6950   */\n      sub\n        /* \"#utility.yul\":6924:6927   */\n      0x80\n        /* \"#utility.yul\":6913:6922   */\n      dup4\n        /* \"#utility.yul\":6909:6928   */\n      add\n        /* \"#utility.yul\":6902:6951   */\n      mstore\n        /* \"#utility.yul\":6968:7046   */\n      tag_180\n        /* \"#utility.yul\":7041:7045   */\n      dup2\n        /* \"#utility.yul\":7032:7038   */\n      dup9\n        /* \"#utility.yul\":6968:7046   */\n      tag_144\n      jump\t// in\n    tag_180:\n        /* \"#utility.yul\":6960:7046   */\n      swap1\n      pop\n        /* \"#utility.yul\":7056:7123   */\n      tag_181\n        /* \"#utility.yul\":7118:7121   */\n      0xa0\n        /* \"#utility.yul\":7107:7116   */\n      dup4\n        /* \"#utility.yul\":7103:7122   */\n      add\n        /* \"#utility.yul\":7094:7100   */\n      dup8\n        /* \"#utility.yul\":7056:7123   */\n      tag_136\n      jump\t// in\n    tag_181:\n        /* \"#utility.yul\":7133:7206   */\n      tag_182\n        /* \"#utility.yul\":7201:7204   */\n      0xc0\n        /* \"#utility.yul\":7190:7199   */\n      dup4\n        /* \"#utility.yul\":7186:7205   */\n      add\n        /* \"#utility.yul\":7177:7183   */\n      dup7\n        /* \"#utility.yul\":7133:7206   */\n      tag_159\n      jump\t// in\n    tag_182:\n        /* \"#utility.yul\":7216:7305   */\n      tag_183\n        /* \"#utility.yul\":7300:7303   */\n      0xe0\n        /* \"#utility.yul\":7289:7298   */\n      dup4\n        /* \"#utility.yul\":7285:7304   */\n      add\n        /* \"#utility.yul\":7276:7282   */\n      dup6\n        /* \"#utility.yul\":7216:7305   */\n      tag_128\n      jump\t// in\n    tag_183:\n        /* \"#utility.yul\":7315:7404   */\n      tag_184\n        /* \"#utility.yul\":7399:7402   */\n      0x0100\n        /* \"#utility.yul\":7388:7397   */\n      dup4\n        /* \"#utility.yul\":7384:7403   */\n      add\n        /* \"#utility.yul\":7375:7381   */\n      dup5\n        /* \"#utility.yul\":7315:7404   */\n      tag_128\n      jump\t// in\n    tag_184:\n        /* \"#utility.yul\":5978:7411   */\n      swap11\n      swap10\n      pop\n      pop\n      pop\n      pop\n      pop\n      pop\n      pop\n      pop\n      pop\n      pop\n      jump\t// out\n        /* \"#utility.yul\":7417:7546   */\n    tag_85:\n        /* \"#utility.yul\":7451:7457   */\n      0x00\n        /* \"#utility.yul\":7478:7498   */\n      tag_186\n      tag_187\n      jump\t// in\n    tag_186:\n        /* \"#utility.yul\":7468:7498   */\n      swap1\n      pop\n        /* \"#utility.yul\":7507:7540   */\n      tag_188\n        /* \"#utility.yul\":7535:7539   */\n      dup3\n        /* \"#utility.yul\":7527:7533   */\n      dup3\n        /* \"#utility.yul\":7507:7540   */\n      tag_189\n      jump\t// in\n    tag_188:\n        /* \"#utility.yul\":7417:7546   */\n      swap2\n      swap1\n      pop\n      jump\t// out\n        /* \"#utility.yul\":7552:7627   */\n    tag_187:\n        /* \"#utility.yul\":7585:7591   */\n      0x00\n        /* \"#utility.yul\":7618:7620   */\n      0x40\n        /* \"#utility.yul\":7612:7621   */\n      mload\n        /* \"#utility.yul\":7602:7621   */\n      swap1\n      pop\n        /* \"#utility.yul\":7552:7627   */\n      swap1\n      jump\t// out\n        /* \"#utility.yul\":7633:7941   */\n    tag_84:\n        /* \"#utility.yul\":7695:7699   */\n      0x00\n        /* \"#utility.yul\":7785:7803   */\n      0xffffffffffffffff\n        /* \"#utility.yul\":7777:7783   */\n      dup3\n        /* \"#utility.yul\":7774:7804   */\n      gt\n        /* \"#utility.yul\":7771:7827   */\n      iszero\n      tag_192\n      jumpi\n        /* \"#utility.yul\":7807:7825   */\n      tag_193\n      tag_194\n      jump\t// in\n    tag_193:\n        /* \"#utility.yul\":7771:7827   */\n    tag_192:\n        /* \"#utility.yul\":7845:7874   */\n      tag_195\n        /* \"#utility.yul\":7867:7873   */\n      dup3\n        /* \"#utility.yul\":7845:7874   */\n      tag_153\n      jump\t// in\n    tag_195:\n        /* \"#utility.yul\":7837:7874   */\n      swap1\n      pop\n        /* \"#utility.yul\":7929:7933   */\n      0x20\n        /* \"#utility.yul\":7923:7927   */\n      dup2\n        /* \"#utility.yul\":7919:7934   */\n      add\n        /* \"#utility.yul\":7911:7934   */\n      swap1\n      pop\n        /* \"#utility.yul\":7633:7941   */\n      swap2\n      swap1\n      pop\n      jump\t// out\n        /* \"#utility.yul\":7947:8046   */\n    tag_147:\n        /* \"#utility.yul\":7999:8005   */\n      0x00\n        /* \"#utility.yul\":8033:8038   */\n      dup2\n        /* \"#utility.yul\":8027:8039   */\n      mload\n        /* \"#utility.yul\":8017:8039   */\n      swap1\n      pop\n        /* \"#utility.yul\":7947:8046   */\n      swap2\n      swap1\n      pop\n      jump\t// out\n        /* \"#utility.yul\":8052:8221   */\n    tag_149:\n        /* \"#utility.yul\":8136:8147   */\n      0x00\n        /* \"#utility.yul\":8170:8176   */\n      dup3\n        /* \"#utility.yul\":8165:8168   */\n      dup3\n        /* \"#utility.yul\":8158:8177   */\n      mstore\n        /* \"#utility.yul\":8210:8214   */\n      0x20\n        /* \"#utility.yul\":8205:8208   */\n      dup3\n        /* \"#utility.yul\":8201:8215   */\n      add\n        /* \"#utility.yul\":8186:8215   */\n      swap1\n      pop\n        /* \"#utility.yul\":8052:8221   */\n      swap3\n      swap2\n      pop\n      pop\n      jump\t// out\n        /* \"#utility.yul\":8227:8323   */\n    tag_135:\n        /* \"#utility.yul\":8264:8271   */\n      0x00\n        /* \"#utility.yul\":8293:8317   */\n      tag_199\n        /* \"#utility.yul\":8311:8316   */\n      dup3\n        /* \"#utility.yul\":8293:8317   */\n      tag_200\n      jump\t// in\n    tag_199:\n        /* \"#utility.yul\":8282:8317   */\n      swap1\n      pop\n        /* \"#utility.yul\":8227:8323   */\n      swap2\n      swap1\n      pop\n      jump\t// out\n        /* \"#utility.yul\":8329:8433   */\n    tag_131:\n        /* \"#utility.yul\":8374:8381   */\n      0x00\n        /* \"#utility.yul\":8403:8427   */\n      tag_202\n        /* \"#utility.yul\":8421:8426   */\n      dup3\n        /* \"#utility.yul\":8403:8427   */\n      tag_200\n      jump\t// in\n    tag_202:\n        /* \"#utility.yul\":8392:8427   */\n      swap1\n      pop\n        /* \"#utility.yul\":8329:8433   */\n      swap2\n      swap1\n      pop\n      jump\t// out\n        /* \"#utility.yul\":8439:8529   */\n    tag_139:\n        /* \"#utility.yul\":8473:8480   */\n      0x00\n        /* \"#utility.yul\":8516:8521   */\n      dup2\n        /* \"#utility.yul\":8509:8522   */\n      iszero\n        /* \"#utility.yul\":8502:8523   */\n      iszero\n        /* \"#utility.yul\":8491:8523   */\n      swap1\n      pop\n        /* \"#utility.yul\":8439:8529   */\n      swap2\n      swap1\n      pop\n      jump\t// out\n        /* \"#utility.yul\":8535:8612   */\n    tag_143:\n        /* \"#utility.yul\":8572:8579   */\n      0x00\n        /* \"#utility.yul\":8601:8606   */\n      dup2\n        /* \"#utility.yul\":8590:8606   */\n      swap1\n      pop\n        /* \"#utility.yul\":8535:8612   */\n      swap2\n      swap1\n      pop\n      jump\t// out\n        /* \"#utility.yul\":8618:8744   */\n    tag_200:\n        /* \"#utility.yul\":8655:8662   */\n      0x00\n        /* \"#utility.yul\":8695:8737   */\n      0xffffffffffffffffffffffffffffffffffffffff\n        /* \"#utility.yul\":8688:8693   */\n      dup3\n        /* \"#utility.yul\":8684:8738   */\n      and\n        /* \"#utility.yul\":8673:8738   */\n      swap1\n      pop\n        /* \"#utility.yul\":8618:8744   */\n      swap2\n      swap1\n      pop\n      jump\t// out\n        /* \"#utility.yul\":8750:8827   */\n    tag_162:\n        /* \"#utility.yul\":8787:8794   */\n      0x00\n        /* \"#utility.yul\":8816:8821   */\n      dup2\n        /* \"#utility.yul\":8805:8821   */\n      swap1\n      pop\n        /* \"#utility.yul\":8750:8827   */\n      swap2\n      swap1\n      pop\n      jump\t// out\n        /* \"#utility.yul\":8833:8987   */\n    tag_90:\n        /* \"#utility.yul\":8917:8923   */\n      dup3\n        /* \"#utility.yul\":8912:8915   */\n      dup2\n        /* \"#utility.yul\":8907:8910   */\n      dup4\n        /* \"#utility.yul\":8894:8924   */\n      calldatacopy\n        /* \"#utility.yul\":8979:8980   */\n      0x00\n        /* \"#utility.yul\":8970:8976   */\n      dup4\n        /* \"#utility.yul\":8965:8968   */\n      dup4\n        /* \"#utility.yul\":8961:8977   */\n      add\n        /* \"#utility.yul\":8954:8981   */\n      mstore\n        /* \"#utility.yul\":8833:8987   */\n      pop\n      pop\n      pop\n      jump\t// out\n        /* \"#utility.yul\":8993:9300   */\n    tag_151:\n        /* \"#utility.yul\":9061:9062   */\n      0x00\n        /* \"#utility.yul\":9071:9184   */\n    tag_209:\n        /* \"#utility.yul\":9085:9091   */\n      dup4\n        /* \"#utility.yul\":9082:9083   */\n      dup2\n        /* \"#utility.yul\":9079:9092   */\n      lt\n        /* \"#utility.yul\":9071:9184   */\n      iszero\n      tag_211\n      jumpi\n        /* \"#utility.yul\":9170:9171   */\n      dup1\n        /* \"#utility.yul\":9165:9168   */\n      dup3\n        /* \"#utility.yul\":9161:9172   */\n      add\n        /* \"#utility.yul\":9155:9173   */\n      mload\n        /* \"#utility.yul\":9151:9152   */\n      dup2\n        /* \"#utility.yul\":9146:9149   */\n      dup5\n        /* \"#utility.yul\":9142:9153   */\n      add\n        /* \"#utility.yul\":9135:9174   */\n      mstore\n        /* \"#utility.yul\":9107:9109   */\n      0x20\n        /* \"#utility.yul\":9104:9105   */\n      dup2\n        /* \"#utility.yul\":9100:9110   */\n      add\n        /* \"#utility.yul\":9095:9110   */\n      swap1\n      pop\n        /* \"#utility.yul\":9071:9184   */\n      jump(tag_209)\n    tag_211:\n        /* \"#utility.yul\":9202:9208   */\n      dup4\n        /* \"#utility.yul\":9199:9200   */\n      dup2\n        /* \"#utility.yul\":9196:9209   */\n      gt\n        /* \"#utility.yul\":9193:9294   */\n      iszero\n      tag_212\n      jumpi\n        /* \"#utility.yul\":9282:9283   */\n      0x00\n        /* \"#utility.yul\":9273:9279   */\n      dup5\n        /* \"#utility.yul\":9268:9271   */\n      dup5\n        /* \"#utility.yul\":9264:9280   */\n      add\n        /* \"#utility.yul\":9257:9284   */\n      mstore\n        /* \"#utility.yul\":9193:9294   */\n    tag_212:\n        /* \"#utility.yul\":9042:9300   */\n      pop\n        /* \"#utility.yul\":8993:9300   */\n      pop\n      pop\n      pop\n      jump\t// out\n        /* \"#utility.yul\":9306:9626   */\n    tag_39:\n        /* \"#utility.yul\":9350:9356   */\n      0x00\n        /* \"#utility.yul\":9387:9388   */\n      0x02\n        /* \"#utility.yul\":9381:9385   */\n      dup3\n        /* \"#utility.yul\":9377:9389   */\n      div\n        /* \"#utility.yul\":9367:9389   */\n      swap1\n      pop\n        /* \"#utility.yul\":9434:9435   */\n      0x01\n        /* \"#utility.yul\":9428:9432   */\n      dup3\n        /* \"#utility.yul\":9424:9436   */\n      and\n        /* \"#utility.yul\":9455:9473   */\n      dup1\n        /* \"#utility.yul\":9445:9526   */\n      tag_214\n      jumpi\n        /* \"#utility.yul\":9511:9515   */\n      0x7f\n        /* \"#utility.yul\":9503:9509   */\n      dup3\n        /* \"#utility.yul\":9499:9516   */\n      and\n        /* \"#utility.yul\":9489:9516   */\n      swap2\n      pop\n        /* \"#utility.yul\":9445:9526   */\n    tag_214:\n        /* \"#utility.yul\":9573:9575   */\n      0x20\n        /* \"#utility.yul\":9565:9571   */\n      dup3\n        /* \"#utility.yul\":9562:9576   */\n      lt\n        /* \"#utility.yul\":9542:9560   */\n      dup2\n        /* \"#utility.yul\":9539:9577   */\n      eq\n        /* \"#utility.yul\":9536:9620   */\n      iszero\n      tag_215\n      jumpi\n        /* \"#utility.yul\":9592:9610   */\n      tag_216\n      tag_217\n      jump\t// in\n    tag_216:\n        /* \"#utility.yul\":9536:9620   */\n    tag_215:\n        /* \"#utility.yul\":9357:9626   */\n      pop\n        /* \"#utility.yul\":9306:9626   */\n      swap2\n      swap1\n      pop\n      jump\t// out\n        /* \"#utility.yul\":9632:9913   */\n    tag_189:\n        /* \"#utility.yul\":9715:9742   */\n      tag_219\n        /* \"#utility.yul\":9737:9741   */\n      dup3\n        /* \"#utility.yul\":9715:9742   */\n      tag_153\n      jump\t// in\n    tag_219:\n        /* \"#utility.yul\":9707:9713   */\n      dup2\n        /* \"#utility.yul\":9703:9743   */\n      add\n        /* \"#utility.yul\":9845:9851   */\n      dup2\n        /* \"#utility.yul\":9833:9843   */\n      dup2\n        /* \"#utility.yul\":9830:9852   */\n      lt\n        /* \"#utility.yul\":9809:9827   */\n      0xffffffffffffffff\n        /* \"#utility.yul\":9797:9807   */\n      dup3\n        /* \"#utility.yul\":9794:9828   */\n      gt\n        /* \"#utility.yul\":9791:9853   */\n      or\n        /* \"#utility.yul\":9788:9876   */\n      iszero\n      tag_220\n      jumpi\n        /* \"#utility.yul\":9856:9874   */\n      tag_221\n      tag_194\n      jump\t// in\n    tag_221:\n        /* \"#utility.yul\":9788:9876   */\n    tag_220:\n        /* \"#utility.yul\":9896:9906   */\n      dup1\n        /* \"#utility.yul\":9892:9894   */\n      0x40\n        /* \"#utility.yul\":9885:9907   */\n      mstore\n        /* \"#utility.yul\":9675:9913   */\n      pop\n        /* \"#utility.yul\":9632:9913   */\n      pop\n      pop\n      jump\t// out\n        /* \"#utility.yul\":9919:10099   */\n    tag_217:\n        /* \"#utility.yul\":9967:10044   */\n      0x4e487b7100000000000000000000000000000000000000000000000000000000\n        /* \"#utility.yul\":9964:9965   */\n      0x00\n        /* \"#utility.yul\":9957:10045   */\n      mstore\n        /* \"#utility.yul\":10064:10068   */\n      0x22\n        /* \"#utility.yul\":10061:10062   */\n      0x04\n        /* \"#utility.yul\":10054:10069   */\n      mstore\n        /* \"#utility.yul\":10088:10092   */\n      0x24\n        /* \"#utility.yul\":10085:10086   */\n      0x00\n        /* \"#utility.yul\":10078:10093   */\n      revert\n        /* \"#utility.yul\":10105:10285   */\n    tag_194:\n        /* \"#utility.yul\":10153:10230   */\n      0x4e487b7100000000000000000000000000000000000000000000000000000000\n        /* \"#utility.yul\":10150:10151   */\n      0x00\n        /* \"#utility.yul\":10143:10231   */\n      mstore\n        /* \"#utility.yul\":10250:10254   */\n      0x41\n        /* \"#utility.yul\":10247:10248   */\n      0x04\n        /* \"#utility.yul\":10240:10255   */\n      mstore\n        /* \"#utility.yul\":10274:10278   */\n      0x24\n        /* \"#utility.yul\":10271:10272   */\n      0x00\n        /* \"#utility.yul\":10264:10279   */\n      revert\n        /* \"#utility.yul\":10291:10408   */\n    tag_99:\n        /* \"#utility.yul\":10400:10401   */\n      0x00\n        /* \"#utility.yul\":10397:10398   */\n      dup1\n        /* \"#utility.yul\":10390:10402   */\n      revert\n        /* \"#utility.yul\":10414:10531   */\n    tag_88:\n        /* \"#utility.yul\":10523:10524   */\n      0x00\n        /* \"#utility.yul\":10520:10521   */\n      dup1\n        /* \"#utility.yul\":10513:10525   */\n      revert\n        /* \"#utility.yul\":10537:10654   */\n    tag_120:\n        /* \"#utility.yul\":10646:10647   */\n      0x00\n        /* \"#utility.yul\":10643:10644   */\n      dup1\n        /* \"#utility.yul\":10636:10648   */\n      revert\n        /* \"#utility.yul\":10660:10777   */\n    tag_108:\n        /* \"#utility.yul\":10769:10770   */\n      0x00\n        /* \"#utility.yul\":10766:10767   */\n      dup1\n        /* \"#utility.yul\":10759:10771   */\n      revert\n        /* \"#utility.yul\":10783:10885   */\n    tag_153:\n        /* \"#utility.yul\":10824:10830   */\n      0x00\n        /* \"#utility.yul\":10875:10877   */\n      0x1f\n        /* \"#utility.yul\":10871:10878   */\n      not\n        /* \"#utility.yul\":10866:10868   */\n      0x1f\n        /* \"#utility.yul\":10859:10864   */\n      dup4\n        /* \"#utility.yul\":10855:10869   */\n      add\n        /* \"#utility.yul\":10851:10879   */\n      and\n        /* \"#utility.yul\":10841:10879   */\n      swap1\n      pop\n        /* \"#utility.yul\":10783:10885   */\n      swap2\n      swap1\n      pop\n      jump\t// out\n        /* \"#utility.yul\":10891:11070   */\n    tag_158:\n        /* \"#utility.yul\":11031:11062   */\n      0x50617469656e7420697320616c72656164792072656769737465726564000000\n        /* \"#utility.yul\":11027:11028   */\n      0x00\n        /* \"#utility.yul\":11019:11025   */\n      dup3\n        /* \"#utility.yul\":11015:11029   */\n      add\n        /* \"#utility.yul\":11008:11063   */\n      mstore\n        /* \"#utility.yul\":10891:11070   */\n      pop\n      jump\t// out\n        /* \"#utility.yul\":11076:11198   */\n    tag_94:\n        /* \"#utility.yul\":11149:11173   */\n      tag_231\n        /* \"#utility.yul\":11167:11172   */\n      dup2\n        /* \"#utility.yul\":11149:11173   */\n      tag_135\n      jump\t// in\n    tag_231:\n        /* \"#utility.yul\":11142:11147   */\n      dup2\n        /* \"#utility.yul\":11139:11174   */\n      eq\n        /* \"#utility.yul\":11129:11192   */\n      tag_232\n      jumpi\n        /* \"#utility.yul\":11188:11189   */\n      0x00\n        /* \"#utility.yul\":11185:11186   */\n      dup1\n        /* \"#utility.yul\":11178:11190   */\n      revert\n        /* \"#utility.yul\":11129:11192   */\n    tag_232:\n        /* \"#utility.yul\":11076:11198   */\n      pop\n      jump\t// out\n        /* \"#utility.yul\":11204:11326   */\n    tag_104:\n        /* \"#utility.yul\":11277:11301   */\n      tag_234\n        /* \"#utility.yul\":11295:11300   */\n      dup2\n        /* \"#utility.yul\":11277:11301   */\n      tag_162\n      jump\t// in\n    tag_234:\n        /* \"#utility.yul\":11270:11275   */\n      dup2\n        /* \"#utility.yul\":11267:11302   */\n      eq\n        /* \"#utility.yul\":11257:11320   */\n      tag_235\n      jumpi\n        /* \"#utility.yul\":11316:11317   */\n      0x00\n        /* \"#utility.yul\":11313:11314   */\n      dup1\n        /* \"#utility.yul\":11306:11318   */\n      revert\n        /* \"#utility.yul\":11257:11320   */\n    tag_235:\n        /* \"#utility.yul\":11204:11326   */\n      pop\n      jump\t// out\n\n    auxdata: 0xa26469706673582212201bae1e4760351dee2c4f8652c36d77008309fdc4e5671015f6e0b22f3f4bae6364736f6c63430008070033\n}\n",
				"bytecode": {
					"linkReferences": {},
					"object": "608060405234801561001057600080fd5b5033600160006101000a81548173ffffffffffffffffffffffffffffffffffffffff021916908373ffffffffffffffffffffffffffffffffffffffff160217905550610edf806100616000396000f3fe608060405234801561001057600080fd5b50600436106100625760003560e01c80630869cfbc1461006757806389c47f081461009f5780638dc10768146100bb578063a6c3e6b9146100ec578063c4bfd57d1461010a578063da3001161461013a575b600080fd5b610081600480360381019061007c919061094e565b61016a565b60405161009699989796959493929190610bb2565b60405180910390f35b6100b960048036038101906100b491906109a8565b61039d565b005b6100d560048036038101906100d0919061097b565b6106a6565b6040516100e3929190610b69565b60405180910390f35b6100f46106da565b6040516101019190610b0a565b60405180910390f35b610124600480360381019061011f919061094e565b610700565b6040516101319190610b4e565b60405180910390f35b610154600480360381019061014f919061094e565b6107cd565b6040516101619190610b4e565b60405180910390f35b600260205280600052604060002060009150905080600001549080600101549080600201805461019990610d6c565b80601f01602080910402602001604051908101604052809291908181526020018280546101c590610d6c565b80156102125780601f106101e757610100808354040283529160200191610212565b820191906000526020600020905b8154815290600101906020018083116101f557829003601f168201915b50505050509080600301805461022790610d6c565b80601f016020809104026020016040519081016040528092919081815260200182805461025390610d6c565b80156102a05780601f10610275576101008083540402835291602001916102a0565b820191906000526020600020905b81548152906001019060200180831161028357829003601f168201915b5050505050908060040180546102b590610d6c565b80601f01602080910402602001604051908101604052809291908181526020018280546102e190610d6c565b801561032e5780601f106103035761010080835404028352916020019161032e565b820191906000526020600020905b81548152906001019060200180831161031157829003601f168201915b5050505050908060050160009054906101000a900460ff16908060060154908060070160009054906101000a900473ffffffffffffffffffffffffffffffffffffffff16908060080160009054906101000a900473ffffffffffffffffffffffffffffffffffffffff16905089565b60026000600160009054906101000a900473ffffffffffffffffffffffffffffffffffffffff1673ffffffffffffffffffffffffffffffffffffffff1673ffffffffffffffffffffffffffffffffffffffff16815260200190815260200160002060050160009054906101000a900460ff161561044f576040517f08c379a000000000000000000000000000000000000000000000000000000000815260040161044690610b92565b60405180910390fd5b8360026000600160009054906101000a900473ffffffffffffffffffffffffffffffffffffffff1673ffffffffffffffffffffffffffffffffffffffff1673ffffffffffffffffffffffffffffffffffffffff168152602001908152602001600020600101819055508260026000600160009054906101000a900473ffffffffffffffffffffffffffffffffffffffff1673ffffffffffffffffffffffffffffffffffffffff1673ffffffffffffffffffffffffffffffffffffffff1681526020019081526020016000206002019080519060200190610530929190610811565b508160026000600160009054906101000a900473ffffffffffffffffffffffffffffffffffffffff1673ffffffffffffffffffffffffffffffffffffffff1673ffffffffffffffffffffffffffffffffffffffff16815260200190815260200160002060030190805190602001906105a9929190610811565b508060026000600160009054906101000a900473ffffffffffffffffffffffffffffffffffffffff1673ffffffffffffffffffffffffffffffffffffffff1673ffffffffffffffffffffffffffffffffffffffff1681526020019081526020016000206004019080519060200190610622929190610811565b50600160026000600160009054906101000a900473ffffffffffffffffffffffffffffffffffffffff1673ffffffffffffffffffffffffffffffffffffffff1673ffffffffffffffffffffffffffffffffffffffff16815260200190815260200160002060050160006101000a81548160ff02191690831515021790555050505050565b600381815481106106b657600080fd5b90600052602060002090600202016000915090508060000154908060010154905082565b600160009054906101000a900473ffffffffffffffffffffffffffffffffffffffff1681565b60008173ffffffffffffffffffffffffffffffffffffffff1660026000600160009054906101000a900473ffffffffffffffffffffffffffffffffffffffff1673ffffffffffffffffffffffffffffffffffffffff1673ffffffffffffffffffffffffffffffffffffffff16815260200190815260200160002060070160009054906101000a900473ffffffffffffffffffffffffffffffffffffffff1673ffffffffffffffffffffffffffffffffffffffff1614156107c357600190506107c8565b600090505b919050565b60007fdd682d1363d443182f130904c49ddb3c06bcf4104bd0132873396ab097f339d93383604051610800929190610b25565b60405180910390a160019050919050565b82805461081d90610d6c565b90600052602060002090601f01602090048101928261083f5760008555610886565b82601f1061085857805160ff1916838001178555610886565b82800160010185558215610886579182015b8281111561088557825182559160200191906001019061086a565b5b5090506108939190610897565b5090565b5b808211156108b0576000816000905550600101610898565b5090565b60006108c76108c284610c79565b610c54565b9050828152602081018484840111156108e3576108e2610e32565b5b6108ee848285610d2a565b509392505050565b60008135905061090581610e7b565b92915050565b600082601f8301126109205761091f610e2d565b5b81356109308482602086016108b4565b91505092915050565b60008135905061094881610e92565b92915050565b60006020828403121561096457610963610e3c565b5b6000610972848285016108f6565b91505092915050565b60006020828403121561099157610990610e3c565b5b600061099f84828501610939565b91505092915050565b600080600080608085870312156109c2576109c1610e3c565b5b60006109d087828801610939565b945050602085013567ffffffffffffffff8111156109f1576109f0610e37565b5b6109fd8782880161090b565b935050604085013567ffffffffffffffff811115610a1e57610a1d610e37565b5b610a2a8782880161090b565b925050606085013567ffffffffffffffff811115610a4b57610a4a610e37565b5b610a578782880161090b565b91505092959194509250565b610a6c81610cd8565b82525050565b610a7b81610cc6565b82525050565b610a8a81610cea565b82525050565b610a9981610cf6565b82525050565b6000610aaa82610caa565b610ab48185610cb5565b9350610ac4818560208601610d39565b610acd81610e41565b840191505092915050565b6000610ae5601d83610cb5565b9150610af082610e52565b602082019050919050565b610b0481610d20565b82525050565b6000602082019050610b1f6000830184610a72565b92915050565b6000604082019050610b3a6000830185610a72565b610b476020830184610a72565b9392505050565b6000602082019050610b636000830184610a81565b92915050565b6000604082019050610b7e6000830185610a90565b610b8b6020830184610afb565b9392505050565b60006020820190508181036000830152610bab81610ad8565b9050919050565b600061012082019050610bc8600083018c610afb565b610bd5602083018b610afb565b8181036040830152610be7818a610a9f565b90508181036060830152610bfb8189610a9f565b90508181036080830152610c0f8188610a9f565b9050610c1e60a0830187610a81565b610c2b60c0830186610afb565b610c3860e0830185610a63565b610c46610100830184610a63565b9a9950505050505050505050565b6000610c5e610c6f565b9050610c6a8282610d9e565b919050565b6000604051905090565b600067ffffffffffffffff821115610c9457610c93610dfe565b5b610c9d82610e41565b9050602081019050919050565b600081519050919050565b600082825260208201905092915050565b6000610cd182610d00565b9050919050565b6000610ce382610d00565b9050919050565b60008115159050919050565b6000819050919050565b600073ffffffffffffffffffffffffffffffffffffffff82169050919050565b6000819050919050565b82818337600083830152505050565b60005b83811015610d57578082015181840152602081019050610d3c565b83811115610d66576000848401525b50505050565b60006002820490506001821680610d8457607f821691505b60208210811415610d9857610d97610dcf565b5b50919050565b610da782610e41565b810181811067ffffffffffffffff82111715610dc657610dc5610dfe565b5b80604052505050565b7f4e487b7100000000000000000000000000000000000000000000000000000000600052602260045260246000fd5b7f4e487b7100000000000000000000000000000000000000000000000000000000600052604160045260246000fd5b600080fd5b600080fd5b600080fd5b600080fd5b6000601f19601f8301169050919050565b7f50617469656e7420697320616c72656164792072656769737465726564000000600082015250565b610e8481610cc6565b8114610e8f57600080fd5b50565b610e9b81610d20565b8114610ea657600080fd5b5056fea26469706673582212201bae1e4760351dee2c4f8652c36d77008309fdc4e5671015f6e0b22f3f4bae6364736f6c63430008070033",
					"opcodes": "PUSH1 0x80 PUSH1 0x40 MSTORE CALLVALUE DUP1 ISZERO PUSH2 0x10 JUMPI PUSH1 0x0 DUP1 REVERT JUMPDEST POP CALLER PUSH1 0x1 PUSH1 0x0 PUSH2 0x100 EXP DUP2 SLOAD DUP2 PUSH20 0xFFFFFFFFFFFFFFFFFFFFFFFFFFFFFFFFFFFFFFFF MUL NOT AND SWAP1 DUP4 PUSH20 0xFFFFFFFFFFFFFFFFFFFFFFFFFFFFFFFFFFFFFFFF AND MUL OR SWAP1 SSTORE POP PUSH2 0xEDF DUP1 PUSH2 0x61 PUSH1 0x0 CODECOPY PUSH1 0x0 RETURN INVALID PUSH1 0x80 PUSH1 0x40 MSTORE CALLVALUE DUP1 ISZERO PUSH2 0x10 JUMPI PUSH1 0x0 DUP1 REVERT JUMPDEST POP PUSH1 0x4 CALLDATASIZE LT PUSH2 0x62 JUMPI PUSH1 0x0 CALLDATALOAD PUSH1 0xE0 SHR DUP1 PUSH4 0x869CFBC EQ PUSH2 0x67 JUMPI DUP1 PUSH4 0x89C47F08 EQ PUSH2 0x9F JUMPI DUP1 PUSH4 0x8DC10768 EQ PUSH2 0xBB JUMPI DUP1 PUSH4 0xA6C3E6B9 EQ PUSH2 0xEC JUMPI DUP1 PUSH4 0xC4BFD57D EQ PUSH2 0x10A JUMPI DUP1 PUSH4 0xDA300116 EQ PUSH2 0x13A JUMPI JUMPDEST PUSH1 0x0 DUP1 REVERT JUMPDEST PUSH2 0x81 PUSH1 0x4 DUP1 CALLDATASIZE SUB DUP2 ADD SWAP1 PUSH2 0x7C SWAP2 SWAP1 PUSH2 0x94E JUMP JUMPDEST PUSH2 0x16A JUMP JUMPDEST PUSH1 0x40 MLOAD PUSH2 0x96 SWAP10 SWAP9 SWAP8 SWAP7 SWAP6 SWAP5 SWAP4 SWAP3 SWAP2 SWAP1 PUSH2 0xBB2 JUMP JUMPDEST PUSH1 0x40 MLOAD DUP1 SWAP2 SUB SWAP1 RETURN JUMPDEST PUSH2 0xB9 PUSH1 0x4 DUP1 CALLDATASIZE SUB DUP2 ADD SWAP1 PUSH2 0xB4 SWAP2 SWAP1 PUSH2 0x9A8 JUMP JUMPDEST PUSH2 0x39D JUMP JUMPDEST STOP JUMPDEST PUSH2 0xD5 PUSH1 0x4 DUP1 CALLDATASIZE SUB DUP2 ADD SWAP1 PUSH2 0xD0 SWAP2 SWAP1 PUSH2 0x97B JUMP JUMPDEST PUSH2 0x6A6 JUMP JUMPDEST PUSH1 0x40 MLOAD PUSH2 0xE3 SWAP3 SWAP2 SWAP1 PUSH2 0xB69 JUMP JUMPDEST PUSH1 0x40 MLOAD DUP1 SWAP2 SUB SWAP1 RETURN JUMPDEST PUSH2 0xF4 PUSH2 0x6DA JUMP JUMPDEST PUSH1 0x40 MLOAD PUSH2 0x101 SWAP2 SWAP1 PUSH2 0xB0A JUMP JUMPDEST PUSH1 0x40 MLOAD DUP1 SWAP2 SUB SWAP1 RETURN JUMPDEST PUSH2 0x124 PUSH1 0x4 DUP1 CALLDATASIZE SUB DUP2 ADD SWAP1 PUSH2 0x11F SWAP2 SWAP1 PUSH2 0x94E JUMP JUMPDEST PUSH2 0x700 JUMP JUMPDEST PUSH1 0x40 MLOAD PUSH2 0x131 SWAP2 SWAP1 PUSH2 0xB4E JUMP JUMPDEST PUSH1 0x40 MLOAD DUP1 SWAP2 SUB SWAP1 RETURN JUMPDEST PUSH2 0x154 PUSH1 0x4 DUP1 CALLDATASIZE SUB DUP2 ADD SWAP1 PUSH2 0x14F SWAP2 SWAP1 PUSH2 0x94E JUMP JUMPDEST PUSH2 0x7CD JUMP JUMPDEST PUSH1 0x40 MLOAD PUSH2 0x161 SWAP2 SWAP1 PUSH2 0xB4E JUMP JUMPDEST PUSH1 0x40 MLOAD DUP1 SWAP2 SUB SWAP1 RETURN JUMPDEST PUSH1 0x2 PUSH1 0x20 MSTORE DUP1 PUSH1 0x0 MSTORE PUSH1 0x40 PUSH1 0x0 KECCAK256 PUSH1 0x0 SWAP2 POP SWAP1 POP DUP1 PUSH1 0x0 ADD SLOAD SWAP1 DUP1 PUSH1 0x1 ADD SLOAD SWAP1 DUP1 PUSH1 0x2 ADD DUP1 SLOAD PUSH2 0x199 SWAP1 PUSH2 0xD6C JUMP JUMPDEST DUP1 PUSH1 0x1F ADD PUSH1 0x20 DUP1 SWAP2 DIV MUL PUSH1 0x20 ADD PUSH1 0x40 MLOAD SWAP1 DUP2 ADD PUSH1 0x40 MSTORE DUP1 SWAP3 SWAP2 SWAP1 DUP2 DUP2 MSTORE PUSH1 0x20 ADD DUP3 DUP1 SLOAD PUSH2 0x1C5 SWAP1 PUSH2 0xD6C JUMP JUMPDEST DUP1 ISZERO PUSH2 0x212 JUMPI DUP1 PUSH1 0x1F LT PUSH2 0x1E7 JUMPI PUSH2 0x100 DUP1 DUP4 SLOAD DIV MUL DUP4 MSTORE SWAP2 PUSH1 0x20 ADD SWAP2 PUSH2 0x212 JUMP JUMPDEST DUP3 ADD SWAP2 SWAP1 PUSH1 0x0 MSTORE PUSH1 0x20 PUSH1 0x0 KECCAK256 SWAP1 JUMPDEST DUP2 SLOAD DUP2 MSTORE SWAP1 PUSH1 0x1 ADD SWAP1 PUSH1 0x20 ADD DUP1 DUP4 GT PUSH2 0x1F5 JUMPI DUP3 SWAP1 SUB PUSH1 0x1F AND DUP3 ADD SWAP2 JUMPDEST POP POP POP POP POP SWAP1 DUP1 PUSH1 0x3 ADD DUP1 SLOAD PUSH2 0x227 SWAP1 PUSH2 0xD6C JUMP JUMPDEST DUP1 PUSH1 0x1F ADD PUSH1 0x20 DUP1 SWAP2 DIV MUL PUSH1 0x20 ADD PUSH1 0x40 MLOAD SWAP1 DUP2 ADD PUSH1 0x40 MSTORE DUP1 SWAP3 SWAP2 SWAP1 DUP2 DUP2 MSTORE PUSH1 0x20 ADD DUP3 DUP1 SLOAD PUSH2 0x253 SWAP1 PUSH2 0xD6C JUMP JUMPDEST DUP1 ISZERO PUSH2 0x2A0 JUMPI DUP1 PUSH1 0x1F LT PUSH2 0x275 JUMPI PUSH2 0x100 DUP1 DUP4 SLOAD DIV MUL DUP4 MSTORE SWAP2 PUSH1 0x20 ADD SWAP2 PUSH2 0x2A0 JUMP JUMPDEST DUP3 ADD SWAP2 SWAP1 PUSH1 0x0 MSTORE PUSH1 0x20 PUSH1 0x0 KECCAK256 SWAP1 JUMPDEST DUP2 SLOAD DUP2 MSTORE SWAP1 PUSH1 0x1 ADD SWAP1 PUSH1 0x20 ADD DUP1 DUP4 GT PUSH2 0x283 JUMPI DUP3 SWAP1 SUB PUSH1 0x1F AND DUP3 ADD SWAP2 JUMPDEST POP POP POP POP POP SWAP1 DUP1 PUSH1 0x4 ADD DUP1 SLOAD PUSH2 0x2B5 SWAP1 PUSH2 0xD6C JUMP JUMPDEST DUP1 PUSH1 0x1F ADD PUSH1 0x20 DUP1 SWAP2 DIV MUL PUSH1 0x20 ADD PUSH1 0x40 MLOAD SWAP1 DUP2 ADD PUSH1 0x40 MSTORE DUP1 SWAP3 SWAP2 SWAP1 DUP2 DUP2 MSTORE PUSH1 0x20 ADD DUP3 DUP1 SLOAD PUSH2 0x2E1 SWAP1 PUSH2 0xD6C JUMP JUMPDEST DUP1 ISZERO PUSH2 0x32E JUMPI DUP1 PUSH1 0x1F LT PUSH2 0x303 JUMPI PUSH2 0x100 DUP1 DUP4 SLOAD DIV MUL DUP4 MSTORE SWAP2 PUSH1 0x20 ADD SWAP2 PUSH2 0x32E JUMP JUMPDEST DUP3 ADD SWAP2 SWAP1 PUSH1 0x0 MSTORE PUSH1 0x20 PUSH1 0x0 KECCAK256 SWAP1 JUMPDEST DUP2 SLOAD DUP2 MSTORE SWAP1 PUSH1 0x1 ADD SWAP1 PUSH1 0x20 ADD DUP1 DUP4 GT PUSH2 0x311 JUMPI DUP3 SWAP1 SUB PUSH1 0x1F AND DUP3 ADD SWAP2 JUMPDEST POP POP POP POP POP SWAP1 DUP1 PUSH1 0x5 ADD PUSH1 0x0 SWAP1 SLOAD SWAP1 PUSH2 0x100 EXP SWAP1 DIV PUSH1 0xFF AND SWAP1 DUP1 PUSH1 0x6 ADD SLOAD SWAP1 DUP1 PUSH1 0x7 ADD PUSH1 0x0 SWAP1 SLOAD SWAP1 PUSH2 0x100 EXP SWAP1 DIV PUSH20 0xFFFFFFFFFFFFFFFFFFFFFFFFFFFFFFFFFFFFFFFF AND SWAP1 DUP1 PUSH1 0x8 ADD PUSH1 0x0 SWAP1 SLOAD SWAP1 PUSH2 0x100 EXP SWAP1 DIV PUSH20 0xFFFFFFFFFFFFFFFFFFFFFFFFFFFFFFFFFFFFFFFF AND SWAP1 POP DUP10 JUMP JUMPDEST PUSH1 0x2 PUSH1 0x0 PUSH1 0x1 PUSH1 0x0 SWAP1 SLOAD SWAP1 PUSH2 0x100 EXP SWAP1 DIV PUSH20 0xFFFFFFFFFFFFFFFFFFFFFFFFFFFFFFFFFFFFFFFF AND PUSH20 0xFFFFFFFFFFFFFFFFFFFFFFFFFFFFFFFFFFFFFFFF AND PUSH20 0xFFFFFFFFFFFFFFFFFFFFFFFFFFFFFFFFFFFFFFFF AND DUP2 MSTORE PUSH1 0x20 ADD SWAP1 DUP2 MSTORE PUSH1 0x20 ADD PUSH1 0x0 KECCAK256 PUSH1 0x5 ADD PUSH1 0x0 SWAP1 SLOAD SWAP1 PUSH2 0x100 EXP SWAP1 DIV PUSH1 0xFF AND ISZERO PUSH2 0x44F JUMPI PUSH1 0x40 MLOAD PUSH32 0x8C379A000000000000000000000000000000000000000000000000000000000 DUP2 MSTORE PUSH1 0x4 ADD PUSH2 0x446 SWAP1 PUSH2 0xB92 JUMP JUMPDEST PUSH1 0x40 MLOAD DUP1 SWAP2 SUB SWAP1 REVERT JUMPDEST DUP4 PUSH1 0x2 PUSH1 0x0 PUSH1 0x1 PUSH1 0x0 SWAP1 SLOAD SWAP1 PUSH2 0x100 EXP SWAP1 DIV PUSH20 0xFFFFFFFFFFFFFFFFFFFFFFFFFFFFFFFFFFFFFFFF AND PUSH20 0xFFFFFFFFFFFFFFFFFFFFFFFFFFFFFFFFFFFFFFFF AND PUSH20 0xFFFFFFFFFFFFFFFFFFFFFFFFFFFFFFFFFFFFFFFF AND DUP2 MSTORE PUSH1 0x20 ADD SWAP1 DUP2 MSTORE PUSH1 0x20 ADD PUSH1 0x0 KECCAK256 PUSH1 0x1 ADD DUP2 SWAP1 SSTORE POP DUP3 PUSH1 0x2 PUSH1 0x0 PUSH1 0x1 PUSH1 0x0 SWAP1 SLOAD SWAP1 PUSH2 0x100 EXP SWAP1 DIV PUSH20 0xFFFFFFFFFFFFFFFFFFFFFFFFFFFFFFFFFFFFFFFF AND PUSH20 0xFFFFFFFFFFFFFFFFFFFFFFFFFFFFFFFFFFFFFFFF AND PUSH20 0xFFFFFFFFFFFFFFFFFFFFFFFFFFFFFFFFFFFFFFFF AND DUP2 MSTORE PUSH1 0x20 ADD SWAP1 DUP2 MSTORE PUSH1 0x20 ADD PUSH1 0x0 KECCAK256 PUSH1 0x2 ADD SWAP1 DUP1 MLOAD SWAP1 PUSH1 0x20 ADD SWAP1 PUSH2 0x530 SWAP3 SWAP2 SWAP1 PUSH2 0x811 JUMP JUMPDEST POP DUP2 PUSH1 0x2 PUSH1 0x0 PUSH1 0x1 PUSH1 0x0 SWAP1 SLOAD SWAP1 PUSH2 0x100 EXP SWAP1 DIV PUSH20 0xFFFFFFFFFFFFFFFFFFFFFFFFFFFFFFFFFFFFFFFF AND PUSH20 0xFFFFFFFFFFFFFFFFFFFFFFFFFFFFFFFFFFFFFFFF AND PUSH20 0xFFFFFFFFFFFFFFFFFFFFFFFFFFFFFFFFFFFFFFFF AND DUP2 MSTORE PUSH1 0x20 ADD SWAP1 DUP2 MSTORE PUSH1 0x20 ADD PUSH1 0x0 KECCAK256 PUSH1 0x3 ADD SWAP1 DUP1 MLOAD SWAP1 PUSH1 0x20 ADD SWAP1 PUSH2 0x5A9 SWAP3 SWAP2 SWAP1 PUSH2 0x811 JUMP JUMPDEST POP DUP1 PUSH1 0x2 PUSH1 0x0 PUSH1 0x1 PUSH1 0x0 SWAP1 SLOAD SWAP1 PUSH2 0x100 EXP SWAP1 DIV PUSH20 0xFFFFFFFFFFFFFFFFFFFFFFFFFFFFFFFFFFFFFFFF AND PUSH20 0xFFFFFFFFFFFFFFFFFFFFFFFFFFFFFFFFFFFFFFFF AND PUSH20 0xFFFFFFFFFFFFFFFFFFFFFFFFFFFFFFFFFFFFFFFF AND DUP2 MSTORE PUSH1 0x20 ADD SWAP1 DUP2 MSTORE PUSH1 0x20 ADD PUSH1 0x0 KECCAK256 PUSH1 0x4 ADD SWAP1 DUP1 MLOAD SWAP1 PUSH1 0x20 ADD SWAP1 PUSH2 0x622 SWAP3 SWAP2 SWAP1 PUSH2 0x811 JUMP JUMPDEST POP PUSH1 0x1 PUSH1 0x2 PUSH1 0x0 PUSH1 0x1 PUSH1 0x0 SWAP1 SLOAD SWAP1 PUSH2 0x100 EXP SWAP1 DIV PUSH20 0xFFFFFFFFFFFFFFFFFFFFFFFFFFFFFFFFFFFFFFFF AND PUSH20 0xFFFFFFFFFFFFFFFFFFFFFFFFFFFFFFFFFFFFFFFF AND PUSH20 0xFFFFFFFFFFFFFFFFFFFFFFFFFFFFFFFFFFFFFFFF AND DUP2 MSTORE PUSH1 0x20 ADD SWAP1 DUP2 MSTORE PUSH1 0x20 ADD PUSH1 0x0 KECCAK256 PUSH1 0x5 ADD PUSH1 0x0 PUSH2 0x100 EXP DUP2 SLOAD DUP2 PUSH1 0xFF MUL NOT AND SWAP1 DUP4 ISZERO ISZERO MUL OR SWAP1 SSTORE POP POP POP POP POP JUMP JUMPDEST PUSH1 0x3 DUP2 DUP2 SLOAD DUP2 LT PUSH2 0x6B6 JUMPI PUSH1 0x0 DUP1 REVERT JUMPDEST SWAP1 PUSH1 0x0 MSTORE PUSH1 0x20 PUSH1 0x0 KECCAK256 SWAP1 PUSH1 0x2 MUL ADD PUSH1 0x0 SWAP2 POP SWAP1 POP DUP1 PUSH1 0x0 ADD SLOAD SWAP1 DUP1 PUSH1 0x1 ADD SLOAD SWAP1 POP DUP3 JUMP JUMPDEST PUSH1 0x1 PUSH1 0x0 SWAP1 SLOAD SWAP1 PUSH2 0x100 EXP SWAP1 DIV PUSH20 0xFFFFFFFFFFFFFFFFFFFFFFFFFFFFFFFFFFFFFFFF AND DUP2 JUMP JUMPDEST PUSH1 0x0 DUP2 PUSH20 0xFFFFFFFFFFFFFFFFFFFFFFFFFFFFFFFFFFFFFFFF AND PUSH1 0x2 PUSH1 0x0 PUSH1 0x1 PUSH1 0x0 SWAP1 SLOAD SWAP1 PUSH2 0x100 EXP SWAP1 DIV PUSH20 0xFFFFFFFFFFFFFFFFFFFFFFFFFFFFFFFFFFFFFFFF AND PUSH20 0xFFFFFFFFFFFFFFFFFFFFFFFFFFFFFFFFFFFFFFFF AND PUSH20 0xFFFFFFFFFFFFFFFFFFFFFFFFFFFFFFFFFFFFFFFF AND DUP2 MSTORE PUSH1 0x20 ADD SWAP1 DUP2 MSTORE PUSH1 0x20 ADD PUSH1 0x0 KECCAK256 PUSH1 0x7 ADD PUSH1 0x0 SWAP1 SLOAD SWAP1 PUSH2 0x100 EXP SWAP1 DIV PUSH20 0xFFFFFFFFFFFFFFFFFFFFFFFFFFFFFFFFFFFFFFFF AND PUSH20 0xFFFFFFFFFFFFFFFFFFFFFFFFFFFFFFFFFFFFFFFF AND EQ ISZERO PUSH2 0x7C3 JUMPI PUSH1 0x1 SWAP1 POP PUSH2 0x7C8 JUMP JUMPDEST PUSH1 0x0 SWAP1 POP JUMPDEST SWAP2 SWAP1 POP JUMP JUMPDEST PUSH1 0x0 PUSH32 0xDD682D1363D443182F130904C49DDB3C06BCF4104BD0132873396AB097F339D9 CALLER DUP4 PUSH1 0x40 MLOAD PUSH2 0x800 SWAP3 SWAP2 SWAP1 PUSH2 0xB25 JUMP JUMPDEST PUSH1 0x40 MLOAD DUP1 SWAP2 SUB SWAP1 LOG1 PUSH1 0x1 SWAP1 POP SWAP2 SWAP1 POP JUMP JUMPDEST DUP3 DUP1 SLOAD PUSH2 0x81D SWAP1 PUSH2 0xD6C JUMP JUMPDEST SWAP1 PUSH1 0x0 MSTORE PUSH1 0x20 PUSH1 0x0 KECCAK256 SWAP1 PUSH1 0x1F ADD PUSH1 0x20 SWAP1 DIV DUP2 ADD SWAP3 DUP3 PUSH2 0x83F JUMPI PUSH1 0x0 DUP6 SSTORE PUSH2 0x886 JUMP JUMPDEST DUP3 PUSH1 0x1F LT PUSH2 0x858 JUMPI DUP1 MLOAD PUSH1 0xFF NOT AND DUP4 DUP1 ADD OR DUP6 SSTORE PUSH2 0x886 JUMP JUMPDEST DUP3 DUP1 ADD PUSH1 0x1 ADD DUP6 SSTORE DUP3 ISZERO PUSH2 0x886 JUMPI SWAP2 DUP3 ADD JUMPDEST DUP3 DUP2 GT ISZERO PUSH2 0x885 JUMPI DUP3 MLOAD DUP3 SSTORE SWAP2 PUSH1 0x20 ADD SWAP2 SWAP1 PUSH1 0x1 ADD SWAP1 PUSH2 0x86A JUMP JUMPDEST JUMPDEST POP SWAP1 POP PUSH2 0x893 SWAP2 SWAP1 PUSH2 0x897 JUMP JUMPDEST POP SWAP1 JUMP JUMPDEST JUMPDEST DUP1 DUP3 GT ISZERO PUSH2 0x8B0 JUMPI PUSH1 0x0 DUP2 PUSH1 0x0 SWAP1 SSTORE POP PUSH1 0x1 ADD PUSH2 0x898 JUMP JUMPDEST POP SWAP1 JUMP JUMPDEST PUSH1 0x0 PUSH2 0x8C7 PUSH2 0x8C2 DUP5 PUSH2 0xC79 JUMP JUMPDEST PUSH2 0xC54 JUMP JUMPDEST SWAP1 POP DUP3 DUP2 MSTORE PUSH1 0x20 DUP2 ADD DUP5 DUP5 DUP5 ADD GT ISZERO PUSH2 0x8E3 JUMPI PUSH2 0x8E2 PUSH2 0xE32 JUMP JUMPDEST JUMPDEST PUSH2 0x8EE DUP5 DUP3 DUP6 PUSH2 0xD2A JUMP JUMPDEST POP SWAP4 SWAP3 POP POP POP JUMP JUMPDEST PUSH1 0x0 DUP2 CALLDATALOAD SWAP1 POP PUSH2 0x905 DUP2 PUSH2 0xE7B JUMP JUMPDEST SWAP3 SWAP2 POP POP JUMP JUMPDEST PUSH1 0x0 DUP3 PUSH1 0x1F DUP4 ADD SLT PUSH2 0x920 JUMPI PUSH2 0x91F PUSH2 0xE2D JUMP JUMPDEST JUMPDEST DUP2 CALLDATALOAD PUSH2 0x930 DUP5 DUP3 PUSH1 0x20 DUP7 ADD PUSH2 0x8B4 JUMP JUMPDEST SWAP2 POP POP SWAP3 SWAP2 POP POP JUMP JUMPDEST PUSH1 0x0 DUP2 CALLDATALOAD SWAP1 POP PUSH2 0x948 DUP2 PUSH2 0xE92 JUMP JUMPDEST SWAP3 SWAP2 POP POP JUMP JUMPDEST PUSH1 0x0 PUSH1 0x20 DUP3 DUP5 SUB SLT ISZERO PUSH2 0x964 JUMPI PUSH2 0x963 PUSH2 0xE3C JUMP JUMPDEST JUMPDEST PUSH1 0x0 PUSH2 0x972 DUP5 DUP3 DUP6 ADD PUSH2 0x8F6 JUMP JUMPDEST SWAP2 POP POP SWAP3 SWAP2 POP POP JUMP JUMPDEST PUSH1 0x0 PUSH1 0x20 DUP3 DUP5 SUB SLT ISZERO PUSH2 0x991 JUMPI PUSH2 0x990 PUSH2 0xE3C JUMP JUMPDEST JUMPDEST PUSH1 0x0 PUSH2 0x99F DUP5 DUP3 DUP6 ADD PUSH2 0x939 JUMP JUMPDEST SWAP2 POP POP SWAP3 SWAP2 POP POP JUMP JUMPDEST PUSH1 0x0 DUP1 PUSH1 0x0 DUP1 PUSH1 0x80 DUP6 DUP8 SUB SLT ISZERO PUSH2 0x9C2 JUMPI PUSH2 0x9C1 PUSH2 0xE3C JUMP JUMPDEST JUMPDEST PUSH1 0x0 PUSH2 0x9D0 DUP8 DUP3 DUP9 ADD PUSH2 0x939 JUMP JUMPDEST SWAP5 POP POP PUSH1 0x20 DUP6 ADD CALLDATALOAD PUSH8 0xFFFFFFFFFFFFFFFF DUP2 GT ISZERO PUSH2 0x9F1 JUMPI PUSH2 0x9F0 PUSH2 0xE37 JUMP JUMPDEST JUMPDEST PUSH2 0x9FD DUP8 DUP3 DUP9 ADD PUSH2 0x90B JUMP JUMPDEST SWAP4 POP POP PUSH1 0x40 DUP6 ADD CALLDATALOAD PUSH8 0xFFFFFFFFFFFFFFFF DUP2 GT ISZERO PUSH2 0xA1E JUMPI PUSH2 0xA1D PUSH2 0xE37 JUMP JUMPDEST JUMPDEST PUSH2 0xA2A DUP8 DUP3 DUP9 ADD PUSH2 0x90B JUMP JUMPDEST SWAP3 POP POP PUSH1 0x60 DUP6 ADD CALLDATALOAD PUSH8 0xFFFFFFFFFFFFFFFF DUP2 GT ISZERO PUSH2 0xA4B JUMPI PUSH2 0xA4A PUSH2 0xE37 JUMP JUMPDEST JUMPDEST PUSH2 0xA57 DUP8 DUP3 DUP9 ADD PUSH2 0x90B JUMP JUMPDEST SWAP2 POP POP SWAP3 SWAP6 SWAP2 SWAP5 POP SWAP3 POP JUMP JUMPDEST PUSH2 0xA6C DUP2 PUSH2 0xCD8 JUMP JUMPDEST DUP3 MSTORE POP POP JUMP JUMPDEST PUSH2 0xA7B DUP2 PUSH2 0xCC6 JUMP JUMPDEST DUP3 MSTORE POP POP JUMP JUMPDEST PUSH2 0xA8A DUP2 PUSH2 0xCEA JUMP JUMPDEST DUP3 MSTORE POP POP JUMP JUMPDEST PUSH2 0xA99 DUP2 PUSH2 0xCF6 JUMP JUMPDEST DUP3 MSTORE POP POP JUMP JUMPDEST PUSH1 0x0 PUSH2 0xAAA DUP3 PUSH2 0xCAA JUMP JUMPDEST PUSH2 0xAB4 DUP2 DUP6 PUSH2 0xCB5 JUMP JUMPDEST SWAP4 POP PUSH2 0xAC4 DUP2 DUP6 PUSH1 0x20 DUP7 ADD PUSH2 0xD39 JUMP JUMPDEST PUSH2 0xACD DUP2 PUSH2 0xE41 JUMP JUMPDEST DUP5 ADD SWAP2 POP POP SWAP3 SWAP2 POP POP JUMP JUMPDEST PUSH1 0x0 PUSH2 0xAE5 PUSH1 0x1D DUP4 PUSH2 0xCB5 JUMP JUMPDEST SWAP2 POP PUSH2 0xAF0 DUP3 PUSH2 0xE52 JUMP JUMPDEST PUSH1 0x20 DUP3 ADD SWAP1 POP SWAP2 SWAP1 POP JUMP JUMPDEST PUSH2 0xB04 DUP2 PUSH2 0xD20 JUMP JUMPDEST DUP3 MSTORE POP POP JUMP JUMPDEST PUSH1 0x0 PUSH1 0x20 DUP3 ADD SWAP1 POP PUSH2 0xB1F PUSH1 0x0 DUP4 ADD DUP5 PUSH2 0xA72 JUMP JUMPDEST SWAP3 SWAP2 POP POP JUMP JUMPDEST PUSH1 0x0 PUSH1 0x40 DUP3 ADD SWAP1 POP PUSH2 0xB3A PUSH1 0x0 DUP4 ADD DUP6 PUSH2 0xA72 JUMP JUMPDEST PUSH2 0xB47 PUSH1 0x20 DUP4 ADD DUP5 PUSH2 0xA72 JUMP JUMPDEST SWAP4 SWAP3 POP POP POP JUMP JUMPDEST PUSH1 0x0 PUSH1 0x20 DUP3 ADD SWAP1 POP PUSH2 0xB63 PUSH1 0x0 DUP4 ADD DUP5 PUSH2 0xA81 JUMP JUMPDEST SWAP3 SWAP2 POP POP JUMP JUMPDEST PUSH1 0x0 PUSH1 0x40 DUP3 ADD SWAP1 POP PUSH2 0xB7E PUSH1 0x0 DUP4 ADD DUP6 PUSH2 0xA90 JUMP JUMPDEST PUSH2 0xB8B PUSH1 0x20 DUP4 ADD DUP5 PUSH2 0xAFB JUMP JUMPDEST SWAP4 SWAP3 POP POP POP JUMP JUMPDEST PUSH1 0x0 PUSH1 0x20 DUP3 ADD SWAP1 POP DUP2 DUP2 SUB PUSH1 0x0 DUP4 ADD MSTORE PUSH2 0xBAB DUP2 PUSH2 0xAD8 JUMP JUMPDEST SWAP1 POP SWAP2 SWAP1 POP JUMP JUMPDEST PUSH1 0x0 PUSH2 0x120 DUP3 ADD SWAP1 POP PUSH2 0xBC8 PUSH1 0x0 DUP4 ADD DUP13 PUSH2 0xAFB JUMP JUMPDEST PUSH2 0xBD5 PUSH1 0x20 DUP4 ADD DUP12 PUSH2 0xAFB JUMP JUMPDEST DUP2 DUP2 SUB PUSH1 0x40 DUP4 ADD MSTORE PUSH2 0xBE7 DUP2 DUP11 PUSH2 0xA9F JUMP JUMPDEST SWAP1 POP DUP2 DUP2 SUB PUSH1 0x60 DUP4 ADD MSTORE PUSH2 0xBFB DUP2 DUP10 PUSH2 0xA9F JUMP JUMPDEST SWAP1 POP DUP2 DUP2 SUB PUSH1 0x80 DUP4 ADD MSTORE PUSH2 0xC0F DUP2 DUP9 PUSH2 0xA9F JUMP JUMPDEST SWAP1 POP PUSH2 0xC1E PUSH1 0xA0 DUP4 ADD DUP8 PUSH2 0xA81 JUMP JUMPDEST PUSH2 0xC2B PUSH1 0xC0 DUP4 ADD DUP7 PUSH2 0xAFB JUMP JUMPDEST PUSH2 0xC38 PUSH1 0xE0 DUP4 ADD DUP6 PUSH2 0xA63 JUMP JUMPDEST PUSH2 0xC46 PUSH2 0x100 DUP4 ADD DUP5 PUSH2 0xA63 JUMP JUMPDEST SWAP11 SWAP10 POP POP POP POP POP POP POP POP POP POP JUMP JUMPDEST PUSH1 0x0 PUSH2 0xC5E PUSH2 0xC6F JUMP JUMPDEST SWAP1 POP PUSH2 0xC6A DUP3 DUP3 PUSH2 0xD9E JUMP JUMPDEST SWAP2 SWAP1 POP JUMP JUMPDEST PUSH1 0x0 PUSH1 0x40 MLOAD SWAP1 POP SWAP1 JUMP JUMPDEST PUSH1 0x0 PUSH8 0xFFFFFFFFFFFFFFFF DUP3 GT ISZERO PUSH2 0xC94 JUMPI PUSH2 0xC93 PUSH2 0xDFE JUMP JUMPDEST JUMPDEST PUSH2 0xC9D DUP3 PUSH2 0xE41 JUMP JUMPDEST SWAP1 POP PUSH1 0x20 DUP2 ADD SWAP1 POP SWAP2 SWAP1 POP JUMP JUMPDEST PUSH1 0x0 DUP2 MLOAD SWAP1 POP SWAP2 SWAP1 POP JUMP JUMPDEST PUSH1 0x0 DUP3 DUP3 MSTORE PUSH1 0x20 DUP3 ADD SWAP1 POP SWAP3 SWAP2 POP POP JUMP JUMPDEST PUSH1 0x0 PUSH2 0xCD1 DUP3 PUSH2 0xD00 JUMP JUMPDEST SWAP1 POP SWAP2 SWAP1 POP JUMP JUMPDEST PUSH1 0x0 PUSH2 0xCE3 DUP3 PUSH2 0xD00 JUMP JUMPDEST SWAP1 POP SWAP2 SWAP1 POP JUMP JUMPDEST PUSH1 0x0 DUP2 ISZERO ISZERO SWAP1 POP SWAP2 SWAP1 POP JUMP JUMPDEST PUSH1 0x0 DUP2 SWAP1 POP SWAP2 SWAP1 POP JUMP JUMPDEST PUSH1 0x0 PUSH20 0xFFFFFFFFFFFFFFFFFFFFFFFFFFFFFFFFFFFFFFFF DUP3 AND SWAP1 POP SWAP2 SWAP1 POP JUMP JUMPDEST PUSH1 0x0 DUP2 SWAP1 POP SWAP2 SWAP1 POP JUMP JUMPDEST DUP3 DUP2 DUP4 CALLDATACOPY PUSH1 0x0 DUP4 DUP4 ADD MSTORE POP POP POP JUMP JUMPDEST PUSH1 0x0 JUMPDEST DUP4 DUP2 LT ISZERO PUSH2 0xD57 JUMPI DUP1 DUP3 ADD MLOAD DUP2 DUP5 ADD MSTORE PUSH1 0x20 DUP2 ADD SWAP1 POP PUSH2 0xD3C JUMP JUMPDEST DUP4 DUP2 GT ISZERO PUSH2 0xD66 JUMPI PUSH1 0x0 DUP5 DUP5 ADD MSTORE JUMPDEST POP POP POP POP JUMP JUMPDEST PUSH1 0x0 PUSH1 0x2 DUP3 DIV SWAP1 POP PUSH1 0x1 DUP3 AND DUP1 PUSH2 0xD84 JUMPI PUSH1 0x7F DUP3 AND SWAP2 POP JUMPDEST PUSH1 0x20 DUP3 LT DUP2 EQ ISZERO PUSH2 0xD98 JUMPI PUSH2 0xD97 PUSH2 0xDCF JUMP JUMPDEST JUMPDEST POP SWAP2 SWAP1 POP JUMP JUMPDEST PUSH2 0xDA7 DUP3 PUSH2 0xE41 JUMP JUMPDEST DUP2 ADD DUP2 DUP2 LT PUSH8 0xFFFFFFFFFFFFFFFF DUP3 GT OR ISZERO PUSH2 0xDC6 JUMPI PUSH2 0xDC5 PUSH2 0xDFE JUMP JUMPDEST JUMPDEST DUP1 PUSH1 0x40 MSTORE POP POP POP JUMP JUMPDEST PUSH32 0x4E487B7100000000000000000000000000000000000000000000000000000000 PUSH1 0x0 MSTORE PUSH1 0x22 PUSH1 0x4 MSTORE PUSH1 0x24 PUSH1 0x0 REVERT JUMPDEST PUSH32 0x4E487B7100000000000000000000000000000000000000000000000000000000 PUSH1 0x0 MSTORE PUSH1 0x41 PUSH1 0x4 MSTORE PUSH1 0x24 PUSH1 0x0 REVERT JUMPDEST PUSH1 0x0 DUP1 REVERT JUMPDEST PUSH1 0x0 DUP1 REVERT JUMPDEST PUSH1 0x0 DUP1 REVERT JUMPDEST PUSH1 0x0 DUP1 REVERT JUMPDEST PUSH1 0x0 PUSH1 0x1F NOT PUSH1 0x1F DUP4 ADD AND SWAP1 POP SWAP2 SWAP1 POP JUMP JUMPDEST PUSH32 0x50617469656E7420697320616C72656164792072656769737465726564000000 PUSH1 0x0 DUP3 ADD MSTORE POP JUMP JUMPDEST PUSH2 0xE84 DUP2 PUSH2 0xCC6 JUMP JUMPDEST DUP2 EQ PUSH2 0xE8F JUMPI PUSH1 0x0 DUP1 REVERT JUMPDEST POP JUMP JUMPDEST PUSH2 0xE9B DUP2 PUSH2 0xD20 JUMP JUMPDEST DUP2 EQ PUSH2 0xEA6 JUMPI PUSH1 0x0 DUP1 REVERT JUMPDEST POP JUMP INVALID LOG2 PUSH5 0x6970667358 0x22 SLT KECCAK256 SHL 0xAE 0x1E SELFBALANCE PUSH1 0x35 SAR 0xEE 0x2C 0x4F DUP7 MSTORE 0xC3 PUSH14 0x77008309FDC4E5671015F6E0B22F EXTCODEHASH 0x4B 0xAE PUSH4 0x64736F6C PUSH4 0x43000807 STOP CALLER "
				},
				"gasEstimates": {
					"creation": {
						"codeDepositCost": "761400",
						"executionCost": "25058",
						"totalCost": "786458"
					},
					"external": {
						"authCheck(address)": "infinite",
						"author()": "2558",
						"cards(uint256)": "infinite",
						"fetchData(address)": "5140",
						"patients(address)": "infinite",
						"registerPatient(uint256,string,string,string)": "infinite"
					}
				},
				"methodIdentifiers": {
					"authCheck(address)": "da300116",
					"author()": "a6c3e6b9",
					"cards(uint256)": "8dc10768",
					"fetchData(address)": "c4bfd57d",
					"patients(address)": "0869cfbc",
					"registerPatient(uint256,string,string,string)": "89c47f08"
				}
			},
			"storageLayout": {
				"storage": [
					{
						"astId": 28,
						"contract": "contracts/3_Data.sol:Data",
						"label": "counter",
						"offset": 0,
						"slot": "0",
						"type": "t_uint256"
					},
					{
						"astId": 30,
						"contract": "contracts/3_Data.sol:Data",
						"label": "author",
						"offset": 0,
						"slot": "1",
						"type": "t_address"
					},
					{
						"astId": 35,
						"contract": "contracts/3_Data.sol:Data",
						"label": "patients",
						"offset": 0,
						"slot": "2",
						"type": "t_mapping(t_address,t_struct(Patient)21_storage)"
					},
					{
						"astId": 39,
						"contract": "contracts/3_Data.sol:Data",
						"label": "cards",
						"offset": 0,
						"slot": "3",
						"type": "t_array(t_struct(Card)26_storage)dyn_storage"
					}
				],
				"types": {
					"t_address": {
						"encoding": "inplace",
						"label": "address",
						"numberOfBytes": "20"
					},
					"t_address_payable": {
						"encoding": "inplace",
						"label": "address payable",
						"numberOfBytes": "20"
					},
					"t_array(t_struct(Card)26_storage)dyn_storage": {
						"base": "t_struct(Card)26_storage",
						"encoding": "dynamic_array",
						"label": "struct Data.Card[]",
						"numberOfBytes": "32"
					},
					"t_bool": {
						"encoding": "inplace",
						"label": "bool",
						"numberOfBytes": "1"
					},
					"t_bytes32": {
						"encoding": "inplace",
						"label": "bytes32",
						"numberOfBytes": "32"
					},
					"t_mapping(t_address,t_struct(Patient)21_storage)": {
						"encoding": "mapping",
						"key": "t_address",
						"label": "mapping(address => struct Data.Patient)",
						"numberOfBytes": "32",
						"value": "t_struct(Patient)21_storage"
					},
					"t_string_storage": {
						"encoding": "bytes",
						"label": "string",
						"numberOfBytes": "32"
					},
					"t_struct(Card)26_storage": {
						"encoding": "inplace",
						"label": "struct Data.Card",
						"members": [
							{
								"astId": 23,
								"contract": "contracts/3_Data.sol:Data",
								"label": "name",
								"offset": 0,
								"slot": "0",
								"type": "t_bytes32"
							},
							{
								"astId": 25,
								"contract": "contracts/3_Data.sol:Data",
								"label": "ID",
								"offset": 0,
								"slot": "1",
								"type": "t_uint256"
							}
						],
						"numberOfBytes": "64"
					},
					"t_struct(Patient)21_storage": {
						"encoding": "inplace",
						"label": "struct Data.Patient",
						"members": [
							{
								"astId": 4,
								"contract": "contracts/3_Data.sol:Data",
								"label": "ID",
								"offset": 0,
								"slot": "0",
								"type": "t_uint256"
							},
							{
								"astId": 6,
								"contract": "contracts/3_Data.sol:Data",
								"label": "healthy",
								"offset": 0,
								"slot": "1",
								"type": "t_uint256"
							},
							{
								"astId": 8,
								"contract": "contracts/3_Data.sol:Data",
								"label": "name",
								"offset": 0,
								"slot": "2",
								"type": "t_string_storage"
							},
							{
								"astId": 10,
								"contract": "contracts/3_Data.sol:Data",
								"label": "disease",
								"offset": 0,
								"slot": "3",
								"type": "t_string_storage"
							},
							{
								"astId": 12,
								"contract": "contracts/3_Data.sol:Data",
								"label": "medicines",
								"offset": 0,
								"slot": "4",
								"type": "t_string_storage"
							},
							{
								"astId": 14,
								"contract": "contracts/3_Data.sol:Data",
								"label": "reg",
								"offset": 0,
								"slot": "5",
								"type": "t_bool"
							},
							{
								"astId": 16,
								"contract": "contracts/3_Data.sol:Data",
								"label": "key",
								"offset": 0,
								"slot": "6",
								"type": "t_uint256"
							},
							{
								"astId": 18,
								"contract": "contracts/3_Data.sol:Data",
								"label": "client",
								"offset": 0,
								"slot": "7",
								"type": "t_address_payable"
							},
							{
								"astId": 20,
								"contract": "contracts/3_Data.sol:Data",
								"label": "dest",
								"offset": 0,
								"slot": "8",
								"type": "t_address_payable"
							}
						],
						"numberOfBytes": "288"
					},
					"t_uint256": {
						"encoding": "inplace",
						"label": "uint256",
						"numberOfBytes": "32"
					}
				}
			},
			"userdoc": {
				"kind": "user",
				"methods": {},
				"version": 1
			}
		}
	}
}